:020000040800F2
:1000000060140020D5010008EB29000885210008B4
:10001000E92900085D050008612E000800000000C5
:10002000000000000000000000000000E7010008E0
:100030003308000800000000EB010008A12A0008B6
:10004000EF010008EF010008EF010008EF010008D0
:10005000EF010008EF010008EF010008EF010008C0
:10006000EF010008EF010008EF010008EF010008B0
:10007000EF01000831080008EF010008EF01000857
:10008000EF010008EF010008EF010008EF01000890
:10009000EF010008EF010008EF010008EF01000880
:1000A000EF010008EF010008EF010008EF01000870
:1000B000EF010008EF010008EF010008EF01000860
:1000C000EF010008EF010008EF010008EF01000850
:1000D000EF010008EF010008EF010008EF01000840
:1000E000EF010008EF010008EF010008EF01000830
:1000F000EF010008EF010008EF010008EF01000820
:10010000EF010008EF010008EF010008EF0100080F
:10011000EF010008EF010008052B0008EF010008BF
:10012000EF010008EF010008EF010008EF010008EF
:1001300000F002F800F03FF80AA090E8000C8244BA
:100140008344AAF10107DA4501D100F034F8AFF297
:10015000090EBAE80F0013F0010F18BFFB1A43F0A5
:10016000010318475C6400007C640000103A24BF5F
:1001700078C878C1FAD8520724BF30C830C144BF0C
:1001800004680C607047000000230024002500264E
:10019000103A28BF78C1FBD8520728BF30C148BFEA
:1001A0000B607047642900F07780002070471FB50E
:1001B0001FBD10B510BD00F0A3F91146FFF7F7FF02
:1001C00004F054FD00F0C1F903B4FFF7F2FF03BCE3
:1001D00003F060FA0948804709480047FEE7FEE758
:1001E000FEE7FEE7FEE7FEE7FEE7FEE7FEE7FEE7E7
:1001F00004480549054A064B70470000032B0008D8
:10020000310100086008002060140020600C00200C
:10021000600C0020704700000FB4044910B503AA19
:10022000029800F037F910BC5DF814FB00000020C4
:100230002DE9F0410E460446002020622046E16888
:10024000884730B3252805D0D4E901219047206A9A
:10025000401CF2E7E168204600278847050018D0D7
:10026000A5F14100192802D820354FF40067324625
:10027000294620462760FFF795FF40B1012804D0AA
:10028000F61D26F007060836D8E7361DD6E72846BD
:10029000DAE7206ABDE8F0812DE9F0410646002446
:1002A00010687529314616A510D0AFF300800028DC
:1002B00002DA404213A507E031688A0701D512A58A
:1002C00002E0490704D511A5012401E0AFF3008045
:1002D00000210A2206F1240709E0B0FBF2FCB0FB82
:1002E000F2F302FB1C00303078541846491C0028F9
:1002F000F3D123462A463046BDE8F04100F070B8FD
:10030000000000002D0000002B0000002000000075
:1003100010B5203AC0F00B80B1E81850203AA0E8A0
:100320001850B1E81850A0E81850BFF4F5AF5FEAD4
:10033000027C24BFB1E81850A0E8185044BF18C987
:1003400018C0BDE810405FEA827C24BF51F8043B2E
:1003500040F8043B08BF7047D20728BF31F8023B82
:1003600048BF11F8012B28BF20F8023B48BF00F816
:10037000012B70474FF0000200B513469446964695
:10038000203922BFA0E80C50A0E80C50B1F12001A8
:10039000BFF4F7AF090728BFA0E80C5048BF0CC056
:1003A0005DF804EB890028BF40F8042B08BF7047B4
:1003B00048BF20F8022B11F0804F18BF00F8012B26
:1003C0007047704770477047704710B500F074F879
:1003D000006810BD10B5044600F06EF8046010BD52
:1003E0002DE9F0470D4699469246044600F124084F
:1003F0000168880604D5E06921F01001216000E061
:100400000120A84201DD471B00E00027A1697A19FD
:1004100002EB0900081AA0612078C00602D4204629
:10042000AFF30080002608E0D4E901211AF80600A5
:100430009047206A401C761C20624E45F4DB2078F1
:10044000C0060AD52046AFF3008006E0D4E90121BA
:1004500030209047206A401C2062381EA7F1010717
:10046000F4DC07E0D4E9012118F805009047206A80
:10047000401C2062281EA5F10105F3DC2046AFF3E5
:1004800000802078000602D50220BDE8F087012018
:10049000FBE70000074B70B50D467B4400F015F8F4
:1004A0000446284600F024F810B14FF0FF3070BD2C
:1004B000204670BD8B4400000048704700080020B3
:1004C00001694A1C02610878704700B58FB0CDE918
:1004D00001310021059105497944CDE90310114608
:1004E0006846FFF7A5FE0FB000BD0000E5FFFFFF67
:1004F000007B00F080007047004870470008002033
:100500007546FFF7F9FFAE4605006946534620F0F1
:100510000700854618B020B5FFF76AFEBDE8204009
:100520004FF000064FF000074FF000084FF0000BAF
:1005300021F00701AC46ACE8C009ACE8C009ACE862
:10054000C009ACE8C0098D46704710B50446AFF34A
:1005500000802046BDE81040FFF736BEFEE72DE9DB
:10056000F84F88600C4607461546C968906805F044
:10057000B7FC0090D4F810806868414605F0B0FCE4
:1005800083462168686905F0ABFC6668824631469F
:10059000286905F0A5FC81463946E86805F0A0FC0D
:1005A000494605F0EBFA514605F0E8FA594605F0E0
:1005B000CFFD009905F0CCFD6061C4E90380C4E97A
:1005C0000067BDE8F88F00002DE9FC4100252E46AC
:1005D000344613A0FFF720FE0027684601F0EEFF27
:1005E000BDF900000544BDF902000644BDF9040050
:1005F00004440520A4F5805400F09AF97F1C642F70
:10060000EBDB95FBF7F10C48016096FBF7F14160DD
:1006100094FBF7F1816009A0FFF7FEFDBDE8FC81C6
:100620004163632043616C6962726174696F6E201B
:1006300053746172740A0D00140400204163632036
:1006400043616C6962726174696F6E2053746F707C
:100650000A0D00002DE9FC41002425462E4612A07B
:10066000FFF7DAFD0027684601F0C3FFBDF900007F
:100670000444BDF902000544BDF904000644052008
:1006800000F056F97F1C642FEDDB94FBF7F10D4869
:10069000016095FBF7F1416096FBF7F181600AA0DC
:1006A000FFF7BAFDBDE8FC814779726F2043616CAA
:1006B0006962726174696F6E2053746172740A0D9D
:1006C00000000000200400204779726F2043616C15
:1006D0006962726174696F6E2053746F700A0D00E5
:1006E0002DE9FC5F504C4F4D2946A06A05F0F8FB00
:1006F00005F018FA04F078FB04F0A6FC2063294604
:10070000A06A05F0EDFB05F00DFA04F001F804F025
:100710009BFCE0632946E06A05F0E2FB05F002FA83
:1007200004F062FB04F090FC60632946E06A05F087
:10073000D7FB05F0F7F903F0EBFF04F085FC20642C
:100740002946606A05F0CCFB05F0ECF904F04CFB9F
:1007500004F07AFCA0632946606A05F0C1FB05F04D
:10076000E1F903F0D5FF04F06FFC6064216C0646EC
:10077000019105F0B5FB2D4D2860A16BE06B8A4619
:10078000009005F0ADFB0746616B206B8946834600
:1007900005F0A6FB8046314605F0A2FB394605F080
:1007A000D7FC68604946009805F09AFB0746314639
:1007B00005F096FB04465146584605F091FB21464C
:1007C00005F0DCF9A8605046019905F089FBE86066
:1007D0003146009805F084FB04464046514605F03A
:1007E0007FFB214605F0CAF928613146584605F0DD
:1007F00077FB04463846514605F072FB214605F06A
:10080000A7FC686189F00040A8615846019905F08D
:1008100067FBE861DDE9000105F062FB2862BDE8E5
:10082000FC9F000035FA8E3C3C0000208006002032
:100830007047704772B6FEE730B572B61A49496A1A
:1008400003781A4D1A4A41F288345BB183684360D9
:100850002D682D69ED071CD0A1421AD21268E41050
:10086000521C19E0012303702B681B69DB0706D0BB
:10087000A14204D2126840F27123521C02E01268B5
:1008800040F271235A4301EB021181604160002163
:1008900007E0126840F27124624301EB02118160AB
:1008A000C91AC16062B630BD00100040F8010020D6
:1008B0001C00002030B560B11A4B026814219A4226
:1008C00009D2194B1344B3FBF1F1890001641749B4
:1008D0000AE0012030BD134B5B421344B3FBF1F13E
:1008E000890001640F490839C163022180F8211091
:1008F000136843F6F0718B43F0E901142143D0E90A
:1009000002452C43214304692143446921438469FE
:10091000214319431160002141630122427701778D
:10092000084630BD08040240F8FFFDBF0000024049
:1009300070B5044600F00AF90546601C02D0044870
:100940000078044400F002F9401BA042FAD370BDC5
:10095000040000202DE9F84FDFF8C891002409F1C8
:10096000040A0AF1040B23460F270BF1040ED1E011
:100970000125A54006EA0502AA4276D1DFF8A8C102
:100980004E68A6EB0C0866452BD00DDC032E34D048
:1009900005DC36B3012E19D0022E2FD11BE0112E0B
:1009A00016D0122E2AD119E0B8F5881F19D006DC0E
:1009B000B8F5803F15D0B8F5801F1FD111E0B8F50C
:1009C000001F0ED0B8F5041F18D10AE0CB6815E05F
:1009D000CB681B1D12E0CB6808330FE0CB680C33EB
:1009E0000CE08B682BB1012B4FF0080303D045615D
:1009F00004E0042302E0056100E00023FF2A01D89F
:100A0000064601E000F104064FEA840501D9A5F18C
:100A10002005D6F8008007FA05FC28EA0C0803FA3E
:100A200005F548EA0508C6F800804D68ED0070D568
:100A30003E4DAE6946F00106AE61AD6924F0030695
:100A400005F0010500953A4D06EB050CDCF8085061
:100A5000A607360F07FA06F825EA0805DFF8D4805E
:100A6000404503D14FF0000825E052E0DFF8C88090
:100A7000404502D14FF001081DE0DFF8C08040453D
:100A800002D14FF0020816E0DFF8B480404502D1F1
:100A90004FF003080FE0DFF8AC80404502D14FF083
:100AA000040808E0DFF8A080404502D14FF00508B7
:100AB00001E04FF0060808FA06F848EA0508CCF805
:100AC00008804D68D9F80060ED034D4601D5164306
:100AD00000E096432E604D68DAF80060AD0355469D
:100AE00001D5164300E096432E604D68DBF80060A8
:100AF000ED025D4601D5164300E096432E604D6839
:100B0000DEF80060AD02754601D5164300E096435D
:100B10002E60641C0A681646E2407FF429AFBDE8E7
:100B2000F88F000000040140000011100010024086
:100B30000000014000080140000C0140001001408D
:100B40000014014000180140001C01400148806869
:100B5000704700000400002070B5040025D094F810
:100B60003D00002520B984F83C50204600F078FA7A
:100B7000242084F83D002068016821F00101016013
:100B80002068016841F4004101602068016821F497
:100B90000041016000F0C0FB4D4A6168914201D8FC
:100BA0004C4900E04C49884201D2012070BD4B49BC
:100BB0002368B0FBF1F15E6826F03F060E435E60ED
:100BC0006368934206D94FF4967359434FF47A738E
:100BD000B1FBF3F12368491C1E6A26F03F0631433E
:100BE00019626168914210D84900401EB0FBF1F2D1
:100BF000521CC2F30B02042A01D2042022E0B0FBF3
:100C0000F1F0401CC0F30B001CE0A268F2B301EB52
:100C1000C10303EB0116431EB3FBF6F35B1C43F465
:100C200080431B0549D092B301EBC10202EB0111D5
:100C3000401EB0FBF1F0401CC0F30B0040F48040BC
:100C400040F400402168CA694CF6FF739A43104390
:100C5000C861D4E9071001432068026822F0C0028D
:100C600011430160D4E9030101432068826848F21E
:100C7000FF339A4311438160D4E905010843216899
:100C8000CA6822F0FF021043C86001E00EE016E0DF
:100C90002068016841F0010101602564202084F88A
:100CA0003D00256384F83E50002070BD01EB4106F5
:100CB000431EB3FBF6F35B1CB3E70120C2E701EB75
:100CC0004101401EB0FBF1F0401CC0F30B00B7E740
:100CD000A086010080841E0000093D0040420F00F4
:100CE0002DE9FF4F83B00025DDE910799A46934640
:100CF0000446DDF848800095FFF728FF064694F883
:100D00003D0020287CD119230122854920460096E8
:100D100001F048FB0028F5D194F83C0001286FD081
:100D2000012084F83C0020680168C90703D10168EC
:100D300041F0010101602068016821F40061016057
:100D4000222084F83D00402084F83E00256467623C
:100D5000A4F82A90608D20857248E062CDE9008673
:100D600053465A462046049901F024FA00287DD1C2
:100D7000208DDFF8B491202768B1012814D0022813
:100D8000206801681ED041F48061016020684169DB
:100D900080690090B6E0206841698169009101682E
:100DA00041F400710160ADE02068016821F48061C8
:100DB000016072B62068416981690091016841F45F
:100DC00000710AE041F40061016072B62068416977
:100DD00081690091016821F48061016062B691E04F
:100DE000032868D801280CD0022843464FF000029F
:100DF0004946204600960FD001F0D4FAB0BB10E06F
:100E00008BE032464146204601F04BFB70BB206828
:100E10000069616A08706CE001F0C4FA30BB72B618
:100E200034E02068016821F48061016072B62068B6
:100E30000069616A0870606A401C6062208D401E13
:100E40002085608D401E6085384846F2A8110068F4
:100E5000B0FBF1F0C0EBC00000EB80000090401E42
:100E6000009008D020684069C04300E029E04007B6
:100E70000CD50098F3E744F8305F6773A5732069D9
:100E800040F02000206162B625731AE020680168F6
:100E900041F40071016020680069616A0870606A4D
:100EA000401C6062218D491E2185618D491E61852E
:100EB00062B621681BE032464146204601F0F1FA55
:100EC00018B1012007B0BDE8F08F20680069616AA1
:100ED0000870606A401C6062218D491E2185618D09
:100EE000491E618521684A69D24352070AD40969BB
:100EF0000170606A401C6062208D401E2085608DFC
:100F0000401E6085208D00287FF46AAF84F83D7014
:100F100084F83E5084F83C50D4E70220D2E7000029
:100F2000020010000000FFFF04000100100000207C
:100F30002DE9FF4F83B09A46DDE9119793460446A9
:100F4000DDF84080FFF702FE054694F83D002028BA
:100F50007FD11923012240492046009501F022FA51
:100F6000002876D194F83C00012872D0012084F842
:100F70003C0020680168C90703D1016841F0010104
:100F800001602068016821F400610160212084F87B
:100F90003D00402084F83E0000262664C4F82480EA
:100FA000A4F82A90608D20852C48E062CDE9007578
:100FB00053465A462046049901F07AF970B930E058
:100FC0002A463946204601F09FFA58B1206C042881
:100FD00004D12068016841F400710160012007B06C
:100FE000BDE8F08F606A216800780861606A401C83
:100FF0006062218D491E89B22185628D521E6285F3
:1010000022685369DB435B070BD469B10078106138
:10101000606A401C6062208D401E2085608D401EED
:101020006085208D0028CBD12A463946204601F024
:1010300093F90028CAD154F83D0B016841F40071BE
:101040000160202004F81E09E67766770020C6E7D5
:10105000FFE70220C3E70000020010000000FFFFCE
:1010600010B586B0002100910191029103910068B2
:101070000F4988421AD10F4CA06940F00800A061C6
:10108000A069694600F008000490C020009012207A
:101090000190032003900848FFF75CFCE06940F4EE
:1010A0000010E061E06900F40010049006B010BD8B
:1010B0000054004000100240000C014002488168CA
:1010C000027811448160704704000020074810B581
:1010D000016841F010010160032000F075F80F2055
:1010E00000F006F800F024F8002010BD00200240B7
:1010F00070B50D4D04464FF47A712878B1FBF0F0CD
:101100000A490968B1FBF0F000F0ECFA48B9102C7C
:1011100007D200222146501E00F036F800206C60F5
:1011200070BD012070BD00000400002010000020F0
:101130000C4808B5816941F001018161816901F0C4
:1011400001010091C16941F08051C161C06900F0A5
:10115000805000900448416821F0E06141F0007146
:10116000416008BD0010024000000140002809DB7A
:1011700000F01F02012191404009800000F1E020B1
:10118000C0F8001170470000F0B40E4B1B680C460D
:10119000C3F30223C3F10705042D00D90425191D4B
:1011A000072901D2002300E0DB1E012606FA05F123
:1011B000491E214099409E40761E16403143F0BCA6
:1011C00001F076BE0CED00E0064900F00702086869
:1011D0004FF6FF03184040EA0220034A104308601C
:1011E000704700000CED00E00000FA052DE9F04723
:1011F0000F46050061D0434E306800F00700B8424A
:1012000009D2306820F0070038433060306800F0C1
:101210000700B84251D128683B4C810712D54007DE
:1012200003D5606840F4E06060602878000703D56B
:10123000606840F4605060606068A96820F0F00069
:10124000084360602878C00728D06868012810D05B
:101250002168022810D0890700292EDA616821F060
:10126000030101436160FFF771FC804641F2883958
:101270000DE021688903EFE78901EDE7FFF766FCE0
:10128000A0EB0801494502D90320BDE8F08760685A
:10129000696800F00C00B0EB810FEFD1306800F00E
:1012A0000700B8420BD9306820F00700384330609F
:1012B000306800F00700B84201D00120E5E7287847
:1012C000400705D56068E96820F4E0600843606085
:1012D0002878000706D56068296920F4605040EA44
:1012E000C100606000F038F86168084AC1F303117A
:1012F000515CC8400649086006480068FFF7F8FEE0
:101300000020C2E70020024000100240766300087F
:1013100010000020080000200448054900684968C2
:10132000044AC1F30221515CC840704710000020FC
:1013300000100240866300080448054900684968B7
:10134000044AC1F3C221515CC8407047100000201C
:10135000001002408663000812A185B00FC98DE815
:101360000F0014A0144A006804905168134801F05B
:101370000C03042B10D0082B0ED1C1F38343C903F7
:101380001DF803000AD5516804AAC1F34041515C1D
:101390000A4A5043B0FBF1F005B070470849484392
:1013A000FAE7000002030405060708090A0B0C0D02
:1013B0000E0F1010010200000010024000127A000F
:1013C00000093D002DE9F84F040070D02078C04D91
:1013D000C00749D06868C0F38100012807D0686859
:1013E000C0F38100022809D16868C00306D52868C7
:1013F000800339D560680028E7D035E06068B0F533
:10140000803F0BD010B1B0F5A02F11D0286820F488
:1014100080302860286820F4802002E0286840F4AA
:1014200080302860606890B1FFF790FB06460AE0C4
:10143000286840F480202860F0E700BFFFF786FBB3
:10144000801B642873D828688003F7D50CE0FFF769
:101450007DFB064605E000BFFFF778FB801B642894
:10146000F0D828688003F7D420789A4E80074FF090
:1014700001094FF0000839D5686810F00C0F07D04B
:101480006868C0F38100022809D16868C00306D4E7
:101490002868800714D52069012808D110E0206948
:1014A000B0B1C6F80090FFF751FB074605E00AE12E
:1014B000FFF74CFBC01B0228C4D828688007F7D56B
:1014C0002868616920F0F80040EAC10028600DE05A
:1014D000C6F80080FFF73AFB074604E0FFF736FB4B
:1014E000C01B022823D828688007F7D4207800077B
:1014F0002CD57948A169D9B1C0F80090FFF726FB37
:10150000074604E0FFF722FBC01B02280FD8686AD9
:101510008007F7D571484FF4FA510068B0FBF1F03D
:10152000009000BF0098411E0091FAD20EE080E0CA
:10153000C0F80080FFF70AFB074604E0FFF706FB50
:10154000C01B022875D8686A8007F7D42078400746
:1015500060D5E8690027C00008D4E86940F08050F1
:10156000E861E869012700F0805000905C4801685C
:10157000C90513D40168834641F480710160FFF707
:10158000E5FA824606E000BFFFF7E0FAA0EB0A00AA
:1015900064284ED8DBF80000C005F5D5E0680128C6
:1015A0000AD008B1052813D0286A20F0010028626B
:1015B000286A20F0040002E0286A40F00100286256
:1015C000E06841F2883B98B1FFF7C0FA82460BE031
:1015D000286A40F004002862EEE700BFFFF7B6FA81
:1015E000A0EB0A0159455AD8286A8007F6D50CE0C5
:1015F000FFF7ACFA824605E0FFF7A8FAA0EB0A0174
:1016000059454CD8286A8007F6D41FB1E86920F004
:101610008050E861E06988B36968C1F381010229FB
:1016200044D00228C6F8608004D0FFF78FFA044641
:1016300038E034E0FFF78AFA074604E0FFF786FA5D
:10164000C01B02282BD828688001F7D4206AB0F587
:10165000803F05D16868A16820F4003008436860C5
:10166000D4E908010843696821F4741108436860EB
:10167000C6F86090FFF76AFA044606E025E000BF6E
:10168000FFF764FA001B022809D828688001F7D503
:101690001BE000BFFFF75AFA001B022802D9032003
:1016A000BDE8F88F28688001F4D40EE00128F7D057
:1016B0006868226A00F48031914204D1616A00F4C2
:1016C0007010884201D00120EAE70020E8E700001E
:1016D00000100240000042428004424210000020FC
:1016E0000070004010B5401EB0F1807F01D3012092
:1016F00010BD4FF0E02460610F21601701F0D8FBAE
:101700000020A06107202061002010BD70477047B5
:1017100010B590F83C20012A22D0012280F83C200C
:10172000CA688C6822F4407222434C6822F48062BA
:1017300022430C6822F4006222430C6922F4805296
:1017400022434C6922F400522243C969002322F447
:1017500080420A4301684A6480F83C30002010BD92
:10176000022010BD70B590F83C20012A2CD0012435
:1017700080F83C40022280F83D2003685A689D684A
:1017800022F070060A6832435A60104B02689A428F
:101790000ED00F4B9A420BD0B2F1804F08D00D4BB8
:1017A0009A4205D00C4B9A4202D00C4B9A4204D17B
:1017B000496825F080031943916080F83D4000217D
:1017C00080F83C10084670BD022070BD002C01401E
:1017D000003401400004004000080040000C0040BC
:1017E00010B5040003D094F83D0010B107E00120CB
:1017F00010BD002084F83C00204600F01FF80220B5
:1018000084F83D00211D206801F082F9012084F850
:10181000460084F83E0084F83F0084F8400084F8D5
:10182000410084F8420084F8430084F8440084F8BE
:10183000450084F83D00002010BD000008B5174A9F
:1018400001681748914207D1816941F400618161C3
:10185000806900F4006009E0124A914208D1C16930
:1018600041F00401C161C06900F00400009008BDAE
:101870000D4A9142FBD1C16941F01001C161C069BB
:10188000002200F01000009011463620FFF77CFC8B
:10189000BDE808403620FFF769BC0000002C01407D
:1018A00000100240000800400010004090F83D1079
:1018B000012901D001207047022180F83D10016804
:1018C000CA6842F00102CA6000680E4988420ED020
:1018D0000D4988420BD0B0F1804F08D00B498842A7
:1018E00005D00B49884202D00A49884204D1816858
:1018F00001F00701062903D0016841F001010160F0
:1019000000207047002C01400034014000040040DA
:1019100000080040000C004070B5044690F83C0000
:10192000012817D0012584F83C50022084F83D009E
:101930002068826822F0770222F47F428260086881
:10194000502830D00DDC20284DD005DC98B310286D
:101950003BD148E0022070BD302844D0402834D12B
:1019600039E0602828D0702806D0B0F5805F2CD0F0
:10197000B0F5005F29D10AE0CB68D1E901212068E8
:1019800001F019F92068816841F0770109E0CB681E
:10199000D1E90121206801F00EF92068816841F445
:1019A0008041816011E0CA684968206801F0D8F977
:1019B0005021206807E016E0CA684968206801F0F5
:1019C000E0F96021206801F000F984F83D50002022
:1019D00084F83C0070BDCA684968206801F0C0F90D
:1019E00040212068EFE7226801461046EBE72DE929
:1019F000F0410D46040003D094F83D0018B108E012
:101A00000120BDE8F081002084F83C00204600F071
:101A100041F8022084F83D002068816844F2070202
:101A200091438160211D206801F072F8226890685E
:101A30009169166A2B68AF69034340F20330814312
:101A400041EA0721A868EF6908434FF6FC41884343
:101A5000E96840EA0720014328692F6A000140EA4B
:101A60000730084369686D6926F0220646EA0515C5
:101A7000294393602268906154F8460B016201206B
:101A800004F81F09E0752076E0762077A075002025
:101A9000B7E7000000B585B00021009101910291E7
:101AA0000391026818491948B2F1804F19D0184BB8
:101AB0009A4214D1CA6942F00202CA61CA6902F0AC
:101AC000020204928A6942F004028A61896901F083
:101AD00004010491C02100916946FEF73BFF05B067
:101AE00000BDCA6942F00102CA61CA6902F001027E
:101AF00004928A6942F004028A61896901F0040152
:101B000004910321E7E700000010024000080140B3
:101B10000004004070B590F83E60044690F83F50D5
:101B200090F8423090F84320022021B104290ED0D1
:101B3000012E1BD114E0012E18D1012B16D184F8EF
:101B40003E0084F8420001220021206820E0012D9F
:101B50000CD1012A0AD184F83F0084F8430014E034
:101B6000012D03D1012B01D1012A01D0012070BD2B
:101B700084F83E0084F83F0084F8420084F8430073
:101B800001220021206801F009F8012204212068C7
:101B900001F004F82068016841F0010101600020B3
:101BA00070BD704770B50446006801694FF00005CC
:101BB000C943890715D4C168C943890711D4E91EEF
:101BC000016101202077206880698007204602D0CB
:101BD000FFF7E7FF04E000F0D7F8204600F066F9D1
:101BE000257720680169C943490717D4C168C943EB
:101BF000490713D46FF004010161022020772068A7
:101C0000806910F4407F204602D0FFF7CAFF04E04D
:101C100000F0BAF8204600F049F9257720680169FC
:101C2000C943090716D4C168C943090712D46FF024
:101C300008010161042020772068C06980072046E0
:101C400002D0FFF7AEFF04E000F09EF8204600F05F
:101C50002DF9257720680169C943C90617D4C168E1
:101C6000C943C90613D46FF0100101610820207721
:101C70002068C06910F4407F204602D0FFF791FF32
:101C800004E000F081F8204600F010F92577206884
:101C90000169C943C90708D1C168C943C90704D14B
:101CA000891E0161204600F05DF920680169C94381
:101CB000090609D4C168C943090605D46FF080013B
:101CC00001612046FFF722FD20680169C9434906EA
:101CD00009D4C168C943490605D46FF040010161C8
:101CE000204600F0C5F920680169C94389060BD474
:101CF000C168C943890607D46FF0200101612046FD
:101D0000BDE87040FFF703BD70BD000000B585B0B1
:101D100000210091019102910391164B026816482F
:101D200002219A420FD1826942F0040282618069E5
:101D3000039100F0040004904FF41060CDE900011D
:101D400069460E4811E00E4B9A4210D1826942F06A
:101D5000080282618069039100F0080004904FF44A
:101D60004070CDE9000169460648FEF7F3FD05B075
:101D700000BD0000002C014000100240000801409E
:101D800000080040000C0140704770B5044690F810
:101D90003C000D4601280AD0012084F83C0042B1E5
:101DA000042A18D0082A2AD00C2A4DD139E0022062
:101DB00070BD206800F012FF2068816941F00801C1
:101DC00081612068816921F0040181612068816955
:101DD0002A69114311E0206800F030FF2068816912
:101DE00041F4006181612068816921F48061816131
:101DF000206881692A6941EA0221816124E0206822
:101E000000F052FF2068C16941F00801C1612068FB
:101E1000C16921F00401C1612068C1692A691143C7
:101E200011E0206800F074FF2068C16941F400618E
:101E3000C1612068C16921F48061C1612068C16904
:101E40002A6941EA0221C161002084F83C0070BD8A
:101E500010B5040003D094F83D0010B107E0012054
:101E600010BD002084F83C00204600F01EF802203F
:101E700084F83D00211D206800F04AFE012084F80E
:101E8000460084F83E0084F83F0084F8400084F85F
:101E9000410084F8420084F8430084F8440084F848
:101EA000450084F83D00002010BD704770470000D9
:101EB00010B50446022249B104290ED0082913D0D6
:101EC00094F84100012816D0012010BD94F83E007E
:101ED0000128F9D184F83E200FE094F83F00012852
:101EE000F2D184F83F2008E094F840000128EBD1BB
:101EF00084F8402001E084F841200122206800F0AD
:101F00004DFE13492068134A884201D0904203D104
:101F1000436C43F400434364206888420DD09042F0
:101F20000BD0B0F1804F08D00B49884205D00B4947
:101F3000884202D00A49884204D1816801F0070131
:101F4000062903D0016841F001010160002010BDA5
:101F5000002C014000340140000400400008004013
:101F6000000C004070B5324805220168491C016030
:101F700041680968B1FBF2F302FB1311002956D145
:101F80008168491C816002F0DBFC01F0BBFB022090
:101F900002F016FF274C2061032002F011FF264DAE
:101FA0000246286125A02169FEF736F920692969D2
:101FB0002A4E0844B061306803F016FF6061706813
:101FC00003F012FF68612649204602F0D7FD24493C
:101FD000284602F0D3FD23480321006804F08DF960
:101FE000044621480068054603F0FEFEC821484328
:101FF00003F016FF214603F0C1FD0146002003F067
:10200000BDFD03F0F1FE04461848854205DD0021C0
:10201000012002F091FE002104E02146012002F09F
:102020008BFE6142BDE87040022002F085BE70BDAB
:10203000140000202C0400204404002041B5C4CB2F
:10204000D9B6C8CAC72025642C2042B5C4CBD9B69E
:10205000C8CAC7202564200D0A000000C80200205D
:102060005C040020F407002064000020000070429F
:10207000704770B5040004D094F83D00002510B1FD
:1020800006E0012070BD84F83C50204600F022F8A4
:10209000242084F83D002068C16821F40051C1600B
:1020A000204600F081FE2068016921F49041016121
:1020B0002068416921F02A0141612068C16841F42A
:1020C0000051C1602564202084F83D0084F83E0062
:1020D000002070BD70B586B00025064600950195BC
:1020E000029503950068224988423FD12149C86979
:1020F00040F48020C861C86900F480200490886999
:1021000040F00800886188691B4C00F008000490CA
:102110000815009002200190032003906946204694
:10212000FEF718FCE014CDE900056946204602954B
:10213000FEF710FC124C1148C4E900058020C4E9E8
:102140000250256140016561C4E906502046FEF752
:10215000B1FB08B1FEF76EFBB463002211462720E5
:102160006662FFF711F82720FFF700F806B070BD90
:102170000048004000100240000C014030000240C6
:1021800084020020FEE701684A69D24352050FD459
:102190006FF480624A61002140F8301F20224273B0
:1021A0008173026942F004020261017301207047E9
:1021B000002070472DE9F84F0446006889460B9DC2
:1021C00001689846174641F4806101602068016803
:1021D00041F48071016000954FF0011B00225946C7
:1021E00020460A9B00F0DEF84FF4007A40B12068E8
:1021F0000068C00501D5C4F840A00320BDE8F88FF1
:10220000216809F0FE0008612B46284920460A9AF9
:1022100000F0FCF8F0BB20684169806900902A4614
:1022200020460A9900F070F940B1206C04283AD198
:102230002068016841F40071016034E0FEB2B8F139
:10224000010F09D02168380A08612A4620460A99F8
:1022500000F05AF90028E8D1206806612A46204695
:102260000A9900F051F90028DFD12068016841F493
:102270008071016000950022594620460A9B00F0BB
:1022800091F80028B3D1216809F0FF0040F0010067
:10229000086100E007E02B46044920460A9A00F056
:1022A000B5F80028AAD00120A8E70000020001002C
:1022B0002DE9F843044600680D46DDE908970168FA
:1022C0009846164641F4807101604B4600224FF05B
:1022D00001112046009700F065F848B120680068B9
:1022E000C00502D54FF4007020640320BDE8F883D8
:1022F000216805F0FE0008613B464A461549204624
:1023000000F084F888B920684169806900903A46F5
:102310004946204600F0F8F848B1206C042804D162
:102320002068016841F4007101600120DEE7F5B228
:10233000B8F1010F09D02168300A08613A464946D0
:10234000204600F0E1F80028E7D120680561002070
:10235000CCE700000200010070B516460D460446A9
:102360000DE02046FFF70FFF08B1012070BD681C8B
:1023700005D0FEF7EBFB801BA84207D835B12068DB
:102380004069C0434007ECD4002070BD002044F8F1
:10239000300F20216173A073216941F02001216178
:1023A0002073E2E72DE9F0471E4690460D460446AD
:1023B000C1F30747DDF8209008E0701C06D0FEF757
:1023C000C5FBA0EB0900B0420FD876B12068012F01
:1023D00018D0806925EA00000004000C14D0002108
:1023E0004145EAD00020BDE8F087002044F8300FD6
:1023F00020216173A073216941F0200121612073C4
:102400000120F0E74069E5E70121E9E72DE9F04720
:102410009A4691460E46044600254FF02008C1F327
:10242000074725E020684069C043400514D4206870
:10243000016841F40071016021686FF480604861B7
:10244000256384F83D8084F83E50206C40F0040001
:10245000206484F83C501FE0B9F1FF3F08D0FEF73C
:1024600075FBA0EB0A0149450CD8B9F1000F09D062
:102470002068012F13D0806926EA00000004000CB8
:102480000BD0CFE744F8305F84F80D80A573206946
:1024900040F02000206125730120BDE8F0874069ED
:1024A000EAE72DE9F041002590460E460446202734
:1024B00017E04069C043C0060CD454F8301B6FF0DD
:1024C0001000486144F810596777A577206A2062A8
:1024D000257717E0FEF73AFBA0EB0800B04208D8DA
:1024E0003EB120684169C9434906E2D40020BDE8F5
:1024F000F08144F8305F6773A573206940F02000D5
:10250000206125730120F2E770B516460D4604469A
:102510000DE02046FFF737FE08B1012070BD681CB2
:1025200005D0FEF713FB801BA84207D835B1206801
:102530004069C0430006ECD4002070BD002044F880
:10254000300F20216173A073216941F020012161C6
:102550002073E2E708B56A467521682002F0C2FAE6
:102560009DF80000682801D0002008BD012008BDAA
:1025700010B500204FF47A720221491C9142FCDB15
:10258000401C9042F8DB00226B21682002F0BEFA6A
:1025900000221921682002F0B9FA00221A216820CD
:1025A00002F0B4FA08221B21682002F0AFFA1022D0
:1025B0001C21BDE81040682002F0A8BA7CB5054691
:1025C000052406E006236A463B21682002F076FADD
:1025D00010B1641EE4B2F5D2BDF8000040BA288004
:1025E000BDF8020040BA6880BDF8040040BAA88077
:1025F0007CBD7CB50546052406E006236A464321DA
:10260000682002F05BFA10B1641EE4B2F5D2BDF8A6
:10261000000040BA2880BDF8020040BA6880BDF8CA
:10262000040040BAA8807CBD38B50546052406E004
:1026300002236A464121682002F040FA10B1641E6C
:10264000E4B2F5D2BDF8000040BA00B203F0E8FBF6
:10265000034903F007FB034903F090FA286038BDF3
:102660000000AA43B81E1242094808B5416941F06A
:10267000010141614069002200F001000090114613
:102680000D20FEF781FDBDE808400D20FEF76EBD70
:10269000001002400D4808B5816941F020018161B8
:1026A000816901F020010091816941F0040181619B
:1026B000816901F004010091816941F008018161A3
:1026C000806900F00800009008BD00000010024082
:1026D0000D4810B50B4901600C49416000214FF4D1
:1026E00080428160C0E9031241618161C161016280
:1026F000FEF732FA002803D0BDE81040FEF79AB882
:1027000010BD00000054004084000020A08601009D
:1027100010B596B000240F94109411941294139451
:102720001C2168461494FDF725FE202107A8FDF71B
:1027300021FE2C482A49C0E9001441F61F41C0E996
:10274000024180210461C0E90541FFF749F808B161
:10275000FEF770F84FF480500F900FA92148FFF753
:10276000DBF808B1FEF766F81E48FFF771FB08B109
:10277000FEF760F8139413A91A481494FEF7F2FFB9
:1027800008B1FEF757F86020CDE9000402940394E5
:10279000049405940022694612480694FFF7F5FA5E
:1027A00008B1FEF747F80C2269460E48FFF7EDFA2C
:1027B00008B1FEF73FF80794089409944FF40050CD
:1027C0000A94CDE90B4007A906480E94FEF7A0FF36
:1027D00008B1FEF72FF80348FFF798FA16B010BDBE
:1027E000002C0140D800002010B58CB02421684690
:1027F000FDF7C0FD0024164809944FF080410A946B
:10280000C0E900144FF6FF71C0E902410461846120
:102810000320CDE900040120CDE902040C2104913C
:10282000CDE90540CDE9074169460948FFF7DFF8E2
:1028300008B1FDF7FFFF099409A905480A94FEF7BE
:1028400091FF002801D0FDF7F5FF0CB010BD00008E
:102850002001002010B58CB024216846FDF78AFDC8
:1028600000241648099414490A94C0E900144FF64C
:10287000FF71C0E90241046184610320CDE90004D5
:102880000120CDE902040C210491CDE90540CDE9F8
:10289000074169460948FFF7AAF808B1FDF7CAFFE2
:1028A000099409A905480A94FEF75CFF002801D0A5
:1028B000FDF7C0FF0CB010BD00040040680100200F
:1028C00010B58EB000240794089409940A940B94D0
:1028D0001C2168460C94FDF74DFD22482049C0E9B3
:1028E000001441F61F41C0E9024180210461816169
:1028F000FEF776FF08B1FDF79DFF4FF4805007907B
:1029000007A91848FFF708F808B1FDF793FF154825
:10291000FFF79EFA08B1FDF78DFF0B940BA9114844
:102920000C94FEF71FFF08B1FDF784FF6020CDE98E
:1029300000040294082269460A480494FFF725FA25
:1029400008B1FDF777FF0C2269460648FFF71DFA2C
:1029500008B1FDF76FFF0348FFF7D8F90EB010BDBF
:1029600000080040B00100201CB500240F4800946E
:102970000D49019401604721C0E9011440F2E7319B
:10298000C16080218161FEF72BFF08B1FDF752FF86
:102990000094694605480194FEF7E4FE002801D042
:1029A000FDF748FF1CBD000000100040F8010020AA
:1029B0000C4810B50A4901604FF4E1314160002133
:1029C00081600C22C160C0E904128161C161FFF71E
:1029D00050FB002803D0BDE81040FDF72BBF10BD11
:1029E0000048004040020020FEE7FEE72DE9F05FCE
:1029F0001446894603F036F90146274803F032F9B8
:102A000002F068FA8046014603F06AFA8346DFF86E
:102A10008CA05D46504601F0C9FE012103F06DFC1B
:102A2000414603F05DFA4FF07E56314603F0A6F8BA
:102A3000294603F0A3F80746B9F5000F2ADB5846EC
:102A4000394603F00FF905460121E06003F055FC1B
:102A50002660C4E904055846314603F079FB01219C
:102A600003F04BFC394603F0FDF860605D465046CC
:102A700001F09CFE012103F040FC414603F030FAD6
:102A8000314603F05BFB294603F078F8394603F042
:102A9000E9F8A060BDE8F09FDA0F4940DA0F493F3E
:102AA000FEF70CBB30B58FB028216846FDF762FCFD
:102AB00014210AA8FDF75EFC01210804CDE90010ED
:102AC0000024029402250491CDE907504FF4E01050
:102AD00009906846FEF776FC08B172B6FEE70F2053
:102AE000CDE90A054FF48060CDE90C4002210AA827
:102AF0000E94FEF77BFB002801D072B6FEE70FB004
:102B000030BD70470148FFF74DB80000F8010020C4
:102B1000F0B502681C4B1D4D1D4E1E4F1E4C4FF054
:102B2000804C984209D0A04207D0604505D0A84209
:102B300003D0B04201D0B84204D122F0700E4A68EE
:102B400042EA0E02984209D0A04207D0604505D063
:102B5000A84203D0B04201D0B84203D122F440755C
:102B6000CA682A434D6922F080022A4302608A68BB
:102B7000C2620A688262984201D0A04201D109690A
:102B8000016301214161F0BD002C014000040040BF
:102B900000080040000C00400034014010B501F076
:102BA0001F030121046A99408C430462016A9A4020
:102BB0001143016210BD10B5846842EA032224F477
:102BC0007F440A432243826010BD826822F0700273
:102BD0000A4342F00701816070470000F0B5026AC5
:102BE00022F001020262036A42688469124E24F0F4
:102BF00073050C682C4323F002058B682B430D4DA5
:102C0000A84201D0B04205D123F00807CB683B436E
:102C100023F00403A84201D0B04205D14D6922F44B
:102C2000407215438A692A4342608461496841635E
:102C30000362F0BD002C014000340140F0B5026A8F
:102C400022F010020262026A436884690D6824F46B
:102C5000E64444EA05248D6822F0200242EA051287
:102C60000F4D104EA84201D0B04206D1CF6822F0DD
:102C7000800242EA071222F04002A84201D0B0428C
:102C800007D14D6923F4406343EA85038D6943EA24
:102C9000850343608461496881630262F0BD00007E
:102CA000002C014000340140F0B5026A22F4807229
:102CB0000262026A4368C46922F4007224F0730558
:102CC0000C68124E2C438D6842EA05220E4DA84234
:102CD00001D0B04206D1CF6822F4006242EA072256
:102CE00022F48062A84201D0B04207D14D6923F49A
:102CF000405343EA05138D6943EA05134360C461F9
:102D00004968C1630262F0BD002C014000340140FB
:102D100030B5026A22F480520262046A4268C369D2
:102D20000D6823F4E64343EA05238D6824F4005438
:102D300044EA0534084DA84202D0084DA84204D107
:102D40004D6922F4804242EA85124260C3614968BB
:102D50000164046230BD0000002C014000340140D9
:102D600010B5036A046A24F001040462846924F043
:102D7000F00444EA021423F00A020A438461026266
:102D800010BD10B5036A23F0100303628369046A5F
:102D900023F4704343EA023224F0A00343EA011112
:102DA0008261016210BD000070B5044600680169CF
:102DB000E26821F44051114301612169A068084390
:102DC000616908432168CA6841F20C639A4302436F
:102DD000CA6020684169A26921F4407111434161D0
:102DE0001E492068884202D1FEF7A6FA01E0FEF7EC
:102DF00093FA00EBC00101EB0012606864218000CF
:102E0000B2FBF0F3B3FBF1F36FF018067343B2FBC0
:102E1000F0F5B2FBF0F605EB8305322303EB051565
:102E2000B5FBF1F5B6FBF1F605F0F00505EB06157F
:102E3000B2FBF0F6B2FBF0F0B0FBF1F06FF018026D
:102E4000504306EB800003EB0010B0FBF1F021686B
:102E500000F00F002844886070BD00000038014079
:102E6000FEE7490050EAC12018BF04204A0D18BFF0
:102E700040F0010040F2FF72B2EB515F08BF40F03A
:102E80000200012808BF052070474100080218BF52
:102E900004200A0E18BF40F001004FF07F4232EAD2
:102EA000010108BF40F00200012808BF052070475B
:102EB0000907090E002804DB00F1E02080F8001467
:102EC000704700F00F0000F1E02080F8141D7047FB
:102ED0002DE9F74F144694B00021C4E90211159969
:102EE000079121F00045C9498D4206DC1599C4E9D6
:102EF000000117B00020BDE8F08FC549DFF814A32A
:102F0000A9423CDD0799C44E0029C44FC44A159913
:102F1000534619DD02F01CFD554506D0C14AC24B8F
:102F200002F016FDC4E900010AE04FF0D352BE4B97
:102F300002F00EFD32463B4602F00AFDC4E90001F4
:102F400017B00120BDE8F08F02F0B0F8554506D06B
:102F5000B44AB54B02F0AAF8C4E900010AE04FF008
:102F6000D352B14B02F0A2F832463B4602F09EF833
:102F7000C4E9000117B04FF0FF30BDE8F08FAB4956
:102F8000A942159978DB21F0004183468846A84A7A
:102F9000A84B02F0EDFA0022A74B02F087F802F0EE
:102FA0008DFA099002F0B9FA06460F469C4A53463C
:102FB00002F0DEFA43465A4602F0D8FB80468A46C3
:102FC000984A994B3046394602F0D2FA2A0D01252B
:102FD0000B924246534602F0C9FB032DC4E900019F
:102FE00039D00B98C1F30A51401A05EB451111393C
:102FF000814230DA9148C346784400EB0510CDF8A1
:103000000CA00C90D0E900233046394602F0B0FA0B
:1030100002460B46049106905846039902F098FC2C
:1030200080468A4602460B465846039902F090FCB9
:10303000049B069A02F08CFC83460C980391394657
:10304000D0E90223304602F093FA5A46039B02F07D
:103050007FFC6D1CBDE707980028A2BF099817B038
:10306000BDE8F08F616881F000416160099817B098
:103070004042BDE8F08FFFE784461598C1F3130185
:10308000C0F30A50A0F2F5304FEA601800F01F06B6
:10309000C6F12000139000200690079041F4801E96
:1030A00005206D4676B1664A08EB00017A4452F875
:1030B000213002EB8101B3404A68139922FA01F1F1
:1030C000194305E05F4908EB0002794451F82210EA
:1030D000A1FB0E27A1FB0C131A449A4234BF012313
:1030E000002303EB070A05EB8003D3E901B70F4484
:1030F0008F4234BF0121002193448B4411B1934589
:1031000002D903E0934501D2012100E00021C3E987
:1031100001B7514445F82010011EA0F10100C1DCA7
:103120000298059F00F10050800F12900298DDE98F
:103130000356800002F0F1F9834628460D9102F013
:1031400003FA6FF01D0203F0AAF8CDE90E01304634
:1031500002F0FAF96FF03D0203F0A1F880468A46CA
:10316000384602F0F1F96FF05D0203F098F8074677
:1031700042465346119101F099FFDDE90E2301F01B
:1031800095FF5A460D9B01F091FF00250E465A46C9
:1031900028460D9B02F0DCFBDDE90E2302F0D8FB94
:1031A0004246534602F0D4FB3A46119B02F0DEFA47
:1031B000DFF898A0244A534602F0DAF90746884619
:1031C000234A244B3146284602F0D2F93A46434678
:1031D00001F06CFF074688464FF0A842534631463F
:1031E000284602F0C5F93A46434601F05FFF159ABA
:1031F00012F0004F04D0129A81F000415242129214
:10320000C4E90001129817B0BDE8F08FFB21E93F37
:103210007CD90240FB21F93F7370032E8A19A33B2E
:10322000000040543163621A61B4D03DFB21394142
:1032300083C8C96D305FE43F0000E03FB434000054
:103240003034000012340000182D4454FB21F93DA5
:103250003326A611460B113C2DE9FF4D21F0004805
:1032600007460C46B8F1795F08DA02F027F9002822
:1032700001BF0020324904B0BDE8F08D3A46234634
:103280001046194602F074F9054602462D480E46CE
:103290000B460621784400F05DF82A46334602F0DA
:1032A00067F9DDE9022382468B463846214602F063
:1032B0005FF904460F4652465B462846314602F007
:1032C00057F922463B4602F043FB07468A464FF039
:1032D000FF322846314602F0E2FF1B4A90450ADAE7
:1032E0003A46534602F034FB04B00022BDE8F04DEC
:1032F000134B02F03BBA154A4245A8BFA8F500158A
:103300004FF00004B8BF124D22462B4602F020FBBE
:103310000646884622462B460020094902F018FB43
:1033200004460D463A4653463046414602F010FBED
:1033300004B022462B46BDE8F04D02F017BA00005B
:103340000000F03FE03100003333D33F0000E93F9D
:103350000000D23F2DE9F0414F1E00EBC7010446AB
:10336000D1E9000115461E4637F006020DD02A4667
:10337000334602F0FDF87F1E04EBC703D3E90023B8
:1033800001F094FE37F00602F1D1022F25D0042F70
:1033900013D0062F18BFBDE8F0812A46334602F04D
:1033A000E7F8D4E90A2301F081FE2A46334602F009
:1033B000DFF8D4E9082301F079FE2A46334602F00B
:1033C000D7F8D4E9062301F071FE2A46334602F00D
:1033D000CFF8D4E9042301F069FE2A46334602F00F
:1033E000C7F8D4E9022301F061FE2A46334602F011
:1033F000BFF8D4E90023BDE8F04101F057BE00005A
:103400002DE9FF4D054621F0004084B00C46B0F197
:10341000795F0BDA2846FFF724FD042808BF00F087
:1034200071F8284608B02146BDE8F08D2A460B46C3
:10343000104602F09DF806460F462A46234602F043
:1034400097F8804626488A4632463B46052178440E
:10345000FFF780FF83461098029160B3214A224B08
:103460004046514602F084F8CDE900015A464046F4
:103470005146029B02F07CF882468846DDE906014F
:103480004FF0FF3202F00BFF5246434602F060FA63
:1034900032463B4602F06CF8DDE9062302F058FAAA
:1034A000DDE9002302F054FA08B02A462346BDE8BD
:1034B000F04D02F05BB90B465A463046394602F0F1
:1034C00057F8084A084B01F0F1FD4246534602F016
:1034D0004FF808B02A462346BDE8F04D01F0E6BD9E
:1034E00046310000495555555555C5BF012202F0DA
:1034F000D6BE01F0DBBD002213461046114601F096
:1035000085BE0000024A0020110702F0C8BE00007C
:1035100001FDFFFF012102F0F0BE0021084602F08C
:10352000A1BB6FF05E01080702F0E7BE2DE9F04D88
:103530000D4614464FF07F41B1EB440F9EBF4FF054
:10354000FF312960BDE8F08D4FF0004040EA0421D2
:10355000C4F3C750783810F01F024A4B4FEA601C82
:10356000C2F120067B44C4F3C750A0F178004FEAB3
:10357000601003EB800053F82C3008BFD0E901C67F
:1035800012D0D0F804C093402CFA06F73B4387686A
:103590000CFA02FC27FA06F8C06807FA02F2F040BB
:1035A0004CEA080C42EA0006A3FB0132ACFB01C066
:1035B000A6FB016101EB0C068E4234BF4FF0010CFB
:1035C0004FF0000CC1186144BCF1000F02D08142E1
:1035D00002D903E0814201D2012000E00020104422
:1035E00000F120024FEA92188006CA0C40EA4230ED
:1035F0004F03C5F8008002F013FC8246384602F003
:1036000027FC6FF0120102F078FE0746304602F008
:103610001FFC6FF0250102F070FE834639465046CC
:1036200002F0ACFA594602F0A9FA00F500666FF311
:103630000B065146304602F08BFD394602F088FDFC
:10364000594602F07BFD104902F04AFC07460F493B
:10365000304602F045FC394602F090FA07460C4924
:10366000304602F03DFC394602F088FA14F0004F73
:1036700008BFBDE8F08DC8F1805180F0004029609E
:10368000BDE8F08D10300000DB0FC92F22AAFD2904
:103690000000C92F70470000F0B40F494FF07E5270
:1036A0000020C1E900208860C8600C4B132100BFD6
:1036B00003EB0116491EC6E90020C6E90200090411
:1036C000090CF5D1054C2C3CC4E90B206063A063C8
:1036D000F0BC03A0FCF7A0BDE4070020A406002076
:1036E000204920686176652066696E697368207478
:1036F000686520696E6974206F6620616872732046
:103700000D0A00002DE9F04F9BB0FE48FDF794F83C
:10371000FC48C06801F018FF0022FB4B01F076FD69
:1037200001F092FC10F0FF4F01907DD0DFF8DCA398
:10373000F74CBAF80010A4F1D408491C89B2AAF8D1
:10374000001004292DD313204FEA080202EB0011C8
:103750001039401EE8C9000481E8E800000CF5D1EA
:1037600004F16C01E7482EC9403080E82E00A0F536
:103770009E7000F1F0030ECB80E80E00E14A1320AA
:10378000B2F1FC0200EB400102EB81010C39401E5A
:1037900068C9000481E86800000CF3D10021AAF890
:1037A0000010DC4DB5F9000002F03AFBDA4F394663
:1037B00002F096FBD34E0C3E3060B5F9020002F0E9
:1037C0002FFB394602F08CFB7060B5F9040002F063
:1037D00027FB394602F084FBB0601420A6F5F07296
:1037E00000EB400102EB81010C39401E68C9000466
:1037F00081E86800000CF3D17C34C84F94E80B00DA
:1038000082E80B00B7F9000002F00AFBDFF8109322
:10381000494602F065FBBE4C06467C342060B7F991
:10382000020002F0FDFA00E0FDE3494602F058FB19
:1038300005466060B7F9040002F0F2FA494602F06A
:103840004FFB0146A06002F04BFB044629460846A8
:1038500002F046FB05463146084602F041FB294688
:1038600002F08CF9214602F089F902F05BF901F0CF
:103870000BFB01F0E9FB8346A248903890E870000A
:103880003146304602F02CFB81462946084602F0BC
:1038900027FB07462146084602F022FB394602F084
:1038A0006DF9494602F06AF901F0C6F9074620466B
:1038B000394602F015FB04462846394602F010FB53
:1038C00005463046394602F00BFB8E4F0646403720
:1038D000012157F8A09F484602F00FFD0690786836
:1038E0000121129002F009FD0E90D7F80880012105
:1038F000404602F002FD0A90FF68012138460F970A
:1039000002F0FBFC10900221484602F0F6FC079002
:103910000221129802F0F1FC05900221404602F0CB
:10392000ECFC04900321129802F0E7FC13900321B1
:10393000404602F0E2FC49460990084602F0D0FAFF
:1039400017901299084602F0CBFA414600900846BB
:1039500002F0C6FA39460390084602F0C1FA119007
:1039600029460E9802F0BCFA08900099079802F0D8
:10397000B7FA814621460A9802F0B2FA074603993F
:10398000079802F0ADFA394602F0F8F8494602F01D
:10399000F5F8089902F0DCFB08903146059802F032
:1039A0009FFA14900399139802F09AFA07900099DD
:1039B000139802F095FA15902946069802F090FAAD
:1039C00016900221179802F098FC8146129902F095
:1039D00087FA07462146109802F082FA179011994B
:1039E000059802F07DFA179902F0B2FB394602F011
:1039F000C5F8169902F0ACFB059902F0A9FB1599E0
:103A000002F0BCF8079902F0B9F8149902F0B6F880
:103A100007903146049802F063FA059003990998DB
:103A200002F05EFA12900099099802F059FA099092
:103A30002946109802F054FA10901199049802F057
:103A40004FFA11902146069802F04AFA2D4F06903F
:103A500048464037414602F043FA069902F08EF894
:103A6000119902F08BF8109902F072FB049902F0A0
:103A70006FFB099902F082F8129902F07FF805991C
:103A800002F07CF8814629460A9802F029FA04904F
:103A90000221039802F031FC414602F021FA8046EF
:103AA00021460E9802F01CFA03900221009802F0C1
:103AB00024FC0F9902F014FA039902F049FB4146E5
:103AC00002F05CF8049902F043FB8046014602F0E4
:103AD00007FA49460090084602F002FA0799039057
:103AE000084602F0FDF908990490084602F0F8F93A
:103AF000049902F043F8039902F040F8009902F0AB
:103B00003DF80FE06406002080842E413C00002038
:103B100078070020300000200AE81C3B2A00002023
:103B200047237A3C01F088F801460090089802F09B
:103B3000D7F908900099079802F0D2F90790484603
:103B4000009902F0CDF909904046009902F0C8F9B9
:103B50000A90FE4A0021584600F0C8FD8046FC4904
:103B6000019802F0BDF9414602F0BAF9F94902F0B4
:103B700005F8F94AF94900F0B9FD0490D7F8A88092
:103B800057F8A00F41460E9002F0AAF98146F86856
:103B900005907F680146384602F0A2F9494602F0D6
:103BA000D7FA012102F0A9FBDFF8B4938346394626
:103BB000C9F818000E9802F093F98246404605991C
:103BC00002F08EF9514601F0D9FF012102F095FB78
:103BD000C9F81C00824641460590084602F080F96B
:103BE00080463946084602F07BF9414601F0C6FF9F
:103BF000012102F082FB4FF07E5102F09FFA07464E
:103C0000C9F820003046514602F06AF9804628463D
:103C1000394602F065F9414602F09AFA824620469A
:103C2000394602F05DF907463046594602F058F928
:103C3000394602F08DFA81462846C94E594602F0AF
:103C40004FF905462046059902F04AF9294602F047
:103C50007FFAB16807460C46504602F041F90199D7
:103C600002F03EF9F16801F089FF0546F060214657
:103C7000484602F035F9019902F032F9316901F054
:103C80007DFF804630612146384602F029F90199CE
:103C900002F026F9716901F071FF83467061706866
:103CA0005146069002F01CF9AE4C0646AE4920681B
:103CB00002F016F9AD4901F0D5FF294601F05EFF8B
:103CC000314601F05BFFA4F5C07582462860494685
:103CD000069802F005F90646A349606802F000F96B
:103CE000A24901F0BFFF414601F048FF314601F013
:103CF00045FF686081460C903946069802F0F0F85E
:103D000006469949A06802F0EBF8984901F0AAFF2D
:103D1000594601F033FF314601F030FFA860A4F1AD
:103D2000100B12908046DBF80C405D464146204661
:103D3000119402F0D5F80590AF68494638461497BB
:103D400002F0CEF80B906E68514686F00040109657
:103D500002F0C6F80B9902F0FBF9059902F0F8F9A8
:103D60004FF0FF3102F0C9FA0F904946204602F0A9
:103D7000B7F80B904146384602F0B2F817902D681C
:103D800051462846159502F0ABF8179901F0F6FE5A
:103D90000B9902F0DDF94FF0FF3102F0AEFA0B9013
:103DA0005146204602F09CF816904146304602F0FB
:103DB00097F804464946284602F092F8214602F058
:103DC000C7F9169901F0DAFE4FF0FF3102F095FACB
:103DD00004465146384602F083F8074649463046C5
:103DE00002F07EF806464146284602F079F8314650
:103DF00001F0C4FE394602F0ABF94FF0FF3102F09A
:103E00007CFA05460899049802F06AF80F9902F0C6
:103E100095F907460799049802F062F80B9902F0A9
:103E20008DF906460999049802F05AF8214602F0E5
:103E300085F981460A99049802F052F8294602F061
:103E40007DF980461299019802F04AF8014602F085
:103E500047F805460C99019802F042F8014602F035
:103E60003FF804465146019802F03AF8014602F044
:103E700037F8214601F082FE294601F07FFE044614
:103E80003846019902F02CF805466FF002012046F1
:103E900002F033FA4FF07E5A514602F04FF95C4679
:103EA0000490159902F01CF8294601F067FE206085
:103EB00007463046019902F013F805461099049818
:103EC00002F00EF8294601F059FE606005464846AA
:103ED000019902F005F806461499049802F000F8DA
:103EE000314601F04BFEA06006464046019901F0C4
:103EF000F7FF80461199049801F0F2FF414601F066
:103F00003DFE0146E06001F0EBFF80463146084689
:103F100001F0E6FF06462946084601F0E1FF0546A6
:103F20003946084601F0DCFF294601F027FE3146FC
:103F300001F024FE414601F021FE00F07DFE07461F
:103F40003946206801F0CCFF814611E00000C843EB
:103F5000CDCC4C3D8FC2F53B8FC2F53D8FC2753C39
:103F60003C000020F4070020DA0F494000003443F1
:103F700020603946606801F0B3FF0646606039464C
:103F8000A06801F0ADFF0546A0603946E06801F089
:103F9000A7FF8046E0600121284602F0AEF9834683
:103FA000294601F09DFF05464FF04041304601F0A3
:103FB00097FF314601F094FF294602F0C9F85146B7
:103FC00001F0DCFD01F0AEFD07460D46012148463B
:103FD00002F093F9314601F083FF06465846414608
:103FE00001F07EFF314601F0C9FD01F09BFD3A462C
:103FF0002B4600F0BBFA4FF0804B5A46354B01F090
:10400000B7FA01F021F8344D0121A862606802F08E
:1040100074F9E16801F064FF06460121206802F0AE
:104020006CF9A16800E051E001F05AFF314602F05E
:104030008FF801F077FD00F051F85A46254B01F05A
:1040400097FA01F001F8E862D4F808900121484697
:1040500002F053F9494601F043FFD4F80C800646BC
:104060004FF04041404601F03BFF414601F038FF30
:10407000314602F06DF8514601F080FD01F052FD2D
:1040800007460E460121206802F037F9414601F04B
:1040900027FF80460121606802F02FF9494601F0B0
:1040A0001FFF414601F06AFD01F03CFD3A463346F0
:1040B00000F05CFA5A46074B01F05AFA00F0C4FFD0
:1040C00068621BB0BDE8F04FFCF70ABB1BB0BDE84F
:1040D000F08F0000DCA54C403C0000202DE9F04DA5
:1040E0008D4F21F0004A86B005460C46BA452ADBC2
:1040F000AAEB070028430AD08848824501DC1AD180
:10410000CDB106B02846BDE8F04DFFF7EFB9844ABF
:10411000844B284601F02CFA07460E46824A834B10
:104120002846214601F024FA06B03A463346BDE857
:10413000F04D00F0BBBF0120FCF74CF906B0BDE824
:10414000F04DFFF7D8B97A48824542DABAF1795F83
:104150000BDA2846FEF785FE042808BFFFF7D2F9E0
:10416000284606B02146BDE8F08D2A460B4610468B
:1041700001F0FEF9834602466E480E460B460621C4
:104180007844FFF7E7F85A46334601F0F1F98046E4
:1041900069488A465A46334604217844FFF7DAF8DC
:1041A0005A46334601F0E4F900223B4600F07EFF18
:1041B00002460B464046514601F028F82A4623465F
:1041C00001F0D6F906B02A462346BDE8F04D00F0CE
:1041D0006DBF284624F0004100223D463B4601F0D9
:1041E000C5FA4FF0FF3202F05AF80646024653482D
:1041F0000F460B4606217844FFF7ACF832463B46A3
:1042000001F0B6F9CDE900014D4832463B460421A4
:104210007844FFF79FF832463B4601F0A9F90022A7
:104220002B4600F043FF834602913046394600F0AA
:104230002BFE804643480D46504517DCDDE9000162
:104240005A46029B00F0E2FF42462B4601F090F9ED
:1042500042462B4600F02AFF012202F020F8304AA5
:10426000304B01F075FB304A304B4CE04FF0000A08
:1042700052460B46404600F019FFCDE90310524666
:104280002B461046194601F073F932463B4601F0C1
:104290006DFADDE9033200F0B9FF06460F46DDE9AD
:1042A00000015A46029B00F0B1FF834600910122B3
:1042B0003046394601F0F3FF194A1A4B01F056FA1D
:1042C00006460F4601224046294601F0E8FF5A46BD
:1042D000009B01F04DF932463B4601F039FB0646A2
:1042E0000F4601225046294601F0D9FF0E4DDFF856
:1042F00058802A46434601F039FA32463B4601F0DF
:1043000035FA2A46434601F031FA002CD8BF81F035
:10431000004106B0BDE8F08D0000F03F0000F07FE6
:10432000075C143326A6913C182D4454FB21F93F19
:104330000000E03F0C220000222200009621000035
:10434000AC2100003333EF3FFB21E93F2DE9F84F6B
:1043500004460D4621F0004000917349814211DC72
:104360007249884201DC06D12CB120462946BDE8BD
:10437000F84FFFF7BBB86E48002DCCBF6D496E49B2
:10438000BDE8F88F6D49814211DD6D498142D8BF8A
:104390004FF0FF366DDD20462946FEF762FD04280A
:1043A00008BFFFF7AFF820462946BDE8F88F6549FA
:1043B000654F25F00045814233DD6449814219DDB6
:1043C000002632464FF080432046294600F06EFE1C
:1043D00080468A4601222046294601F060FF0022DD
:1043E0003B4601F0B5FA4246534600F00FFF044643
:1043F0000D463EE001260022BA463B4620462946AD
:1044000000F054FE80460F460022534620462946BF
:1044100001F09EFA42463B4600F0F8FE04460D4687
:1044200027E04B4981421BDDDFF828A1022600224C
:1044300053462046294601F09BF800223B4600F0F7
:1044400035FE80460F46002253462046294601F09D
:104450007FFA42463B4600F0D9FE04460D4608E08E
:10446000032622462B4600203B4900F0CFFE04469F
:104470000D4622462B461046194601F079F88B4628
:10448000824602460B4601F073F80746024633485F
:1044900088460B4606217844FEF75CFF52465B4691
:1044A00001F066F882462E488B463A46434605217F
:1044B0007844FEF74FFF3A46434601F059F802466A
:1044C0000B46002E504659460CDA00F0EFFD22460E
:1044D0002B4601F04DF801B022462B46BDE8F04FC7
:1044E00001F044B900F0E2FD22462B4601F040F80D
:1044F0001C4A7A4402EBC603D3E9002301F028FAF0
:1045000022462B4601F024FA174A7A4402EBC603EE
:10451000D3E9002301F02AF9009A002AB8BF81F0FC
:104520000041BDE8F88F0000000010440000F07F5B
:10453000182D4454FB21F93FFB21F9BF0000DC3F5B
:104540000000203E0000F33F0000F03F0000E63F87
:10455000008003400000F83F0000F0BFAE1F0000E5
:104560006C1F00000A1F0000D21E00002DE9F04D54
:104570009446CCF1000423F000464CEA0404524F68
:1045800046EAD4749A46884621F00042BC4206D8D6
:10459000454240EA050442EAD474BC4204D9BDE86D
:1045A000F04D6246FEF7A5BFAAF14055A5F17F6523
:1045B00055EA0C040BD0022404EAAA74434DDFF838
:1045C00010E144EAD87452EA000B04D00CE0BDE8D4
:1045D000F04DFFF7BBBE002C14BF012CBDE8F08DE1
:1045E000022C30D0032C32D056EA0C0B0AD0BE423B
:1045F00020D1BA4209D126F0804622F080423346CB
:10460000114617E000291ADB25E0DFF8C8B0FB44AB
:10461000002C04BFDBE90001BDE8F08D012C02BFD6
:10462000DBE9000181F00041BDE8F08D022C0AD0E9
:10463000032C0CD0BA4212D1B8F1000F0BDA234888
:104640002549BDE8F08D28462449BDE8F08D28466F
:104650007146BDE8F08D1D482149BDE8F08D921BE3
:1046600012153C2AC4BF19481D490EDCBAF1000FCF
:10467000BEBF12F13C0F0020014606DB624600F08F
:10468000C5FD21F00041FFF761FE002C08BFBDE829
:10469000F08D012C04BF81F00041BDE8F08D114A7E
:1046A000114B022C07D001F053F92A46BDE8F04D1A
:1046B0000A4B01F04DB901F04BF92A46BDE8F04D27
:1046C000064B01F053B800000000F07F182D445451
:1046D000FB2109C0961E0000FB21F9BFFB21094008
:1046E000FB21F93F075C143326A6A13C70B50D46AB
:1046F00016460446114601F0BFFC00D83446294650
:10470000204601F0B9FB00D82C46204670BD0000C1
:1047100000B5244B21F0004287B09A42DCBF002252
:10472000134629DD204B9A4208D140B94FF00100D1
:10473000FBF750FEFEF7DFFE07B000BD03DBFEF720
:10474000D5FE07B000BD02AAFEF7C2FB10F00301C0
:1047500004BF0DF1080C9CE80F000DD001200129C9
:104760000ED0022914D00DF1080C00909CE80F0027
:10477000FEF746FE07B000BDFEF76EFD07B000BDB8
:104780000DF1080C00909CE80F00FEF739FE05E0E3
:104790000DF1080C9CE80F00FEF75EFD07B081F0FC
:1047A000004100BDFB21E93F0000F07F2DE9F84307
:1047B000044602464F486946B0EB420F09D94FF014
:1047C000E640B0EB420F94BF00204FF0FF30009066
:1047D00030E0494B22F00040834271D947492046DE
:1047E00001F07EFB01F07AFC804601F0FDFA00F05A
:1047F000030000904249404601F072FB05464149E2
:10480000404601F06DFB06463F49404601F068FB1B
:1048100007463E49404601F063FB214601F08EFC0D
:10482000394601F095FC314601F092FC294601F031
:104830008FFC04462546009C002C45DB294614F0DD
:10484000010F08461CD001F04BFB0646304901F031
:1048500047FB304901F072FC314601F041FB2E4923
:1048600001F08CF9314601F03BFB294601F038FBA1
:10487000294601F083F914F0020F1CD0BDE8F8833B
:1048800001F02EFB0546254901F02AFB244901F0E1
:1048900075F9294601F024FB224901F06FF92946F8
:1048A00001F01EFB4FF07E5101F068F914F0020F89
:1048B00008BFBDE8F88380F00040BDE8F883FFE75B
:1048C0001046FEF733FEB4E76800B0F17F4F3CBFFF
:1048D0004FF07E50BDE8F88307D14FF00100FBF7A1
:1048E00079FDBDE8F843FEF718BE2846BDE8F84359
:1048F000FEF710BEB61F927E490E494683F9223F4D
:104900001A61342C0020A23300A0FD390000C93FF9
:10491000336D4C39DA82083CA0AA2ABEB93AB2BA41
:10492000CA9F2A3DDDFFFFBE04490A685206FCD536
:10493000024AC1B2121D11607047000000480040D9
:1049400010B586B003A8FDF739FE6846FDF751FEA5
:1049500005A8FDF769FE5648BDF80C100288891AB3
:10496000ADF80C10BDF80E108288891AADF80E1043
:10497000BDF810100089081A4D49ADF810000C312F
:10498000BDF800000A88801A00B2ADF80000BDF83A
:1049900002208B88D21AADF80220BDF804200989C4
:1049A000511AADF8041001F03BFA424A02F14801F5
:1049B000FBF7D5FD01F018FA3F4C2080BDF902004D
:1049C00001F02EFA3B4A02F16001FBF7C8FD01F04D
:1049D0000BFA6080BDF9040001F022FA354A02F1B9
:1049E0007801FBF7BCFD01F0FFF9A080BDF90C00D8
:1049F00001F016FA2F4A183202F17801FBF7AFFDE9
:104A000001F0F2F9A41F2080BDF90E0001F008FAB0
:104A1000284A183202F19001FBF7A1FD01F0E4F9F8
:104A20006080BDF9100001F0FBF9224A183202F152
:104A3000A801FBF794FD01F0D7F9A08004F1120062
:104A4000BDF800100180BDF802104180BDF80410CF
:104A50008180BDF90C0001F0E3F9164A303202F111
:104A6000A801FBF77CFD01F0BFF90C342080BDF9F3
:104A70000E0001F0D5F90F4A303202F1C001FBF708
:104A80006EFD01F0B1F96080BDF9100001F0C8F9C8
:104A9000084A303202F1D801FBF761FD01F0A4F9B8
:104AA000A080A4F110010598086006B010BD0000B8
:104AB00014040020F40200202A0000203EB542F237
:104AC0000F748DE81C0040000A460146012304488B
:104AD000FCF706F9002801D04FF0FF303EBD000082
:104AE000840000203EB542F20F7300920124CDE90C
:104AF000014340000A46014623460348FCF7F0F80C
:104B0000002800D0A01E3EBD8400002017B583B051
:104B100042F20F74012305AA8DE81C0040000A46EA
:104B200001460448FCF704FA002801D04FF0FF309A
:104B300006B010BD8400002070B50D4C0D4D0B4A21
:104B400021462846FDF752FF084A214618322846DA
:104B5000FDF74CFF054A084930322846FDF746FF6D
:104B6000FDF7F8FCBDE87040FDF702BDF40200203F
:104B7000000020420000C842000040402DE9F047FC
:104B800004460D46D4E90410401A6060A1684FF055
:104B90000008401A01F044F982466969206801F072
:104BA0006BFA06D3206901F03BF9A96901F064FAB8
:104BB00003D26068002814DB16E06869216880F081
:104BC000004001F059FA09D3A86980F00046206935
:104BD00001F026F9314601F04FF92AD26068002829
:104BE00002DD01F01DF980466768E068A668384478
:104BF000714200EB410001F013F90146A86801F091
:104C00006FF981464146686801F06AF9804651466D
:104C1000286801F065F9414600F0B0FF494600F010
:104C2000ADFF216800F0AAFF2060C4E90276BDE86C
:104C3000F0876068D5E7000010B504464FF0FF31FB
:104C400001F05BFB0849A1EB6404214601F048F93F
:104C5000214601F045F94FF07F5101F06FFA2146EE
:104C6000BDE8104001F03CB9DF59375FFCF72EFA80
:104C7000FDF718FFFDF70EFDFDF7F6FCFDF748FD0B
:104C8000FDF7B2FDFDF7E6FDFDF71AFEFDF76CFE40
:104C9000FDF78EFEFDF71CFD00F02AF800F078F815
:104CA000FFF74AFFFBF790FCFBF7D4FCFEF7F4FCA0
:104CB0000148FCF7FBFDFEE7F801002000B58DB0D0
:104CC00018216846FBF756FB182269460748FBF790
:104CD0001FFB182106A8FBF74DFB0448182206A964
:104CE0001830FBF715FB0DB000BD00002C040020B0
:104CF00010B500210C48FDF7DBF80C210A48FDF740
:104D0000D7F808210948FDF7D3F80C210748FDF72B
:104D1000CFF83C210648FCF7FDFEBDE810403C21E1
:104D20000448FCF7F7BE0000D8000020B0010020C6
:104D30002001002068010020F0B5134D134E002320
:104D4000114C0C35371D41F2707200290CDB914279
:104D500000DD1146012804D0022801D133603960FA
:104D6000F0BD23602960F0BD41F2707C11EB0C0FA7
:104D700000DB4A42012804D00228F4D13B603260B3
:104D8000F0BD2B602260F0BD342C01403C08004097
:104D9000084807494161084901600021416081607C
:104DA0004FF07C51C16005498161FFF787BF00006A
:104DB00000A0BE455C04002000005C4200004843A7
:104DC0000021022803D0032807D0002070474FF0AD
:104DD0008042506A516200B27047024A1068116006
:104DE00000B270472404004000B5254B21F000427A
:104DF00087B09A4203DC0022134600922BE0214B3D
:104E00009A4208D140B94FF00100FBF7E3FAFEF7F0
:104E100072FB07B000BD03DBFEF768FB07B000BD07
:104E200002AAFEF755F810F003014FF001000DD073
:104E3000012914D002291AD00DF1080C9CE80F00AA
:104E4000FEF70AFA07B081F0004100BD0DF1080C31
:104E500000909CE80F00FEF7D3FA07B000BD0DF1FB
:104E6000080C9CE80F00FEF7F7F907B000BD0DF144
:104E7000080C00909CE80F00FEF7C2FAE2E7000081
:104E8000FB21E93F0000F07F2DE9F04106460F4687
:104E900000F078FC041E0D4618BF0120284320F0C6
:104EA0000040C0F17F6000F1E040C00F0ED0301C28
:104EB00018BF0120384320F00040C0F17F6000F1AE
:104EC000E040C00F04BF0120FBF784FA20462946CA
:104ED000BDE8F0812DE9F843044602464C48694696
:104EE000B0EB420F09D94FF0E640B0EB420F94BF50
:104EF00000204FF0FF30009030E0464B22F00040A1
:104F0000834265D94449204600F0EAFF01F0E6F803
:104F1000804600F069FF00F0030000903F494046E2
:104F200000F0DEFF05463E49404600F0D9FF064648
:104F30003C49404600F0D4FF07463B49404600F05C
:104F4000CFFF214601F0FAF8394601F001F9314668
:104F500001F0FEF8294601F0FBF80446009D002D03
:104F60003ADB2146084600F0BBFF06462F4900F019
:104F7000B7FF2F4900F002FE314600F0B1FF2D4986
:104F800000F0FCFD314600F0ABFF2B4900F0F6FDD0
:104F9000314600F0A5FF294900F0F0FD314600F050
:104FA0009FFF274900F0EAFD314600F099FF2146B6
:104FB00000F096FF214600F0E1FD15F0010F08BF5B
:104FC000BDE8F8830146BDE8F8431E4800F04ABE3C
:104FD0001046FEF7ABFAC0E76000B0F17F4F09D290
:104FE0002046FDF752FF042808BFFEF79AFA204634
:104FF000BDE8F88306D10120FBF7ECF9BDE8F843E2
:10500000FEF78BBA2046BDE8F843FEF783BA0000EE
:10501000B61F927E490E494683F9223F1A61342C0D
:105020000020A23300A0FD390000C93FBBE9223CAB
:105030000C6D063B8A76CE3CACB5593D35A1083E99
:1050400029AAAA3E000080BF21F00042A2F16052CE
:10505000B2F5801F01F0004328BFD2F17F6C0BD95D
:105060005FEA001C43EAC20242EB507018BF70476F
:1050700028BF20F001007047B2F5801FBCBF184662
:1050800070474FEA410C1CF5001F02D2084600F0A1
:10509000EEBF70B500F016FB00000089FFF7F6BF09
:1050A0004FF00040A0F580007047000010B591EA75
:1050B000030F48BF83F0004300F15284841A71EB60
:1050C000030C05D2121943EB0C03001B61EB0C011E
:1050D000DFF824E14FEA1154A4EB135C1EEA430FFE
:1050E00018BF9EEA445F73D023EA0E03DCF1200E62
:1050F00021EA045143F4801332D322FA0CFE10EB60
:105100000E0023FA0CFE41EB0E01CCF1200E03FA47
:105110000EFE10EB0E0051F10001B1F5801FCCF135
:10512000200E32D201EB045112FA0EF2BDE810400B
:1051300058BF7047401C38BF5FEA420218BF704733
:10514000002814BF20F0010041F100014FEA4103A3
:1051500013F5001F38BF7047A1F1C04100F000BB3C
:10516000012A43EB0302ACF1200CDCF11F0E32BF2D
:105170004FF0000E23FA0CF310EB030041EB045147
:10518000B4EB115FD0D0A1EB045101F580114908B7
:105190005FEA300001EB04510ED350F1000038BF3C
:1051A00012FA0EFE08D1BDE81040C9E7401C38BF16
:1051B0005FEA4202CAD1C3E7BDE810404FEA4103AB
:1051C00013F5001F38BF7047A1F1C04100F0C8BA05
:1051D0009EEA445F08D011EA5E0FBDE8104004BFAC
:1051E00001F0004100207047BDE8104070B500F0AC
:1051F00069FA00BF64FBBE3E0000E0FF02494FF0C9
:10520000000001F01AB800BF0000F87F2DE9C0418E
:1052100030B4DFF8A0C23CEA111418BF3CEA131402
:1052200000F0EC8081EA03051CEA111444EAD5740D
:1052300018BF1CEA131500F0C780A4EB05044FF05B
:10524000004545EAC12145EAC32341EA505143EAFA
:10525000525304F17F74994204F500344FEAC020A0
:105260004FEAC22208BF904200F09C804FEA1365CB
:105270000FF24016765D4FEA134506FB05F7C7F1BE
:10528000807706FB07F74FEAD737A7FB036876421C
:10529000C8F58038A7FB06CE38BFA8F1010807FB88
:1052A00008E64FF0000EA6FB028CE6FB03CEDCF115
:1052B000000CCEF1004E38BFAEF1010EA6FB0C582B
:1052C0004FF000074FF00005E6FB0E87A1FB08C674
:1052D000A0FB07CE16EB0E0645F10005E1FB0765C6
:1052E00015F1E04E7EBFA4F580345FEA46066D41BD
:1052F00016F1800745F100054FEA17274FEA0666C9
:1053000047EA0567A6F1DE46B6F1805F4FEA15254C
:105310001FD9384624F0010C05EBC471BCF1FE6FB7
:1053200001EB0C1102D8F0BCBDE8008124425CBF47
:1053300001F5801E9EEAC47F02D4F0BCBDE8008166
:10534000244238D4F0BCA1F1C041BDE8004100F0D6
:1053500007BA4FEAD22242EA43524FEAD323A7FBCD
:1053600002864FEAD02040EA415007FB03661EEA5E
:105370000E0F4FEAD12105FB026658BFA6EB00567F
:10538000B6EB00564FEA520E4EEAC37E18EB0E0EF5
:1053900056EB530EBDD518EB02085E417F1C55F14C
:1053A0000005B6E74FF480154FF000074FF00006F8
:1053B0004FF00008ADE7F0BC4FF0000001F1C04134
:1053C00001F00041BDE8008111EA0C1F0CEA131541
:1053D00000D00CE013EA0C1F00F025804FF0000015
:1053E000F0BC81EA030101F00041BDE80081F0BC9E
:1053F000BDE8004181EA030100F0B2B9F0BCBDE8AC
:10540000004170B500F05EF9097EFC3E00F007B87F
:1054100081EA03014FF0000001F00041704781EA8A
:10542000030100F09DB9F0BCBDE800414FF0000061
:1054300021497047FFFDFBF9F7F5F4F2F0EEEDEBD3
:10544000E9E8E6E4E3E1E0DEDDDBDAD8D7D5D4D382
:10545000D1D0CFCDCCCBCAC8C7C6C5C4C2C1C0BFCE
:10546000BEBDBCBBBAB9B8B7B6B5B4B3B2B1B0AFD4
:10547000AEADACABAAA9A8A8A7A6A5A4A3A3A2A1B8
:10548000A09F9F9E9D9C9C9B9A9999989797969573
:1054900095949393929191908F8F8E8E8D8C8C8B0F
:1054A0008B8A898988888787868585848483838297
:1054B000828181800000FF070000F87F4FEA4103EE
:1054C0004FEA5353A3F58063D3F11E03C8BFD3F152
:1054D000210C0CDD4FF0004242EAC12242EA505258
:1054E00032FA03FC8CEAE17CACEBE1707047102BE4
:1054F000C4BF0020704703F5787CBCF1FF3F04D0A7
:105500006FF0004282EA2100704770B500F0DAF8CF
:105510004992248000207047F2E710F0004248BF13
:105520004042B0FA80F310FA03F10AD0C3F11D0330
:1055300003F580634FEA415002EB035202EBD121A5
:1055400070474FF000007047B0FA80F310FA03F193
:105550000AD0C3F11D0303F580634FEA41504FEABF
:10556000035202EBD12170474FF00000704700005A
:10557000DFF848C170B51CEA111E1EBF1CEA1315E6
:105580009EEA0C0F95EA0C0F00F06F8081EA03048D
:1055900023EA4C134EEAD47E21EA4C1141F48011E7
:1055A00043F48013AE44A1FB024CA0FB0365AEF1B3
:1055B0007F7E361955EB0C05A1FB034C4CF1000323
:1055C000A0FB021C16EB0C06654153F100030942D7
:1055D00018BF46F0010613F4007F0BD14FEA0331E8
:1055E0004FEA0530340341EA155140EA16506FF096
:1055F00003020AE04FEAC3214FEAC520F40241EA60
:10560000555140EA56506FF0020202EB2E4201EB78
:10561000025585EACE710AD05FEA440C18BF24F027
:10562000004450F1000041F1000120EAD47040F242
:10563000FE7C624500D270BDA84214BF4FF080448A
:105640004FF04044002E08BF0024BEF1806FA8BF79
:10565000A1F1C041BDE8704080F282804FF00000AF
:1056600001F1C04101F0004170479EEA0C0F0CEAC5
:10567000131518BF95EA0C0F06D04FF0000081EA11
:10568000030E0EF0004170BD00F01CF88900013ED1
:1056900000F007B800F009B84FEA430C5FEA5C5C21
:1056A00008D081EA030100F05BB84FEA410C5FEAE1
:1056B0005C5CF6D14FF00000014970470000FF0725
:1056C0000000F87F0EF1020E2EF0030E5EF8046B60
:1056D000364205D4012A43EB030515F5001F12D805
:1056E000012841EB010C1CF5001F0CD80ED14FEA2C
:1056F000D17C15F5001F0CEB4C0C0CF1020C08BF13
:105700004CEBD37C04E04FF0080C01E04FEAD37C73
:105710000CEB4C0526FA05F606F00706B6F1040C6C
:1057200006D20EEB860CBDE870404CF0010C6047D1
:10573000DFE80CF0090B02024FF000414FF00000CF
:10574000A1F5002170BD19461046012851EB010456
:1057500018BFD4F5001484BF002001F0004170BDD3
:105760000808A0F500114FEA3101704791EA030FD4
:1057700010B581F000413FF5A1AC83F0004300F08B
:10578000EFB800002DE9F04101F5801CBCF5001FC9
:10579000C0F2C3804FEA115C21EA0C510CF1FD0C00
:1057A00041F480115FEA5C0C0CF5C07C01D3400031
:1057B00049413DA4890241EA905187028E0E0A0CAC
:1057C000A45D04FB04F602FB06F6C6F14046A4FB0A
:1057D0000662F60D46EA422606FB06F4A4FB012308
:1057E0005242C3F1404338BF5B1EA6FB0242002475
:1057F000E6FB0324D20B42EA4446A6FB0623A1FBA8
:1058000002E2A3FB07E4A4184FF0000252F10002E9
:10581000E3FB01426442C2F1404E38BFAEF1010EDB
:10582000A6FB04234FF00002E6FB0E32A2FB034668
:105830004FF00004B61954F10004E2FB0264A1FB2E
:1058400006E6A4FB07E816EB08064FF0000858F13F
:105850000008E4FB01687642C8F1405838BFA8F15F
:105860000108A2FB06E4A3FB08E52D194FF0000494
:1058700054F10004E2FB0854A1FB05E6A7FB04E891
:1058800018EB06084FF0000656F10006E1FB04860F
:1058900018F1200556F10006A809A8F11B08B10966
:1058A00008F03F08B8F10A0F40EA86601CD901EB06
:1058B0000C51BDE8F08100BFFCF5EEE8E2DDD8D385
:1058C000CFCBC7C3C0BDB9B6B4B1AEACA9A7A5A371
:1058D000A19F9D9B9A9896959392908F8D8C8B8982
:1058E0008887868584838281A0FB006800FB01F2A3
:1058F00008EB4208B8EB872807D5341858EB0104A9
:10590000D5D5401C51F10001D1E7341A78EB0104E0
:10591000CDD4401E71F10001C9E75FEA4C0C5FEA8B
:105920009C5C0DD105D34FF0000001F00041BDE8B3
:10593000F081BDE8F04170B5FFF7C4FE6DDBFFBE3E
:10594000BDE8F0414FF00000004970470000F87FCB
:1059500010B591EA030F48BF83F000433FF5AEABAB
:10596000841A71EB030C07D212198CF0004C43EB34
:105970000C03001B61EB0C01DFF8A4E14FEA1154AA
:10598000A4EB135C1EEA430F18BF9EEA445F00F0CD
:10599000B08023EA6E03524221EA0451C3EB6E0346
:1059A00038BF5B1EDCF1200E25D322FA0CFE10EB73
:1059B0000E0043FA0CFE41EB0E01CCF1200E03FA6F
:1059C0000EFE10EB0E0051F10001CCF1200E29D497
:1059D00012FA0EF201EB0451BDE8104058BF7047B7
:1059E000401C1CBFB2F1004F704700280CBF491C7F
:1059F00020F00100704712EB020E43EB030218BFC8
:105A00004FF0010E4EEA4202ACF1200CDCF11E0E0A
:105A100054D943FA0CFE10EB0E0051F1FF31CCF1DA
:105A20001E0ED5D50EF1010E12FA0EFE404141EBCD
:105A3000010101EB445C5FEA5C5C10D910EBDE70A5
:105A400001EB045138BFBEF1004FBDE8104018BF54
:105A5000704700280CBF491C20F00100704730D26D
:105A60004FEAD42C11F5001124F400641BD0B1FAD4
:105A700081F20B3AA41AA41ED2F12003914030FA0D
:105A800003F31943904001EBCC71002C01EB04515E
:105A9000BDE81040A8BF704701F1C0414FF00000C1
:105AA00001F000417047B0FA80F310FA03F100D121
:105AB00010BDE41A173C4805C90AE4E701EB04519C
:105AC00010BD491001EB0451BDE810404FEA300011
:105AD00002E04FF0000170474A0008BF0042F8D0D2
