:020000040800F2
:1000000018160020ED010008FD4A000821400008F4
:10001000F94A0008731300083D560008000000006C
:10002000000000000000000000000000FF010008C8
:10003000C51700080000000003020008294C000852
:10004000070200080702000807020008070200086C
:10005000070200080702000807020008070200085C
:10006000070200080702000807020008070200084C
:100070000702000895170008070200080702000899
:100080009717000807020008070200080702000887
:10009000070200080702000807020008070200081C
:1000A000070200080702000807020008070200080C
:1000B00007020008070200080702000807020008FC
:1000C00007020008070200080702000807020008EC
:1000D0000702000807020008D553000807020008BD
:1000E00007020008070200080702000807020008CC
:1000F00007020008070200080702000807020008BC
:1001000007020008070200080702000807020008AB
:100110000702000807020008994C000807020008BF
:10012000070200080702000807020008070200088B
:1001300000F002F800F04AF80AA090E8000C8244AF
:100140008344AAF10107DA4501D100F03FF8AFF28C
:10015000090EBAE80F0013F0010F18BFFB1A43F0A5
:10016000010318477894000098940000103A24BFC7
:1001700078C878C1FAD8520724BF30C830C144BF0C
:1001800004680C607047000000230024002500264E
:10019000103A28BF78C1FBD8520728BF30C148BFEA
:1001A0000B607047662909F00A80642900F080809E
:1001B000002070471FB500F097FB040000200021CD
:1001C00007F0BAFEE0601FBD10B510BD00F0A8FC3E
:1001D0001146FFF7EFFF07F0CFFC00F0C6FC03B4B9
:1001E000FFF7F2FF03BC05F0ADFE000009488047B1
:1001F00009480047FEE7FEE7FEE7FEE7FEE7FEE709
:10020000FEE7FEE7FEE7FEE704480549054A064B20
:1002100070470000974C000831010008180A0020C0
:1002200018160020180E0020180E0020704700003D
:100230000FB4044910B503AA029800F043FB10BCA8
:100240005DF814FB000000202DE9F0410E46044645
:10025000002020622046E168884730B3252805D079
:10026000D4E901219047206A401CF2E7E16820466A
:1002700000278847050018D0A5F14100192802D8A9
:1002800020354FF400673246294620462760FFF7A5
:1002900089FF40B1012804D0F61D26F00706083674
:1002A000D8E7361DD6E72846DAE7206ABDE8F081B0
:1002B0002DE9F0410646002410687529314616A53F
:1002C00010D0AFF30080002802DA404213A507E007
:1002D00031688A0701D512A502E0490704D511A5A6
:1002E000012401E0AFF3008000210A2206F1240777
:1002F00009E0B0FBF2FCB0FBF2F302FB1C00303073
:1003000078541846491C0028F3D123462A46304623
:10031000BDE8F04100F070B8000000002D000000C2
:100320002B0000002000000010B5203AC0F00B8028
:10033000B1E81850203AA0E81850B1E81850A0E8E9
:100340001850BFF4F5AF5FEA027C24BFB1E8185043
:10035000A0E8185044BF18C918C0BDE810405FEAB3
:10036000827C24BF51F8043B40F8043B08BF70472F
:10037000D20728BF31F8023B48BF11F8012B28BF34
:1003800020F8023B48BF00F8012B70474FF00002F5
:1003900000B5134694469646203922BFA0E80C507B
:1003A000A0E80C50B1F12001BFF4F7AF090728BF56
:1003B000A0E80C5048BF0CC05DF804EB890028BFD2
:1003C00040F8042B08BF704748BF20F8022B11F0FB
:1003D000804F18BF00F8012B704770477047704777
:1003E000704710B500F084FA006810BD10B50446DF
:1003F00000F07EFA046010BD2DE9F0470D469946E5
:100400009246044600F124080168880604D5E06994
:1004100021F01001216000E00120A84201DD471B0E
:1004200000E00027A1697A1902EB0900081AA0610F
:100430002078C00602D42046AFF30080002608E0F2
:10044000D4E901211AF806009047206A401C761C66
:1004500020624E45F4DB2078C0060AD52046AFF373
:10046000008006E0D4E9012130209047206A401C3A
:100470002062381EA7F10107F4DC07E0D4E901216E
:1004800018F805009047206A401C2062281EA5F13C
:100490000105F3DC2046AFF300802078000602D58A
:1004A0000220BDE8F0870120FBE770472DE9FF4FF0
:1004B0000C461E464FF0FF378BB0D2E90001DDF845
:1004C00060800A908A46C1F30A5505B93D4600216D
:1004D00008464FF00000BAF1000F00F4400005DAC2
:1004E00000EB80004FF4400101EA50004FEA9059C0
:1004F000B9F1010F00DDB9460A9850EA4A000ED062
:1005000044F61050A5F2FF3545432F14B8F1000F03
:100510001ED07542291E1EDDC9F100021CE0B8F193
:10052000010F4FF0000001D0302103E0F24305E05D
:100530002154401CB042FBDB3046002200212154F4
:100540000B99C1F80880C1E900200FB0BDE8F08F19
:10055000BD1B6D1CDEE74A4600DA694206A800F0C2
:1005600069FA06AB93E8070003AB83E8070050463F
:100570000A9900F043FB8DE80700A0F500501F38F2
:1005800000900398002D09DD42F21F014A460844FD
:1005900003A90390684600F0A2FD08E0A0F5005012
:1005A0004A461F3803A90390684600F0ACFD8DE869
:1005B00007000004000C03D04FF0FF30410800E0BA
:1005C0001046B8F1000F03D00022009215461EE03D
:1005D000751E05D400F090F9303262556D1EF9D5C4
:1005E000B3460122084302D000227F1C04E0207899
:1005F000302801D100227F1E002A099786D01DE0F5
:10060000112D07DA00F078F9303262556D1C50EA8E
:100610000102F5D1084302D00098C8B10EE00021D4
:10062000681E05E0235C625C63542254401E491C32
:100630008142F7DBAB46A81B401E0990002004F85E
:100640000B000B98099AC0F80880C0E9002B7CE7E2
:1006500011264FF0000859E72DE9F04F884604466F
:10066000D21D22F0070191B0D1E90001CDE90A01C4
:1006700005F042F802460B98C00F01D02D2007E08C
:100680002068810701D52B2002E0202101EAC0006B
:10069000032A099001D0072A05DB0346414620467C
:1006A00000F088F90BE12078800601D5E06900E0D0
:1006B0000620B8F1650F814606D0B8F1660F18D054
:1006C000B8F1670F70D131E00020B9F1110F00903F
:1006D00001DB112301E009F101030AAA01A90CA819
:1006E000FFF7E4FEDDE90C70002609F10105834601
:1006F00047E001204B4600904FF000470AAA01A9AD
:100700000CA8FFF7D3FEDDE90DB00C995D4600267D
:1007100010B909F101000D18B9EB050003D4C0F1BF
:10072000FF3609F10105A5EB09002BE0B9F1010F36
:1007300001DA4FF001090020B9F1110F009048468D
:1007400001DD112300E003460AAA01A90CA8FFF766
:10075000ADFEDDE90C704D4600268346207800078B
:100760000AD4AB4500DA5D4601A8012D04DD41192C
:1007700011F8011C302907D04F4502DA17F1040F98
:1007800004DA012082460FE06D1EEEE7002F02DC46
:10079000ED1B3E4403E0781CA84200DD7D1CB81B25
:1007A00000F1010A4FF000472078000703D4AA4562
:1007B00001DB4FF0FF3A0021B7F1004F0DF1430884
:1007C0008DF8431024D002202B23002F01DA7F4222
:1007D0002D230A21021EA0F1010000DC5FB197FB6E
:1007E000F1FC97FBF1F201FB1C7C17460CF1300C7D
:1007F00008F801CDEEE7A8F1010003702188090592
:1008000001D5452100E06521A0F1010800F8011C97
:1008100009980FA9A1EB0807FF1D00B1012041199C
:1008200001EBEA70A1693844081A401EA0612078E3
:10083000C00602D42046AFF30080099828B1D4E95D
:1008400001219047206A401C20622078C00622D5F2
:100850002046AFF300801EE0002E04DBB34502DD2E
:1008600001A8805D00E03020D4E901219047206A92
:10087000401C2062761CAAF101005FEA000A0AD13E
:1008800000F032F8C0680168405CD4E9012190476B
:10089000206A401C2062281EA5F10105DCDC07E06F
:1008A000D4E9012118F8010B9047206A401C20620E
:1008B000381EA7F10107F3DC2046AFF300800320C8
:1008C00011B043E6074B70B50D467B4400F05FF86E
:1008D0000446284600F01CF910B14FF0FF3070BDFF
:1008E000204670BDA36E000000487047D409002068
:1008F00000487047B409002030B5B0F10A024FEA51
:10090000900E71F100034EEA817EB0EB0E0061EBB8
:1009100091014FEA101E4EEA017E10EB0E0041EBF2
:1009200011114FEA102E4EEA016E10EB0E0041EB52
:1009300011214FEA104E4EEA014E10EB0E0041EB32
:100940001141401841F100014FEAD00040EA4170E6
:100950004FEAD10110EB80054FEA810444EA90741C
:1009600044EB01046D1944EB0404521BA3414FF006
:10097000000348BF0A3200D530BD401C41F10001E0
:1009800030BD000001694A1C02610878704700B55B
:100990008FB0CDE901310021059105497944CDE9B8
:1009A000031011466846FFF74FFC0FB000BD000072
:1009B000E5FFFFFF2DE9F0411F46044603260168CD
:1009C000072A01F4006004DB08B116A505E016A5AE
:1009D00003E008B115A500E015A521F01000206086
:1009E000A069C01EA0610FB1401EA0612046AFF3F8
:1009F00000804FB1D4E9012138469047206A401C5D
:100A00002062C01C206206E0206AFAE7D4E90121D6
:100A100015F8010B9047761EF8D22046AFF3008000
:100A2000BDE8F0814E414E006E616E00494E4600B9
:100A3000696E66002DE9F047814616468AB0334854
:100A400078440DC88DE80D0030487844801C03AC14
:100A50000DC884E80D0041F69B300844372190FB17
:100A6000F1F290FBF1F5A5F1800501FB12041B3CAE
:100A700002D56442012000E00020DFF890A080460B
:100A80000027FA44AAF1BE0A0DE0E00709D0324679
:100A9000684607EB47010AEB810100F034FB8DE863
:100AA000070064107F1C002CEFD1184F7F44AC3F2F
:100AB00018E0E80714D007EB04100DF1180A90E8CD
:100AC0000E008AE80E00C068F04201D19819089023
:100AD000324606A903A800F016FB03AB83E8070023
:100AE0006D10641C002DE4D132466946B8F1000F48
:100AF00003A802D000F0F3FA01E000F004FBC9E91A
:100B00000001C9F808200AB0BDE8F087808B00001A
:100B1000007B00F08000704700487047B409002057
:100B20007546FFF7F9FFAE4605006946534620F0CB
:100B30000700854618B020B5FFF766FBBDE82040EA
:100B40004FF000064FF000074FF000084FF0000B89
:100B500021F00701AC46ACE8C009ACE8C009ACE83C
:100B6000C009ACE8C0098D46704710B50446AFF324
:100B700000802046BDE81040FFF731BB4FF0013C3C
:100B800050F8042B51F8043B9A4221D1A2EB0C03FC
:100B9000934313EACC1317D150F8042B51F8043BBC
:100BA0009A4215D1A2EB0C03934313EACC130BD159
:100BB00050F8042B51F8043B9A4209D1A2EB0C03E4
:100BC000934313EACC13DBD04FF00000704700BF13
:100BD000D01A01BAB1FA81F101F0180122FA01F03C
:100BE000CB40C1F12001DBB2C0B2C01A2CFA01F334
:100BF000D11A914311EAC311E6D170475FEA400C64
:100C000008BF91F0000F4FEA8C234FEAC12243EA5C
:100C100051514FEA1C5018BF00F5F0404FEA300028
:100C200018BF41F000415FEA6C5C00F02980BCF124
:100C3000FF3F08BF40F080407047130C06BF12040E
:100C40004FF0100C4FF0000C130E04BF12020CF109
:100C5000080C130F04BF12010CF1040C930F04BF16
:100C600092000CF1020CD30F04BF52000CF1010CE6
:100C700011464FF00002A0F11F00A0EB0C007047DE
:100C800011F0004F08BF704731F000413FF4D5AF7D
:100C90000B0C06BF09044FF0100C4FF0000C0B0EAC
:100CA00004BF09020CF1080C0B0F04BF09010CF181
:100CB000040C8B0F04BF89000CF1020CCB0F04BF96
:100CC00049000CF1010CCCF12003A0EB0C0022FA3E
:100CD00003F302FA0CF241EA030100F1010070474C
:100CE00020F07F4C80EA030023F07F47ACEB070342
:100CF00003F57C5300F0004003F1FF032DE9804928
:100D00004FEA154B09B44FEA144325EA0B4E24EA87
:100D100003480FF2042606EB132749083E785FEAE2
:100D2000320203FB0667C7F5000707FB06F64FEA2A
:100D300054374FEAD64606F1020607FB066CCCF1A3
:100D4000005C4FEA1C472CEA074C07FB06F40CFB3F
:100D500006F504EB15464FEA961634BF00204FF017
:100D600000404FEAD13706FB07FC4FEA1C4C0CFB56
:100D70000BF7D21B03FB0CF761EB07010CFB0EF723
:100D8000B0EB074072EB17420CFB08F734BFA2EB45
:100D90000742B2EB074261EB17414FEA0C444FEABE
:100DA000910706FB07FC4FEA1C4C0CFB0BF7B0EB62
:100DB000C74072EB573203FB0CF734BFA2EBC742BC
:100DC000B2EBC74261EB57310CFB0EF7B0EBC7003B
:100DD00072EB57720CFB08F734BFA2EBC702B2EB01
:100DE000C70261EB5771039F4FEA816141EA92119B
:100DF00004EBCC044FEAD1374FEA826206FB07FCD2
:100E000042EA90124FEA80604FEA1C4C0CFB0BF751
:100E1000D21B03FB0CF761EB07010CFB0EF7B0EBE9
:100E2000074072EB17420CFB08F734BFA2EB0742F6
:100E3000B2EB074261EB17414FEA8C554FEA91073D
:100E400004EB9C2406FB07FC4FEA1C4C0CFB0BF745
:100E5000B0EBC74072EB573203FB0CF734BFA2EB89
:100E6000C742B2EBC74261EB57310CFB0EF7B0EB58
:100E7000C70072EB57720CFB08F734BFA2EBC70236
:100E8000B2EBC70261EB577115EB4C254FEA81615C
:100E900041EA92114FEA82624FEAD13742EA901258
:100EA00006FB07FC44F100044FEA80604FEA1C4C4B
:100EB0000CFB0BF7D21B03FB0CF761EB07010CFBE0
:100EC0000EF7B0EB074072EB17420CFB08F734BF8C
:100ED000A2EB0742B2EB074261EB174115EB1C1581
:100EE0004FEA813141EA92414FEA823242EA90422E
:100EF0004FEA80304FEA0C7644F1000448EA03439D
:100F00004EEA0B484FF0000EB2EB080C71EB0307F2
:100F100024BF624639464EEB0E0E4FF0000B001810
:100F2000524149414BEB0B0BB2EB080C71EB030741
:100F30007BF1000B24BF624639464EEB0E0E4FF09C
:100F4000000B0018524149414BEB0B0BB2EB080C64
:100F500071EB03077BF1000B24BF624639464EEB71
:100F60000E0E51EA020718BF46F0010616EB0E7688
:100F700055F1000254F1000103D5BDE88901BDE837
:100F80000088BDE88901BDE80048B619524141EB2F
:100F90000101A3F10103704780807F7E7D7C7B7A15
:100FA0007978777676757473727171706F6E6E6D15
:100FB0006C6C6B6A6A6968686766666564646363BB
:100FC00062616160605F5F5E5E5D5D5C5C5B5B5A41
:100FD0005A595958585757565655555554545353AE
:100FE00052525251515050504F4F4F4E4E4D4D4D09
:100FF0004C4C4C4B4B4B4A4A4A4949494848484754
:101000004747474646464545454444444443434391
:101010004342424242414141002B26D4770021D035
:101020001CB54FEA370703B44FF010004FF0100122
:101030004FF000000FBCBDE810400BF1010BBBF1FD
:10104000010F08BF5FEA170722BF12F1010211F179
:1010500001014FF0004143F1000300F0004043EA7A
:1010600000007047F9D35708DAE746EA064613F15D
:10107000400F4FEA16461FDD13F1200FDFBF164366
:101080000A46002120335B42C8D0C3F1200746EA5C
:10109000064602FA07F74FEA164646EA0706C3F184
:1010A000200722FA03F201FA07F721FA03F14FF0C1
:1010B000000342EA0702B1E746EA020646EA0646AC
:1010C0004FEA164646EA0106BCBF46EA0646360C1B
:1010D0004FF000034FF000024FF000019EE72DE9B2
:1010E000C048934630B491E8380007C831EA400C54
:1010F00048BF34EA430C03D5FFF7F2FDFFF78CFF3E
:10110000F0BCBDE800882DE9C048934630B491E8B2
:10111000380007C810F0804F08BF13F0804F03D18C
:1011200000F005F8FFF778FFF0BCBDE8008820F07C
:101130007F4780EA030023F07F4C07EB0C03A3F505
:101140007C5300F00040A3F1FE0392F0000F00F08A
:10115000B38095F0000F00F077802DE901494FEA48
:1011600011404FEA144621EA004800FB06FC24EA3D
:10117000064708FB06F607FB08F800FB07F718EB25
:1011800006484CEB164C4FEA124B18EB07484FEA57
:1011900015464CEB174022EA0B4E0BFB06FC25EAEA
:1011A00006470EFB06F607FB0EFE0BFB07F71EEBD2
:1011B000064E4CEB164C4FF000061EEB074E4CEB68
:1011C000174B18EB0B0840F1000018EB0E0B58EB17
:1011D000000840F100008F1A4FF000013CBFC943E6
:1011E000661B14BFB5EB040C00213CBFC943F61BC2
:1011F0004FEA17444EEA8E0E27EA04454FEA1C4791
:1012000004FB07622CEA074C05FB07F70CFB05F60D
:1012100004FB0CFC16EB074642EB174216EB0C46A0
:1012200042EB1C421BEB060658EB0202414146EA28
:101230009E0601D5BDE80189B619524141EB010175
:10124000A3F10103BDE801894FEA14454FEA1147B4
:1012500024EA054621EA074C05FB07F406FB07F7DD
:101260000CFB06F105FB0CFC11EB074144EB1744AA
:101270004FEA124711EB0C4144EB1C4422EA074CA5
:1012800005FB07F206FB07F70CFB06F605FB0CFC5B
:1012900016EB074642EB174216EB0C4642EB1C4599
:1012A0006A1854F1000148BF7047B619524141EB2A
:1012B0000101A3F10103704795F0000F37D04FEA09
:1012C00011424FEA144721EA024624EA074C02FB86
:1012D00007F106FB07F70CFB06F402FB0CFC14EB12
:1012E000074441EB17414FEA154714EB0C4441EB1F
:1012F0001C4125EA074C02FB07F506FB07F70CFB30
:1013000006F602FB0CFC16EB074645EB174516EB01
:101310000C4645EB1C42121951F1000148BF7047C1
:10132000B619524141EB0101A3F1010370474FEAA5
:1013300014454FEA114724EA054621EA074C05FB0C
:1013400007F106FB07F70CFB06F24FF0000605FB62
:101350000CFC12EB074241EB174112EB0C4251EB34
:101360001C4148BF7047921841EB0101A3F10103F2
:10137000704700BFFEE72DE9FE4F06460C461546B6
:10138000A660E168A86807F06DFD029021696868B1
:1013900007F068FD82462168686907F063FD0190E7
:1013A0006168286907F05EFD0090A168E86807F0B1
:1013B00059FD8346009907F06FFB8146019907F0BC
:1013C0006BFB8046514607F085FE0746029907F001
:1013D00081FE606160682060A06860602069E060F4
:1013E000616921616069BDE8FE8F000010B586B0BB
:1013F00000200390049005901BA0FEF719FF002425
:1014000017E001A803F0C6F8BDF9041003980844DA
:101410000390BDF90610049808440490BDF9080033
:10142000A0F58050059908440590052000F0B0FB18
:10143000641C642CE5DB039890FBF4F01049086011
:10144000049890FBF4F04860059890FBF4F08860F5
:1014500008468368426801680AA0FEF7E9FE11A009
:10146000FEF7E6FE06B010BD4163632043616C6980
:1014700062726174696F6E2053746172740A0D0038
:101480008C0400204163635F526177446174615F43
:101490004F66667365743A25642C25642C25640AAE
:1014A0000D0000004163632043616C6962726174E6
:1014B000696F6E2053746F700A0D000010B586B00E
:1014C00000200390049005901AA0FEF7B1FE0024BE
:1014D00015E001A803F090F8BDF904100398084442
:1014E0000390BDF90610049808440490BDF9081053
:1014F000059808440590052000F04AFB641C642C04
:10150000E7DB039890FBF4F011490860049890FB26
:10151000F4F04860059890FBF4F088600846836812
:10152000426801680BA0FEF783FE12A0FEF780FE62
:1015300006B010BD4779726F2043616C69627261B9
:1015400074696F6E2053746172740A0D000000009C
:10155000980400204779726F5F526177446174612B
:101560005F4F66667365743A25642C25642C256488
:101570000A0D00004779726F2043616C69627261E5
:1015800074696F6E2053746F700A0D002DE9F0417D
:1015900075497648006807F065FC804607F050FA08
:1015A000064606F099FB044606F0DCFC704908602C
:1015B0006D496E48006807F055FC804607F040FA18
:1015C000064605F0C9FF044606F0CCFC69490860F0
:1015D00065496948006807F045FC804607F030FA25
:1015E000064606F079FB044606F0BCFC6349086039
:1015F0005D496148006807F035FC804607F020FA35
:10160000064605F0A9FF044606F0ACFC5C490860FC
:1016100055495C48006807F025FC804607F010FA41
:10162000064606F059FB044606F09CFC5649086045
:101630004D495448006807F015FC804607F000FA51
:10164000064605F089FF044606F08CFC4F49086009
:101650004B4801684D48006807F004FC4C4908609D
:10166000494801684348006807F0FCFB05464348C9
:1016700001683F48006807F0F5FB064643480168EB
:10168000304607F0EFFB0446294607F023FD4049AA
:1016900048603A4801683748006807F0E3FB0646AF
:1016A0003A480168304607F0DDFB044636480168D9
:1016B0002F48006807F0D6FB0546214607F0ECF9F5
:1016C000334988602E4801682F48006807F0CAFB3C
:1016D0002F49C8602D4801682648006807F0C2FB02
:1016E0000546264801682248006807F0BBFB06460D
:1016F00025480168304607F0B5FB0446294607F047
:10170000CBF923490861214801681948006807F0AE
:10171000A9FB0546194801681648006807F0A2FBB6
:10172000064619480168304607F09CFB04462946E6
:1017300007F0D0FC164948611048006880F000406E
:1017400088610F4801680A48006807F08BFB104960
:10175000C8610B4801680748006807F083FB0C4923
:101760000862BDE8F081000035FA8E3C4800002098
:10177000500000205C0000204C000020540000209D
:101780006000002044000020580000206400002079
:10179000E40400207047704730B590F840500124B1
:1017A000AC40C56B6C60046863604468102C04D165
:1017B0000468A2600468E16003E00468A160046852
:1017C000E26030BD704772B600BFFEE772B6234AD2
:1017D000516A027802BB01220270214A1268126922
:1017E00002F0010262B141F28832914208D21D4AF0
:1017F0001268521C42F2107303FB0212826006E070
:10180000184A126842F2107303FB02128260826867
:1018100042600022C2601FE082684260104A126883
:10182000126902F0010262B141F28832914208D29B
:101830000C4A1268521C42F2107303FB02128260BF
:1018400006E0084A126842F2107303FB021282603B
:10185000D0E90132D21AC26062B67047001000406F
:10186000140200201C0000200146002291F82100F3
:10187000022808D00420886300BF002081F82000DF
:1018800000BF012070470868006820F00E000B6858
:1018900018600868006820F001000B68186091F873
:1018A000403001209840CB6B5860012081F8210026
:1018B00000BF002081F8200000BF1046E2E70000D2
:1018C00070B50446002594F82100022803D00420B6
:1018D000A0630125C1E02068006820F00E002168A7
:1018E00008602068006820F00100216808605C49F9
:1018F0002068884252D95A4978392068884201D1F3
:10190000012047E0564964392068884201D11020FF
:1019100040E0534950392068884201D1801539E0B0
:101920004F493C392068884201D1801432E04C494B
:1019300028392068884202D14FF480302AE0484993
:1019400014392068884202D14FF4801022E04449C3
:101950002068884201D140041CE042492068884246
:1019600001D1012016E03F4914312068884201D19D
:1019700010200FE03B4928312068884201D18015B2
:1019800008E038493C312068884201D1801401E0E8
:101990004FF480303349091F086051E030497839ED
:1019A0002068884201D1012047E02D496439206830
:1019B000884201D1102040E02949503920688842EE
:1019C00001D1801539E026493C392068884201D18F
:1019D000801432E0224928392068884202D14FF42D
:1019E00080302AE01E4914392068884202D14FF421
:1019F000801022E01A492068884201D140041CE08E
:101A000018492068884201D1012016E01549143197
:101A10002068884201D110200FE012492831206847
:101A2000884201D1801508E00E493C312068884287
:101A300001D1801401E04FF48030094980394860B9
:101A4000012084F8210000BF002084F8200000BF9E
:101A5000606B10B12046616B8847284670BD00005E
:101A600080000240080402400146002209B901201A
:101A700070471E4B086898420BD21D4B0868C01A6D
:101A80001423B0FBF3F08000086419480838C863D9
:101A90000AE0164B0868C01A1423B0FBF3F080006C
:101AA000086412480838C863022081F821000868D9
:101AB000026843F6F0708243D1E901031843CB6812
:101AC00018430B6918434B6918438B691843CB695A
:101AD000184302430868026000208863012081F8EF
:101AE0002100002081F8200000BFC1E70804024067
:101AF000080002402DE9F04104460D4616461F46F7
:101B00004FF0000800BF94F82000012802D1022005
:101B1000BDE8F081012084F8200000BF94F8210086
:101B200001282CD1022084F821000020A063206825
:101B3000006820F00100216808603B4632462946D3
:101B40002046FFF729FEE06A30B12068006840F0C7
:101B50000E00216808600BE02068006820F0040097
:101B6000216808602068006840F00A002168086069
:101B70002068006840F001002168086006E000BFAE
:101B8000002084F8200000BF4FF002084046BFE765
:101B900070B5044600F0B0F906462546681C10B141
:101BA00004480078054400BF00F0A6F9801BA84255
:101BB000FAD370BD0C0000202DE9F847024600233F
:101BC0009C467BE14FF0010808FA03F4D1F800804D
:101BD00008EA0400A0427DD1DFF8F4A2D1F8048025
:101BE000A8EB0A09D0453AD014DCB8F1030F50D065
:101BF00009DCB8F1000F31D0B8F1010F1CD0B8F1F9
:101C0000020F49D120E0B8F1110F18D0B8F1120F2E
:101C100042D11EE0B9F5881F25D006DCB9F5803F1A
:101C200020D0B9F5801F37D11AE0B9F5001F18D0C0
:101C3000B9F5041F30D117E0D1F80CC02DE0D1F870
:101C40000C8008F1040C28E0D1F80C8008F1080C95
:101C500023E0D1F80C8008F10C0C1EE000BF00BF9F
:101C600000BF00BF00BF00BFD1F80880B8F1000F6F
:101C700002D14FF0040C0BE0D1F80880B8F1010F4D
:101C800003D14FF0080C146102E04FF0080C5461CE
:101C900003E04FF0000C00E000BF00BFFF2801D8B8
:101CA000904601E002F104084646FF2802D84FEAB8
:101CB000830803E0A3F108084FEA88084746D6F8EE
:101CC00000804FF00F0909FA07F928EA09080CFA11
:101CD00007F900E07AE048EA0908C6F80080D1F880
:101CE000048008F08058B8F1805F6FD100BFDFF842
:101CF000E481D8F8188048F00108DFF8D891C9F8D5
:101D00001880C846D8F8188008F00108CDF800807F
:101D100000BF00BF4FEAB9384FEA930958F829507D
:101D20004FEA83784FEA18794FF00F0808FA09F85C
:101D300025EA0805DFF8A081424502D14FF00008EE
:101D400024E0DFF89881424502D14FF001081DE000
:101D5000DFF88C81424502D14FF0020816E0DFF82F
:101D60008481424502D14FF003080FE0DFF878810B
:101D7000424502D14FF0040808E0DFF87081424587
:101D800002D14FF0050801E04FF006084FEA8379D1
:101D90004FEA197908FA09F848EA0505DFF8508191
:101DA0004FEA930948F82950D1F8048008F48038A4
:101DB000B8F5803F0BD1DFF83C81D8F8008048EAC5
:101DC0000008DFF83091C9F800800AE075E0DFF81C
:101DD0002481D8F8008028EA0008DFF81891C9F8B3
:101DE0000080D1F8048008F40038B8F5003F0ED127
:101DF000DFF8008108F10408D8F8008048EA0008FC
:101E0000DFF8F09009F10409C9F800800DE0DFF86F
:101E1000E48008F10408D8F8008028EA0008DFF818
:101E2000D49009F10409C9F80080D1F8048008F4BD
:101E30008018B8F5801F0ED1DFF8B88008F10808C7
:101E4000D8F8008048EA0008DFF8A89009F10809EE
:101E5000C9F800800DE0DFF89C8008F10808D8F888
:101E6000008028EA0008DFF88C9009F10809C9F819
:101E70000080D1F8048008F40018B8F5001F0ED1D6
:101E8000DFF8708008F10C08D8F8008048EA0008F4
:101E9000DFF8609009F10C09C9F800800DE0DFF867
:101EA000548008F10C08D8F8008028EA0008DFF810
:101EB000449009F10C09C9F800805B1CD1F800803E
:101EC00028FA03F8B8F1000F7FF47CAEBDE8F8877C
:101ED000000011100010024000080140000C0140F9
:101EE000001001400014014000180140001C014096
:101EF00008000140000401400148006870470000EC
:101F00000400002070B504460CB9012070BD94F89F
:101F10003D0028B9002084F83C00204600F03EFB3C
:101F2000242084F83D002068006820F0010021682A
:101F300008602068006840F400402168086020685C
:101F4000006820F400402168086000F0FFFC0546AE
:101F50005C496068884206D85B48854201D201200E
:101F600007E0002005E05948854201D2012000E049
:101F70000020012800D1C9E75548B5FBF0F62068DC
:101F8000406820F03F003043216848604D49606858
:101F9000884201D8701C07E04FF4967070434FF4EC
:101FA0007A71B0FBF1F0401C2168096A21F03F0111
:101FB00008432168086243496068884214D8681E53
:101FC00061684900B0FBF1F0401CC0F30B0004282D
:101FD00001D204203DE0681E61684900B0FBF1F0C9
:101FE000401CC0F30B0034E0A06838B9681E61687B
:101FF00001EB4101B0FBF1F0401C0AE0681E616892
:1020000001EBC10202EB0111B0FBF1F0401C40F406
:102010008040C0F30B0008B901201AE0A06848B95D
:10202000681E616801EB4101B0FBF1F0401CC0F398
:102030000B000CE0681E616801EBC10202EB0111AC
:10204000B0FBF1F0401CC0F30B0040F4804040F4C2
:1020500000402168C9694CF6FF729143084321682A
:10206000C861D4E9070108432168096821F0C0016B
:10207000084321680860D4E903100843216889688F
:1020800048F2FF329143084321688860D4E9050192
:1020900008432168C96821F0FF0108432168C8602E
:1020A0002068006840F0010021680860002020647A
:1020B000202084F83D000020206384F83E0000BF0B
:1020C00024E70000A086010080841E0000093D0076
:1020D00040420F002DE9FE4F04460F4690469946B8
:1020E000DDE90CAB0E9E00200290FFF705FF0546D0
:1020F00094F83D00202872D119230122CA492046B4
:10210000009502F0FDF810B10220BDE8FE8F00BF7F
:1021100094F83C00012801D10220F6E7012084F860
:102120003C0000BF2068006800F0010028B920686A
:10213000006840F00100216808602068006820F411
:10214000006021680860222084F83D00402084F867
:102150003E0000202064C4F824A0A4F82AB0608DBA
:102160002085B248E0624B46424639462046CDE9DA
:10217000006501F077FF08B10120C6E7208D88B91E
:1021800000BF0020019020684069019020688069AC
:10219000019000BF00BF2068006840F40070216813
:1021A00008604BE0208D01281AD12068006820F4D7
:1021B00080602168086072B600BF0020019020682E
:1021C0004069019020688069019000BF00BF2068CD
:1021D000006840F400702168086062B62EE020E1DB
:1021E000208D022819D12068006840F40060216821
:1021F000086072B600BF002001902068406901901D
:1022000020688069019000BF00BF2068006820F44A
:1022100080602168086062B610E02068006840F4C1
:1022200080602168086000BF00200190206840693C
:10223000019020688069019000BF00BFE2E0208D1E
:1022400003287DD8208D012815D12A463146204605
:1022500002F0FBF808B1012057E720680069616AC5
:102260000870606A401C6062208D401E2085608D71
:10227000401E6085C6E0208D02282CD13346002206
:102280006B492046009502F03BF808B101203CE77D
:1022900072B62068006840F4007021680860206809
:1022A0000069616A0870606A401C6062208D401E8F
:1022B0002085608D401E608562B620680069616A75
:1022C0000870606A401C6062208D401E2085608D11
:1022D000401E608596E03346002255492046009511
:1022E00002F00EF808B101200FE72068006820F422
:1022F00080602168086072B620680069616A0870B1
:10230000606A401C6062208D401E2085608D401EEA
:102310006085484800681921B0FBF1F04FF47A71EC
:10232000B0FBF1F0C0EBC00000EB8000029000BFFA
:102330000298401E02900298A8B90020206300E095
:1023400039E0202084F83D00002084F83E00206C15
:1023500040F02000206462B600BF002084F83C00FA
:1023600000BF0120D1E620684069C0F3800000284A
:10237000DED02068006840F40070216808602068A2
:102380000069616A0870606A401C6062208D401EAE
:102390002085608D401E608562B620680069616A94
:1023A0000870606A401C6062208D401E2085608D30
:1023B000401E608526E02A463146204602F045F858
:1023C00008B10120A1E620680069616A0870606AAE
:1023D000401C6062208D401E2085608D401E6085FF
:1023E00020684069C0F3800060B120680069616ABC
:1023F0000870606A401C6062208D401E2085608DE0
:10240000401E6085208D00287FF419AF202084F8BD
:102410003D00002084F83E0000BF84F83C0000BF6F
:1024200073E6022071E60000020010000000FFFFCA
:1024300004000100100000202DE9FC5F04460F4657
:1024400090469946DDE90CAB0E9EFFF755FD05461B
:1024500094F83D0020287DD1192301224D492046C2
:10246000009501F04DFF10B10220BDE8FC9F00BFB8
:1024700094F83C00012801D10220F6E7012084F8FD
:102480003C0000BF2068006800F0010028B9206807
:10249000006840F00100216808602068006820F4AE
:1024A000006021680860212084F83D00402084F805
:1024B0003E0000202064C4F824A0A4F82AB0608D57
:1024C00020853548E0624B46424639462046CDE9F4
:1024D000006501F077FE08B10120C6E731E02A4629
:1024E0003146204601F0F1FF50B1206C042805D19F
:1024F0002068006840F40070216808600120B4E79B
:10250000606A007821680861606A401C6062208D02
:10251000401E2085608D401E608520684069C0F3A4
:10252000800070B1208D60B1606A00782168086118
:10253000606A401C6062208D401E2085608D401EB8
:102540006085208D0028CAD12A463146204601F0F8
:10255000A9FE00E01CE050B1206C042805D12068E1
:10256000006840F400702168086001207DE7206861
:10257000006840F4007021680860202084F83D0065
:10258000002084F83E0000BF84F83C0000BF6CE7E8
:1025900002206AE7020010000000FFFF10B586B0BD
:1025A000044600200290039004900590154920688D
:1025B000884225D100BF1448806940F008001249C4
:1025C00088610846806900F00800019000BF00BFE4
:1025D000C0200290122003900320059002A90B480E
:1025E000FFF7EAFA00BF0848C06940F40010064946
:1025F000C8610846C06900F40010019000BF00BF28
:1026000006B010BD0054004000100240000C014014
:102610000348006803490978084401490860704785
:10262000040000200C00002010B50848006840F0AD
:10263000100006490860032000F0A8F80F2000F001
:1026400007F800F02BF8002010BD00000020024029
:1026500070B504460E4800784FF47A71B1FBF0F083
:102660000C490968B1FBF0F5284600F00BFC08B1F5
:10267000012070BD102C07D200222146501E00F010
:1026800047F80548046001E00120F2E70020F0E788
:102690000C000020100000200800002008B500BF3A
:1026A0001148806940F001000F498861084680693F
:1026B00000F00100009000BF00BF00BF0846C069E5
:1026C00040F08050C8610846C06900F0805000901A
:1026D00000BF00BF00BF0549486820F0E06040F03F
:1026E0000070486000BF08BD0010024000000140BB
:1026F00001460846002809DB00F01F0301229A402A
:1027000043099B0003F1E023C3F8002100BF704799
:102710002DE9F05F80460D461646002703F014F8B9
:10272000074639462A46334601F00700C0F1070A3A
:10273000BAF1040F02D94FF0040A01E0C0F1070A10
:10274000D14600F1040ABAF1070F02D24FF0000A95
:1027500001E0A0F1030AD4464FF0010A0AFA09FA8F
:10276000AAF1010A0AEA020A0AFA0CFA4FF0010B6E
:102770000BFA0CFBABF1010B0BEA030B4AEA0B045F
:102780002146404602F0E8FFBDE8F09F00BF00F0A0
:102790000702064B19684FF6FF031940044B0B4321
:1027A00043EA0221014B196000BF70470CED00E0C5
:1027B0000000FA0570B504460D460CB9012070BD45
:1027C0005A48006800F00700A8420ED25748006837
:1027D00020F007002843554908600846006800F0CB
:1027E0000700A84201D00120E9E7207800F00200AC
:1027F00002281DD1207800F00400042805D14C489F
:10280000406840F4E0604A494860207800F00800E1
:10281000082805D14648406840F460504449486063
:102820004348406820F0F000A168084340494860F0
:10283000207800F0010078B36068012806D13C4898
:10284000006800F4003090B90120B8E76068022801
:1028500006D13748006800F0007040B90120AEE7AB
:102860003348006800F0020008B90120A7E73048AB
:10287000406820F00300616808432D494860FFF775
:102880003BFB064609E0FFF737FB801B41F288312E
:10289000884202D9032092E707E02548406800F00B
:1028A0000C006168B0EB810FEDD12048006800F0AA
:1028B0000700A8420ED91D48006820F007002843F1
:1028C0001A4908600846006800F00700A84201D0D5
:1028D000012074E7207800F00400042807D1144890
:1028E000406820F4E060E1680843114948602078BE
:1028F00000F00800082808D10D48406820F4605016
:10290000216940EAC1000A49486000F03FF80849DF
:102910004968C1F30311074A515CC8400649086081
:1029200006480068FFF794FE002048E700200240B8
:1029300000100240FE920008100000200800002055
:1029400001480068704700001000002000B5FFF744
:10295000F7FF04494968C1F30221034A515CC840AA
:1029600000BD0000001002400E93000800B5FFF704
:10297000E7FF04494968C1F3C221034A515CC840DA
:1029800000BD0000001002400E930008F0B585B0B5
:102990000FF26C0C9CE8E01001A8A0E8E0101CA568
:1029A0002D68009500210022002300240020194DED
:1029B000696801F00C05F5B1042D02D0082D19D17C
:1029C00001E0154819E001ADC1F38346AC5D01F4A7
:1029D000803555B10F4D6D68C5F340451DF8052094
:1029E0000D4D6543B5FBF2F302E00C4D04FB05F31E
:1029F000184602E000BF084800BF00BF05B0F0BDA8
:102A000002030405060708090A0B0C0D0E0F10102F
:102A1000010200000010024000127A0000093D008F
:102A2000F8B504460CB90120F8BD207800F001008B
:102A3000002878D0F848406800F00C0004280CD03A
:102A4000F548406800F00C00082811D1F2484068B1
:102A500000F48030B0F5803F0AD1EF48006800F400
:102A6000003000285FD0606800285CD10120DBE7DF
:102A700000BF6068B0F5803F06D1E748006840F4C9
:102A80008030E549086028E0606858B9E24800688D
:102A900020F48030E04908600846006820F4802077
:102AA00008601AE06068B0F5A02F0BD1DA48006822
:102AB00040F48020D84908600846006840F480301F
:102AC00008600AE0D448006820F48030D2490860E9
:102AD0000846006820F48020086000BF606888B164
:102AE000FFF70AFA054606E0FFF706FA401B6428DE
:102AF00001D9032098E7C848006800F40030002896
:102B0000F2D010E0FFF7F8F9054606E0FFF7F4F918
:102B1000401B642801D9032086E7BF48006800F401
:102B200000300028F2D1207800F00200022857D1AE
:102B3000B948406800F00C0050B1B748406800F058
:102B40000C00082818D1B448406800F4803098B9C7
:102B5000B148006800F0020020B12069012801D0CE
:102B6000012061E7AC48006820F0F800616940EAA4
:102B7000C100A949086033E02069E8B10120A749F4
:102B80000860FFF7B9F9054606E0FFF7B5F9401B05
:102B9000022801D9032047E79F48006800F002009F
:102BA0000028F2D09C48006820F0F800616940EAF3
:102BB000C1009949086013E0002098490860FFF7B8
:102BC0009BF9054606E0FFF797F9401B022801D95B
:102BD000032029E79048006800F002000028F2D1A5
:102BE000207800F0080008282DD1A069B8B1012094
:102BF0008B490860FFF780F9054606E0FFF77CF98E
:102C0000401B022801D903200EE78348406A00F0E8
:102C100002000028F2D0012001F072FF13E0002032
:102C20007F490860FFF768F9054606E0FFF764F999
:102C3000401B022801D90320F6E67748406A00F0DD
:102C400002000028F2D1207800F00400042873D19B
:102C500000277148C06900F0805070B900BF6E480D
:102C6000C06940F080506C49C8610846C06900F0F6
:102C70008050009000BF00BF01276A48006800F440
:102C80008070B0B96748006840F48070654908609A
:102C9000FFF732F9054606E0FFF72EF9401B6428DE
:102CA00001D90320C0E65F48006800F48070002866
:102CB000F2D000BFE068012806D15748006A40F012
:102CC00001005549086227E0E06858B95248006A97
:102CD00020F00100504908620846006A20F0040014
:102CE000086219E0E06805280BD14B48006A40F003
:102CF0000400494908620846006A40F00100086281
:102D00000AE04548006A20F001004349086208468D
:102D1000006A20F00400086200BFE068A0B1FFF77D
:102D2000EBF8054609E0FFF7E7F8401B41F2883170
:102D3000884202D9032077E622E03748006A00F093
:102D400002000028EFD012E0FFF7D6F8054608E0B1
:102D5000FFF7D2F8401B41F28831884201D90320A5
:102D600062E62D48006A00F002000028F0D1012F31
:102D700005D12948C06920F080502749C86100BFAB
:102D8000E069C8B32448406800F00C00082860D00F
:102D9000E069022848D1002020490866FFF7ACF816
:102DA000054606E0FFF7A8F8401B022801D90320DA
:102DB0003AE61948006800F000700028F2D1206A55
:102DC000B0F5803F07D11448406820F40030A16876
:102DD000084311494860D4E9080108430E4949688D
:102DE00021F4741108430C49486001200B4908661E
:102DF000FFF782F8054607E03DE0FFF77DF8401B4E
:102E0000022801D903200FE60348006800F0007093
:102E10000028F2D02FE000000010024000004242E3
:102E20008004424200700040002014490866FFF709
:102E300063F8054606E0FFF75FF8401B022801D95A
:102E40000320F1E50E48006800F000700028F2D180
:102E500011E0E069012800D1E6E50948466806F47A
:102E60008031206A814204D106F47011606A814287
:102E700001D00120D8E50020D6E500000000424244
:102E80000010024070B504462546681EB0F1807FF0
:102E900001D301200FE0681E4FF0E02148610F21AF
:102EA0004FF0FF3002F058FC00204FF0E021886125
:102EB00007200861002070BD7047704710B50346B9
:102EC000002200BF93F83C00012801D1022010BD70
:102ED000012083F83C0000BF22F0FF00CC6840EAEC
:102EE000040222F440708C6840EA040222F48060FC
:102EF0004C6840EA040222F400600C6840EA0402D4
:102F000022F480500C6940EA040222F400504C691B
:102F100040EA040222F48040CC6940EA04021868C6
:102F2000426400BF002083F83C0000BF00BFCEE732
:102F300030B502460B4600BF92F83C00012801D193
:102F4000022030BD012082F83C0000BF022082F840
:102F50003D00106844681068816824F070041868A7
:102F6000044310684460144D1068A84213D0134DF8
:102F70001068A8420FD01068B0F1804F0BD0104DF0
:102F80001068A84207D00F4D1068A84203D00E4D1C
:102F90001068A84205D121F08001586801431068EB
:102FA0008160012082F83D0000BF002082F83C00D3
:102FB00000BF00BFC5E70000002C01400034014005
:102FC0000004004000080040000C004010B504461A
:102FD0000CB9012010BD94F83D0028B9002084F8F8
:102FE0003C00204600F026F8022084F83D00211D18
:102FF000206801F059FE012084F8460000BF84F8E3
:103000003E0001213F20015540200155412001553E
:1030100000BF00BF012084F8420043200155442036
:1030200001554520015500BF012084F83D000020D6
:10303000D0E7000038B504461F49206888420DD10A
:1030400000BF1E48806940F400601C498861084642
:10305000806900F40060009000BF2BE018492068F0
:1030600088420DD100BF1548C06940F004001349E3
:10307000C8610846C06900F00400009000BF19E074
:1030800010492068884215D100BF0C48C06940F043
:1030900010000A49C8610846C06900F0100000909D
:1030A00000BF00BF002211463620FFF731FB36205B
:1030B000FFF71EFB38BD0000002C0140001002404D
:1030C0000008004000100040014691F83D00012832
:1030D00001D001207047022081F83D000868C068D7
:1030E00040F001000B68D860164B0868984213D076
:1030F000154B086898420FD00868B0F1804F0BD08C
:10310000124B0868984207D0114B0868984203D0C8
:10311000104B086898420CD10868806800F00702DC
:10312000062A0CD00868006840F001000B6818609F
:1031300005E00868006840F001000B681860002096
:10314000C8E70000002C01400034014000040040AA
:1031500000080040000C00402DE9F04104460D46F7
:1031600000BF94F83C00012802D10220BDE8F081A4
:10317000012084F83C0000BF022084F83D00206854
:10318000866826F0770626F47F46206886602868E1
:10319000502833D00CDC202850D004DC00284BD041
:1031A000102851D149E0302849D040284CD139E08D
:1031B00060282DD0702807D0B0F5805F03D0B0F51F
:1031C000005F41D10DE040E0D5E902136A68206854
:1031D00001F0C9FD2068866846F0770620688660A1
:1031E00033E0D5E902136A68206801F0BCFD20686D
:1031F000806840F480402168886026E0EA68696859
:10320000206801F0A1FE5021206801F0B7FD1CE00C
:10321000EA686968206801F0AAFE6021206801F070
:10322000ADFD12E0EA686968206801F08DFE40217A
:10323000206801F0A3FD08E000BF00BF00BF2968BF
:10324000206801F09BFD00E000BF00BF012084F872
:103250003D0000BF002084F83C0000BF00BF85E7B0
:103260002DE9F04104460D4614B90120BDE8F08176
:1032700094F83D0028B9002084F83C00204600F076
:1032800051F8022084F83D002068806844F207016C
:10329000884321688860211D206801F005FD2068B1
:1032A000D0F80880206886692068076A286840EAA4
:1032B000080840F203308643A969A86840EA012063
:1032C000064340F60C4086434FF2F0008643E9691E
:1032D000E86840EA0120064328690001296A40EABB
:1032E0000130064327F022076969686840EA011047
:1032F00007432068C0F8088020688661206807625C
:10330000012084F8460084F83E0001213F20015549
:10331000012084F8420043200155012084F83D003B
:103320000020A3E710B586B0044600200290039069
:10333000049005902068B0F1804F24D100BF274849
:10334000C06940F001002549C8610846C06900F025
:103350000100019000BF00BF00BF0846806940F037
:10336000040088610846806900F00400019000BFF5
:1033700000BF0320029000200390049002A9184887
:10338000FEF71AFC27E017492068884223D100BFC6
:103390001248C06940F002001049C8610846C0697F
:1033A00000F00200019000BF00BF00BF0846806926
:1033B00040F0040088610846806900F00400019034
:1033C00000BF00BFC020029000200390049002A91B
:1033D0000348FEF7F1FB06B010BD000000100240EC
:1033E00000080140000400402DE9F04304460D466A
:1033F00094F83E603F20075D94F84280432010F827
:1034000004906DB9012E02D1B8F1010F02D0012054
:10341000BDE8F083022084F83E0084F8420025E0F5
:10342000042D0CD1012F02D1B9F1010F01D00120DF
:10343000EEE702213F2001554320015516E0012E01
:1034400007D1012F05D1B8F1010F02D1B9F1010F58
:1034500001D00120DCE7022084F83E0002213F2059
:103460000155022084F842004320015515B1042D76
:103470000CD105E001220021206801F063FC10E07E
:1034800001220421206801F05DFC0AE001220021F4
:10349000206801F057FC01220421206801F052FC51
:1034A00000BF00BF2068006840F00100216808608C
:1034B0000020ADE7704710B5044620680069C0F3EE
:1034C0004000D8B12068C068C0F34000B0B16FF0D0
:1034D000020021680861012020772068806900F0DF
:1034E000030018B12046FFF7E5FF05E0204600F095
:1034F000FBF8204600F0ABF9002020772068006937
:10350000C0F38000D8B12068C068C0F38000B0B1BB
:103510006FF004002168086102202077206880692C
:1035200000F4407018B12046FFF7C4FF05E02046C4
:1035300000F0DAF8204600F08AF9002020772068B1
:103540000069C0F3C000D8B12068C068C0F3C000F3
:10355000B0B16FF00800216808610420207720686E
:10356000C06900F0030018B12046FFF7A3FF05E093
:10357000204600F0B9F8204600F069F900202077D5
:1035800020680069C0F30010D8B12068C068C0F39B
:103590000010B0B16FF0100021680861082020779A
:1035A0002068C06900F4407018B12046FFF782FF20
:1035B00005E0204600F098F8204600F048F9002089
:1035C00020772068006900F0010058B12068C068C9
:1035D00000F0010030B16FF0010021680861204661
:1035E00000F0B0F920680069C0F3C01058B120683D
:1035F000C068C0F3C01030B16FF08000216808616E
:103600002046FFF759FC20680069C0F3801058B1CC
:103610002068C068C0F3801030B16FF040002168AE
:103620000861204600F07AFA20680069C0F3401073
:1036300058B12068C068C0F3401030B16FF020006E
:10364000216808612046FFF738FC10BD10B586B030
:103650000446002002900390049005901D492068C4
:10366000884218D100BF1C48806940F004001A4904
:1036700088610846806900F00400019000BF00BF27
:103680004FF41060029002200390059002A91348A5
:10369000FEF792FA1BE012492068884217D100BF5A
:1036A0000D48806940F008000B4988610846806930
:1036B00000F00800019000BF00BF4FF4407002907E
:1036C00002200390059002A90648FEF775FA06B09D
:1036D00010BD0000002C0140001002400008014015
:1036E00000080040000C0140704770B504460D46CC
:1036F000164600BF94F83C00012801D1022070BD9D
:10370000012084F83C0000BF36B1042E1BD0082EE7
:1037100031D00C2E5ED145E02946206801F038FBFF
:103720002068806940F0080021688861206880690D
:1037300020F00400216888612068806929690843B5
:103740002168886147E02946206801F059FB20681C
:10375000806940F40060216888612068806920F4F5
:1037600080602168886120688069296940EA0120B9
:10377000216888612FE02946206801F07FFB2068DE
:10378000C06940F008002168C8612068C06920F065
:1037900004002168C8612068C0692969084321685C
:1037A000C86118E02946206801F0A4FB2068C069C0
:1037B00040F400602168C8612068C06920F480601E
:1037C0002168C8612068C069296940EA0120216830
:1037D000C86100E000BF00BF00BF002084F83C00CB
:1037E00000BF00BF8BE710B504460CB9012010BD27
:1037F00094F83D0028B9002084F83C00204600F0F1
:1038000025F8022084F83D00211D206801F04CFAC3
:10381000012084F8460000BF84F83E0001213F20CB
:103820000155402001554120015500BF00BF012036
:1038300084F842004320015544200155452001559C
:1038400000BF012084F83D000020D0E7704770479A
:1038500070B504460D4615B994F83E000BE0042DF2
:1038600002D13F20005D06E0082D02D14020005D1E
:1038700001E04120005D012801D0012070BD1DB98B
:10388000022084F83E000EE0042D03D102213F20E7
:10389000015508E0082D03D102214020015502E026
:1038A00002214120015501222946206801F04AFAEF
:1038B0001F492068884203D01E492068884201D1F0
:1038C000012000E0002028B12068406C40F4004056
:1038D0002168486416492068884213D01549206839
:1038E00088420FD02068B0F1804F0BD01249206879
:1038F000884207D011492068884203D010492068C7
:1039000088420CD12068806800F00706062E0CD093
:103910002068006840F001002168086005E0206828
:10392000006840F00100216808600020A6E7000060
:10393000002C014000340140000400400008004019
:10394000000C00402DE9F04F8BB05A480068401C35
:10395000584908605848006800680521B0FBF1F23A
:1039600001FB120000287DD154480068401C5349D7
:10397000086003F00BFF02F027FB022004F08EF931
:103980000546032004F08AF90646A81905F00AFA4C
:103990004B498860701B782190FBF1F04949096818
:1039A0000844484908600846006805F0FBF983466A
:1039B000454905F057FA824605F042F80022434B8C
:1039C000CDE9000104F062FD0022414BCDE9020186
:1039D00004F0AAFB4FF080423E4BCDE9040104F015
:1039E00055FD074604F0BEFA0990099805F0BEF9A6
:1039F000074639483949CDE900103948394A3A492A
:103A00000368384604F046F8099805F019F80746A7
:103A100088463648006805F013F882468B463248DF
:103A2000006805F00DF802460B46CDE900ABCDE984
:103A30000278CDE904012EA0FCF7FAFB0024344AF9
:103A40001168344A506805F00DFA8046314908681B
:103A50003149096805F006FA8246414605F01CF82E
:103A6000074600E022E005F081F9044629491448A0
:103A700001F0E6FD089026498868264901F08BFA96
:103A8000074605F073F98146204605F08BF980461C
:103A9000089905F001F8074605F068F90446604208
:103AA0004844079004EB0900069000BF0BB0BDE846
:103AB000F08F000014000020180000201C000020DF
:103AC000A404002020000020DA0F494000404040BC
:103AD0000064E940DCA54C400AD7A33B94000020D9
:103AE000900000208C0000202400002044000020D2
:103AF0007B7961775F6F62736572766174696F6EEF
:103B00003A25662C25662C25667D0D0A00000000EE
:103B100070060020C0040020480000207047704755
:103B200070B50446002520684069C0F3C01594F8BC
:103B30003D0021280ED16DB12068406920F0800041
:103B400021684861606B10B1606BFDF78DFE204607
:103B500001F0CAFA20684069C0F3801594F83E006D
:103B600022280ED16DB12068406920F04000216804
:103B70004861A06B10B1A06BFDF776FE204601F006
:103B800088FA002070BD70472DE9F84F0446206880
:103B900005682068C668206847694FF00009CA4672
:103BA00005F00F09B9F1000F0AD105F0200038B176
:103BB00006F0200020B1204601F0A0FABDE8F88F01
:103BC000B9F1000F71D007F0010018B906F4907038
:103BD00000286AD005F0010030B106F4807018B1F9
:103BE000206C40F00100206405F0040030B107F0C3
:103BF000010018B1206C40F00200206405F00200C2
:103C000030B107F0010018B1206C40F004002064CE
:103C100005F0080048B106F0200010B907F00100D7
:103C200018B1206C40F008002064206C68B305F0E7
:103C3000200028B106F0200010B1204601F05EFA05
:103C400020684069C0F3801A206C00F0080010B9A9
:103C5000BAF1000F22D0204601F01BFA206840691B
:103C600000F04000B0B12068406920F040002168B9
:103C70004861A06B50B15648A16B4863A06BFDF73B
:103C80001FFE10B1A06B416B88470CE02046FFF788
:103C90007AFF08E02046FFF776FF04E02046FFF7B2
:103CA00072FF0020206489E7FFE7206B012878D1AC
:103CB00005F01000002874D006F01000002870D025
:103CC00000BF0020009020680068009020684068D5
:103CD000009000BF00BF2068406900F04000C0B302
:103CE000A06B006840681FFA80F8B8F1000F2FD071
:103CF000A08D40452CDDA4F82E80A06B8069202883
:103D00001FD02068C06820F480702168C8602068D7
:103D1000406920F00100216848612068406920F076
:103D2000400021684861202084F83E000020206384
:103D30002068C06820F010002168C860A06BFDF703
:103D400093FDA08DE28D801A81B22046FFF7E7FE39
:103D500034E7FFE7A08DE18D401A1FFA80F8E08D6F
:103D6000E8B1B8F1000F1AD02068C06820F4907054
:103D70002168C8602068406920F00100216848611E
:103D8000202084F83E00002020632068C06820F0D6
:103D900010002168C86041462046FFF7C0FE0DE7CD
:103DA000FFE705F0800030B106F0800018B1204632
:103DB00001F0E0FA02E705F0400030B106F0400003
:103DC00018B1204601F080F9F8E600BFF6E60000E1
:103DD000A74F000810B504460CB9012010BDA0691A
:103DE00000B100E000BF94F83D0028B9002084F83D
:103DF0003C00204600F028F8242084F83D0020688C
:103E0000C06820F400502168C860204601F0E8F93D
:103E10002068006920F490402168086120684069AA
:103E200020F02A00216848612068C06840F40050F2
:103E30002168C86000202064202084F83D0084F8B8
:103E40003E000020CAE7000010B586B004460020FE
:103E5000029003900490059057492068884250D101
:103E600000BF5648C06940F400305449C861084654
:103E7000C06900F40030019000BF00BF00BF0846D9
:103E8000806940F0040088610846806900F0040001
:103E9000019000BF00BF0420029002200390032085
:103EA000059002A94648FDF787FE082002900020F1
:103EB00003900220049002A94148FDF77DFE41488D
:103EC000414908600020486000213F48816080210E
:103ED000C1600021016141618161C161FDF7C4FDE3
:103EE00008B1FDF770FC00BF3748A063446200BF13
:103EF000002211462620FEF70BFC2620FEF7F8FBD9
:103F000057E032492068884253D100BF2B48C0692E
:103F100040F480202949C8610846C06900F4802027
:103F2000019000BF00BF00BF0846806940F0080054
:103F300088610846806900F00800019000BF00BF5A
:103F400008150290022003900320059002A9204842
:103F5000FDF732FE4FF40060029000200390022033
:103F6000049002A91A48FDF727FE16483C38194963
:103F70000860002048600021164881608021C160EF
:103F800000210161416181614FF48051C161FDF700
:103F90006BFD08B1FDF717FC00BF0E48A06344623B
:103FA00000BF002211462720FEF7B2FB2720FEF7B4
:103FB0009FFB06B010BD000000440040001002400E
:103FC000000801406C000240E4020020004800406C
:103FD000000C01402803002070B504460D4616462B
:103FE00094F83E00202816D105B10EB9012070BD0D
:103FF00000BF94F83C00012801D10220F7E701201E
:1040000084F83C0000BF0020206332462946204649
:1040100001F064F9EBE70220E9E770477047704769
:1040200000BFFEE7014608684069C0F38020B0B1D8
:104030006FF480600A68506100200863202081F8D6
:104040003D00002081F83E00086C40F00400086448
:1040500000BF002081F83C0000BF01207047002015
:10406000FCE700002DE9F84304460F461546994643
:10407000DDE908862068006840F4806021680860F7
:104080002068006840F48070216808604346002280
:104090004FF001112046009600F032F960B120681F
:1040A000006800F48070B0F5807F02D14FF400709A
:1040B00020640320BDE8F88307F0FE002168086152
:1040C000334642463E49204600F05DF908B10120E2
:1040D000F0E700BF00200090206840690090206851
:1040E0008069009000BF00BF32464146204600F084
:1040F000ECF950B1206C042805D12068006840F428
:104100000070216808600120D4E7B9F1010F03D1E4
:10411000E8B22168086117E0C5F30720216808614B
:1041200032464146204600F0D0F950B1206C0428B8
:1041300005D12068006840F4007021680860012003
:10414000B8E7E8B22168086132464146204600F0EF
:10415000BCF950B1206C042805D12068006840F4F7
:104160000070216808600120A4E72068006840F41E
:10417000807021680860434600224FF001112046FC
:10418000009600F0BDF858B12068006800F4807017
:10419000B0F5807F02D14FF400702064032089E7DE
:1041A000F8B240F0010021680861334642460449F4
:1041B000204600F0E8F808B101207BE7002079E70D
:1041C000020001002DE9F843044688461546994649
:1041D000DDE908672068006840F4807021680860A5
:1041E000334600224FF001112046009700F088F876
:1041F00060B12068006800F48070B0F5807F02D163
:104200004FF4007020640320BDE8F88308F0FE003E
:10421000216808613B4632462149204600F0B3F848
:1042200008B10120F0E700BF00200090206840693D
:10423000009020688069009000BF00BF3A46314678
:10424000204600F042F950B1206C042805D12068C6
:10425000006840F40070216808600120D4E7B9F1DB
:10426000010F03D1E8B22168086117E0C5F3072008
:10427000216808613A463146204600F026F950B1DF
:10428000206C042805D12068006840F40070216883
:1042900008600120B8E7E8B2216808610020B3E7B0
:1042A0000200010070B504460D46164620E0204687
:1042B000FFF7B8FE08B1012070BD681CC0B1FDF762
:1042C0001BFE801BA84200D895B900202063202047
:1042D00084F83D00002084F83E00206C40F020006F
:1042E000206400BF002084F83C0000BF0120E3E709
:1042F00020684069C0F380000028D8D00020DBE7A8
:104300002DE9F04104460D4617461E46DDF818809B
:104310001CE0701CD0B1FDF7EFFDA0EB0800B0422F
:1043200000D89EB900202063202084F83D000020A2
:1043300084F83E00206C40F02000206400BF002084
:1043400084F83C0000BF0120BDE8F081C5F30740C0
:1043500001280AD120684069A9B20840A9B2884260
:1043600001D101200BE0002009E020688069A9B29A
:104370000840A9B2884201D1012000E00020B842E3
:10438000C7D00020E0E72DE9F04104460D4616466F
:104390001F463DE020684069C0F38020E8B12068F6
:1043A000006840F40070216808606FF48060216844
:1043B000486100202063202084F83D00002084F81C
:1043C0003E00206C40F00400206400BF002084F810
:1043D0003C0000BF0120BDE8F081701CC0B1FDF7BA
:1043E0008BFDC01BB04200D896B90020206320206E
:1043F00084F83D00002084F83E00206C40F020004E
:10440000206400BF002084F83C0000BF0120E2E7E8
:10441000C5F3074001280AD120684069A9B20840C5
:10442000A9B2884201D101200BE0002009E02068F8
:104430008069A9B20840A9B2884201D1012000E0F8
:1044400000200028A6D00020C5E770B504460D4620
:10445000164632E020684069C0F30010A0B16FF04A
:1044600010002168486100202063202084F83D006E
:10447000002084F83E00206C206400BF002084F8F7
:104480003C0000BF012070BDFDF736FD801BA84237
:1044900000D895B900202063202084F83D0000203A
:1044A00084F83E00206C40F02000206400BF002013
:1044B00084F83C0000BF0120E5E720684069C0F3B4
:1044C00080100028C6D00020DDE770B504460D46F8
:1044D000164620E02046FFF7A5FD08B1012070BD7B
:1044E000681CC0B1FDF708FD801BA84200D895B933
:1044F00000202063202084F83D00002084F83E0046
:10450000206C40F02000206400BF002084F83C00B4
:1045100000BF0120E3E720684069C0F3C010002815
:10452000D8D00020DBE708B56A467521682003F083
:1045300037FA9DF80000682801D1012008BD00204D
:10454000FCE770B50024002500BF06E0002500E070
:104550006D1CB5F57A7FFBDB641CB4F57A7FF5DB67
:1045600000226B21682003F033FA00221921682011
:1045700003F02EFA00221A21682003F029FA0822FB
:104580001B21682003F024FA10221C21682003F06C
:104590001FFA70BD7CB50446052608E006236A466E
:1045A0003B21682003F0E4F9054605B904E0301E1C
:1045B000A6F10101CEB2F1D100BF9DF801009DF836
:1045C000001040EA012000B220809DF803009DF811
:1045D000021040EA012000B260809DF805009DF8BD
:1045E000041040EA012000B2A0802088208060886A
:1045F0006080A088A0807CBD7CB50446052608E0CC
:1046000006236A464321682003F0B2F9054605B93E
:1046100004E0301EA6F10101CEB2F1D100BF9DF839
:1046200001009DF8001040EA012000B220809DF8B2
:1046300003009DF8021040EA012000B260809DF85E
:1046400005009DF8041040EA012000B2A0802088F7
:10465000208060886080A088A0807CBD2DE9F84320
:104660000546052708E002236A464121682003F039
:104670007FF9044604B904E0381EA7F10101CFB266
:10468000F1D100BF9DF801009DF8001040EA012023
:1046900006B2304604F086FB8146054904F070FA04
:1046A0008046044904F0F8F92860BDE8F88300006A
:1046B0000000AA43B81E124200210160416001625D
:1046C0007047000008B500BF0A48406940F001008B
:1046D000084948610846406900F00100009000BFA9
:1046E00000BF002205211020FEF712F81020FDF770
:1046F000FFFF08BD0010024008B500BF13488069E5
:1047000040F02000114988610846806900F02000CF
:10471000009000BF00BF00BF0846806940F0040061
:1047200088610846806900F00400009000BF00BF67
:1047300000BF0846806940F008008861084680692B
:1047400000F00800009000BF00BF08BD001002404C
:1047500010B50B480B4908600B4848600021094818
:104760008160C1604FF4804101610021416181613C
:10477000C1610162FDF7C6FB08B1FDF724F810BD69
:1047800000540040A0000020A086010010B50022C7
:1047900011460D20FDF7BCFF0D20FDF7A9FF10BD50
:1047A00000B595B0002011901290139014900F90C6
:1047B00010901C2108A8FBF7E9FD20216846FBF7B3
:1047C000E5FD2F482F4908600020486000212D4852
:1047D000816041F61F41C16000210161416180217A
:1047E0008161FEF7F3FB08B1FCF7EDFF4FF4805059
:1047F000119011A92348FEF7AFFC08B1FCF7E3FFC5
:104800002048FEF7F0FF08B1FCF7DDFF00200F9015
:1048100010900FA91B48FEF78BFB08B1FCF7D3FFE4
:1048200060200890002009900A900B900C900D9049
:104830000E90002208A91348FEF757FF08B1FCF7B5
:10484000C2FF0C2208A90F48FEF74FFF08B1FCF782
:10485000BAFF0020009001900290039004904FF462
:10486000005005900020079069460648FEF726FB99
:1048700008B1FCF7A8FF0348FEF7E8FE15B000BD3D
:10488000002C0140F400002000B58BB0242102A8C8
:10489000FBF77CFD0020009001904FF0804019490B
:1048A0000860002048600021164881604FF6FF71C3
:1048B000C16000210161816103200290002003900A
:1048C00001200490002005900C2006900020079005
:1048D00001200890002009900C200A9002A90948A4
:1048E000FEF7BEFC08B1FCF76EFF002000900190BF
:1048F00069460448FEF71CFB08B1FCF764FF0BB0E7
:1049000000BD00003C01002000B58BB0242102A8AE
:10491000FBF73CFD00200090019019481949086000
:10492000002048600021174881604FF6FF71C16088
:104930000021016181610320029000200390012089
:104940000490002005900C20069000200790012084
:104950000890002009900C200A9002A90948FEF74F
:104960007FFC08B1FCF72FFF002000900190694602
:104970000448FEF7DDFA08B1FCF725FF0BB000BDD7
:10498000000400408401002000B58DB00020099093
:104990000A900B900C90079008901C216846FBF73A
:1049A000F5FC244824490860002048600021224882
:1049B000816041F61F41C160002101618021816158
:1049C000FEF704FB08B1FCF7FEFE4FF4805009909F
:1049D00009A91948FEF7C0FB08B1FCF7F4FE164818
:1049E000FEF701FF08B1FCF7EEFE002007900890EB
:1049F00007A91148FEF79CFA08B1FCF7E4FE602015
:104A000000900020019002900490082269460A4814
:104A1000FEF76BFE08B1FCF7D6FE0C22694606488D
:104A2000FEF763FE08B1FCF7CEFE0348FEF70EFE6C
:104A30000DB000BD00080040CC0100201CB50020D6
:104A4000009001900E480F490860472048600021FF
:104A50000C48816040F2E731C16080218161FEF73E
:104A6000B5FA08B1FCF7AFFE00200090019069464E
:104A70000448FEF75DFA08B1FCF7A5FE1CBD000076
:104A8000001000401402002010B50B480B490860CC
:104A90004FF4E1304860002108488160C160016145
:104AA0000C21416100218161C161FFF793F908B1D7
:104AB000FCF789FE10BD0000004400405C020020AD
:104AC00010B50B480B4908604FF4E13048600021F5
:104AD00008488160C16001610C2141610021816150
:104AE000C161FFF777F908B1FCF76DFE10BD00005A
:104AF00000480040A002002000BFFEE700BFFEE724
:104B000008B508490968C9084FF47A72B1FBF2F197
:104B10004143009100BF00BF00994A1E0092002946
:104B2000F9D108BD100000202DE9FF5F07460D46B2
:104B300014462946384604F023F803903848039970
:104B400004F01EF8804603F03DF906463146304633
:104B500004F088F98346334802F04CFD4FF0804161
:104B6000019004F07FF98246314604F07BF98146DA
:104B70004FF07E5103F090FF8046594603F08CFFC2
:104B800002900021284604F039F901D8BDE8FF9FC2
:104B90003146304604F066F98046029903F0F0FF92
:104BA000E0604FF08040E16804F05CF92061E1686A
:104BB00061614FF07E5020603146304604F052F97A
:104BC00082464FF07E5104F085FA81464FF08041D5
:104BD00004F048F98046029903F0D2FF6060314644
:104BE000304604F03FF901900E4802F003FD4FF00B
:104BF0008041009004F036F98346314604F032F9E2
:104C000082464FF07E5104F05BFA8146019903F031
:104C100043FF8046029903F0B3FFA06000BFB5E7F1
:104C2000DA0F4940DA0F493F10B5FDF7F1FC10BD2E
:104C300000B58FB0282105A8FBF7A8FB1421684612
:104C4000FBF7A4FB012005900004069000200790CC
:104C50000120099002200C90C1030D914FF4E01146
:104C60000E9105A8FDF7DCFE08B1FCF7ACFD0F20A6
:104C7000009002200190002002904FF48060039089
:104C80000020049002216846FDF794FD08B1FCF76E
:104C90009AFD0FB000BD704710B50248FEF70BFC3F
:104CA00010BD00001402002010B50268204B98428D
:104CB0000ED0204B98420BD0B0F1804F08D01E4B45
:104CC000984205D01D4B984202D01D4B984203D10B
:104CD00022F070024B681A43154B98420ED0154BC8
:104CE00098420BD0B0F1804F08D0134B984205D0BA
:104CF000124B984202D0124B984203D122F44072D8
:104D0000CB681A4322F080034C6943EA0402026034
:104D10008B68C3620B688362054B984202D0054BD7
:104D2000984201D10B6903630123436110BD000068
:104D3000002C014000340140000400400008004005
:104D4000000C004030B501F01F05012404FA05F302
:104D5000046A9C430462046A01F01F0502FA05F527
:104D60002C43046230BD30B50C46816821F47F418C
:104D700042EA032525432943816030BD0A46816804
:104D800021F0700142F00703194381607047000071
:104D900030B5056A25F001050562026A4368846939
:104DA00024F0700424F003040D682C4322F0020266
:104DB0008D682A43104DA84200D103E00F4DA84250
:104DC00006D100BF22F00802CD682A4322F0040277
:104DD000094DA84202D0094DA84207D123F480739F
:104DE00023F400734D692B438D692B434360846129
:104DF0004D684563026230BD002C01400034014023
:104E000030B5056A25F010050562026A43688469B9
:104E100024F4E04424F440740D6844EA052422F0AC
:104E200020028D6842EA0512124DA84200D103E02B
:104E3000114DA84207D100BF22F08002CD6842EA9E
:104E4000051222F040020B4DA84202D00A4DA842A2
:104E500009D123F4806323F400634D6943EA850399
:104E60008D6943EA8503436084614D68856302620E
:104E700030BD0000002C01400034014030B5056A0F
:104E800025F480750562026A4368C46924F07004E1
:104E900024F003040D682C4322F400728D6842EA6A
:104EA0000522124DA84200D103E0114DA84207D1BE
:104EB00000BF22F40062CD6842EA052222F480623B
:104EC0000A4DA84202D00A4DA84209D123F48053CA
:104ED00023F400534D6943EA05138D6943EA051332
:104EE0004360C4614D68C563026230BD002C01405F
:104EF0000034014030B5056A25F480550562036A27
:104F00004468C26922F4E04222F440720D6842EA29
:104F1000052223F400538D6843EA0533084DA84267
:104F200002D0084DA84204D124F480444D6944EADB
:104F300085144460C2614D680564036230BD0000A1
:104F4000002C01400034014030B50B461446026A83
:104F5000056A25F001050562816921F0F00141EA49
:104F6000041122F00A021A438161026230BD30B599
:104F70000B461446056A25F0100505628169026A30
:104F800021F4704141EA043122F0A00242EA031206
:104F90008161026230BD70B505460C462846216924
:104FA00003F060FF70BD70B505466C6A0020E085B7
:104FB000E0842046FEF7E7FD70BD70B5064600258B
:104FC000746A20684069C0F3C01594F83D00212838
:104FD00005D125B10020E084204600F085F8206846
:104FE0004069C0F3801594F83E00222805D125B110
:104FF0000020E085204600F04CF8206C40F01000C6
:1050000020642046FEF7BFFD70BD70B505466C6A92
:105010002868006800F02000F8B90020E0852068CA
:10502000C06820F480702168C8602068406920F062
:105030000100216848612068406920F04000216833
:105040004861202084F83E00206B012805D12068AB
:10505000C06820F010002168C860206B012804D1CE
:10506000A18D2046FEF75BFD02E02046FEF7D5FF4E
:1050700070BD70B505466C6A206B012805D1A08D06
:1050800041082046FEF74BFD02E02046FEF7C6FF32
:1050900070BD0168C96821F490710268D16001682F
:1050A000496921F0010102685161016B012905D1B3
:1050B0000168C96821F010010268D160202180F8E0
:1050C0003E1000210163704710B504462068C06897
:1050D00020F040002168C860202084F83D00204670
:1050E000FEF79DFF002010BD0168C96821F0C001D6
:1050F0000268D160202180F83D107047F8B5044661
:1051000094F83E00222869D1A068B0F5805F0CD1E8
:10511000206950B90025A66A20684068C0F30800DD
:105120003080A06A801CA06215E0A56A0026A068F5
:10513000B0F5805F03D0A06828B9206918B920684D
:105140004068287004E02068406800F07F00287004
:10515000A06A401CA062E08D401E80B2E085A8BB22
:105160002068C06820F020002168C8602068C068FE
:1051700020F480702168C8602068406920F0010038
:1051800021684861202084F83E00206B01281ED150
:10519000002020632068C06820F010002168C860EB
:1051A0002068006800F0100010280AD100BF00201D
:1051B000009020680068009020684068009000BF60
:1051C00000BFA18D2046FEF7AAFC03E004E02046C4
:1051D000FEF723FF0020F8BD0020FCE70220FAE7DD
:1051E00070B504462168096921F44051E268114311
:1051F000226811612269A1681143626941EA0205CE
:105200002168C96841F20C62914329432268D16048
:105210002168496921F44071A269114322685161F2
:105220002D4A2168914202D1FDF7A0FB01E0FDF774
:105230008DFB00EBC00101EB001162689200B1FB35
:10524000F2F100EBC00202EB001263689B00B2FBBC
:10525000F3F26423B2FBF3F202EBC20303EB02129C
:10526000A1EB8201322202EB01116422B1FBF2F1C7
:1052700001F0F00100EBC00202EB001263689B003A
:10528000B2FBF3F26423B2FBF3F201EB021200EB88
:10529000C00101EB001163689B00B1FBF3F100EB6F
:1052A000C00303EB00136668B600B3FBF6F3642695
:1052B000B3FBF6F303EBC30606EB0313A1EB830189
:1052C000322303EB01116423B1FBF3F101F00F0171
:1052D00011442268916070BD0038014077B581B0FB
:1052E000044615460298A062A5850020206422206D
:1052F00084F83E001C48A16B88621C48A16BC86200
:105300001B48A16B08630020A16B486302AE3268A2
:105310002368191D2B46A06BFCF7ECFB00BF002097
:10532000009020680068009020684068009000BFEE
:1053300000BF00BF002084F83C0000BF2068C068A8
:1053400040F480702168C8602068406940F0010026
:10535000216848612068406940F040002168486148
:10536000002004B070BD00000B500008735000080E
:10537000BB4F0008014691F83D00212828D18868DC
:10538000B0F5805F0BD1086948B90A6A1088C0F38C
:1053900008000B685860086A801C086205E00B6A08
:1053A000581C086218780B685860C88C401E80B280
:1053B000C88458B90868C06820F080000B68D860BD
:1053C0000868C06840F040000B68D8600020704753
:1053D0000220FCE72DE9FE4F002002908A48006879
:1053E0000068C0F3001002900298002875D000BF3A
:1053F000002001908448006800680190824800689D
:105400004068019000BF00BF7F48FEF789FB7F48DE
:105410000068D0F80490C9F1C8007D4908707D4843
:10542000007855287ED100240B2004E07949095CDE
:105430002144CCB2401C1528F8DB7648407DA042C0
:1054400048D17448007B522844D17249497B714A43
:10545000927B41EA022109B24FF4FA6201FB02F0A9
:1054600002F0E9FF074600226B4B02F05DFE0546A5
:1054700002F078FD694948616649C97B654A127C3A
:1054800041EA022109B24FF4FA6201FB02F002F094
:10549000D2FF07460022604B02F046FE054602F0AE
:1054A00061FD5E4908615B49497C5A4A927C41EA48
:1054B000022109B24FF4FA6201FB02F002F0BBFFD5
:1054C00007460022544B02F02FFE054602F04AFD2B
:1054D0005249C8600024162005E08AE04D49095C65
:1054E0002144CCB2401C2028F8DB4A4890F8200028
:1054F000A04279D14748C07D532875D14549097EDE
:10550000444A527E41EA022108B202F094FF054665
:105510000022434B02F0BAFF074600223E4B02F046
:1055200003FE00E061E0824602F01CFD3B4988601A
:105530003849897E374AD27E41EA022108B202F018
:105540007AFF82460022364B02F0A0FF0546002279
:10555000314B02F0E9FD074602F004FD2F49486097
:105560002C49097F2B4A527F41EA022108B202F0FE
:1055700062FF074600222A4B02F088FF0546002200
:10558000254B02F0D1FD824602F0ECFC2349086075
:10559000486803F055FA05460E462248006803F0B5
:1055A0004FFA07463A460B461FA0CDE90056FAF7D8
:1055B0003FFE1A490868204903F020FD07D2174929
:1055C00008681D4903F086FD144908600CE0134982
:1055D0000868002103F012FC06D210490868164939
:1055E00003F05AFA0D49086000BF0020084908700E
:1055F00000BFC82207490448FEF7EEFC0248FEF748
:10560000C3FABDE8FE8F00005C020020E402002027
:105610009C000020CC0800200000E04094090020FD
:1056200000806640480000207B50697463683A251A
:10563000662C25667D0D0A000000B44300BFFEE71E
:105640002DE9FC5F04468946A169A06803F042FD8C
:105650006060E06803F0F4F907464FF06632224BD1
:1056600002F014FF054602F07DFCE060606803F084
:10567000E7F907464FF033321C4B02F007FF0546AF
:105680000E46E06803F0DCF982462A46334602F013
:105690009BFCCDE9000102F065FCE060D4E9031059
:1056A00003F0FAF920611249206903F0A7FC01D246
:1056B0000F4820610F49206903F0A0FB01D20D487B
:1056C00020612169D9F80C0003F0CCFB0546E168A4
:1056D000D9F8080003F0C6FB0646294603F0DCF9BA
:1056E00020602068BDE8FC9F6666E63F3333D33F09
:1056F00000401C4600401CC6490050EAC12018BFAB
:1057000004204A0D18BF40F0010040F2FF72B2EBD6
:10571000515F08BF40F00200012808BF0520704714
:105720004100080218BF04200A0E18BF40F0010013
:105730004FF07F4232EA010108BF40F00200012829
:1057400008BF05207047000002480068C0F302202F
:10575000704700000CED00E010B5002804DB0A07DC
:10576000130E054A135406E00A07140E034A00F00C
:105770000F031B1FD45410BD00E400E018ED00E03F
:105780002DE9F74F144694B00021C4E90211159990
:10579000079121F00045C9498D4206DC1599C4E9FD
:1057A000000117B00020BDE8F08FC549DFF814A351
:1057B000A9423CDD0799C44E0029C44FC44A15993B
:1057C000534619DD03F052F8554506D0C14AC24B85
:1057D00003F04CF8C4E900010AE04FF0D352BE4B8D
:1057E00003F044F832463B4603F040F8C4E90001B8
:1057F00017B00120BDE8F08F02F0E6FB554506D05A
:10580000B44AB54B02F0E0FBC4E900010AE04FF0F6
:10581000D352B14B02F0D8FB32463B4602F0D4FBE8
:10582000C4E9000117B04FF0FF30BDE8F08FAB497D
:10583000A942159978DB21F0004183468846A84AA1
:10584000A84B02F023FE0022A74B02F0BDFB02F0A2
:10585000C3FD099002F0EFFD06460F469C4A5346F1
:1058600002F014FE43465A4602F00EFF80468A4676
:10587000984A994B3046394602F008FE2A0D012518
:105880000B924246534602F0FFFE032DC4E900018D
:1058900039D00B98C1F30A51401A05EB4511113963
:1058A000814230DA9148C346784400EB0510CDF8C8
:1058B0000CA00C90D0E900233046394602F0E6FDFA
:1058C00002460B46049106905846039902F0CEFF1B
:1058D00080468A4602460B465846039902F0C6FFA8
:1058E000049B069A02F0C2FF83460C980391394646
:1058F000D0E90223304602F0C9FD5A46039B02F06C
:10590000B5FF6D1CBDE707980028A2BF099817B026
:10591000BDE8F08F616881F000416160099817B0BF
:105920004042BDE8F08FFFE784461598C1F31301AC
:10593000C0F30A50A0F2F5304FEA601800F01F06DD
:10594000C6F12000139000200690079041F4801EBD
:1059500005206D4676B1664A08EB00017A4452F89C
:10596000213002EB8101B3404A68139922FA01F118
:10597000194305E05F4908EB0002794451F8221011
:10598000A1FB0E27A1FB0C131A449A4234BF01233A
:10599000002303EB070A05EB8003D3E901B70F44AB
:1059A0008F4234BF0121002193448B4411B19345B0
:1059B00002D903E0934501D2012100E00021C3E9AF
:1059C00001B7514445F82010011EA0F10100C1DCCF
:1059D0000298059F00F10050800F12900298DDE9B7
:1059E0000356800002F027FD834628460D9102F001
:1059F00039FD6FF01D0203F016FCCDE90E013046B3
:105A000002F030FD6FF03D0203F00DFC80468A4647
:105A1000384602F027FD6FF05D0203F004FC0746F4
:105A200042465346119102F0CFFADDE90E2302F00F
:105A3000CBFA5A460D9B02F0C7FA00250E465A468D
:105A400028460D9B02F012FFDDE90E2302F00EFF47
:105A50004246534602F00AFF3A46119B02F014FEFA
:105A6000DFF898A0244A534602F010FD0746884606
:105A7000234A244B3146284602F008FD3A46434665
:105A800002F0A2FA074688464FF0A8425346314634
:105A9000284602F0FBFC3A46434602F095FA159A76
:105AA00012F0004F04D0129A81F00041524212923B
:105AB000C4E90001129817B0BDE8F08FFB21E93F5F
:105AC0007CD90240FB21F93F7370032E8A19A33B56
:105AD000000040543163621A61B4D03DFB2139416A
