:020000040800F2
:1000000070100020D5010008BF270008991F0008C4
:10001000BD2700085D050008352C00080000000021
:10002000000000000000000000000000E7010008E0
:100030001307000800000000EB0100087528000805
:10004000EF010008EF010008EF010008EF010008D0
:10005000EF010008EF010008EF010008EF010008C0
:10006000EF010008EF010008EF010008EF010008B0
:10007000EF01000811070008EF010008EF01000878
:10008000EF010008EF010008EF010008EF01000890
:10009000EF010008EF010008EF010008EF01000880
:1000A000EF010008EF010008EF010008EF01000870
:1000B000EF010008EF010008EF010008EF01000860
:1000C000EF010008EF010008EF010008EF01000850
:1000D000EF010008EF010008EF010008EF01000840
:1000E000EF010008EF010008EF010008EF01000830
:1000F000EF010008EF010008EF010008EF01000820
:10010000EF010008EF010008EF010008EF0100080F
:10011000EF010008EF010008D9280008EF010008EE
:10012000EF010008EF010008EF010008EF010008EF
:1001300000F002F800F03FF80AA090E8000C8244BA
:100140008344AAF10107DA4501D100F034F8AFF297
:10015000090EBAE80F0013F0010F18BFFB1A43F0A5
:1001600001031847703A0000903A0000103A24BF8B
:1001700078C878C1FAD8520724BF30C830C144BF0C
:1001800004680C607047000000230024002500264E
:10019000103A28BF78C1FBD8520728BF30C148BFEA
:1001A0000B607047642900F07780002070471FB50E
:1001B0001FBD10B510BD00F0A3F91146FFF7F7FF02
:1001C00002F0A6FF00F0C1F903B4FFF7F2FF03BC91
:1001D00002F014FE0948804709480047FEE7FEE7A1
:1001E000FEE7FEE7FEE7FEE7FEE7FEE7FEE7FEE7E7
:1001F00004480549054A064B70470000D728000807
:1002000031010008700400207010002070080020E8
:1002100070080020704700000FB4044910B503AA0D
:10022000029800F037F910BC5DF814FB00000020C4
:100230002DE9F0410E460446002020622046E16888
:10024000884730B3252805D0D4E901219047206A9A
:10025000401CF2E7E168204600278847050018D0D7
:10026000A5F14100192802D820354FF40067324625
:10027000294620462760FFF795FF40B1012804D0AA
:10028000F61D26F007060836D8E7361DD6E72846BD
:10029000DAE7206ABDE8F0812DE9F0410646002446
:1002A00010687529314616A510D0AFF300800028DC
:1002B00002DA404213A507E031688A0701D512A58A
:1002C00002E0490704D511A5012401E0AFF3008045
:1002D00000210A2206F1240709E0B0FBF2FCB0FB82
:1002E000F2F302FB1C00303078541846491C0028F9
:1002F000F3D123462A463046BDE8F04100F070B8FD
:10030000000000002D0000002B0000002000000075
:1003100010B5203AC0F00B80B1E81850203AA0E8A0
:100320001850B1E81850A0E81850BFF4F5AF5FEAD4
:10033000027C24BFB1E81850A0E8185044BF18C987
:1003400018C0BDE810405FEA827C24BF51F8043B2E
:1003500040F8043B08BF7047D20728BF31F8023B82
:1003600048BF11F8012B28BF20F8023B48BF00F816
:10037000012B70474FF0000200B513469446964695
:10038000203922BFA0E80C50A0E80C50B1F12001A8
:10039000BFF4F7AF090728BFA0E80C5048BF0CC056
:1003A0005DF804EB890028BF40F8042B08BF7047B4
:1003B00048BF20F8022B11F0804F18BF00F8012B26
:1003C0007047704770477047704710B500F074F879
:1003D000006810BD10B5044600F06EF8046010BD52
:1003E0002DE9F0470D4699469246044600F124084F
:1003F0000168880604D5E06921F01001216000E061
:100400000120A84201DD471B00E00027A1697A19FD
:1004100002EB0900081AA0612078C00602D4204629
:10042000AFF30080002608E0D4E901211AF80600A5
:100430009047206A401C761C20624E45F4DB2078F1
:10044000C0060AD52046AFF3008006E0D4E90121BA
:1004500030209047206A401C2062381EA7F1010717
:10046000F4DC07E0D4E9012118F805009047206A80
:10047000401C2062281EA5F10105F3DC2046AFF3E5
:1004800000802078000602D50220BDE8F087012018
:10049000FBE70000074B70B50D467B4400F015F8F4
:1004A0000446284600F024F810B14FF0FF3070BD2C
:1004B000204670BDDF2A000000487047100400206D
:1004C00001694A1C02610878704700B58FB0CDE918
:1004D00001310021059105497944CDE90310114608
:1004E0006846FFF7A5FE0FB000BD0000E5FFFFFF67
:1004F000007B00F080007047004870471004002027
:100500007546FFF7F9FFAE4605006946534620F0F1
:100510000700854618B020B5FFF76AFEBDE8204009
:100520004FF000064FF000074FF000084FF0000BAF
:1005300021F00701AC46ACE8C009ACE8C009ACE862
:10054000C009ACE8C0098D46704710B50446AFF34A
:1005500000802046BDE81040FFF736BEFEE70000F1
:100560002DE9FC4100252E46344617A0FFF754FE26
:100570000027684601F02CFFBDF900000544BDF9D5
:10058000020029460644BDF9040032460444A4F59D
:100590008054234612A0FFF73FFE052000F0FAF832
:1005A0007F1C642FE5DB95FBF7F196FBF7F294FBDC
:1005B000F7F312480EC012A0FFF72EFE18A0FFF7A7
:1005C0002BFEBDE8FC8100004163632043616C6940
:1005D00062726174696F6E2053746172740A0D00E7
:1005E000616363655F73616D706C655F73756D3AB0
:1005F00025642C25642C25640A0D0000AC03002022
:100600004163635F526177446174615F4F666673F3
:1006100065743A25642C25642C25640A0D000000BD
:100620004163632043616C6962726174696F6E201B
:1006300053746F700A0D00002DE9FC41002425461B
:100640002E4616A0FFF7E8FD0027684601F0DBFE06
:10065000BDF900000444BDF9020021460544BDF97E
:1006600004002A460644334613A0FFF7D5FD0520B3
:1006700000F090F87F1C642FE7DB94FBF7F195FB0B
:10068000F7F296FBF7F313480EC013A0FFF7C4FD73
:1006900019A0FFF7C1FDBDE8FC8100004779726F2A
:1006A0002043616C6962726174696F6E205374617A
:1006B00072740A0D00000000616363655F73616D11
:1006C000706C655F73756D3A25642C25642C256408
:1006D0000A0D0000B80300204779726F5F526177FE
:1006E000446174615F4F66667365743A25642C25B6
:1006F000642C25640A0D00004779726F2043616CF9
:100700006962726174696F6E2053746F700A0D00B4
:100710007047704772B6FEE730B560B11A4B026899
:1007200014219A4209D2194B1344B3FBF1F1890009
:10073000016417490AE0012030BD134B5B421344AA
:10074000B3FBF1F1890001640F490839C16302214B
:1007500080F82110136843F6F0718B43F0E901141F
:100760002143D0E902452C432143046921434469D4
:10077000214384692143194311600021416301220F
:1007800042770177084630BD08040240F8FFFDBFFC
:100790000000024070B5044600F00AF90546601CEE
:1007A00002D004480078044400F002F9401BA04243
:1007B000FAD370BD040000202DE9F84FDFF8C8918E
:1007C000002409F1040A0AF1040B23460F270BF158
:1007D000040ED1E00125A54006EA0502AA4276D121
:1007E000DFF8A8C14E68A6EB0C0866452BD00DDCDF
:1007F000032E34D005DC36B3012E19D0022E2FD1B2
:100800001BE0112E16D0122E2AD119E0B8F5881F40
:1008100019D006DCB8F5803F15D0B8F5801F1FD180
:1008200011E0B8F5001F0ED0B8F5041F18D10AE08A
:10083000CB6815E0CB681B1D12E0CB6808330FE0D6
:10084000CB680C330CE08B682BB1012B4FF0080305
:1008500003D0456104E0042302E0056100E00023C9
:10086000FF2A01D8064601E000F104064FEA84059C
:1008700001D9A5F12005D6F8008007FA05FC28EA81
:100880000C0803FA05F548EA0508C6F800804D682B
:10089000ED0070D53E4DAE6946F00106AE61AD6922
:1008A00024F0030605F0010500953A4D06EB050C12
:1008B000DCF80850A607360F07FA06F825EA0805FF
:1008C000DFF8D480404503D14FF0000825E052E026
:1008D000DFF8C880404502D14FF001081DE0DFF885
:1008E000C080404502D14FF0020816E0DFF8B48026
:1008F000404502D14FF003080FE0DFF8AC804045DF
:1009000002D14FF0040808E0DFF8A080404502D192
:100910004FF0050801E04FF0060808FA06F848EA2B
:100920000508CCF808804D68D9F80060ED034D4605
:1009300001D5164300E096432E604D68DAF800605A
:10094000AD03554601D5164300E096432E604D6831
:10095000DBF80060ED025D4601D5164300E09643EA
:100960002E604D68DEF80060AD02754601D5164375
:1009700000E096432E60641C0A681646E2407FF44D
:1009800029AFBDE8F88F00000004014000001110FD
:10099000001002400000014000080140000C01402E
:1009A000001001400014014000180140001C0140EB
:1009B00001488068704700000400002070B5040002
:1009C00025D094F83D00002520B984F83C502046FD
:1009D00000F078FA242084F83D002068016821F0B6
:1009E000010101602068016841F400410160206854
:1009F000016821F40041016000F0C0FB4D4A6168CC
:100A0000914201D84C4900E04C49884201D2012072
:100A100070BD4B492368B0FBF1F15E6826F03F06DC
:100A20000E435E606368934206D94FF49673594350
:100A30004FF47A73B1FBF3F12368491C1E6A26F068
:100A40003F06314319626168914210D84900401E47
:100A5000B0FBF1F2521CC2F30B02042A01D20420B3
:100A600022E0B0FBF1F0401CC0F30B001CE0A268D8
:100A7000F2B301EBC10303EB0116431EB3FBF6F324
:100A80005B1C43F480431B0549D092B301EBC102C8
:100A900002EB0111401EB0FBF1F0401CC0F30B0053
:100AA00040F4804040F400402168CA694CF6FF736E
:100AB0009A431043C861D4E90710014320680268D3
:100AC00022F0C00211430160D4E903010143206810
:100AD000826848F2FF339A4311438160D4E90501EB
:100AE00008432168CA6822F0FF021043C86001E091
:100AF0000EE016E02068016841F001010160256404
:100B0000202084F83D00256384F83E50002070BD0D
:100B100001EB4106431EB3FBF6F35B1CB3E7012078
:100B2000C2E701EB4101401EB0FBF1F0401CC0F3F5
:100B30000B00B7E7A086010080841E0000093D007D
:100B400040420F002DE9FF4F83B00025DDE9107909
:100B50009A4693460446DDF848800095FFF728FF43
:100B6000064694F83D0020287CD1192301228549AE
:100B70002046009601F020FB0028F5D194F83C00B7
:100B800001286FD0012084F83C0020680168C90763
:100B900003D1016841F0010101602068016821F47E
:100BA00000610160222084F83D00402084F83E006E
:100BB00025646762A4F82A90608D20857248E062FF
:100BC000CDE9008653465A462046049901F0FCF9C7
:100BD00000287DD1208DDFF8B491202768B101284D
:100BE00014D00228206801681ED041F480610160A1
:100BF0002068416980690090B6E020684169816998
:100C00000091016841F400710160ADE02068016865
:100C100021F48061016072B62068416981690091A8
:100C2000016841F400710AE041F40061016072B6AC
:100C30002068416981690091016821F48061016047
:100C400062B691E0032868D801280CD002284346F8
:100C50004FF000024946204600960FD001F0ACFA52
:100C6000B0BB10E08BE032464146204601F023FB4A
:100C700070BB20680069616A08706CE001F09CFA42
:100C800030BB72B634E02068016821F480610160F5
:100C900072B620680069616A0870606A401C606210
:100CA000208D401E2085608D401E6085384846F2AC
:100CB000A8110068B0FBF1F0C0EBC00000EB8000B1
:100CC0000090401E009008D020684069C04300E0BA
:100CD00029E040070CD50098F3E744F8305F6773CC
:100CE000A573206940F02000206162B625731AE0E8
:100CF0002068016841F40071016020680069616A40
:100D00000870606A401C6062218D491E2185618DDA
:100D1000491E618562B621681BE032464146204685
:100D200001F0C9FA18B1012007B0BDE8F08F2068C2
:100D30000069616A0870606A401C6062218D491E0A
:100D40002185618D491E618521684A69D243520718
:100D50000AD409690170606A401C6062208D401EDF
:100D60002085608D401E6085208D00287FF46AAF4D
:100D700084F83D7084F83E5084F83C50D4E702205B
:100D8000D2E70000020010000000FFFF0400010095
:100D9000100000202DE9FF4F83B09A46DDE911973E
:100DA00093460446DDF84080FFF702FE054694F8BE
:100DB0003D0020287FD1192301224049204600957B
:100DC00001F0FAF9002876D194F83C00012872D09D
:100DD000012084F83C0020680168C90703D101683C
:100DE00041F0010101602068016821F400610160A7
:100DF000212084F83D00402084F83E00002626642F
:100E0000C4F82480A4F82A90608D20852C48E062E4
:100E1000CDE9007553465A462046049901F052F92F
:100E200070B930E02A463946204601F077FA58B1C9
:100E3000206C042804D12068016841F4007101602D
:100E4000012007B0BDE8F08F606A21680078086172
:100E5000606A401C6062218D491E89B22185628DC5
:100E6000521E628522685369DB435B070BD469B16C
:100E700000781061606A401C6062208D401E2085F1
:100E8000608D401E6085208D0028CBD12A463946D2
:100E9000204601F06BF90028CAD154F83D0B0168D7
:100EA00041F400710160202004F81E09E67766779E
:100EB0000020C6E7FFE70220C3E7000002001000A1
:100EC0000000FFFF10B586B0002100910191029152
:100ED000039100680F4988421AD10F4CA06940F075
:100EE0000800A061A069694600F008000490C020D5
:100EF000009012200190032003900848FFF75CFC4B
:100F0000E06940F40010E061E06900F40010049032
:100F100006B010BD0054004000100240000C01401B
:100F20000248816802781144816070470400002003
:100F3000074810B5016841F010010160032000F07E
:100F400075F80F2000F006F800F024F8002010BD1E
:100F50000020024070B50D4D04464FF47A71287898
:100F6000B1FBF0F00A490968B1FBF0F000F0ECFACF
:100F700048B9102C07D200222146501E00F036F846
:100F800000206C6070BD012070BD000004000020D6
:100F9000100000200C4808B5816941F00101816111
:100FA000816901F001010091C16941F08051C16185
:100FB000C06900F0805000900448416821F0E06171
:100FC00041F00071416008BD001002400000014086
:100FD000002809DB00F01F02012191404009800038
:100FE00000F1E020C0F8001170470000F0B40E4B93
:100FF0001B680C46C3F30223C3F10705042D00D977
:101000000425191D072901D2002300E0DB1E01265B
:1010100006FA05F1491E214099409E40761E164071
:101020003143F0BC01F01ABE0CED00E0064900F0BF
:10103000070208684FF6FF03184040EA0220034AFF
:1010400010430860704700000CED00E00000FA0556
:101050002DE9F0470F46050061D0434E306800F09F
:101060000700B84209D2306820F0070038433060EA
:10107000306800F00700B84251D128683B4C810726
:1010800012D5400703D5606840F4E06060602878BE
:10109000000703D5606840F4605060606068A9682C
:1010A00020F0F000084360602878C00728D0686806
:1010B000012810D02168022810D0890700292EDAD3
:1010C000616821F0030101436160FFF771FC804614
:1010D00041F288390DE021688903EFE78901EDE7E6
:1010E000FFF766FCA0EB0801494502D90320BDE8E3
:1010F000F0876068696800F00C00B0EB810FEFD1F9
:10110000306800F00700B8420BD9306820F00700C3
:1011100038433060306800F00700B84201D0012049
:10112000E5E72878400705D56068E96820F4E060C5
:10113000084360602878000706D56068296920F4B4
:10114000605040EAC100606000F038F86168084A09
:10115000C1F30311515CC8400649086006480068A5
:10116000FFF7F8FE0020C2E7002002400010024016
:101170009A3B0008100000200800002004480549A0
:1011800000684968044AC1F30221515CC8407047B5
:101190001000002000100240AA3B00080448054946
:1011A00000684968044AC1F3C221515CC8407047D5
:1011B0001000002000100240AA3B000812A185B0D8
:1011C0000FC98DE80F0014A0144A006804905168FC
:1011D000134801F00C03042B10D0082B0ED1C1F3DF
:1011E0008343C9031DF803000AD5516804AAC1F35B
:1011F0004041515C0A4A5043B0FBF1F005B07047E2
:1012000008494843FAE700000203040506070809F5
:101210000A0B0C0D0E0F101001020000001002400E
:1012200000127A0000093D002DE9F84F040070D04B
:101230002078C04DC00749D06868C0F381000128FC
:1012400007D06868C0F38100022809D16868C0032C
:1012500006D52868800339D560680028E7D035E0D6
:101260006068B0F5803F0BD010B1B0F5A02F11D061
:10127000286820F480302860286820F4802002E06C
:10128000286840F480302860606890B1FFF790FBD8
:1012900006460AE0286840F480202860F0E700BF96
:1012A000FFF786FB801B642873D828688003F7D576
:1012B0000CE0FFF77DFB064605E000BFFFF778FB7B
:1012C000801B6428F0D828688003F7D420789A4ED1
:1012D00080074FF001094FF0000839D5686810F019
:1012E0000C0F07D06868C0F38100022809D1686834
:1012F000C00306D42868800714D52069012808D1C6
:1013000010E02069B0B1C6F80090FFF751FB074626
:1013100005E00AE1FFF74CFBC01B0228C4D828688F
:101320008007F7D52868616920F0F80040EAC1001D
:1013300028600DE0C6F80080FFF73AFB074604E09E
:10134000FFF736FBC01B022823D828688007F7D494
:10135000207800072CD57948A169D9B1C0F8009050
:10136000FFF726FB074604E0FFF722FBC01B02281D
:101370000FD8686A8007F7D571484FF4FA510068B2
:10138000B0FBF1F0009000BF0098411E0091FAD22E
:101390000EE080E0C0F80080FFF70AFB074604E09B
:1013A000FFF706FBC01B022875D8686A8007F7D4D0
:1013B0002078400760D5E8690027C00008D4E869B4
:1013C00040F08050E861E869012700F0805000900B
:1013D0005C480168C90513D40168834641F48071F3
:1013E0000160FFF7E5FA824606E000BFFFF7E0FA8A
:1013F000A0EB0A0064284ED8DBF80000C005F5D544
:10140000E06801280AD008B1052813D0286A20F026
:1014100001002862286A20F0040002E0286A40F0F7
:1014200001002862E06841F2883B98B1FFF7C0FAFA
:1014300082460BE0286A40F004002862EEE700BF15
:10144000FFF7B6FAA0EB0A0159455AD8286A800777
:10145000F6D50CE0FFF7ACFA824605E0FFF7A8FAF4
:10146000A0EB0A0159454CD8286A8007F6D41FB171
:10147000E86920F08050E861E06988B36968C1F3E9
:101480008101022944D00228C6F8608004D0FFF709
:101490008FFA044638E034E0FFF78AFA074604E0A2
:1014A000FFF786FAC01B02282BD828688001F7D4E2
:1014B000206AB0F5803F05D16868A16820F400304B
:1014C00008436860D4E908010843696821F474118D
:1014D00008436860C6F86090FFF76AFA044606E0C1
:1014E00025E000BFFFF764FA001B022809D828682E
:1014F0008001F7D51BE000BFFFF75AFA001B022856
:1015000002D90320BDE8F88F28688001F4D40EE0EA
:101510000128F7D06868226A00F48031914204D132
:10152000616A00F47010884201D00120EAE70020CF
:10153000E8E70000001002400000424280044242FE
:10154000100000200070004010B5401EB0F1807FF8
:1015500001D3012010BD4FF0E02460610F2160171E
:1015600001F07CFB0020A06107202061002010BD5D
:101570007047704710B590F83C20012A22D0012214
:1015800080F83C20CA688C6822F4407222434C6880
:1015900022F4806222430C6822F4006222430C6928
:1015A00022F4805222434C6922F400522243C9693A
:1015B000002322F480420A4301684A6480F83C30E8
:1015C000002010BD022010BD70B590F83C20012A0B
:1015D0002CD0012480F83C40022280F83D20036892
:1015E0005A689D6822F070060A6832435A60104BB0
:1015F00002689A420ED00F4B9A420BD0B2F1804F44
:1016000008D00D4B9A4205D00C4B9A4202D00C4B9D
:101610009A4204D1496825F080031943916080F80B
:101620003D40002180F83C10084670BD022070BD8E
:10163000002C01400034014000040040000800403C
:10164000000C004010B5040003D094F83D0010B128
:1016500007E0012010BD002084F83C00204600F087
:101660001FF8022084F83D00211D206801F03AF99E
:10167000012084F8460084F83E0084F83F0084F896
:10168000400084F8410084F8420084F8430084F864
:10169000440084F8450084F83D00002010BD00009F
:1016A00008B5174A01681748914207D1816941F48A
:1016B00000618161806900F4006009E0124A914292
:1016C00008D1C16941F00401C161C06900F00400A2
:1016D000009008BD0D4A9142FBD1C16941F0100153
:1016E000C161C069002200F0100000901146362050
:1016F000FFF77CFCBDE808403620FFF769BC00001E
:10170000002C014000100240000800400010004082
:1017100090F83D10012901D001207047022180F886
:101720003D100168CA6842F00102CA6000680E49B3
:1017300088420ED00D4988420BD0B0F1804F08D0BE
:101740000B49884205D00B49884202D00A49884299
:1017500004D1816801F00701062903D0016841F036
:101760000101016000207047002C0140003401405D
:101770000004004000080040000C004070B5044622
:1017800090F83C00012817D0012584F83C50022035
:1017900084F83D002068826822F0770222F47F42BC
:1017A00082600868502830D00DDC20284DD005DC40
:1017B00098B310283BD148E0022070BD302844D0B7
:1017C000402834D139E0602828D0702806D0B0F500
:1017D000805F2CD0B0F5005F29D10AE0CB68D1E959
:1017E0000121206801F0D1F82068816841F077017B
:1017F00009E0CB68D1E90121206801F0C6F8206832
:10180000816841F48041816011E0CA6849682068BC
:1018100001F090F95021206807E016E0CA68496895
:10182000206801F098F96021206801F0B8F884F888
:101830003D50002084F83C0070BDCA6849682068AB
:1018400001F078F940212068EFE722680146104650
:10185000EBE72DE9F0410D46040003D094F83D007C
:1018600018B108E00120BDE8F081002084F83C00B8
:10187000204600F041F8022084F83D00206881688D
:1018800044F2070291438160211D206801F02AF88B
:10189000226890689169166A2B68AF69034340F229
:1018A0000330814341EA0721A868EF6908434FF6F6
:1018B000FC418843E96840EA0720014328692F6A10
:1018C000000140EA0730084369686D6926F0220686
:1018D00046EA0515294393602268906154F8460B47
:1018E0000162012004F81F09E0752076E076207778
:1018F000A0750020B7E7000000B585B00021009179
:10190000019102910391026818491948B2F1804F80
:1019100019D0184B9A4214D1CA6942F00202CA6126
:10192000CA6902F0020204928A6942F004028A61E2
:10193000896901F004010491C02100916946FEF714
:101940003BFF05B000BDCA6942F00102CA61CA6925
:1019500002F0010204928A6942F004028A618969F4
:1019600001F0040104910321E7E7000000100240A8
:10197000000801400004004070B590F83E60044645
:1019800090F83F5090F8423090F84320022021B167
:1019900004290ED0012E1BD114E0012E18D1012BE9
:1019A00016D184F83E0084F842000122002120680C
:1019B00020E0012D0CD1012A0AD184F83F0084F8DF
:1019C000430014E0012D03D1012B01D1012A01D0E4
:1019D000012070BD84F83E0084F83F0084F8420086
:1019E00084F8430001220021206800F0C1FF012299
:1019F0000421206800F0BCFF2068016841F001016B
:101A00000160002070BD704770B504460068016930
:101A10004FF00005C943890715D4C168C943890738
:101A200011D4E91E016101202077206880698007B8
:101A3000204602D0FFF7E7FF04E000F0D7F8204689
:101A400000F066F9257720680169C943490717D472
:101A5000C168C943490713D46FF004010161022032
:101A600020772068806910F4407F204602D0FFF77D
:101A7000CAFF04E000F0BAF8204600F049F92577E3
:101A800020680169C943090716D4C168C943090719
:101A900012D46FF008010161042020772068C0692A
:101AA0008007204602D0FFF7AEFF04E000F09EF86A
:101AB000204600F02DF9257720680169C943C90641
:101AC00017D4C168C943C90613D46FF0100101616E
:101AD000082020772068C06910F4407F204602D09B
:101AE000FFF791FF04E000F081F8204600F010F9C4
:101AF000257720680169C943C90708D1C168C9436E
:101B0000C90704D1891E0161204600F05DF92068F3
:101B10000169C943090609D4C168C943090605D446
:101B20006FF0800101612046FFF722FD2068016906
:101B3000C943490609D4C168C943490605D46FF0B1
:101B400040010161204600F09DF920680169C94308
:101B500089060BD4C168C943890607D46FF02001F8
:101B600001612046BDE87040FFF703BD70BD000075
:101B700000B585B000210091019102910391164BAF
:101B80000268164802219A420FD1826942F004028B
:101B900082618069039100F0040004904FF41060AA
:101BA000CDE9000169460E4811E00E4B9A4210D172
:101BB000826942F0080282618069039100F00800A6
:101BC00004904FF44070CDE9000169460648FEF7E5
:101BD000F3FD05B000BD0000002C014000100240E4
:101BE0000008014000080040000C0140704770B53B
:101BF000044690F83C000D4601280AD0012084F8E4
:101C00003C0042B1042A18D0082A2AD00C2A4DD10F
:101C100039E0022070BD206800F0CAFE20688169AA
:101C200041F0080181612068816921F0040181612E
:101C3000206881692A69114311E0206800F0E8FEFC
:101C40002068816941F4006181612068816921F423
:101C500080618161206881692A6941EA022181618C
:101C600024E0206800F00AFF2068C16941F0080103
:101C7000C1612068C16921F00401C1612068C169A6
:101C80002A69114311E0206800F02CFF2068C16927
:101C900041F40061C1612068C16921F48061C161C2
:101CA0002068C1692A6941EA0221C161002084F8E3
:101CB0003C0070BD10B5040003D094F83D0010B195
:101CC00007E0012010BD002084F83C00204600F011
:101CD0001EF8022084F83D00211D206800F002FE5D
:101CE000012084F8460084F83E0084F83F0084F820
:101CF000400084F8410084F8420084F8430084F8EE
:101D0000440084F8450084F83D00002010BD704771
:101D10007047000010B50446022249B104290ED0D4
:101D2000082913D094F84100012816D0012010BDD5
:101D300094F83E000128F9D184F83E200FE094F891
:101D40003F000128F2D184F83F2008E094F84000D9
:101D50000128EBD184F8402001E084F841200122E1
:101D6000206800F005FE13492068134A884201D01C
:101D7000904203D1436C43F400434364206888429B
:101D80000DD090420BD0B0F1804F08D00B49884263
:101D900005D00B49884202D00A49884204D18168A3
:101DA00001F00701062903D0016841F0010101603B
:101DB000002010BD002C0140003401400004004010
:101DC00000080040000C004070B5204988423BD11B
:101DD0001F48204D204E0168204C491C016040687E
:101DE0000078C00710D1022001F03AFA28610320E0
:101DF00001F036FA3061024619A02969FEF70CFAA3
:101E0000286931690844A061206801F02DFC6861EF
:101E1000606801F029FC706119490E4801F01AF957
:101E200017490D4801F016F9286801F01DFC01461C
:101E3000012001F0D1F9306801F016FCBDE87040D6
:101E40000146022001F0C8B970BD000090010020D9
:101E500014000020C4030020DC03002060020020E6
:101E600041B5C4CBD9B6C8CAC72025642C2042B519
:101E7000C4CBD9B6C8CAC7202564200D0A0000000B
:101E8000F4030020704770B5040004D094F83D00BE
:101E9000002510B106E0012070BD84F83C502046BA
:101EA00000F022F8242084F83D002068C16821F465
:101EB0000051C160204600F061FE2068016921F4F4
:101EC000904101612068416921F02A014161206847
:101ED000C16841F40051C1602564202084F83D00B0
:101EE00084F83E00002070BD70B586B0002506461F
:101EF00000950195029503950068224988423FD1DB
:101F00002149C86940F48020C861C86900F4802074
:101F10000490886940F00800886188691B4C00F0D3
:101F200008000490081500900220019003200390FF
:101F300069462046FEF740FCE014CDE900056946FD
:101F400020460295FEF738FC124C1148C4E9000502
:101F50008020C4E90250256140016561C4E9065052
:101F60002046FEF7D9FB08B1FEF7D4FBB46300228C
:101F7000114627206662FFF739F82720FFF728F877
:101F800006B070BD0048004000100240000C014047
:101F9000300002401C020020FEE701684A69D2437B
:101FA00052050FD46FF480624A61002140F8301F5F
:101FB000202242738173026942F0040202610173BC
:101FC00001207047002070472DE9F84F0446006853
:101FD00089460B9D01689846174641F4806101606F
:101FE0002068016841F48071016000954FF0011B89
:101FF0000022594620460A9B00F0DEF84FF4007A92
:1020000040B120680068C00501D5C4F840A0032095
:10201000BDE8F88F216809F0FE0008612B462849C9
:1020200020460A9A00F0FCF8F0BB206841698069FC
:1020300000902A4620460A9900F070F940B1206CC1
:1020400004283AD12068016841F40071016034E04D
:10205000FEB2B8F1010F09D02168380A08612A469A
:1020600020460A9900F05AF90028E8D12068066154
:102070002A4620460A9900F051F90028DFD120684D
:10208000016841F4807101600095002259462046A4
:102090000A9B00F091F80028B3D1216809F0FF00F5
:1020A00040F00100086100E007E02B4604492046AB
:1020B0000A9A00F0B5F80028AAD00120A8E700008D
:1020C000020001002DE9F843044600680D46DDE9F1
:1020D000089701689846164641F4807101604B46A6
:1020E00000224FF001112046009700F065F848B13A
:1020F00020680068C00502D54FF4007020640320FA
:10210000BDE8F883216805F0FE0008613B464A46B9
:102110001549204600F084F888B920684169806933
:1021200000903A464946204600F0F8F848B1206C45
:10213000042804D12068016841F400710160012085
:10214000DEE7F5B2B8F1010F09D02168300A086165
:102150003A464946204600F0E1F80028E7D12068D9
:1021600005610020CCE700000200010070B51646B2
:102170000D4604460DE02046FFF70FFF08B1012091
:1021800070BD681C05D0FEF713FC801BA84207D861
:1021900035B120684069C0434007ECD4002070BDD1
:1021A000002044F8300F20216173A073216941F0B1
:1021B000200121612073E2E72DE9F0471E46904699
:1021C0000D460446C1F30747DDF8209008E0701C77
:1021D00006D0FEF7EDFBA0EB0900B0420FD876B1B8
:1021E0002068012F18D0806925EA00000004000C47
:1021F00014D000214145EAD00020BDE8F08700203E
:1022000044F8300F20216173A073216941F020014F
:10221000216120730120F0E74069E5E70121E9E74A
:102220002DE9F0479A4691460E46044600254FF0A8
:102230002008C1F3074725E020684069C0434005F6
:1022400014D42068016841F40071016021686FF4C2
:1022500080604861256384F83D8084F83E50206C9E
:1022600040F00400206484F83C501FE0B9F1FF3FC7
:1022700008D0FEF79DFBA0EB0A0149450CD8B9F147
:10228000000F09D02068012F13D0806926EA0000D2
:102290000004000C0BD0CFE744F8305F84F80D80C9
:1022A000A573206940F02000206125730120BDE85E
:1022B000F0874069EAE72DE9F041002590460E4697
:1022C0000446202717E04069C043C0060CD454F8E8
:1022D000301B6FF01000486144F810596777A577FC
:1022E000206A2062257717E0FEF762FBA0EB08006A
:1022F000B04208D83EB120684169C9434906E2D4DA
:102300000020BDE8F08144F8305F6773A573206951
:1023100040F02000206125730120F2E770B51646D9
:102320000D4604460DE02046FFF737FE08B10120B8
:1023300070BD681C05D0FEF73BFB801BA84207D888
:1023400035B120684069C0430006ECD4002070BD60
:10235000002044F8300F20216173A073216941F0FF
:10236000200121612073E2E708B56A4675216820E3
:1023700000F024FE9DF80000682801D0002008BD70
:10238000012008BD10B500204FF47A720221491CCB
:102390009142FCDB401C9042F8DB00226B2168205C
:1023A00000F020FE00221921682000F01BFE002210
:1023B0001A21682000F016FE08221B21682000F078
:1023C00011FE10221C21BDE81040682000F00ABE5A
:1023D0007CB50546052406E006236A463B216820B5
:1023E00000F0D8FD10B1641EE4B2F5D2BDF80000D3
:1023F00040BA2880BDF8020040BA6880BDF80400E9
:1024000040BAA8807CBD7CB50546052406E00623BD
:102410006A464321682000F0BDFD10B1641EE4B29D
:10242000F5D2BDF8000040BA2880BDF8020040BADD
:102430006880BDF8040040BAA8807CBD094808B592
:10244000416941F0010141614069002200F0010051
:10245000009011460D20FEF7C9FDBDE808400D2093
:10246000FEF7B6BD001002400D4808B5816941F085
:1024700020018161816901F020010091816941F0B1
:1024800004018161816901F004010091816941F0D9
:1024900008018161806900F00800009008BD00001B
:1024A000001002400D4810B50B4901600C49416015
:1024B00000214FF480428160C0E9031241618161D3
:1024C000C1610162FEF77AFA002803D0BDE810402E
:1024D000FEF720B910BD0000005400401C00002091
:1024E000A086010010B596B000240F9410941194AA
:1024F000129413941C2168461494FDF73BFF20218D
:1025000007A8FDF737FF2C482A49C0E9001441F617
:102510001F41C0E9024180210461C0E90541FFF784
:1025200091F808B1FEF7F6F84FF480500F900FA91C
:102530002148FFF723F908B1FEF7ECF81E48FFF732
:10254000B9FB08B1FEF7E6F8139413A91A481494DE
:10255000FFF73AF808B1FEF7DDF86020CDE9000496
:102560000294039404940594002269461248069448
:10257000FFF73DFB08B1FEF7CDF80C2269460E4887
:10258000FFF735FB08B1FEF7C5F8079408940994E6
:102590004FF400500A94CDE90B4007A906480E9469
:1025A000FEF7E8FF08B1FEF7B5F80348FFF7E0FAD9
:1025B00016B010BD002C01407000002010B58CB08A
:1025C00024216846FDF7D6FE0024164809944FF0F2
:1025D00080410A94C0E900144FF6FF71C0E902413E
:1025E000046184610320CDE900040120CDE90204E7
:1025F0000C210491CDE90540CDE907416946094820
:10260000FFF727F908B1FEF785F8099409A90548ED
:102610000A94FEF7D9FF002801D0FEF77BF80CB032
:1026200010BD0000B800002010B58CB02421684611
:10263000FDF7A0FE00241648099414490A94C0E945
:1026400000144FF6FF71C0E9024104618461032068
:10265000CDE900040120CDE902040C210491CDE96B
:102660000540CDE9074169460948FFF7F2F808B18E
:10267000FEF750F8099409A905480A94FEF7A4FF4B
:10268000002801D0FEF746F80CB010BD0004004051
:102690000001002010B58EB000240794089409941E
:1026A0000A940B941C2168460C94FDF763FE2248A3
:1026B0002049C0E9001441F61F41C0E902418021D0
:1026C00004618161FEF7BEFF08B1FEF723F84FF405
:1026D0008050079007A91848FFF750F808B1FEF797
:1026E00019F81548FFF7E6FA08B1FEF713F80B944E
:1026F0000BA911480C94FEF767FF08B1FEF70AF822
:102700006020CDE900040294082269460A48049436
:10271000FFF76DFA08B1FDF7FDFF0C226946064888
:10272000FFF765FA08B1FDF7F5FF0348FFF720FA58
:102730000EB010BD00080040480100201CB5002468
:102740000F4800940D49019401604721C0E901142C
:1027500041F28731C16080218161FEF773FF08B1CA
:10276000FDF7D8FF0094694605480194FEF72CFF59
:10277000002801D0FDF7CEFF1CBD00000010004076
:10278000900100200C4810B50A4901604FF4E13176
:102790004160002181600C22C160C0E904128161A6
:1027A000C161FFF770FB002803D0BDE81040FDF7C2
:1027B000B1BF10BD00480040D8010020FEE7FEE791
:1027C0002DE9F05F1446894600F08CFE014627484B
:1027D00000F088FE00F058FD8046014600F0C0FF82
:1027E0008346DFF88CA05D46504600F009FB0121CE
:1027F00001F095F9414600F0B3FF4FF07E563146A7
:1028000000F0FCFD294600F0F9FD0746B9F5000F80
:102810002ADB5846394600F065FE05460121E06096
:1028200001F07DF92660C4E904055846314601F0FF
:10283000CFF8012101F073F9394600F053FE6060D2
:102840005D46504600F0DCFA012101F068F941468E
:1028500000F086FF314601F0B1F8294600F0CEFDC8
:10286000394600F03FFEA060BDE8F09FDA0F494016
:10287000DA0F493FFEF754BB30B58FB028216846C8
:10288000FDF778FD14210AA8FDF774FD0121080465
:10289000CDE900100024029402250491CDE90750EF
:1028A0004FF4E01009906846FEF7BEFC08B172B61E
:1028B000FEE70F20CDE90A054FF48060CDE90C401A
:1028C00002210AA80E94FEF7C3FB002801D072B6BD
:1028D000FEE70FB030BD70470148FFF795B8000024
:1028E00090010020F0B502681C4B1D4D1D4E1E4F7F
:1028F0001E4C4FF0804C984209D0A04207D0604552
:1029000005D0A84203D0B04201D0B84204D122F091
:10291000700E4A6842EA0E02984209D0A04207D0DF
:10292000604505D0A84203D0B04201D0B84203D1DF
:1029300022F44075CA682A434D6922F080022A4376
:1029400002608A68C2620A688262984201D0A0422C
:1029500001D10969016301214161F0BD002C0140F1
:102960000004004000080040000C0040003401401A
:1029700010B501F01F030121046A99408C430462E1
:10298000016A9A401143016210BD10B5846842EAA1
:10299000032224F47F440A432243826010BD8268EC
:1029A00022F070020A4342F0070181607047000084
:1029B000F0B5026A22F001020262036A4268846989
:1029C000124E24F073050C682C4323F002058B682B
:1029D0002B430D4DA84201D0B04205D123F008078A
:1029E000CB683B4323F00403A84201D0B04205D199
:1029F0004D6922F4407215438A692A43426084611A
:102A0000496841630362F0BD002C0140003401407D
:102A1000F0B5026A22F010020262026A4368846919
:102A20000D6824F4E64444EA05248D6822F020026F
:102A300042EA05120F4D104EA84201D0B04206D115
:102A4000CF6822F0800242EA071222F04002A84238
:102A500001D0B04207D14D6923F4406343EA8503B6
:102A60008D6943EA8503436084614968816302623A
:102A7000F0BD0000002C014000340140F0B5026AB6
:102A800022F480720262026A4368C46922F400720E
:102A900024F073050C68124E2C438D6842EA05221F
:102AA0000E4DA84201D0B04206D1CF6822F4006298
:102AB00042EA072222F48062A84201D0B04207D144
:102AC0004D6923F4405343EA05138D6943EA051326
:102AD0004360C4614968C1630262F0BD002C0140DB
:102AE0000034014030B5026A22F480520262046A66
:102AF0004268C3690D6823F4E64343EA05238D6801
:102B000024F4005444EA0534084DA84202D0084D8C
:102B1000A84204D14D6922F4804242EA8512426003
:102B2000C36149680164046230BD0000002C0140AB
:102B30000034014010B5036A046A24F00104046201
:102B4000846924F0F00444EA021423F00A020A43E0
:102B50008461026210BD10B5036A23F010030362A2
:102B60008369046A23F4704343EA023224F0A00329
:102B700043EA01118261016210BD000070B5044694
:102B800000680169E26821F4405111430161216943
:102B9000A0680843616908432168CA6841F20C6370
:102BA0009A430243CA6020684169A26921F44071D6
:102BB000114341611E492068884202D1FEF7EEFAB6
:102BC00001E0FEF7DBFA00EBC00101EB00126068E8
:102BD00064218000B2FBF0F3B3FBF1F36FF0180651
:102BE0007343B2FBF0F5B2FBF0F605EB830532233D
:102BF00003EB0515B5FBF1F5B6FBF1F605F0F005B5
:102C000005EB0615B2FBF0F6B2FBF0F0B0FBF1F00D
:102C10006FF01802504306EB800003EB0010B0FB8E
:102C2000F1F0216800F00F002844886070BD0000BA
:102C300000380140FEE74100080218BF04200A0ED8
:102C400018BF40F001004FF07F4232EA010108BF97
:102C500040F00200012808BF052070470907090E4F
:102C6000002804DB00F1E02080F80014704700F039
:102C70000F0000F1E02080F8141D7047012100F0E2
:102C80004EBF0021084600F02DBC6FF05E01080722
:102C900000F045BF2DE9F04D0D4614464FF07F4141
:102CA000B1EB440F9EBF4FF0FF312960BDE8F08DBE
:102CB0004FF0004040EA0421C4F3C750783810F0C8
:102CC0001F024A4B4FEA601CC2F120067B44C4F34A
:102CD000C750A0F178004FEA601003EB800053F872
:102CE0002C3008BFD0E901C612D0D0F804C0934000
:102CF0002CFA06F73B4387680CFA02FC27FA06F821
:102D0000C06807FA02F2F0404CEA080C42EA0006FA
:102D1000A3FB0132ACFB01C0A6FB016101EB0C0679
:102D20008E4234BF4FF0010C4FF0000CC1186144CB
:102D3000BCF1000F02D0814202D903E0814201D2EE
:102D4000012000E00020104400F120024FEA921818
:102D50008006CA0C40EA42304F03C5F8008000F0FC
:102D60009FFC8246384600F0B3FC6FF0120100F081
:102D7000D6FE0746304600F0ABFC6FF0250100F0B0
:102D8000CEFE83463946504600F038FB594600F0E7
:102D900035FB00F500666FF30B065146304600F038
:102DA00017FE394600F014FE594600F007FE1049A0
:102DB00000F0D6FC07460F49304600F0D1FC3946FA
:102DC00000F01CFB07460C49304600F0C9FC3946B0
:102DD00000F014FB14F0004F08BFBDE8F08DC8F1FF
:102DE000805180F000402960BDE8F08DE40E0000C5
:102DF000DB0FC92F22AAFD290000C92F7047000050
:102E00002DE9F843044602464F486946B0EB420FAD
:102E100009D94FF0E640B0EB420F94BF00204FF0CD
:102E2000FF30009030E0494B22F00040834271D9DE
:102E30004749204600F094FC00F090FD804600F0E9
:102E400013FC00F0030000904249404600F088FC6B
:102E500005464149404600F083FC06463F4940464E
:102E600000F07EFC07463E49404600F079FC2146D2
:102E700000F0A4FD394600F0ABFD314600F0A8FD9E
:102E8000294600F0A5FD04462546009C002C45DBA4
:102E9000294614F0010F08461CD000F061FC0646DC
:102EA000304900F05DFC304900F088FD314600F00B
:102EB00057FC2E4900F0A2FA314600F051FC294699
:102EC00000F04EFC294600F099FA14F0020F1CD0D5
:102ED000BDE8F88300F044FC0546254900F040FCBD
:102EE000244900F08BFA294600F03AFC224900F010
:102EF00085FA294600F034FC4FF07E5100F07EFA4E
:102F000014F0020F08BFBDE8F88380F00040BDE870
:102F1000F883FFE71046FFF7BDFEB4E76800B0F1A5
:102F20007F4F3CBF4FF07E50BDE8F88307D14FF094
:102F30000100FDF74FFABDE8F843FFF7A2BE2846AF
:102F4000BDE8F843FFF79ABEB61F927E490E494688
:102F500083F9223F1A61342C0020A23300A0FD39EE
:102F60000000C93F336D4C39DA82083CA0AA2ABE62
:102F7000B93AB2BACA9F2A3DDDFFFFBE04490A68CA
:102F80005206FCD5024AC1B2121D11607047000002
:102F9000004800403EB542F20F748DE81C0040002E
:102FA0000A46014601230448FDF7CCFD002801D064
:102FB0004FF0FF303EBD00001C0000203EB542F245
:102FC0000F7300920124CDE9014340000A460146F7
:102FD00023460348FDF7B6FD002800D0A01E3EBDE5
:102FE0001C00002017B583B042F20F74012305AA1C
:102FF0008DE81C0040000A4601460448FDF7CAFE61
:10300000002801D04FF0FF3006B010BD1C0000209A
:1030100070B50D4C0D4D0B4A21462846FFF7D0FBED
:10302000084A214618322846FFF7CAFB054A0849D4
:1030300030322846FFF7C4FBFFF796F9BDE8704031
:10304000FFF7A0B98C020020000020420000C84217
:10305000000040402DE9F04704460D46D4E9041035
:10306000401A6060A1684FF00008401A00F018FB99
:1030700082466969206800F03FFC06D3206900F0B1
:103080000FFBA96900F038FC03D26068002814DB4C
:1030900016E06869216880F0004000F02DFC09D33B
:1030A000A86980F00046206900F0FAFA314600F085
:1030B00023FB2AD26068002802DD00F0F1FA804686
:1030C0006768E068A6683844714200EB410000F090
:1030D000E7FA0146A86800F043FB8146414668686C
:1030E00000F03EFB80465146286800F039FB41461F
:1030F00000F084F9494600F081F9216800F07EF97A
:103100002060C4E90276BDE8F0876068D5E700007A
:10311000FDF70EFFFFF7B0FBFFF7A6F9FFF78EF9FB
:10312000FFF7E0F9FFF74AFAFFF77EFAFFF7B2FA86
:10313000FFF704FBFFF726FBFFF7B4F900F028F8D0
:1031400000F076F80448FEF7E3FAFFF761FFFDF7B9
:1031500007FAFDF771FAFEE79001002000B58DB087
:1031600018216846FDF706F9182269460748FDF759
:10317000CFF8182106A8FDF7FDF80448182206A983
:103180001830FDF7C5F80DB000BD0000C4030020E5
:1031900010B500210C48FEF7BDFD0C210A48FEF7D2
:1031A000B9FD08210948FEF7B5FD0C210748FEF7D7
:1031B000B1FD3C210648FEF7DFFBBDE810403C2195
:1031C0000448FEF7D9BB0000700000204801002031
:1031D000B800002000010020F0B5134D134E00236D
:1031E000114C0C35371D41F2707200290CDB9142F5
:1031F00000DD1146012804D0022801D13360396076
:10320000F0BD23602960F0BD41F2707C11EB0C0F22
:1032100000DB4A42012804D00228F4D13B6032602E
:10322000F0BD2B602260F0BD342C01403C08004012
:1032300008480749416108490160002141608160F7
:103240004FF07C51C16005498161FFF787BF0000E5
:1032500000A0BE45F403002000005C42000048438B
:103260000021022803D0032807D0002070474FF028
:103270008042506A516200B27047024A1068116081
:1032800000B27047240400402DE9F843044602468A
:103290004C486946B0EB420F09D94FF0E640B0EB1D
:1032A000420F94BF00204FF0FF30009030E0464BBB
:1032B00022F00040834265D94449204600F050FA8C
:1032C00000F04CFB804600F0CFF900F003000090C6
:1032D0003F49404600F044FA05463E49404600F06A
:1032E0003FFA06463C49404600F03AFA07463B4959
:1032F000404600F035FA214600F060FB394600F008
:1033000067FB314600F064FB294600F061FB044690
:10331000009D002D3ADB2146084600F021FA0646C2
:103320002F4900F01DFA2F4900F068F8314600F0EF
:1033300017FA2D4900F062F8314600F011FA2B49D6
:1033400000F05CF8314600F00BFA294900F056F81D
:10335000314600F005FA274900F050F8314600F0F8
:10336000FFF9214600F0FCF9214600F047F815F07E
:10337000010F08BFBDE8F8830146BDE8F8431E48C9
:1033800000F0B0B81046FFF785FCC0E76000B0F170
:103390007F4F09D22046FFF74EFC042808BFFFF7F5
:1033A00074FC2046BDE8F88306D10120FDF712F831
:1033B000BDE8F843FFF765BC2046BDE8F843FFF7DA
:1033C0005DBC0000B61F927E490E494683F9223F3C
:1033D0001A61342C0020A23300A0FD390000C93F3F
:1033E000BBE9223C0C6D063B8A76CE3CACB5593D20
:1033F00035A1083E29AAAA3E000080BF90EA010F2D
:1034000048BF81F0004100F1EA82421A3CBF801AB5
:1034100089184FEAD0524FF07F4C1CEA410FA2EBC3
:10342000D15318BF9CEA026F00F03B804FF0004C74
:103430004CEA00204CEA012121FA03FC10EB0C0CB1
:103440001ED202F1FF325FEA1C2040EBC25038BFAF
:1034500070471CF07F0F4FEA400C18BFBCF17F4F44
:1034600038BF7047C3F12003994008BF20F0010026
:10347000BCF17F4F38BF7047A0F1C04000F037BAB1
:103480004FEA3C00000A40EBC25028BF1CF0FF0F7F
:103490004FEA400CE6D018BFBCF17F4F38BF7047F1
:1034A000EAE79CEA026F05D010EA5C0F08BF00F063
:1034B0000040704710B500F0D4F900BF64FBBE3E79
:1034C000014800F0FABA00BF0000C07F401058BFAA
:1034D000C0F14040491058BFC1F140418142EFF373
:1034E000008070474FF47F0C1CEAD0121EBF1CEA0C
:1034F000D11392EA0C0F93EA0C0F00F0858090EA4A
:10350000010F48BF42F4807240F4000C41F4000007
:103510002CF07F4120F07F4000B58142A2EB0302F6
:103520000FF2081CACEB504EC0F100009EF800E01A
:103530004FEA4E0E00FB0EFC38BF49004FEA2C1C30
:1035400002F5FA020CFB0EF34FEACE1E4FEA112CE5
:103550004FEAC1210EEB635E42EB22420EFB0CFCF4
:103560004FEA1C5300FB03114FEA112C4FEA0131C3
:103570000EFB0CFC4FEADC4C00FB0C11C14228BFD7
:1035800009184CEB03335DF804EB10EB410143EBFE
:10359000C250B2F57C0F38BF704729D512F0F00F3A
:1035A0001CBF00F1C04000F00040704700818283E2
:1035B0008485868788898B8C8D8E8F919293959642
:1035C00097999A9C9D9FA0A2A3A5A7A8AAACAEB0CC
:1035D000B2B3B5B7B9BCBEC0C2C5C7C9CCCED1D4D1
:1035E000D7D9DCDFE2E6E9ECF0F3F7FAFE00000001
:1035F0004FEA400C0CF1807CBCF17E4F28BF704735
:10360000B0F1C04000F073B990EA010F0CEAD11399
:1036100048BF42F48072624538BF634507D213F455
:103620007F0F16D080EA010000F00040704710B50F
:1036300000F017F9097EFC3E00F005B880EA0100B1
:1036400000F00040704780EA010000F0004000F008
:103650004EB912F47F0F04BF0248704780EA0100A0
:1036600000F045B90000C07F41000B0ED3F19E026F
:1036700008D950F400034FEA032323FA02F048BFAD
:103680004042704710B500F0ECF800BF499224802A
:10369000002070476FF0004282EA2000704700006F
:1036A00010F0004148BF4042B0FA80F310FA03F234
:1036B000C3F19D030BD051EAC35101EB1220530615
:1036C00038BF704700F1010008BF20F001007047CB
:1036D000B0FA80F310FA03F2C3F19D030AD0D905C2
:1036E00001EB1220530638BF704700F1010008BFFC
:1036F00020F001007047000050EA010C00F1138037
:103700001CF5000F58BFBCF5000F01D4884270476C
:1037100007D710F5000F58BF11F5000F15D48842D8
:103720007047894270471CF5000F04D5BCF5000FA7
:10373000F7D5814270474FF0807C1CEB400F38BFBB
:103740001CEB410F01D28142704710B500F089F89F
:10375000922449004FF000504FF08051FFF7B6BE61
:103760004FF47F0C1CEAD0121EBF1CEAD11392EA60
:103770000C0F93EA0C0F00F0478090EA010F48BF4E
:1037800042F480724FF0004C4CEA00204CEA0121D8
:1037900002EB0302A0FB0113A2F50002002918BFEF
:1037A00043F001035B0028BF4FEA330342EB2242A0
:1037B0005FEA132C4CEBC2502EBFBCEB436FB2F54B
:1037C0007C0F70474FEA036CBCF1004F08BF20F03C
:1037D0000100B2F57C0F38BF70470BD582F0FF02B5
:1037E00012F5803FC8BF704700F1C040D8BF00F05D
:1037F0000040704700F5000C5FEA4C0C48BF704772
:10380000B0F1C04000F073B890EA010F0CEAD11398
:1038100048BF42F48072624538BF634504D280EAF3
:10382000010000F00040704710B500F01AF800BF2A
:103830008900013E00F007B800F009B85FEA410CCA
:103840005FEA1C6C08D080EA010000F050B85FEA23
:10385000400C5FEA1C6CF6D14FF00040A0F58000F0
:1038600070470EF1020E2EF0030E5EF8044B244258
:1038700004D44FEA4102B2F17F4F11D84FEA40031E
:10388000B3F17F4F0CD80ED14FEAD07CB2F17F4F0D
:103890000CEB4C0C0CF1020C08BF4CEBD17C04E09F
:1038A0004FF0080C01E04FEAD17C0CEB4C0324FAFA
:1038B00003F404F00704B4F1040C06D20EEB840CFC
:1038C000BDE810404CF0010C6047DFE80CF0070841
:1038D00002024FF00040A0F5800010BD08464200F3
:1038E00018BFD2F1807288BF00F0004010BDFF21E8
:1038F00041EAD050C005704751EA000C00F1138036
:103900001CF5000F58BFBCF5000F01D48142704771
:1039100007D711F5000F58BF10F5000F15D48142DD
:103920007047894270471CF5000F04D5BCF5000FA5
:10393000F7D5884270474FF0807C1CEB410F38BFB1
:103940001CEB400F01D28842704780EA010081EAF7
:10395000000180EA0100FFF7F8BE00005FEA400CBA
:103960005FEA1C6CBCF17F0314D4D3F1170240F35F
:103970001C804FF0010C0CFA02FCACF10103034077
:10398000B3EB5C0220EA030008BF10EA0C0F88BF0B
:1039900060447047B3F1FF3F28BF5FEA002C00F09E
:1039A000004088BF40F07E507047BCF1FF0FB8BFA9
:1039B000704710B5FFF755FF40DBB6BE80F0004002
:1039C00090EA010F7FF521AD81F0004100F007B8CA
:1039D00090EA010F48BF81F000413FF516AD421A51
:1039E00004D882F00042A0EB020011444FEAD0520A
:1039F0004FF07F4C1CEA410FA2EBD15318BF9CEA59
:103A0000026F4AD04FF0004C4CEA00204CEA0121F2
:103A100021FA03FCB0EB0C0C0FD412F0FE0F36D0E1
:103A20005FEA4C001DD5001240EBC25038BF704712
:103A30001CF03F0F18BF70470BE0A2F101025FEAD4
:103A40001C2040EBC25038BF70471CF07F0F18BFDE
:103A50007047C3F12003994014BF401E20F00100BD
:103A6000704780084FEA122308BF7047B0FA80FC05
:103A7000A2EB0C02CCF1280C60FA0CF093EA122FA6
:103A800004BF00EBC25070474FEAC3707047130A7F
:103A90005FEADC1008BF7047F6E79CEA026F04D0CB
:103AA00010EA5C0F08BF0020704710B5FFF7D9FE81
:103AB00040DFF63E81F0004070470CF00F03092B09
:103AC00008BF082000F051800A2B0BD0082B18BF2C
:103AD000704708BF1CF0400F0AD04FF000004FF0B5
:103AE000000170471CF0400F18BF4FF000407047B6
:103AF0001CF0100F08D020F0704300F07F4242EA23
:103B0000D3014FEA4370704700F0604021F07F42DC
:103B100042EA000201F07F4040EA727070474FF0C5
:103B2000FF0212EAD0521CBF92F0FF038B42C2BFC9
:103B3000D14200EBC1507047002A0AD0002B0BD0B5
:103B4000002900F00040A4BF40F0FE4040F4000017
:103B5000704700F00040704743024FF00B0C18BF55
:103B60004CF0806C7FF4ACAC70471CF4801F11D01B
:103B70001CF4E02F03D06FEACC31490070474FF0BE
:103B80004050EFF3008222F0704242EA000282F3DA
:103B9000008870474FF000007047000000000000F0
:103BA00000000102030406070809000000000102EA
:103BB00003040000000000006E83F9A22915444EA2
:103BC000D15727FCC0DD34F5999562DB4190433C29
:103BD000AB6351FEF43B0008000000201C00000015
:103BE0006C010008103C00081C000020541000006C
:103BF0008801000800000000010000001000000023
:103C0000000000000024F400000000001400002068
:0400000508000131BD
:00000001FF
