:020000040800F2
:1000000000160020D5010008F53B00081931000852
:10001000F13B00085D050008FD46000800000000F7
:10002000000000000000000000000000E7010008E0
:10003000AD09000800000000EB010008213D0008A8
:10004000EF010008EF010008EF010008EF010008D0
:10005000EF010008EF010008EF010008EF010008C0
:10006000EF010008EF010008EF010008EF010008B0
:10007000EF0100087D090008EF010008EF0100080A
:100080007F090008EF010008EF010008EF010008F8
:10009000EF010008EF010008EF010008EF01000880
:1000A000EF010008EF010008EF010008EF01000870
:1000B000EF010008EF010008EF010008EF01000860
:1000C000EF010008EF010008EF010008EF01000850
:1000D000EF010008EF010008CD440008EF0100081F
:1000E000EF010008EF010008EF010008EF01000830
:1000F000EF010008EF010008EF010008EF01000820
:10010000EF010008EF010008EF010008EF0100080F
:10011000EF010008EF010008913D0008EF01000821
:10012000EF010008EF010008EF010008EF010008EF
:1001300000F002F800F03FF80AA090E8000C8244BA
:100140008344AAF10107DA4501D100F034F8AFF297
:10015000090EBAE80F0013F0010F18BFFB1A43F0A5
:1001600001031847CC830000EC830000103A24BF41
:1001700078C878C1FAD8520724BF30C830C144BF0C
:1001800004680C607047000000230024002500264E
:10019000103A28BF78C1FBD8520728BF30C148BFEA
:1001A0000B607047642900F07780002070471FB50E
:1001B0001FBD10B510BD00F0A3F91146FFF7F7FF02
:1001C00006F0A0FC00F0C1F903B4FFF7F2FF03BC96
:1001D00004F018FF0948804709480047FEE7FEE79A
:1001E000FEE7FEE7FEE7FEE7FEE7FEE7FEE7FEE7E7
:1001F00004480549054A064B704700008F3D00083A
:1002000031010008000A002000160020000E002026
:10021000000E0020704700000FB4044910B503AA77
:10022000029800F037F910BC5DF814FB00000020C4
:100230002DE9F0410E460446002020622046E16888
:10024000884730B3252805D0D4E901219047206A9A
:10025000401CF2E7E168204600278847050018D0D7
:10026000A5F14100192802D820354FF40067324625
:10027000294620462760FFF795FF40B1012804D0AA
:10028000F61D26F007060836D8E7361DD6E72846BD
:10029000DAE7206ABDE8F0812DE9F0410646002446
:1002A00010687529314616A510D0AFF300800028DC
:1002B00002DA404213A507E031688A0701D512A58A
:1002C00002E0490704D511A5012401E0AFF3008045
:1002D00000210A2206F1240709E0B0FBF2FCB0FB82
:1002E000F2F302FB1C00303078541846491C0028F9
:1002F000F3D123462A463046BDE8F04100F070B8FD
:10030000000000002D0000002B0000002000000075
:1003100010B5203AC0F00B80B1E81850203AA0E8A0
:100320001850B1E81850A0E81850BFF4F5AF5FEAD4
:10033000027C24BFB1E81850A0E8185044BF18C987
:1003400018C0BDE810405FEA827C24BF51F8043B2E
:1003500040F8043B08BF7047D20728BF31F8023B82
:1003600048BF11F8012B28BF20F8023B48BF00F816
:10037000012B70474FF0000200B513469446964695
:10038000203922BFA0E80C50A0E80C50B1F12001A8
:10039000BFF4F7AF090728BFA0E80C5048BF0CC056
:1003A0005DF804EB890028BF40F8042B08BF7047B4
:1003B00048BF20F8022B11F0804F18BF00F8012B26
:1003C0007047704770477047704710B500F074F879
:1003D000006810BD10B5044600F06EF8046010BD52
:1003E0002DE9F0470D4699469246044600F124084F
:1003F0000168880604D5E06921F01001216000E061
:100400000120A84201DD471B00E00027A1697A19FD
:1004100002EB0900081AA0612078C00602D4204629
:10042000AFF30080002608E0D4E901211AF80600A5
:100430009047206A401C761C20624E45F4DB2078F1
:10044000C0060AD52046AFF3008006E0D4E90121BA
:1004500030209047206A401C2062381EA7F1010717
:10046000F4DC07E0D4E9012118F805009047206A80
:10047000401C2062281EA5F10105F3DC2046AFF3E5
:1004800000802078000602D50220BDE8F087012018
:10049000FBE70000074B70B50D467B4400F015F8F4
:1004A0000446284600F024F810B14FF0FF3070BD2C
:1004B000204670BD43630000004870479C0900203F
:1004C00001694A1C02610878704700B58FB0CDE918
:1004D00001310021059105497944CDE90310114608
:1004E0006846FFF7A5FE0FB000BD0000E5FFFFFF67
:1004F000007B00F080007047004870479C09002096
:100500007546FFF7F9FFAE4605006946534620F0F1
:100510000700854618B020B5FFF76AFEBDE8204009
:100520004FF000064FF000074FF000084FF0000BAF
:1005300021F00701AC46ACE8C009ACE8C009ACE862
:10054000C009ACE8C0098D46704710B50446AFF34A
:1005500000802046BDE81040FFF736BE00BFFEE732
:100560002DE9FE4F06460C461546A660E168A868D0
:1005700007F06EFC02902169686807F069FC82460A
:100580002168686907F064FC01906168286907F0D8
:100590005FFC0090A168E86807F05AFC8346009968
:1005A00007F070FA8146019907F06CFA80465146CF
:1005B00007F086FD0746029907F082FD60616068DA
:1005C0002060A06860602069E06061692161606905
:1005D000BDE8FE8F10B586B0002003900490059012
:1005E0001BA0FFF719FE002417E001A803F04EF846
:1005F000BDF90410039808440390BDF9061004984F
:1006000008440490BDF90800A0F5805005990844FD
:100610000590052000F0B0FB641C642CE5DB03981A
:1006200090FBF4F010490860049890FBF4F04860E7
:10063000059890FBF4F0886008468368426801687A
:100640000AA0FFF7E9FD11A0FFF7E6FD06B010BD17
:100650004163632043616C6962726174696F6E20EB
:1006600053746172740A0D00740400204163635F67
:10067000526177446174615F4F66667365743A25B1
:10068000642C25642C25640A0D000000416363205E
:1006900043616C6962726174696F6E2053746F702C
:1006A0000A0D000010B586B000200390049005905C
:1006B0001AA0FFF7B1FD002415E001A803F018F817
:1006C000BDF90410039808440390BDF9061004987E
:1006D00008440490BDF908100598084405900520C9
:1006E00000F04AFB641C642CE7DB039890FBF4F0F9
:1006F00011490860049890FBF4F04860059890FB5D
:10070000F4F0886008468368426801680BA0FFF730
:1007100083FD12A0FFF780FD06B010BD4779726F10
:100720002043616C6962726174696F6E20537461F9
:1007300072740A0D00000000800400204779726F77
:100740005F526177446174615F4F66667365743AA6
:1007500025642C25642C25640A0D00004779726FEE
:100760002043616C6962726174696F6E2053746FAB
:10077000700A0D002DE9F04175497648006807F0D0
:1007800067FB804607F052F9064606F0B1FA0446C8
:1007900006F0DEFB704908606D496E48006807F09E
:1007A00057FB804607F042F9064605F00DFF044668
:1007B00006F0CEFB6949086065496948006807F0A2
:1007C00047FB804607F032F9064606F091FA0446E8
:1007D00006F0BEFB634908605D496148006807F0A8
:1007E00037FB804607F022F9064605F0EDFE044689
:1007F00006F0AEFB5C49086055495C48006807F0AC
:1008000027FB804607F012F9064606F071FA044607
:1008100006F09EFB564908604D495448006807F0B1
:1008200017FB804607F002F9064605F0CDFE0446A8
:1008300006F08EFB4F4908604B4801684D48006840
:1008400007F006FB4C4908604948016843480068C6
:1008500007F0FEFA0546434801683F48006807F084
:10086000F7FA064643480168304607F0F1FA0446B5
:10087000294607F025FC404948603A480168374856
:10088000006807F0E5FA06463A480168304607F086
:10089000DFFA0446364801682F48006807F0D8FAA6
:1008A0000546214607F0EEF8334988602E48016876
:1008B0002F48006807F0CCFA2F49C8602D4801681E
:1008C0002648006807F0C4FA054626480168224811
:1008D000006807F0BDFA064625480168304607F073
:1008E000B7FA0446294607F0CDF8234908612148A4
:1008F00001681948006807F0ABFA05461948016815
:100900001648006807F0A4FA064619480168304600
:1009100007F09EFA0446294607F0D2FB16494861C3
:100920001048006880F0004088610F4801680A485C
:10093000006807F08DFA1049C8610B480168074844
:10094000006807F085FA0C490862BDE8F0810000F4
:1009500035FA8E3C40000020480000205400002062
:10096000440000204C000020580000203C000020E3
:10097000500000205C000020CC040020704770472D
:1009800030B590F840500124AC40C56B6C600468F1
:1009900063604468102C04D10468A2600468E160BC
:1009A00003E00468A1600468E26030BD704772B67D
:1009B00000BFFEE772B6234A516A027802BB0122E9
:1009C0000270214A1268126902F0010262B141F21A
:1009D0008832914208D21D4A1268521C42F21073AA
:1009E00003FB0212826006E0184A126842F210739A
:1009F00003FB02128260826842600022C2601FE034
:100A000082684260104A1268126902F0010262B103
:100A100041F28832914208D20C4A1268521C42F2CA
:100A2000107303FB0212826006E0084A126842F269
:100A3000107303FB02128260D0E90132D21AC26045
:100A400062B6704700100040FC0100201C0000202E
:100A50000146002291F82100022808D00420886372
:100A600000BF002081F8200000BF01207047086807
:100A7000006820F00E000B6818600868006820F01D
:100A800001000B68186091F8403001209840CB6B52
:100A90005860012081F8210000BF002081F820006B
:100AA00000BF1046E2E7000070B50446002594F848
:100AB0002100022803D00420A0630125C1E02068A2
:100AC000006820F00E00216808602068006820F0AF
:100AD0000100216808605C492068884252D95A495F
:100AE00078392068884201D1012047E056496439AD
:100AF0002068884201D1102040E0534950392068D5
:100B0000884201D1801539E04F493C39206888423C
:100B100001D1801432E04C4928392068884202D142
:100B20004FF480302AE0484914392068884202D1C5
:100B30004FF4801022E044492068884201D14004EB
:100B40001CE042492068884201D1012016E03F495B
:100B500014312068884201D110200FE03B49283130
:100B60002068884201D1801508E038493C3120686E
:100B7000884201D1801401E04FF480303349091FCD
:100B8000086051E0304978392068884201D101205D
:100B900047E02D4964392068884201D1102040E0A7
:100BA000294950392068884201D1801539E0264909
:100BB0003C392068884201D1801432E0224928392A
:100BC0002068884202D14FF480302AE01E4914394F
:100BD0002068884202D14FF4801022E01A49206830
:100BE000884201D140041CE018492068884201D1A4
:100BF000012016E0154914312068884201D11020E7
:100C00000FE0124928312068884201D1801508E0A0
:100C10000E493C312068884201D1801401E04FF434
:100C20008030094980394860012084F8210000BFE4
:100C3000002084F8200000BF606B10B12046616B7B
:100C40008847284670BD000080000240080402402A
:100C50000146002209B9012070471E4B08689842DE
:100C60000BD21D4B0868C01A1423B0FBF3F08000B0
:100C7000086419480838C8630AE0164B0868C01AA7
:100C80001423B0FBF3F08000086412480838C863EE
:100C9000022081F821000868026843F6F070824360
:100CA000D1E901031843CB6818430B6918434B691A
:100CB00018438B691843CB691843024308680260E4
:100CC00000208863012081F82100002081F82000A5
:100CD00000BFC1E708040240080002402DE9F041CE
:100CE00004460D4616461F464FF0000800BF94F814
:100CF0002000012802D10220BDE8F081012084F803
:100D0000200000BF94F8210001282CD1022084F893
:100D100021000020A0632068006820F00100216805
:100D200008603B46324629462046FFF729FEE06A26
:100D300030B12068006840F00E00216808600BE0C8
:100D40002068006820F004002168086020680068BE
:100D500040F00A00216808602068006840F0010047
:100D60002168086006E000BF002084F8200000BF72
:100D70004FF002084046BFE770B5044600F0B0F9F6
:100D800006462546681C10B104480078054400BF9B
:100D900000F0A6F9801BA842FAD370BD0C00002019
:100DA0002DE9F847024600239C467BE14FF00108FD
:100DB00008FA03F4D1F8008008EA0400A0427DD1CB
:100DC000DFF8F4A2D1F80480A8EB0A09D0453AD0A4
:100DD00014DCB8F1030F50D009DCB8F1000F31D0AA
:100DE000B8F1010F1CD0B8F1020F49D120E0B8F1E1
:100DF000110F18D0B8F1120F42D11EE0B9F5881FBB
:100E000025D006DCB9F5803F20D0B9F5801F37D159
:100E10001AE0B9F5001F18D0B9F5041F30D117E05A
:100E2000D1F80CC02DE0D1F80C8008F1040C28E0BA
:100E3000D1F80C8008F1080C23E0D1F80C8008F1FF
:100E40000C0C1EE000BF00BF00BF00BF00BF00BF12
:100E5000D1F80880B8F1000F02D14FF0040C0BE07C
:100E6000D1F80880B8F1010F03D14FF0080C1461DC
:100E700002E04FF0080C546103E04FF0000C00E07A
:100E800000BF00BFFF2801D8904601E002F104082E
:100E90004646FF2802D84FEA830803E0A3F108087A
:100EA0004FEA88084746D6F800804FF00F0909FA44
:100EB00007F928EA09080CFA07F900E07AE048EA9D
:100EC0000908C6F80080D1F8048008F08058B8F10D
:100ED000805F6FD100BFDFF8E481D8F8188048F058
:100EE0000108DFF8D891C9F81880C846D8F81880EA
:100EF00008F00108CDF8008000BF00BF4FEAB93804
:100F00004FEA930958F829504FEA83784FEA187945
:100F10004FF00F0808FA09F825EA0805DFF8A08164
:100F2000424502D14FF0000824E0DFF898814245A5
:100F300002D14FF001081DE0DFF88C81424502D15B
:100F40004FF0020816E0DFF88481424502D14FF0ED
:100F500003080FE0DFF87881424502D14FF0040822
:100F600008E0DFF87081424502D14FF0050801E04A
:100F70004FF006084FEA83794FEA197908FA09F821
:100F800048EA0505DFF850814FEA930948F82950EF
:100F9000D1F8048008F48038B8F5803F0BD1DFF831
:100FA0003C81D8F8008048EA0008DFF83091C9F8A1
:100FB00000800AE075E0DFF82481D8F8008028EA94
:100FC0000008DFF81891C9F80080D1F8048008F40F
:100FD0000038B8F5003F0ED1DFF8008108F10408B1
:100FE000D8F8008048EA0008DFF8F09009F1040919
:100FF000C9F800800DE0DFF8E48008F10408D8F8B3
:10100000008028EA0008DFF8D49009F10409C9F843
:101010000080D1F8048008F48018B8F5801F0ED144
:10102000DFF8B88008F10808D8F8008048EA00081E
:10103000DFF8A89009F10809C9F800800DE0DFF891
:101040009C8008F10808D8F8008028EA0008DFF83A
:101050008C9009F10809C9F80080D1F8048008F4DF
:101060000018B8F5001F0ED1DFF8708008F10C08E9
:10107000D8F8008048EA0008DFF8609009F10C0910
:10108000C9F800800DE0DFF8548008F10C08D8F8AA
:10109000008028EA0008DFF8449009F10C09C9F83B
:1010A00000805B1CD1F8008028FA03F8B8F1000F2B
:1010B0007FF47CAEBDE8F8870000111000100240FC
:1010C00000080140000C01400010014000140140E4
:1010D00000180140001C01400800014000040140CC
:1010E00001480068704700000400002070B5044605
:1010F0000CB9012070BD94F83D0028B9002084F897
:101100003C00204600F03EFB242084F83D0020688F
:10111000006820F00100216808602068006840F441
:101120000040216808602068006820F400402168C1
:10113000086000F0FFFC05465C496068884206D8FC
:101140005B48854201D2012007E0002005E05948B4
:10115000854201D2012000E00020012800D1C9E72A
:101160005548B5FBF0F62068406820F03F0030435A
:10117000216848604D496068884201D8701C07E0CA
:101180004FF4967070434FF47A71B0FBF1F0401C4D
:101190002168096A21F03F01084321680862434938
:1011A0006068884214D8681E61684900B0FBF1F09D
:1011B000401CC0F30B00042801D204203DE0681E4F
:1011C00061684900B0FBF1F0401CC0F30B0034E053
:1011D000A06838B9681E616801EB4101B0FBF1F00D
:1011E000401C0AE0681E616801EBC10202EB0111BC
:1011F000B0FBF1F0401C40F48040C0F30B0008B994
:1012000001201AE0A06848B9681E616801EB41013D
:10121000B0FBF1F0401CC0F30B000CE0681E6168ED
:1012200001EBC10202EB0111B0FBF1F0401CC0F375
:101230000B0040F4804040F400402168C9694CF63E
:10124000FF72914308432168C861D4E9070108434C
:101250002168096821F0C001084321680860D4E9C9
:10126000031008432168896848F2FF32914308431C
:1012700021688860D4E9050108432168C96821F024
:10128000FF0108432168C8602068006840F0010041
:101290002168086000202064202084F83D000020A0
:1012A000206384F83E0000BF24E70000A086010010
:1012B00080841E0000093D0040420F002DE9FE4FD2
:1012C00004460F4690469946DDE90CAB0E9E002081
:1012D0000290FFF705FF054694F83D00202872D1E3
:1012E00019230122CA492046009502F085F810B161
:1012F0000220BDE8FE8F00BF94F83C00012801D118
:101300000220F6E7012084F83C0000BF2068006856
:1013100000F0010028B92068006840F00100216851
:1013200008602068006820F40060216808602220BE
:1013300084F83D00402084F83E0000202064C4F87A
:1013400024A0A4F82AB0608D2085B248E0624B4604
:10135000424639462046CDE9006501F0FFFE08B15E
:101360000120C6E7208D88B900BF002001902068C9
:101370004069019020688069019000BF00BF20682B
:10138000006840F40070216808604BE0208D01285F
:101390001AD12068006820F480602168086072B665
:1013A00000BF00200190206840690190206880699A
:1013B000019000BF00BF2068006840F40070216801
:1013C000086062B62EE020E1208D022819D1206845
:1013D000006840F400602168086072B600BF002019
:1013E000019020684069019020688069019000BFE9
:1013F00000BF2068006820F480602168086062B641
:1014000010E02068006840F480602168086000BF38
:101410000020019020684069019020688069019057
:1014200000BF00BFE2E0208D03287DD8208D012879
:1014300015D12A463146204602F083F808B1012032
:1014400057E720680069616A0870606A401C606242
:10145000208D401E2085608D401E6085C6E0208D59
:1014600002282CD1334600226B492046009501F01A
:10147000C3FF08B101203CE772B62068006840F461
:1014800000702168086020680069616A0870606AFD
:10149000401C6062208D401E2085608D401E60854E
:1014A00062B620680069616A0870606A401C606208
:1014B000208D401E2085608D401E608596E033465D
:1014C000002255492046009501F096FF08B1012001
:1014D0000FE72068006820F480602168086072B619
:1014E00020680069616A0870606A401C6062208D33
:1014F000401E2085608D401E608548480068192187
:10150000B0FBF1F04FF47A71B0FBF1F0C0EBC0002A
:1015100000EB8000029000BF0298401E02900298EB
:10152000A8B90020206300E039E0202084F83D00C5
:10153000002084F83E00206C40F02000206462B659
:1015400000BF002084F83C0000BF0120D1E62068E5
:101550004069C0F380000028DED02068006840F4B5
:1015600000702168086020680069616A0870606A1C
:10157000401C6062208D401E2085608D401E60856D
:1015800062B620680069616A0870606A401C606227
:10159000208D401E2085608D401E608526E02A46F5
:1015A0003146204601F0CDFF08B10120A1E62068B8
:1015B0000069616A0870606A401C6062208D401E8C
:1015C0002085608D401E608520684069C0F38000E2
:1015D00060B120680069616A0870606A401C6062DE
:1015E000208D401E2085608D401E6085208D002846
:1015F0007FF419AF202084F83D00002084F83E00DD
:1016000000BF84F83C0000BF73E6022071E60000D2
:10161000020010000000FFFF040001001000002085
:101620002DE9FC5F04460F4690469946DDE90CAB78
:101630000E9EFFF755FD054694F83D0020287DD10C
:10164000192301224D492046009501F0D5FE10B125
:101650000220BDE8FC9F00BF94F83C00012801D1A6
:101660000220F6E7012084F83C0000BF20680068F3
:1016700000F0010028B92068006840F001002168EE
:1016800008602068006820F400602168086021205C
:1016900084F83D00402084F83E0000202064C4F817
:1016A00024A0A4F82AB0608D20853548E0624B461E
:1016B000424639462046CDE9006501F0FFFD08B1FC
:1016C0000120C6E731E02A463146204601F079FF85
:1016D00050B1206C042805D12068006840F40070E7
:1016E000216808600120B4E7606A00782168086119
:1016F000606A401C6062208D401E2085608D401E07
:10170000608520684069C0F3800070B1208D60B1B1
:10171000606A007821680861606A401C6062208D00
:10172000401E2085608D401E6085208D0028CAD116
:101730002A463146204601F031FE00E01CE050B15F
:10174000206C042805D12068006840F400702168EE
:10175000086001207DE72068006840F4007021687F
:101760000860202084F83D00002084F83E0000BF7F
:1017700084F83C0000BF6CE702206AE7020010001A
:101780000000FFFF10B586B00446002002900390D1
:101790000490059015492068884225D100BF14485F
:1017A000806940F00800124988610846806900F0AD
:1017B0000800019000BF00BFC020029012200390DB
:1017C0000320059002A90B48FFF7EAFA00BF08487A
:1017D000C06940F400100649C8610846C06900F4B9
:1017E0000010019000BF00BF06B010BD00540040C3
:1017F00000100240000C01400348006803490978CA
:101800000844014908607047040000200C000020D3
:1018100010B50848006840F0100006490860032031
:1018200000F0A8F80F2000F007F800F02BF80020D7
:1018300010BD00000020024070B504460E4800783C
:101840004FF47A71B1FBF0F00C490968B1FBF0F587
:10185000284600F00BFC08B1012070BD102C07D207
:1018600000222146501E00F047F80548046001E0C0
:101870000120F2E70020F0E70C000020100000201B
:101880000800002008B500BF1148806940F0010041
:101890000F4988610846806900F00100009000BF90
:1018A00000BF00BF0846C06940F08050C8610846CC
:1018B000C06900F08050009000BF00BF00BF054924
:1018C000486820F0E06040F00070486000BF08BD4C
:1018D000001002400000014001460846002809DBD4
:1018E00000F01F0301229A4043099B0003F1E0230B
:1018F000C3F8002100BF70472DE9F05F80460D4618
:101900001646002702F080FF074639462A4633462E
:1019100001F00700C0F1070ABAF1040F02D94FF035
:10192000040A01E0C0F1070AD14600F1040ABAF145
:10193000070F02D24FF0000A01E0A0F1030AD446DB
:101940004FF0010A0AFA09FAAAF1010A0AEA020AA0
:101950000AFA0CFA4FF0010B0BFA0CFBABF1010B7E
:101960000BEA030B4AEA0B042146404602F054FFFF
:10197000BDE8F09F00BF00F00702064B19684FF664
:10198000FF031940044B0B4343EA0221014B19604A
:1019900000BF70470CED00E00000FA0570B504468A
:1019A0000D460CB9012070BD5A48006800F00700D0
:1019B000A8420ED25748006820F007002843554936
:1019C00008600846006800F00700A84201D0012026
:1019D000E9E7207800F0020002281DD1207800F00D
:1019E0000400042805D14C48406840F4E0604A49AE
:1019F0004860207800F00800082805D14648406873
:101A000040F46050444948604348406820F0F0008A
:101A1000A168084340494860207800F0010078B38D
:101A20006068012806D13C48006800F4003090B995
:101A30000120B8E76068022806D13748006800F046
:101A4000007040B90120AEE73348006800F00200A2
:101A500008B90120A7E73048406820F0030061681A
:101A600008432D494860FFF73BFB064609E0FFF7B6
:101A700037FB801B41F28831884202D9032092E76C
:101A800007E02548406800F00C006168B0EB810F6A
:101A9000EDD12048006800F00700A8420ED91D488B
:101AA000006820F0070028431A49086008460068CB
:101AB00000F00700A84201D0012074E7207800F070
:101AC0000400042807D11448406820F4E060E1686D
:101AD000084311494860207800F00800082808D120
:101AE0000D48406820F46050216940EAC1000A496D
:101AF000486000F03FF808494968C1F30311074AFC
:101B0000515CC8400649086006480068FFF794FE2B
:101B1000002048E70020024000100240E682000852
:101B200010000020080000200148006870470000F5
:101B30001000002000B5FFF7F7FF04494968C1F322
:101B40000221034A515CC84000BD00000010024061
:101B5000F682000800B5FFF7E7FF04494968C1F3C2
:101B6000C221034A515CC84000BD00000010024081
:101B7000F6820008F0B585B00FF26C0C9CE8E0101E
:101B800001A8A0E8E0101CA52D6800950021002206
:101B9000002300240020194D696801F00C05F5B1FF
:101BA000042D02D0082D19D101E0154819E001AD2E
:101BB000C1F38346AC5D01F4803555B10F4D6D68BE
:101BC000C5F340451DF805200D4D6543B5FBF2F307
:101BD00002E00C4D04FB05F3184602E000BF084884
:101BE00000BF00BF05B0F0BD0203040506070809E9
:101BF0000A0B0C0D0E0F1010010200000010024025
:101C000000127A0000093D00F8B504460CB9012025
:101C1000F8BD207800F00100002878D0F84840682E
:101C200000F00C0004280CD0F548406800F00C00CF
:101C3000082811D1F248406800F48030B0F5803FA8
:101C40000AD1EF48006800F4003000285FD06068D7
:101C500000285CD10120DBE700BF6068B0F5803F61
:101C600006D1E748006840F48030E549086028E084
:101C7000606858B9E248006820F48030E0490860A4
:101C80000846006820F4802008601AE06068B0F51B
:101C9000A02F0BD1DA48006840F48020D8490860B2
:101CA0000846006840F4803008600AE0D4480068C4
:101CB00020F48030D24908600846006820F4802073
:101CC000086000BF606888B1FFF70AFA054606E0C1
:101CD000FFF706FA401B642801D9032098E7C8489B
:101CE000006800F400300028F2D010E0FFF7F8F9A7
:101CF000054606E0FFF7F4F9401B642801D90320EC
:101D000086E7BF48006800F400300028F2D1207850
:101D100000F00200022857D1B948406800F00C00DA
:101D200050B1B748406800F00C00082818D1B448FA
:101D3000406800F4803098B9B148006800F00200B3
:101D400020B12069012801D0012061E7AC4800687A
:101D500020F0F800616940EAC100A949086033E059
:101D60002069E8B10120A7490860FFF7B9F90546E5
:101D700006E0FFF7B5F9401B022801D9032047E729
:101D80009F48006800F002000028F2D09C480068DC
:101D900020F0F800616940EAC1009949086013E049
:101DA000002098490860FFF79BF9054606E0FFF719
:101DB00097F9401B022801D9032029E790480068C1
:101DC00000F002000028F2D1207800F00800082876
:101DD0002DD1A069B8B101208B490860FFF780F9C7
:101DE000054606E0FFF77CF9401B022801D90320D5
:101DF0000EE78348406A00F002000028F2D001207C
:101E000001F0FAFE13E000207F490860FFF768F94F
:101E1000054606E0FFF764F9401B022801D90320BC
:101E2000F6E67748406A00F002000028F2D12078F8
:101E300000F00400042873D100277148C06900F045
:101E4000805070B900BF6E48C06940F080506C4946
:101E5000C8610846C06900F08050009000BF00BF14
:101E600001276A48006800F48070B0B967480068CC
:101E700040F4807065490860FFF732F9054606E0D6
:101E8000FFF72EF9401B642801D90320C0E65F4804
:101E9000006800F480700028F2D000BFE0680128DC
:101EA00006D15748006A40F001005549086227E012
:101EB000E06858B95248006A20F0010050490862B1
:101EC0000846006A20F00400086219E0E06805286E
:101ED0000BD14B48006A40F00400494908620846AB
:101EE000006A40F0010008620AE04548006A20F0FC
:101EF0000100434908620846006A20F004000862B5
:101F000000BFE068A0B1FFF7EBF8054609E0FFF776
:101F1000E7F8401B41F28831884202D9032077E676
:101F200022E03748006A00F002000028EFD012E0FB
:101F3000FFF7D6F8054608E0FFF7D2F8401B41F25C
:101F40008831884201D9032062E62D48006A00F0FA
:101F500002000028F0D1012F05D12948C06920F0E6
:101F600080502749C86100BFE069C8B32448406871
:101F700000F00C00082860D0E069022848D1002059
:101F800020490866FFF7ACF8054606E0FFF7A8F819
:101F9000401B022801D903203AE61948006800F0E6
:101FA00000700028F2D1206AB0F5803F07D11448B4
:101FB000406820F40030A168084311494860D4E922
:101FC000080108430E49496821F4741108430C497B
:101FD000486001200B490866FFF782F8054607E0D4
:101FE0003DE0FFF77DF8401B022801D903200FE6F2
:101FF0000348006800F000700028F2D02FE00000D5
:102000000010024000004242800442420070004042
:10201000002014490866FFF763F8054606E0FFF75D
:102020005FF8401B022801D90320F1E50E48006843
:1020300000F000700028F2D111E0E069012800D121
:10204000E6E50948466806F48031206A814204D1F9
:1020500006F47011606A814201D00120D8E50020A9
:10206000D6E50000000042420010024070B5044670
:102070002546681EB0F1807F01D301200FE0681E65
:102080004FF0E02148610F214FF0FF3002F0C4FB18
:1020900000204FF0E021886107200861002070BD1A
:1020A0007047704710B50346002200BF93F83C000C
:1020B000012801D1022010BD012083F83C0000BF9F
:1020C00022F0FF00CC6840EA040222F440708C68E1
:1020D00040EA040222F480604C6840EA040222F4E0
:1020E00000600C6840EA040222F480500C6940EA67
:1020F000040222F400504C6940EA040222F48040B9
:10210000CC6940EA04021868426400BF002083F8EA
:102110003C0000BF00BFCEE730B502460B4600BF13
:1021200092F83C00012801D1022030BD012082F844
:102130003C0000BF022082F83D001068446810682F
:10214000816824F070041868044310684460144DDA
:102150001068A84213D0134D1068A8420FD0106821
:10216000B0F1804F0BD0104D1068A84207D00F4D32
:102170001068A84203D00E4D1068A84205D121F086
:1021800080015868014310688160012082F83D0099
:1021900000BF002082F83C0000BF00BFC5E7000080
:1021A000002C0140003401400004004000080040C1
:1021B000000C004010B504460CB9012010BD94F885
:1021C0003D0028B9002084F83C00204600F026F8A5
:1021D000022084F83D00211D206801F0E1FD01206E
:1021E00084F8460000BF84F83E0001213F200155DD
:1021F000402001554120015500BF00BF012084F857
:10220000420043200155442001554520015500BF9F
:10221000012084F83D000020D0E7000038B50446D6
:102220001F49206888420DD100BF1E48806940F4D4
:1022300000601C4988610846806900F400600090D5
:1022400000BF2BE01849206888420DD100BF154817
:10225000C06940F004001349C8610846C06900F035
:102260000400009000BF19E010492068884215D191
:1022700000BF0C48C06940F010000A49C861084618
:10228000C06900F01000009000BF00BF002211469E
:102290003620FFF731FB3620FFF71EFB38BD00006C
:1022A000002C0140001002400008004000100040D7
:1022B000014691F83D00012801D00120704702201D
:1022C00081F83D000868C06840F001000B68D860E4
:1022D000164B0868984213D0154B086898420FD0E7
:1022E0000868B0F1804F0BD0124B0868984207D0B5
:1022F000114B0868984203D0104B086898420CD1E3
:102300000868806800F00702062A0CD00868006898
:1023100040F001000B68186005E00868006840F0B4
:1023200001000B6818600020C8E70000002C014085
:10233000003401400004004000080040000C004050
:102340002DE9F04104460D4600BF94F83C000128F9
:1023500002D10220BDE8F081012084F83C0000BFDA
:10236000022084F83D002068866826F0770626F46F
:102370007F46206886602868502833D00CDC2028EF
:1023800050D004DC00284BD0102851D149E030282F
:1023900049D040284CD139E060282DD0702807D092
:1023A000B0F5805F03D0B0F5005F41D10DE040E0B3
:1023B000D5E902136A68206801F051FD206886683B
:1023C00046F077062068866033E0D5E902136A6834
:1023D000206801F044FD2068806840F48040216856
:1023E000886026E0EA686968206801F029FE5021CB
:1023F000206801F03FFD1CE0EA686968206801F090
:1024000032FE6021206801F035FD12E0EA6869685B
:10241000206801F015FE4021206801F02BFD08E046
:1024200000BF00BF00BF2968206801F023FD00E065
:1024300000BF00BF012084F83D0000BF002084F8E9
:102440003C0000BF00BF85E72DE9F04104460D4682
:1024500014B90120BDE8F08194F83D0028B90020AE
:1024600084F83C00204600F051F8022084F83D003A
:102470002068806844F20701884321688860211D34
:10248000206801F08DFC2068D0F8088020688669FB
:102490002068076A286840EA080840F2033086434B
:1024A000A969A86840EA0120064340F60C4086432B
:1024B0004FF2F0008643E969E86840EA01200643EC
:1024C00028690001296A40EA0130064327F0220703
:1024D0006969686840EA011007432068C0F808800D
:1024E0002068866120680762012084F8460084F82D
:1024F0003E0001213F200155012084F84200432085
:102500000155012084F83D000020A3E710B586B0F6
:102510000446002002900390049005902068B0F1DA
:10252000804F24D100BF2748C06940F001002549F1
:10253000C8610846C06900F00100019000BF00BFFB
:1025400000BF0846806940F0040088610846806941
:1025500000F00400019000BF00BF032002900020A3
:102560000390049002A91848FEF71AFC27E01749C7
:102570002068884223D100BF1248C06940F00200A1
:102580001049C8610846C06900F00200019000BF10
:1025900000BF00BF0846806940F00400886108461B
:1025A000806900F00400019000BF00BFC0200290CD
:1025B00000200390049002A90348FEF7F1FB06B047
:1025C00010BD00000010024000080140000400405F
:1025D0002DE9F04304460D4694F83E603F20075D28
:1025E00094F84280432010F804906DB9012E02D176
:1025F000B8F1010F02D00120BDE8F083022084F879
:102600003E0084F8420025E0042D0CD1012F02D1B8
:10261000B9F1010F01D00120EEE702213F20015561
:102620004320015516E0012E07D1012F05D1B8F145
:10263000010F02D1B9F1010F01D00120DCE7022026
:1026400084F83E0002213F200155022084F8420018
:102650004320015515B1042D0CD105E001220021C4
:10266000206801F0EBFB10E001220421206801F05A
:10267000E5FB0AE001220021206801F0DFFB0122D6
:102680000421206801F0DAFB00BF00BF2068006869
:1026900040F00100216808600020ADE7704710B5E8
:1026A000044620680069C0F34000D8B12068C068C3
:1026B000C0F34000B0B16FF0020021680861012052
:1026C00020772068806900F0030018B12046FFF7EA
:1026D000E5FF05E0204600F0FBF8204600F0ABF9EE
:1026E0000020207720680069C0F38000D8B12068FE
:1026F000C068C0F38000B0B16FF0040021680861C9
:10270000022020772068806900F4407018B12046CC
:10271000FFF7C4FF05E0204600F0DAF8204600F09D
:102720008AF90020207720680069C0F3C000D8B182
:102730002068C068C0F3C000B0B16FF00800216825
:102740000861042020772068C06900F0030018B1F8
:102750002046FFF7A3FF05E0204600F0B9F8204629
:1027600000F069F90020207720680069C0F30010AC
:10277000D8B12068C068C0F30010B0B16FF010008D
:1027800021680861082020772068C06900F4407043
:1027900018B12046FFF782FF05E0204600F098F8C8
:1027A000204600F048F9002020772068006900F0FA
:1027B000010058B12068C06800F0010030B16FF02E
:1027C000010021680861204600F0B0F92068006926
:1027D000C0F3C01058B12068C068C0F3C01030B159
:1027E0006FF08000216808612046FFF759FC2068DF
:1027F0000069C0F3801058B12068C068C0F3801031
:1028000030B16FF0400021680861204600F002FA04
:1028100020680069C0F3401058B12068C068C0F358
:10282000401030B16FF02000216808612046FFF7AA
:1028300038FC10BD10B586B004460020029003900D
:10284000049005901D492068884218D100BF1C489B
:10285000806940F004001A4988610846806900F0E8
:102860000400019000BF00BF4FF4106002900220EE
:102870000390059002A91348FEF792FA1BE0124953
:102880002068884217D100BF0D48806940F00800D9
:102890000B4988610846806900F00800019000BF7C
:1028A00000BF4FF44070029002200390059002A9EF
:1028B0000648FEF775FA06B010BD0000002C014076
:1028C000001002400008014000080040000C0140D8
:1028D000704770B504460D46164600BF94F83C009C
:1028E000012801D1022070BD012084F83C0000BF06
:1028F00036B1042E1BD0082E31D00C2E5ED145E00F
:102900002946206801F0C0FA2068806940F008007C
:10291000216888612068806920F00400216888614E
:1029200020688069296908432168886147E0294651
:10293000206801F0E1FA2068806940F400602168B5
:1029400088612068806920F480602168886120683F
:102950008069296940EA0120216888612FE02946C1
:10296000206801F007FB2068C06940F0080021687A
:10297000C8612068C06920F004002168C86120682F
:10298000C069296908432168C86118E029462068A0
:1029900001F02CFB2068C06940F400602168C86128
:1029A0002068C06920F480602168C8612068C0691F
:1029B000296940EA01202168C86100E000BF00BF2A
:1029C00000BF002084F83C0000BF00BF8BE710B5BB
:1029D00004460CB9012010BD94F83D0028B9002030
:1029E00084F83C00204600F025F8022084F83D00E1
:1029F000211D206801F0D4F9012084F8460000BFB1
:102A000084F83E0001213F2001554020015541201E
:102A1000015500BF00BF012084F84200432001554A
:102A2000442001554520015500BF012084F83D0098
:102A30000020D0E77047704770B504460D4615B9C1
:102A400094F83E000BE0042D02D13F20005D06E02B
:102A5000082D02D14020005D01E04120005D0128E9
:102A600001D0012070BD1DB9022084F83E000EE0A7
:102A7000042D03D102213F20015508E0082D03D188
:102A800002214020015502E002214120015501228E
:102A90002946206801F0D2F91F492068884203D0F6
:102AA0001E492068884201D1012000E0002028B1A1
:102AB0002068406C40F40040216848641649206852
:102AC000884213D01549206888420FD02068B0F1A1
:102AD000804F0BD012492068884207D011492068E6
:102AE000884203D01049206888420CD12068806851
:102AF00000F00706062E0CD02068006840F00100A8
:102B00002168086005E02068006840F00100216845
:102B100008600020A6E70000002C014000340140BE
:102B20000004004000080040000C00402DE9F05F68
:102B300031480068401C304908603048006800682F
:102B40000521B0FBF1F201FB1200002851D12C4805
:102B50000068401C2A49086003F050FE02F094FA15
:102B6000022004F0A7F88246032004F0A3F80AEB41
:102B70000008404605F00CF9224988600024224AEA
:102B80001168224A506805F063F982461F490868B7
:102B90001F49096805F05CF98346514604F072FF4D
:102BA000804605F0D9F804461849164801F0A8FDFA
:102BB000814615498868154901F069FA804605F093
:102BC000CBF80546204605F0E3F88246494604F076
:102BD00059FF804605F0C0F804466042461967195F
:102BE0003946012003F0F8FF3146022003F0F4FFDC
:102BF00000BFBDE8F09F0000140000201800002076
:102C00001C0000208C04002058060020A80400208E
:102C1000400000207047704770B5044600252068CA
:102C20004069C0F3C01594F83D0021280ED16DB164
:102C30002068406920F0800021684861606B10B115
:102C4000606BFDF705FF204601F0CAFA2068406975
:102C5000C0F3801594F83E0022280ED16DB1206893
:102C6000406920F0400021684861A06B10B1A06B62
:102C7000FDF7EEFE204601F088FA002070BD704797
:102C80002DE9F84F0446206805682068C66820686A
:102C900047694FF00009CA4605F00F09B9F1000F66
:102CA0000AD105F0200038B106F0200020B12046FE
:102CB00001F0A0FABDE8F88FB9F1000F71D007F06C
:102CC000010018B906F4907000286AD005F00100E0
:102CD00030B106F4807018B1206C40F0010020641F
:102CE00005F0040030B107F0010018B1206C40F08D
:102CF0000200206405F0020030B107F0010018B1B5
:102D0000206C40F00400206405F0080048B106F093
:102D1000200010B907F0010018B1206C40F0080045
:102D20002064206C68B305F0200028B106F0200074
:102D300010B1204601F05EFA20684069C0F3801AA5
:102D4000206C00F0080010B9BAF1000F22D0204624
:102D500001F01BFA2068406900F04000B0B1206823
:102D6000406920F0400021684861A06B50B156488E
:102D7000A16B4863A06BFDF797FE10B1A06B416B90
:102D800088470CE02046FFF77AFF08E02046FFF76F
:102D900076FF04E02046FFF772FF0020206489E7F9
:102DA000FFE7206B012878D105F01000002874D0CF
:102DB00006F01000002870D000BF002000902068AE
:102DC0000068009020684068009000BF00BF206845
:102DD000406900F04000C0B3A06B006840681FFA73
:102DE00080F8B8F1000F2FD0A08D40452CDDA4F85D
:102DF0002E80A06B806920281FD02068C06820F436
:102E000080702168C8602068406920F00100216856
:102E100048612068406920F0400021684861202016
:102E200084F83E00002020632068C06820F0100075
:102E30002168C860A06BFDF70BFEA08DE28D801AA3
:102E400081B22046FFF7E7FE34E7FFE7A08DE18D72
:102E5000401A1FFA80F8E08DE8B1B8F1000F1AD0DF
:102E60002068C06820F490702168C86020684069BC
:102E700020F0010021684861202084F83E000020F5
:102E800020632068C06820F010002168C8604146B7
:102E90002046FFF7C0FE0DE7FFE705F0800030B1E8
:102EA00006F0800018B1204601F0E0FA02E705F0D4
:102EB000400030B106F0400018B1204601F080F922
:102EC000F8E600BFF6E600009F40000810B5044693
:102ED0000CB9012010BDA06900B100E000BF94F85A
:102EE0003D0028B9002084F83C00204600F028F876
:102EF000242084F83D002068C06820F40050216838
:102F0000C860204601F0E8F92068006920F490408C
:102F1000216808612068406920F02A002168486122
:102F20002068C06840F400502168C8600020206418
:102F3000202084F83D0084F83E000020CAE700000D
:102F400010B586B0044600200290039004900590CE
:102F500057492068884250D100BF5648C06940F4A4
:102F600000305449C8610846C06900F4003001903F
:102F700000BF00BF00BF0846806940F004008861C0
:102F80000846806900F00400019000BF00BF0420E3
:102F90000290022003900320059002A94648FDF705
:102FA000FFFE08200290002003900220049002A956
:102FB0004148FDF7F5FE414841490860002048605E
:102FC00000213F4881608021C16000210161416191
:102FD0008161C161FDF73CFE08B1FDF7E8FC00BF6F
:102FE0003748A063446200BF002211462620FEF746
:102FF00083FC2620FEF770FC57E0324920688842A7
:1030000053D100BF2B48C06940F480202949C861D2
:103010000846C06900F48020019000BF00BF00BFD7
:103020000846806940F0080088610846806900F021
:103030000800019000BF00BF081502900220039015
:103040000320059002A92048FDF7AAFE4FF4006076
:103050000290002003900220049002A91A48FDF774
:103060009FFE16483C38194908600020486000213E
:10307000164881608021C160002101614161816148
:103080004FF48051C161FDF7E3FD08B1FDF78FFCFE
:1030900000BF0E48A063446200BF002211462720F3
:1030A000FEF72AFC2720FEF717FC06B010BD000033
:1030B0000044004000100240000801406C00024043
:1030C000CC02002000480040000C0140100300200A
:1030D00070B504460D46164694F83E00202816D1D9
:1030E00005B10EB9012070BD00BF94F83C00012865
:1030F00001D10220F7E7012084F83C0000BF002046
:10310000206332462946204601F064F9EBE70220AD
:10311000E9E770477047704700BFFEE7014608685F
:103120004069C0F38020B0B16FF480600A685061DC
:1031300000200863202081F83D00002081F83E0037
:10314000086C40F00400086400BF002081F83C00D7
:1031500000BF012070470020FCE700002DE9F84384
:1031600004460F4615469946DDE908862068006842
:1031700040F48060216808602068006840F4807036
:1031800021680860434600224FF001112046009656
:1031900000F032F960B12068006800F48070B0F58A
:1031A000807F02D14FF4007020640320BDE8F883D3
:1031B00007F0FE0021680861334642463E4920463A
:1031C00000F05DF908B10120F0E700BF0020009099
:1031D00020684069009020688069009000BF00BFAF
:1031E00032464146204600F0ECF950B1206C0428EC
:1031F00005D12068006840F4007021680860012053
:10320000D4E7B9F1010F03D1E8B22168086117E0F2
:10321000C5F307202168086132464146204600F088
:10322000D0F950B1206C042805D12068006840F422
:103230000070216808600120B8E7E8B221680861E1
:1032400032464146204600F0BCF950B1206C0428BB
:1032500005D12068006840F40070216808600120F2
:10326000A4E72068006840F4807021680860434645
:1032700000224FF001112046009600F0BDF858B131
:103280002068006800F48070B0F5807F02D14FF4B0
:1032900000702064032089E7F8B240F00100216843
:1032A0000861334642460449204600F0E8F808B178
:1032B00001207BE7002079E7020001002DE9F843B7
:1032C0000446884615469946DDE908672068006887
:1032D00040F4807021680860334600224FF00111ED
:1032E0002046009700F088F860B12068006800F47C
:1032F0008070B0F5807F02D14FF40070206403200D
:10330000BDE8F88308F0FE00216808613B463246BC
:103310002149204600F0B3F808B10120F0E700BFD2
:10332000002000902068406900902068806900902B
:1033300000BF00BF3A463146204600F042F950B186
:10334000206C042805D12068006840F400702168D2
:1033500008600120D4E7B9F1010F03D1E8B2216878
:10336000086117E0C5F30720216808613A46314635
:10337000204600F026F950B1206C042805D12068C1
:10338000006840F40070216808600120B8E7E8B2E6
:10339000216808610020B3E70200010070B504460F
:1033A0000D46164620E02046FFF7B8FE08B1012082
:1033B00070BD681CC0B1FDF793FE801BA84200D809
:1033C00095B900202063202084F83D00002084F877
:1033D0003E00206C40F02000206400BF002084F8F4
:1033E0003C0000BF0120E3E720684069C0F3800093
:1033F0000028D8D00020DBE72DE9F04104460D4637
:1034000017461E46DDF818801CE0701CD0B1FDF791
:1034100067FEA0EB0800B04200D89EB900202063F0
:10342000202084F83D00002084F83E00206C40F00D
:103430002000206400BF002084F83C0000BF012071
:10344000BDE8F081C5F3074001280AD12068406932
:10345000A9B20840A9B2884201D101200BE00020A6
:1034600009E020688069A9B20840A9B2884201D168
:10347000012000E00020B842C7D00020E0E72DE99D
:10348000F04104460D4616461F463DE0206840695F
:10349000C0F38020E8B12068006840F40070216823
:1034A00008606FF48060216848610020206320205C
:1034B00084F83D00002084F83E00206C40F00400B9
:1034C000206400BF002084F83C0000BF0120BDE85C
:1034D000F081701CC0B1FDF703FEC01BB04200D8E4
:1034E00096B900202063202084F83D00002084F855
:1034F0003E00206C40F02000206400BF002084F8D3
:103500003C0000BF0120E2E7C5F3074001280AD1D3
:1035100020684069A9B20840A9B2884201D10120BF
:103520000BE0002009E020688069A9B20840A9B238
:10353000884201D1012000E000200028A6D0002010
:10354000C5E770B504460D46164632E0206840696E
:10355000C0F30010A0B16FF0100021684861002096
:103560002063202084F83D00002084F83E00206C79
:10357000206400BF002084F83C0000BF012070BD23
:10358000FDF7AEFD801BA84200D895B9002020634E
:10359000202084F83D00002084F83E00206C40F09C
:1035A0002000206400BF002084F83C0000BF012000
:1035B000E5E720684069C0F380100028C6D00020ED
:1035C000DDE770B504460D46164620E02046FFF7BD
:1035D000A5FD08B1012070BD681CC0B1FDF780FDDC
:1035E000801BA84200D895B900202063202084F8D1
:1035F0003D00002084F83E00206C40F02000206454
:1036000000BF002084F83C0000BF0120E3E72068F1
:103610004069C0F3C0100028D8D00020DBE708B50F
:103620006A467521682003F0F3F99DF800006828C8
:1036300001D1012008BD0020FCE770B50024002561
:1036400000BF06E0002500E06D1CB5F57A7FFBDBCE
:10365000641CB4F57A7FF5DB00226B21682003F04F
:10366000EFF900221921682003F0EAF900221A215B
:10367000682003F0E5F908221B21682003F0E0F937
:1036800010221C21682003F0DBF970BD7CB50446D4
:10369000052608E006236A463B21682003F0A0F9CE
:1036A000054605B904E0301EA6F10101CEB2F1D104
:1036B00000BF9DF801009DF8001040EA012000B213
:1036C00020809DF803009DF8021040EA012000B21E
:1036D00060809DF805009DF8041040EA012000B2CA
:1036E000A0802088208060886080A088A0807CBD29
:1036F0007CB50446052608E006236A464321682077
:1037000003F06EF9054605B904E0301EA6F101018B
:10371000CEB2F1D100BF9DF801009DF8001040EA43
:10372000012000B220809DF803009DF8021040EABD
:10373000012000B260809DF805009DF8041040EA69
:10374000012000B2A0802088208060886080A0884E
:10375000A0807CBD2DE9F8430546052708E002233B
:103760006A464121682003F03BF9044604B904E0AD
:10377000381EA7F10101CFB2F1D100BF9DF80100C1
:103780009DF8001040EA012006B2304604F000FB2C
:103790008146054904F0EAF98046044904F072F9CB
:1037A0002860BDE8F88300000000AA43B81E12425A
:1037B00000210160416001627047000008B500BF50
:1037C0000A48406940F001000849486108464069DC
:1037D00000F00100009000BF00BF00220521102072
:1037E000FEF78AF81020FEF777F808BD00100240B7
:1037F00008B500BF1348806940F020001149886176
:103800000846806900F02000009000BF00BF00BFA4
:103810000846806940F0040088610846806900F02D
:103820000400009000BF00BF00BF0846806940F060
:10383000080088610846806900F00800009000BF19
:1038400000BF08BD0010024010B50B480B490860CE
:103850000B484860002109488160C1604FF48041F5
:103860000161002141618161C1610162FDF73EFC9E
:1038700008B1FDF79CF810BD0054004088000020FE
:10388000A086010010B5002211460D20FEF734F885
:103890000D20FEF721F810BD00B595B00020119065
:1038A0001290139014900F9010901C2108A8FCF710
:1038B00061FD20216846FCF75DFD2F482F49086017
:1038C0000020486000212D48816041F61F41C16001
:1038D00000210161416180218161FEF76BFC08B12B
:1038E000FDF765F84FF48050119011A92348FEF7B9
:1038F00027FD08B1FDF75BF82048FFF768F808B12D
:10390000FDF755F800200F9010900FA91B48FEF707
:1039100003FC08B1FDF74BF86020089000200990E7
:103920000A900B900C900D900E90002208A913485D
:10393000FEF7CFFF08B1FDF73AF80C2208A90F48AF
:10394000FEF7C7FF08B1FDF732F8002000900190A4
:103950000290039004904FF40050059000200790CF
:1039600069460648FEF79EFB08B1FDF720F80348BC
:10397000FEF760FF15B000BD002C0140DC00002008
:1039800000B58BB0242102A8FCF7F4FC00200090C5
:1039900001904FF0804019490860002048600021E4
:1039A000164881604FF6FF71C1600021016181619D
:1039B0000320029000200390012004900020059035
:1039C0000C2006900020079001200890002009900C
:1039D0000C200A9002A90948FEF736FD08B1FCF751
:1039E000E6FF00200090019069460448FEF794FB32
:1039F00008B1FCF7DCFF0BB000BD00002401002083
:103A000000B58BB0242102A8FCF7B4FC0020009084
:103A100001901948194908600020486000211748A2
:103A200081604FF6FF71C160002101618161032057
:103A300002900020039001200490002005900C20AB
:103A400006900020079001200890002009900C208B
:103A50000A9002A90948FEF7F7FC08B1FCF7A7FF96
:103A600000200090019069460448FEF755FB08B11C
:103A7000FCF79DFF0BB000BD000400406C0100206E
:103A800000B58DB0002009900A900B900C90079023
:103A900008901C216846FCF76DFC24482449086006
:103AA0000020486000212248816041F61F41C1602A
:103AB0000021016180218161FEF77CFB08B1FCF7E8
:103AC00076FF4FF48050099009A91948FEF738FC99
:103AD00008B1FCF76CFF1648FEF779FF08B1FCF758
:103AE00066FF00200790089007A91148FEF714FB15
:103AF00008B1FCF75CFF602000900020019002906C
:103B00000490082269460A48FEF7E3FE08B1FCF774
:103B10004EFF0C2269460648FEF7DBFE08B1FCF7B3
:103B200046FF0348FEF786FE0DB000BD00080040CA
:103B3000B40100201CB50020009001900E480F49F0
:103B400008604720486000210C48816040F2E7315E
:103B5000C16080218161FEF72DFB08B1FCF727FFD2
:103B600000200090019069460448FEF7D5FA08B19C
:103B7000FCF71DFF1CBD000000100040FC010020F0
:103B800010B50B480B4908604FF4E1304860002144
:103B900008488160C16001610C214161002181619F
:103BA000C161FFF793F908B1FCF701FF10BD0000F8
:103BB000004400404402002010B50B480B49086047
:103BC0004FF4E1304860002108488160C160016124
:103BD0000C21416100218161C161FFF777F908B1D2
:103BE000FCF7E5FE10BD0000004800408802002000
:103BF00000BFFEE700BFFEE708B508490968C9082D
:103C00004FF47A72B1FBF2F14143009100BF00BF63
:103C100000994A1E00920029F9D108BD1000002029
:103C20002DE9FF5F07460D4614462946384603F046
:103C30009DFF03903848039903F098FF804603F0F6
:103C4000CDF806463146304604F002F98346334843
:103C500002F008FD4FF08041019004F0F9F882462F
:103C6000314604F0F5F881464FF07E5103F00AFF2B
:103C70008046594603F006FF02900021284604F0D2
:103C8000B3F801D8BDE8FF9F3146304604F0E0F8B4
:103C90008046029903F06AFFE0604FF08040E168DF
:103CA00004F0D6F82061E16861614FF07E50206039
:103CB0003146304604F0CCF882464FF07E5104F095
:103CC000FFF981464FF0804104F0C2F88046029926
:103CD00003F04CFF60603146304604F0B9F80190C3
:103CE0000E4802F0BFFC4FF08041009004F0B0F8A5
:103CF0008346314604F0ACF882464FF07E5104F022
:103D0000D5F98146019903F0BDFE8046029903F082
:103D10002DFFA06000BFB5E7DA0F4940DA0F493F39
:103D200010B5FDF769FD10BD00B58FB0282105A8BD
:103D3000FCF720FB14216846FCF71CFB01200590D2
:103D400000040690002007900120099002200C90AA
:103D5000C1030D914FF4E0110E9105A8FDF754FF3A
:103D600008B1FCF724FE0F200090022001900020F3
:103D700002904FF480600390002004900221684676
:103D8000FDF70CFE08B1FCF712FE0FB000BD704746
:103D900010B50248FEF783FC10BD0000FC010020B6
:103DA00010B50268204B98420ED0204B98420BD0A1
:103DB000B0F1804F08D01E4B984205D01D4B984261
:103DC00002D01D4B984203D122F070024B681A4377
:103DD000154B98420ED0154B98420BD0B0F1804F46
:103DE00008D0134B984205D0124B984202D0124B88
:103DF000984203D122F44072CB681A4322F0800328
:103E00004C6943EA040202608B68C3620B688362F8
:103E1000054B984202D0054B984201D10B690363D0
:103E20000123436110BD0000002C0140003401401B
:103E30000004004000080040000C004030B501F0D4
:103E40001F05012404FA05F3046A9C430462046A12
:103E500001F01F0502FA05F52C43046230BD30B5B0
:103E60000C46816821F47F4142EA0325254329431A
:103E7000816030BD0A46816821F0700142F007037D
:103E8000194381607047000030B5056A25F00105CF
:103E90000562026A4368846924F0700424F0030414
:103EA0000D682C4322F002028D682A43104DA8426F
:103EB00000D103E00F4DA84206D100BF22F0080256
:103EC000CD682A4322F00402094DA84202D0094DD0
:103ED000A84207D123F4807323F400734D692B4368
:103EE0008D692B43436084614D684563026230BD38
:103EF000002C01400034014030B5056A25F0100562
:103F00000562026A4368846924F4E04424F440743E
:103F10000D6844EA052422F020028D6842EA051269
:103F2000124DA84200D103E0114DA84207D100BFB5
:103F300022F08002CD6842EA051222F040020B4DC9
:103F4000A84202D00A4DA84209D123F4806323F489
:103F500000634D6943EA85038D6943EA8503436045
:103F600084614D688563026230BD0000002C014011
:103F70000034014030B5056A25F480750562026A97
:103F80004368C46924F0700424F003040D682C43D2
:103F900022F400728D6842EA0522124DA84200D137
:103FA00003E0114DA84207D100BF22F40062CD68A2
:103FB00042EA052222F480620A4DA84202D00A4D4C
:103FC000A84209D123F4805323F400534D6943EAF6
:103FD00005138D6943EA05134360C4614D68C563E9
:103FE000026230BD002C01400034014030B5056A4A
:103FF00025F480550562036A4468C26922F4E042F0
:1040000022F440720D6842EA052223F400538D68C1
:1040100043EA0533084DA84202D0084DA84204D116
:1040200024F480444D6944EA85144460C2614D68BB
:104030000564036230BD0000002C014000340140E3
:1040400030B50B461446026A056A25F00105056283
:10405000816921F0F00141EA041122F00A021A43B9
:104060008161026230BD30B50B461446056A25F009
:10407000100505628169026A21F4704141EA043148
:1040800022F0A00242EA03128161026230BD70B5E3
:1040900005460C462846216903F0DAFE70BD70B56E
:1040A00005466C6A0020E085E0842046FEF7E7FDC7
:1040B00070BD70B506460025746A20684069C0F37B
:1040C000C01594F83D00212805D125B10020E084D9
:1040D000204600F085F820684069C0F3801594F808
:1040E0003E00222805D125B10020E085204600F0C1
:1040F0004CF8206C40F0100020642046FEF7BFFD15
:1041000070BD70B505466C6A2868006800F0200034
:10411000F8B90020E0852068C06820F4807021682C
:10412000C8602068406920F001002168486120686B
:10413000406920F0400021684861202084F83E005A
:10414000206B012805D12068C06820F0100021688C
:10415000C860206B012804D1A18D2046FEF75BFDCD
:1041600002E02046FEF7D5FF70BD70B505466C6ACB
:10417000206B012805D1A08D41082046FEF74BFD9C
:1041800002E02046FEF7C6FF70BD0168C96821F451
:1041900090710268D1600168496921F001010268EB
:1041A0005161016B012905D10168C96821F0100135
:1041B0000268D160202180F83E1000210163704721
:1041C00010B504462068C06820F040002168C8602F
:1041D000202084F83D002046FEF79DFF002010BD02
:1041E0000168C96821F0C0010268D160202180F80F
:1041F0003D107047F8B5044694F83E00222869D176
:10420000A068B0F5805F0CD1206950B90025A66A7E
:1042100020684068C0F308003080A06A801CA0625B
:1042200015E0A56A0026A068B0F5805F03D0A068FD
:1042300028B9206918B920684068287004E020680F
:10424000406800F07F002870A06A401CA062E08DEA
:10425000401E80B2E085A8BB2068C06820F0200026
:104260002168C8602068C06820F480702168C86038
:104270002068406920F0010021684861202084F80E
:104280003E00206B01281ED1002020632068C068FA
:1042900020F010002168C8602068006800F010005D
:1042A00010280AD100BF002000902068006800900C
:1042B00020684068009000BF00BFA18D2046FEF737
:1042C000AAFC03E004E02046FEF723FF0020F8BD2F
:1042D0000020FCE70220FAE770B50446216809696E
:1042E00021F44051E2681143226811612269A168FA
:1042F0001143626941EA02052168C96841F20C6212
:10430000914329432268D1602168496921F44071B1
:10431000A2691143226851612D4A2168914202D15C
:10432000FDF718FC01E0FDF705FC00EBC00101EB17
:10433000001162689200B1FBF2F100EBC00202EBE7
:10434000001263689B00B2FBF3F26423B2FBF3F24A
:1043500002EBC20303EB0212A1EB8201322202EB59
:1043600001116422B1FBF2F101F0F00100EBC00297
:1043700002EB001263689B00B2FBF3F26423B2FB12
:10438000F3F201EB021200EBC00101EB00116368D4
:104390009B00B1FBF3F100EBC00303EB0013666875
:1043A000B600B3FBF6F36426B3FBF6F303EBC306E8
:1043B00006EB0313A1EB8301322303EB011164230A
:1043C000B1FBF3F101F00F0111442268916070BD5F
:1043D0000038014077B581B0044615460298A062C6
:1043E000A58500202064222084F83E001C48A16B93
:1043F00088621C48A16BC8621B48A16B086300203F
:10440000A16B486302AE32682368191D2B46A06B6E
:10441000FCF764FC00BF002000902068006800905A
:1044200020684068009000BF00BF00BF002084F8F3
:104430003C0000BF2068C06840F480702168C860FC
:104440002068406940F001002168486120684069A7
:1044500040F0400021684861002004B070BD0000B9
:10446000034100086B410008B3400008014691F881
:104470003D00212828D18868B0F5805F0BD10869FC
:1044800048B90A6A1088C0F308000B685860086AC7
:10449000801C086205E00B6A581C086218780B68DB
:1044A0005860C88C401E80B2C88458B90868C0687B
:1044B00020F080000B68D8600868C06840F04000B9
:1044C0000B68D860002070470220FCE72DE9FC5FF4
:1044D00000200190814800680068C0F3001001903E
:1044E0000198002875D000BF002000907B4800682C
:1044F00000680090794800684068009000BF00BFE5
:104500007648FEF789FB76480068D0F80490C9F138
:10451000C800744908707448007855287ED100247A
:104520000B2004E07049095C2144CCB2401C1528E2
:10453000F8DB6D48407DA04248D16B48007B522893
:1045400044D16949497B684A927B41EA022109B218
:104550004FF4FA6201FB02F002F063FF074600220B
:10456000624B02F0D7FD054602F0F2FC604948615B
:104570005D49C97B5C4A127C41EA022109B24FF4D1
:10458000FA6201FB02F002F04CFF07460022574B93
:1045900002F0C0FD054602F0DBFC554908615249B6
:1045A000497C514A927C41EA022109B24FF4FA62F5
:1045B00001FB02F002F035FF074600224B4B02F0F0
:1045C000A9FD054602F0C4FC4949C8600024162034
:1045D00005E078E04449095C2144CCB2401C202825
:1045E000F8DB414890F82000A04267D13E48C07DEA
:1045F000532863D13C49097E3B4A527E41EA02215D
:1046000008B202F00EFF074600223A4B02F034FFD8
:1046100005460022354B02F07DFD00E04FE082466A
:1046200002F096FC324988602F49897E2E4AD27E5C
:1046300041EA022108B202F0F4FE074600222D4BA7
:1046400002F01AFF05460022284B02F063FD824665
:1046500002F07EFC264948602349097F224A527FA6
:1046600041EA022108B202F0DCFE05460022214B9D
:1046700002F002FF074600221C4B02F04BFD82466F
:1046800002F066FC1A49086008681B4903F0ACFC9C
:1046900007D217490868184903F012FD1449086049
:1046A0000CE013490868002103F09EFB06D2104974
:1046B0000868114903F0E6F90D49086000BF0020C1
:1046C0000849087000BFC82207490448FEF700FDEA
:1046D0000248FEF7D5FABDE8FC9F00004402002026
:1046E000CC02002084000020B40800200000E0403C
:1046F0007C090020008066400000B44300BFFEE754
:104700002DE9FC5F04468946A169A06803F0D8FC46
:104710006060E06803F08AF907464FF06632224B8A
:1047200002F0AAFE054602F013FCE060606803F0A8
:104730007DF907464FF033321C4B02F09DFE0546D3
:104740000E46E06803F072F982462A46334602F0CC
:1047500031FCCDE9000102F0FBFBE060D4E903107D
:1047600003F090F920611249206903F03DFC01D269
:104770000F4820610F49206903F036FB01D20D4834
:1047800020612169D9F80C0003F062FB0546E1685D
:10479000D9F8080003F05CFB0646294603F072F9DD
:1047A00020602068BDE8FC9F6666E63F3333D33F58
:1047B00000401C4600401CC6490050EAC12018BFFA
:1047C00004204A0D18BF40F0010040F2FF72B2EB26
:1047D000515F08BF40F00200012808BF0520704764
:1047E0004100080218BF04200A0E18BF40F0010063
:1047F0004FF07F4232EA010108BF40F00200012879
:1048000008BF05207047000002480068C0F302207E
:10481000704700000CED00E010B5002804DB0A072B
:10482000130E054A135406E00A07140E034A00F05B
:104830000F031B1FD45410BD00E400E018ED00E08E
:104840002DE9F74F144694B00021C4E902111599DF
:10485000079121F00045C9498D4206DC1599C4E94C
:10486000000117B00020BDE8F08FC549DFF814A3A0
:10487000A9423CDD0799C44E0029C44FC44A15998A
:10488000534619DD02F0E8FF554506D0C14AC24B38
:1048900002F0E2FFC4E900010AE04FF0D352BE4B40
:1048A00002F0DAFF32463B4602F0D6FFC4E90001CF
:1048B00017B00120BDE8F08F02F07CFB554506D013
:1048C000B44AB54B02F076FBC4E900010AE04FF0B0
:1048D000D352B14B02F06EFB32463B4602F06AFB0C
:1048E000C4E9000117B04FF0FF30BDE8F08FAB49CD
:1048F000A942159978DB21F0004183468846A84AF1
:10490000A84B02F0B9FD0022A74B02F053FB02F0C6
:1049100059FD099002F085FD06460F469C4A534614
:1049200002F0AAFD43465A4602F0A4FE80468A469B
:10493000984A994B3046394602F09EFD2A0D0125D2
:104940000B924246534602F095FE032DC4E9000146
:1049500039D00B98C1F30A51401A05EB45111139B2
:10496000814230DA9148C346784400EB0510CDF817
:104970000CA00C90D0E900233046394602F07CFDB3
:1049800002460B46049106905846039902F064FFD4
:1049900080468A4602460B465846039902F05CFF61
:1049A000049B069A02F058FF83460C9803913946FF
:1049B000D0E90223304602F05FFD5A46039B02F025
:1049C0004BFF6D1CBDE707980028A2BF099817B0E0
:1049D000BDE8F08F616881F000416160099817B00F
:1049E0004042BDE8F08FFFE784461598C1F31301FC
:1049F000C0F30A50A0F2F5304FEA601800F01F062D
:104A0000C6F12000139000200690079041F4801E0C
:104A100005206D4676B1664A08EB00017A4452F8EB
:104A2000213002EB8101B3404A68139922FA01F167
:104A3000194305E05F4908EB0002794451F8221060
:104A4000A1FB0E27A1FB0C131A449A4234BF012389
:104A5000002303EB070A05EB8003D3E901B70F44FA
:104A60008F4234BF0121002193448B4411B19345FF
:104A700002D903E0934501D2012100E00021C3E9FE
:104A800001B7514445F82010011EA0F10100C1DC1E
:104A90000298059F00F10050800F12900298DDE906
:104AA0000356800002F0BDFC834628460D9102F0BB
:104AB000CFFC6FF01D0203F0AAFBCDE90E013046DA
:104AC00002F0C6FC6FF03D0203F0A1FB80468A466F
:104AD000384602F0BDFC6FF05D0203F098FB07461C
:104AE00042465346119102F065FADDE90E2302F0C9
:104AF00061FA5A460D9B02F05DFA00250E465A46B1
:104B000028460D9B02F0A8FEDDE90E2302F0A4FE6C
:104B10004246534602F0A0FE3A46119B02F0AAFD1F
:104B2000DFF898A0244A534602F0A6FC07468846C0
:104B3000234A244B3146284602F09EFC3A4643461F
:104B400002F038FA074688464FF0A84253463146ED
:104B5000284602F091FC3A46434602F02BFA159A99
:104B600012F0004F04D0129A81F00041524212928A
:104B7000C4E90001129817B0BDE8F08FFB21E93FAE
:104B80007CD90240FB21F93F7370032E8A19A33BA5
:104B9000000040543163621A61B4D03DFB213941B9
:104BA00083C8C96D305FE43F0000E03FB43A0000C5
:104BB000303A0000123A0000182D4454FB21F93D10
:104BC0003326A611460B113C2DE9FF4D21F000487C
:104BD00007460C46B8F1795F08DA02F0F3FB0028CB
:104BE00001BF0020324904B0BDE8F08D3A462346AB
:104BF0001046194602F040FC054602462D480E4676
:104C00000B460621784400F05DF82A46334602F050
:104C100033FCDDE9022382468B463846214602F00A
:104C20002BFC04460F4652465B462846314602F0AE
:104C300023FC22463B4602F00FFE07468A464FF011
:104C4000FF322846314603F0E2FA1B4A90450ADA61
:104C50003A46534602F000FE04B00022BDE8F04D93
:104C6000134B02F007BD154A4245A8BFA8F5001531
:104C70004FF00004B8BF124D22462B4602F0ECFD67
:104C80000646884622462B460020094902F0E4FDEC
:104C900004460D463A4653463046414602F0DCFD96
:104CA00004B022462B46BDE8F04D02F0E3BC000004
:104CB0000000F03FE03700003333D33F0000E93F0E
:104CC0000000D23F2DE9F0414F1E00EBC701044622
:104CD000D1E9000115461E4637F006020DD02A46DE
:104CE000334602F0C9FB7F1E04EBC703D3E9002360
:104CF00002F060F937F00602F1D1022F25D0042F1F
:104D000013D0062F18BFBDE8F0812A46334602F0C3
:104D1000B3FBD4E90A2302F04DF92A46334602F0E8
:104D2000ABFBD4E9082302F045F92A46334602F0EA
:104D3000A3FBD4E9062302F03DF92A46334602F0EC
:104D40009BFBD4E9042302F035F92A46334602F0EE
:104D500093FBD4E9022302F02DF92A46334602F0F0
:104D60008BFBD4E90023BDE8F04102F023B9000039
:104D70002DE9FF4D054621F0004084B00C46B0F10E
:104D8000795F0BDA2846FFF717FD042808BF00F00B
:104D900071F8284608B02146BDE8F08D2A460B463A
:104DA000104602F069FB06460F462A46234602F0EB
:104DB00063FB804626488A4632463B4605217844B6
:104DC000FFF780FF83461098029160B3214A224B7F
:104DD0004046514602F050FBCDE900015A4640469C
:104DE0005146029B02F048FB82468846DDE90601F7
:104DF0004FF0FF3203F00BFA5246434602F02CFD0F
:104E000032463B4602F038FBDDE9062302F024FD82
:104E1000DDE9002302F020FD08B02A462346BDE864
:104E2000F04D02F027BC0B465A463046394602F098
:104E300023FB084A084B02F0BDF84246534602F0F5
:104E40001BFB08B02A462346BDE8F04D02F0B2B87D
:104E500046370000495555555555C5BF012203F049
:104E6000D6B902F0A7B8002213461046114602F048
:104E700051B90000024A0020110703F0C8B9000030
:104E800001FDFFFF012103F0F0B90021084602F007
:104E90006DBE6FF05E01080703F0E7B92DE9F04D34
:104EA0000D4614464FF07F41B1EB440F9EBF4FF0CB
:104EB000FF312960BDE8F08D4FF0004040EA042149
:104EC000C4F3C750783810F01F024A4B4FEA601CF9
:104ED000C2F120067B44C4F3C750A0F178004FEA2A
:104EE000601003EB800053F82C3008BFD0E901C6F6
:104EF00012D0D0F804C093402CFA06F73B438768E1
:104F00000CFA02FC27FA06F8C06807FA02F2F04031
:104F10004CEA080C42EA0006A3FB0132ACFB01C0DC
:104F2000A6FB016101EB0C068E4234BF4FF0010C71
:104F30004FF0000CC1186144BCF1000F02D0814257
:104F400002D903E0814201D2012000E00020104498
:104F500000F120024FEA92188006CA0C40EA423063
:104F60004F03C5F8008002F013FF8246384602F076
:104F700027FF6FF0120103F078F90746304602F080
:104F80001FFF6FF0250103F070F983463946504644
:104F900002F078FD594602F075FD00F500666FF3EA
:104FA0000B065146304603F08BF8394603F088F87B
:104FB000594603F07BF8104902F04AFF07460F49B3
:104FC000304602F045FF394602F05CFD07460C49C9
:104FD000304602F03DFF394602F054FD14F0004F18
:104FE00008BFBDE8F08DC8F1805180F00040296015
:104FF000BDE8F08D10360000DB0FC92F22AAFD2975
:105000000000C92F00BF704770B500244FF07E50DC
:1050100012490860002048608860C86013240DE0D1
:105020000F4800EB04100D4AD2E90035D2E9021214
:10503000C0E90035C0E90212601E84B2002CEFDC2A
:10504000074A064DD5E901032968ED68161D29C6F2
:10505000116004A0FBF7E0F870BD000048060020D6
:1050600008050020204920686176652066696E6920
:1050700073682074686520696E6974206F662061AA
:10508000687273200D0A000010B5B2B0002028909D
:1050900027902690FE48FBF78DFCFD48C0680B90DA
:1050A00002F0D6F90022FB4BCDE90C0102F032F8F8
:1050B000CDE90E0101F04CFF30900021309802F054
:1050C00017FE01D132B010BDF3480088401CF249F0
:1050D00008800846008804283FDB1320319011E047
:1050E000EE49319801EB0011401EEC4A02EB001230
:1050F00092E81900D26881E81900CA603198401E10
:1051000080B2319031980028EADCE448E44C1ECCAF
:105110001EC0E448E44AD2E900139268C0E90132B3
:1051200001601320319012E0319800EB4000DD491E
:1051300001EB80013198401E00EB4000D94A02EBA0
:1051400080030DCB0DC13198401E80B23190319853
:105150000028E9DC0020D0490880D448B0F90000DC
:105160000E9002F015FED2490F9002F071FECE496A
:105170000860CE48B0F902000E9002F009FECC495A
:105180000F9002F065FEC8494860C848B0F90400B5
:105190000E9002F0FDFDC6490F9002F059FEC24983
:1051A00088601420319012E0319800EB4000C14932
:1051B00001EB80013198401E00EB4000BD4A02EB3C
:1051C00080030DCB0DC13198401E80B231903198D3
:1051D0000028E9DCB748B84B0ECB0EC0B748B0F991
:1051E00000000E9002F0D4FDB5490F9002F030FEA1
:1051F000B1490860B148B0F902000E9002F0C8FD54
:10520000AF490F9002F024FEAB494860AB48B0F9BB
:1052100004000E9002F0BCFDA9490F9002F018FEA8
:10522000A54988600846806808900846806807900D
:10523000089902F00DFE0A909F48406806909E482B
:1052400040680590069902F003FE08909A480068AD
:105250000690994800680590069902F0F9FD0790BC
:10526000089902F00FFC09900A9902F00BFC0B90D0
:1052700002F0DCFBCDE90C0101F08AFDCDE90E0165
:1052800001F066FE2F902F982E90864A6C3207CA46
:105290002BAB07C32D980C9001460B9002F0D8FD64
:1052A0000E902C980A900146099002F0D1FD0C90C6
:1052B0002B980A900146099002F0CAFD0B900C99B8
:1052C00002F0E0FB0D900E9902F0DCFB0F9001F074
:1052D000F3FB2A902B980F902A9902F0B9FD2B909E
:1052E0002C980F902A9902F0B3FD2C902D980F90D6
:1052F0002A9902F0ADFD2D906848D0F8A000014633
:105300000F904FF0804002F0A3FD1D906348D0F84D
:10531000A40001460F904FF0804002F099FD1C90D0
:105320005E48D0F8A80001460F904FF0804002F090
:105330008FFD1B905948D0F8AC0001460F904FF0FC
:10534000804002F085FD1A905448D0F8A000014634
:105350000F904FF0814002F07BFD19904F48D0F83C
:10536000A40001460F904FF0814002F071FD1890AB
:105370004A48D0F8A80001460F904FF0814002F053
:1053800067FD17904548D0F8A40001460F904FF0F4
:10539000824002F05DFD16904048D0F8A80001461A
:1053A0000F904FF0824002F053FD15903B48D0F82B
:1053B000A0000F903948D0F8A0000E900F9902F08D
:1053C00047FD14903548D0F8A4000F903348D0F82A
:1053D000A4000E900F9902F03BFD13902F48D0F8D7
:1053E000A8000F902D48D0F8A8000E900F9902F059
:1053F0002FFD12902948D0F8AC000F902748D0F824
:10540000AC000E900F9902F023FD11902C980146EC
:105410000D901C9802F01CFD0F901399199802F042
:1054200017FD0D902B98014609901B9802F010FD76
:105430000B901299199802F00BFD0A900B9902F04B
:1054400021FB0C900D9902F01DFB0E900F9902F0BC
:1054500037FE25902D9801460D90189802F0F8FC23
:105460000F901299169802F0F3FC0D90139916986C
:1054700002F0EEFC0B902C98014606901D9802F06D
:10548000E7FC08904FF08140149902F0E1FC19E02C
:105490005008002080842E4168000020080500206C
:1054A0004806002054070020440800202C0000205B
:1054B0000AE81C3B64060020580600202600002055
:1054C00047237A3C0490FE48D0F8A400014603909C
:1054D000049802F0BDFC06902B98014602901A98A1
:1054E00002F0B6FC04901199189802F0B1FC0390F8
:1054F000049902F0E5FD0590069902F0C3FA0790C1
:10550000089902F0DDFD0990189902F0D9FD0A9082
:105510000B9902F0B7FA0C900D9902F0B3FA0E90C5
:105520000F9902F0AFFA24902D9801460D9017982C
:1055300002F08EFC0F901299159802F089FC0D90E4
:105540001399159802F084FC0B902C980146069054
:105550001A9802F07DFC08901199179802F078FCD7
:1055600006902B98014602901D9802F071FC049061
:105570004FF08140149902F06BFC0290D048D0F8B3
:10558000A80001460190029802F062FC0390049981
:1055900002F078FA0590069902F074FA07900899DB
:1055A00002F08EFD0990179902F08AFD0A900B997E
:1055B00002F068FA0C900D9902F064FA0E900F99BF
:1055C00002F060FA23902C9801460D901B9802F08F
:1055D0003FFC0F904FF08140129902F039FC0B9084
:1055E000B748D0F8A80001460A900B9802F030FCAA
:1055F0000D902B98014609901C9802F029FC0B9005
:105600004FF08140139902F023FC0990AC48D0F888
:10561000AC0001460890099802F01AFC0A900B9918
:1056200002F04EFD0C900D9902F02CFA0E900F999D
:1056300002F046FD22902299084602F009FC0E90E5
:105640002399084602F004FC0C902499084602F0C5
:10565000FFFB0A902599084602F0FAFB09900A9987
:1056600002F010FA0B900C9902F00CFA0D900E99C2
:1056700002F008FA0F9001F01FFA2A902A99259853
:1056800002F0E6FB25902A99249802F0E1FB249091
:105690002A99239802F0DCFB23902A99229802F0A1
:1056A000D7FB2290874A00212E9800F07BFF0E90B6
:1056B0008548309902F0CCFB0D900E9902F0C8FBA2
:1056C00082490F9002F0DEF92990814A7F4929989A
:1056D00000F068FF29907A48D0F8A8000C9078482C
:1056E000D0F8A0000B900C9902F0B2FB0E90744819
:1056F000D0F8AC000C907248D0F8A4000B900C9934
:1057000002F0A6FB0D900E9902F0DAFC4FF08041FA
:105710000F9002F09DFB6F4908606948D0F8A40023
:105720000C906748D0F8A0000B900C9902F090FB09
:105730000E906348D0F8AC000C906148D0F8A800F7
:105740000B900C9902F084FB0D900E9902F09AF9DF
:105750004FF080410F9002F07BFB5F490860584892
:10576000D0F8A8000B905648D0F8A8000A900B99E2
:1057700002F06EFB0D905248D0F8A4000B905048F8
:10578000D0F8A4000A900B9902F062FB0C900D99DE
:1057900002F078F94FF080410E9002F059FB4FF083
:1057A0007E510F9002F082FC4C4908602D980D90BC
:1057B000494801680D9802F04BFB0F902C980D9012
:1057C000464801680D9802F043FB0E900F9902F0D5
:1057D00077FC28902B980D90404801680D9802F0B6
:1057E00037FB0F902D980D903A4801680D9802F004
:1057F0002FFB0E900F9902F063FC27902C980D90D0
:10580000344801680D9802F023FB0F902B980D90FF
:10581000314801680D9802F01BFB0E900F9902F0C1
:105820004FFC26902E480168289802F011FB0E903C
:10583000309902F00DFB0F902A4801680F9802F092
:1058400021F92849086026480168279802F000FBE2
:105850000E90309902F0FCFA0F90234801680F98DF
:1058600002F010F9204908601D480168269802F0EE
:10587000EFFA0E90309902F0EBFA0F901B48016896
:105880000F9802F0FFF81949086019482899006834
:1058900002F0DEFA0F901748006817490B9002F0EB
:1058A000D7FA16490C9002F061F90D900D48016885
:1058B0000D9802F0E7F80E900F9902F0E3F81FE060
:1058C000080500200000C843CDCC4C3D8FC2753C7C
:1058D0008FC2F53D780000207C0000208000002071
:1058E000640000206C000020700000207400002084
:1058F0006000002058060020DA0F494000003443C1
:10590000FE490860FE482799006802F0A1FA0F904E
:10591000FC484068FC490B9002F09AFAFB490C9055
:1059200002F024F90D90FA4801680D9802F0AAF8E7
:105930000E900F9902F0A6F8F0494860F0482699B9
:10594000006802F085FA0F90EE488068EE490B90EF
:1059500002F07EFAED490C9002F008F90D90ED4846
:1059600001680D9802F08EF80E900F9902F08AF8F7
:10597000E2498860084680680C90E748C0680B9050
:105980000C9902F065FA0E90DC4840680A90E248F3
:10599000806809900A9902F05BFA0C90DE48406832
:1059A00080F000400A90D5480068014609900A98A6
:1059B00002F04EFA0B900C9902F082FB0D900E99BA
:1059C00002F07EFB4FF07C510F9002F041FA2190E3
:1059D000CA4840680C90D048C0680B900C9902F0FF
:1059E00037FA0E90C54880680A90CB4880680990C5
:1059F0000A9902F02DFA0C90C04800680A90C64837
:105A0000006809900A9902F023FA0B900C9902F0B1
:105A100039F80D900E9902F053FB4FF07C510F9026
:105A200002F016FA2090B54800680C90BA48C06899
:105A30000B900C9902F00CFA0E90B04880680A9016
:105A4000B548406809900A9902F002FA0C90AB48F8
:105A500040680A90B048006809900A9902F0F8F985
:105A60000B900C9902F02CFB0D900E9902F00AF8A5
:105A70004FF07C510F9002F0EBF91F909F480068A7
:105A80000C90A54880680B900C9902F0E1F90E90FB
:105A90009A4840680A90A048406809900A9902F024
:105AA000D7F90C90954880680A909B480068099047
:105AB0000A9902F0CDF90B900C9901F0E3FF0D90DB
:105AC0000E9902F0FDFA4FF07C510F9002F0C0F9F0
:105AD0001E902599299802F0BBF90F90219902F0A8
