:020000040800F2
:10000000E80E0020D50100087F1B00083918000801
:100010007D1B00083D050008411F0008000000008E
:10002000000000000000000000000000E7010008E0
:100030004105000800000000EB010008811B0008DA
:10004000EF010008EF010008EF010008EF010008D0
:10005000EF010008EF010008EF010008EF010008C0
:10006000EF010008EF010008EF010008EF010008B0
:10007000EF0100083F050008EF010008EF0100084C
:10008000EF010008EF010008EF010008EF01000890
:10009000EF010008EF010008EF010008EF01000880
:1000A000EF010008EF010008EF010008EF01000870
:1000B000EF010008EF010008EF010008EF01000860
:1000C000EF010008EF010008EF010008EF01000850
:1000D000EF010008EF010008EF010008EF01000840
:1000E000EF010008EF010008EF010008EF01000830
:1000F000EF010008EF010008EF010008EF01000820
:10010000EF010008EF010008EF010008EF0100080F
:10011000EF010008EF010008E51B0008EF010008EF
:10012000EF010008EF010008EF010008EF010008EF
:1001300000F002F800F03FF80AA090E8000C8244BA
:100140008344AAF10107DA4501D100F034F8AFF297
:10015000090EBAE80F0013F0010F18BFFB1A43F0A5
:1001600001031847E824000008250000103A24BFC6
:1001700078C878C1FAD8520724BF30C830C144BF0C
:1001800004680C607047000000230024002500264E
:10019000103A28BF78C1FBD8520728BF30C148BFEA
:1001A0000B607047642900F07780002070471FB50E
:1001B0001FBD10B510BD00F093F91146FFF7F7FF12
:1001C00001F03AFF00F0B1F903B4FFF7F2FF03BC0E
:1001D00001F0C7FE0948804709480047FEE7FEE7EF
:1001E000FEE7FEE7FEE7FEE7FEE7FEE7FEE7FEE7E7
:1001F00004480549054A064B70470000E31B000808
:1002000031010008E8020020E80E0020E806002086
:10021000E8060020704700000FB4044910B503AA97
:10022000029800F02BF910BC5DF814FB00000020D0
:100230002DE9F0410E460446002020622046E16888
:10024000884730B3252805D0D4E901219047206A9A
:10025000401CF2E7E168204600278847050018D0D7
:10026000A5F14100192802D820354FF40067324625
:10027000294620462760FFF795FF40B1012804D0AA
:10028000F61D26F007060836D8E7361DD6E72846BD
:10029000DAE7206ABDE8F0812DE9F0410646002446
:1002A00010687529314616A510D0AFF300800028DC
:1002B00002DA404213A507E031688A0701D512A58A
:1002C00002E0490704D511A5012401E0AFF3008045
:1002D00000210A2206F1240709E0B0FBF2FCB0FB82
:1002E000F2F302FB1C00303078541846491C0028F9
:1002F000F3D123462A463046BDE8F04100F065B808
:10030000000000002D0000002B0000002000000075
:1003100010B5203AC0F00B80B1E81850203AA0E8A0
:100320001850B1E81850A0E81850BFF4F5AF5FEAD4
:10033000027C24BFB1E81850A0E8185044BF18C987
:1003400018C0BDE810405FEA827C24BF51F8043B2E
:1003500040F8043B08BF7047D20728BF31F8023B82
:1003600048BF11F8012B28BF20F8023B48BF00F816
:10037000012B70474FF0000200B513469446964695
:10038000203922BFA0E80C50A0E80C50B1F12001A8
:10039000BFF4F7AF090728BFA0E80C5048BF0CC056
:1003A0005DF804EB890028BF40F8042B08BF7047B4
:1003B00048BF20F8022B11F0804F18BF00F8012B26
:1003C000704770477047704770472DE9F0470D46FA
:1003D00099469246044600F124080168880604D52F
:1003E000E06921F01001216000E00120A84201DD58
:1003F000471B00E00027A1697A1902EB0900081ADF
:10040000A0612078C00602D42046AFF30080002609
:1004100008E0D4E901211AF806009047206A401C40
:10042000761C20624E45F4DB2078C0060AD52046B3
:10043000AFF3008006E0D4E9012130209047206A24
:10044000401C2062381EA7F10107F4DC07E0D4E964
:10045000012118F805009047206A401C2062281EE0
:10046000A5F10105F3DC2046AFF3008020780006FB
:1004700002D50220BDE8F0870120FBE7074B70B5ED
:100480000D467B4400F011F80446284600F020F8A1
:1004900010B14FF0FF3070BD204670BDDF1A000074
:1004A00001694A1C02610878704700B58FB0CDE938
:1004B00001310021059105497944CDE90310114628
:1004C0006846FFF7B5FE0FB000BD0000E5FFFFFF77
:1004D000007B00F0800070470048704784020020D5
:1004E0007546FFF7F9FFAE4605006946534620F012
:1004F0000700854618B020B5FFF77AFEBDE820401A
:100500004FF000064FF000074FF000084FF0000BCF
:1005100021F00701AC46ACE8C009ACE8C009ACE882
:10052000C009ACE8C0098D46704710B50446AFF36A
:1005300000802046BDE81040FFF746BEFEE770474A
:10054000704772B6FEE7000030B560B11A4B026822
:1005500014219A4209D2194B1344B3FBF1F18900DB
:10056000016417490AE0012030BD134B5B4213447C
:10057000B3FBF1F1890001640F490839C16302211D
:1005800080F82110136843F6F0718B43F0E90114F1
:100590002143D0E902452C432143046921434469A6
:1005A00021438469214319431160002141630122E1
:1005B00042770177084630BD08040240F8FFFDBFCE
:1005C000000002402DE9F84FDFF8C891002409F13E
:1005D000040A0AF1040B23460F270BF1040ED1E0A5
:1005E0000125A54006EA0502AA4276D1DFF8A8C196
:1005F0004E68A6EB0C0866452BD00DDC032E34D0DC
:1006000005DC36B3012E19D0022E2FD11BE0112E9E
:1006100016D0122E2AD119E0B8F5881F19D006DCA1
:10062000B8F5803F15D0B8F5801F1FD111E0B8F59F
:10063000001F0ED0B8F5041F18D10AE0CB6815E0F2
:10064000CB681B1D12E0CB6808330FE0CB680C337E
:100650000CE08B682BB1012B4FF0080303D04561F0
:1006600004E0042302E0056100E00023FF2A01D832
:10067000064601E000F104064FEA840501D9A5F120
:100680002005D6F8008007FA05FC28EA0C0803FAD2
:1006900005F548EA0508C6F800804D68ED0070D5FC
:1006A0003E4DAE6946F00106AE61AD6924F0030629
:1006B00005F0010500953A4D06EB050CDCF80850F5
:1006C000A607360F07FA06F825EA0805DFF8D480F2
:1006D000404503D14FF0000825E052E0DFF8C88024
:1006E000404502D14FF001081DE0DFF8C0804045D1
:1006F00002D14FF0020816E0DFF8B480404502D185
:100700004FF003080FE0DFF8AC80404502D14FF016
:10071000040808E0DFF8A080404502D14FF005084A
:1007200001E04FF0060808FA06F848EA0508CCF898
:1007300008804D68D9F80060ED034D4601D5164399
:1007400000E096432E604D68DAF80060AD03554630
:1007500001D5164300E096432E604D68DBF800603B
:10076000ED025D4601D5164300E096432E604D68CC
:10077000DEF80060AD02754601D5164300E09643F1
:100780002E60641C0A681646E2407FF429AFBDE87B
:10079000F88F00000004014000001110001002401A
:1007A0000000014000080140000C01400010014021
:1007B0000014014000180140001C014001488068FD
:1007C000704700000400002002488168027811444C
:1007D0008160704704000020074810B5016841F0AF
:1007E00010010160032000F075F80F2000F006F8FA
:1007F00000F024F8002010BD0020024070B50D4D1F
:1008000004464FF47A712878B1FBF0F00A49096880
:10081000B1FBF0F000F0ECFA48B9102C07D200223E
:100820002146501E00F036F800206C6070BD01209B
:1008300070BD000004000020100000200C4808B526
:10084000816941F001018161816901F0010100913B
:10085000C16941F08051C161C06900F080500090D1
:100860000448416821F0E06141F00071416008BD39
:100870000010024000000140002809DB00F01F02C8
:10088000012191404009800000F1E020C0F80011F2
:1008900070470000F0B40E4B1B680C46C3F30223F4
:1008A000C3F10705042D00D90425191D072901D21C
:1008B000002300E0DB1E012606FA05F1491E214057
:1008C00099409E40761E16403143F0BC01F039BB82
:1008D0000CED00E0064900F0070208684FF6FF0340
:1008E000184040EA0220034A1043086070470000A5
:1008F0000CED00E00000FA052DE9F0470F46050079
:1009000061D0434E306800F00700B84209D2306829
:1009100020F0070038433060306800F00700B8422C
:1009200051D128683B4C810712D5400703D5606838
:1009300040F4E06060602878000703D5606840F408
:10094000605060606068A96820F0F0000843606053
:100950002878C00728D06868012810D021680228AC
:1009600010D0890700292EDA616821F003010143C4
:100970006160FFF723FF804641F288390DE021686E
:100980008903EFE78901EDE7FFF718FFA0EB080106
:10099000494502D90320BDE8F0876068696800F026
:1009A0000C00B0EB810FEFD1306800F00700B842C7
:1009B0000BD9306820F0070038433060306800F011
:1009C0000700B84201D00120E5E72878400705D5A7
:1009D0006068E96820F4E0600843606028780007F8
:1009E00006D56068296920F4605040EAC100606063
:1009F00000F038F86168084AC1F30311515CC8403F
:100A00000649086006480068FFF7F8FE0020C2E7C4
:100A10000020024000100240322600081000002092
:100A2000080000200448054900684968044AC1F3E9
:100A30000221515CC84070471000002000100240A5
:100A4000422600080448054900684968044AC1F381
:100A5000C221515CC84070471000002000100240C5
:100A60004226000812A185B00FC98DE80F0014A01E
:100A7000144A006804905168134801F00C03042BD9
:100A800010D0082B0ED1C1F38343C9031DF8030016
:100A90000AD5516804AAC1F34041515C0A4A504347
:100AA000B0FBF1F005B0704708494843FAE7000091
:100AB00002030405060708090A0B0C0D0E0F10109F
:100AC000010200000010024000127A0000093D00FF
:100AD0002DE9F84F040070D02078C04DC00749D0F0
:100AE0006868C0F38100012807D06868C0F38100FE
:100AF000022809D16868C00306D52868800339D563
:100B000060680028E7D035E06068B0F5803F0BD022
:100B100010B1B0F5A02F11D0286820F480302860E3
:100B2000286820F4802002E0286840F480302860A3
:100B3000606890B1FFF742FE06460AE0286840F47C
:100B400080202860F0E700BFFFF738FE801B642894
:100B500073D828688003F7D50CE0FFF72FFE064610
:100B600005E000BFFFF72AFE801B6428F0D8286844
:100B70008003F7D420789A4E80074FF001094FF098
:100B8000000839D5686810F00C0F07D06868C0F30A
:100B90008100022809D16868C00306D4286880074C
:100BA00014D52069012808D110E02069B0B1C6F839
:100BB0000090FFF703FE074605E00AE1FFF7FEFDA0
:100BC000C01B0228C4D828688007F7D52868616947
:100BD00020F0F80040EAC10028600DE0C6F800806F
:100BE000FFF7ECFD074604E0FFF7E8FDC01B022815
:100BF00023D828688007F7D4207800072CD57948B7
:100C0000A169D9B1C0F80090FFF7D8FD074604E00C
:100C1000FFF7D4FDC01B02280FD8686A8007F7D5FC
:100C200071484FF4FA510068B0FBF1F0009000BF3A
:100C30000098411E0091FAD20EE080E0C0F80080DA
:100C4000FFF7BCFD074604E0FFF7B8FDC01B022814
:100C500075D8686A8007F7D42078400760D5E869BE
:100C60000027C00008D4E86940F08050E861E869D6
:100C7000012700F0805000905C480168C90513D43A
:100C80000168834641F480710160FFF797FD824659
:100C900006E000BFFFF792FDA0EB0A0064284ED8E3
:100CA000DBF80000C005F5D5E06801280AD008B1DE
:100CB000052813D0286A20F001002862286A20F055
:100CC000040002E0286A40F001002862E06841F276
:100CD000883B98B1FFF772FD82460BE0286A40F02E
:100CE00004002862EEE700BFFFF768FDA0EB0A01F1
:100CF00059455AD8286A8007F6D50CE0FFF75EFD03
:100D0000824605E0FFF75AFDA0EB0A0159454CD891
:100D1000286A8007F6D41FB1E86920F08050E861A6
:100D2000E06988B36968C1F38101022944D00228CF
:100D3000C6F8608004D0FFF741FD044638E034E097
:100D4000FFF73CFD074604E0FFF738FDC01B022813
:100D50002BD828688001F7D4206AB0F5803F05D1F0
:100D60006868A16820F4003008436860D4E908018D
:100D70000843696821F4741108436860C6F86090FC
:100D8000FFF71CFD044606E025E000BFFFF716FD57
:100D9000001B022809D828688001F7D51BE000BF96
:100DA000FFF70CFD001B022802D90320BDE8F88FD5
:100DB00028688001F4D40EE00128F7D06868226A20
:100DC00000F48031914204D1616A00F470108842CD
:100DD00001D00120EAE70020E8E70000001002400F
:100DE0000000424280044242100000200070004097
:100DF00010B5401EB0F1807F01D3012010BD4FF02F
:100E0000E02460610F21601701F09BF80020A061D1
:100E100007202061002010BD7047704710B590F882
:100E20003C20012A22D0012280F83C20CA688C682C
:100E300022F4407222434C6822F4806222430C6800
:100E400022F4006222430C6922F4805222434C694E
:100E500022F400522243C969002322F480420A434B
:100E600001684A6480F83C30002010BD022010BDAB
:100E700070B590F83C20012A2CD0012480F83C4029
:100E8000022280F83D2003685A689D6822F07006AF
:100E90000A6832435A60104B02689A420ED00F4BD8
:100EA0009A420BD0B2F1804F08D00D4B9A4205D038
:100EB0000C4B9A4202D00C4B9A4204D1496825F05F
:100EC00080031943916080F83D40002180F83C1078
:100ED000084670BD022070BD002C01400034014066
:100EE0000004004000080040000C004010B5040061
:100EF00003D094F83D0010B107E0012010BD0020A0
:100F000084F83C00204600F01FF8022084F83D00E1
:100F1000211D206800F06CFE012084F8460084F852
:100F20003E0084F83F0084F8400084F8410084F8D3
:100F3000420084F8430084F8440084F8450084F8B3
:100F40003D00002010BD000008B5174A0168174891
:100F5000914207D1816941F400618161806900F4A7
:100F6000006009E0124A914208D1C16941F00401D0
:100F7000C161C06900F00400009008BD0D4A9142B3
:100F8000FBD1C16941F01001C161C069002200F0CC
:100F90001000009011463620FFF77CFCBDE80840A9
:100FA0003620FFF769BC0000002C01400010024011
:100FB000000800400010004090F83D10012901D0C9
:100FC00001207047022180F83D100168CA6842F094
:100FD0000102CA6000680E4988420ED00D4988425D
:100FE0000BD0B0F1804F08D00B49884205D00B4997
:100FF000884202D00A49884204D1816801F0070181
:10100000062903D0016841F001010160002070470A
:10101000002C014000340140000400400008004062
:10102000000C004070B5044690F83C00012817D031
:10103000012584F83C50022084F83D002068826835
:1010400022F0770222F47F4282600868502830D074
:101050000DDC20284DD005DC98B310283BD148E0AA
:10106000022070BD302844D0402834D139E06028B7
:1010700028D0702806D0B0F5805F2CD0B0F5005F86
:1010800029D10AE0CB68D1E90121206800F003FEF4
:101090002068816841F0770109E0CB68D1E901213E
:1010A000206800F0F8FD2068816841F4804181608B
:1010B00011E0CA684968206800F0C2FE502120682B
:1010C00007E016E0CA684968206800F0CAFE60219F
:1010D000206800F0EAFD84F83D50002084F83C00D0
:1010E00070BDCA684968206800F0AAFE40212068E7
:1010F000EFE7226801461046EBE72DE9F0410D4687
:10110000040003D094F83D0018B108E00120BDE8C8
:10111000F081002084F83C00204600F041F80220D5
:1011200084F83D002068816844F2070291438160A1
:10113000211D206800F05CFD226890689169166AA4
:101140002B68AF69034340F20330814341EA072132
:10115000A868EF6908434FF6FC418843E96840EA14
:101160000720014328692F6A000140EA073008433D
:1011700069686D6926F0220646EA051529439360E1
:101180002268906154F8460B0162012004F81F099F
:10119000E0752076E0762077A0750020B7E70000A4
:1011A00000B585B000210091019102910391026880
:1011B00018491948B2F1804F19D0184B9A4214D1EE
:1011C000CA6942F00202CA61CA6902F002020492CC
:1011D0008A6942F004028A61896901F0040104917C
:1011E000C02100916946FFF7EDF905B000BDCA695D
:1011F00042F00102CA61CA6902F0010204928A69DE
:1012000042F004028A61896901F00401049103211A
:10121000E7E7000000100240000801400004004021
:1012200070B590F83E60044690F83F5090F8423018
:1012300090F84320022021B104290ED0012E1BD1A9
:1012400014E0012E18D1012B16D184F83E0084F849
:10125000420001220021206820E0012D0CD1012A4A
:101260000AD184F83F0084F8430014E0012D03D133
:10127000012B01D1012A01D0012070BD84F83E006C
:1012800084F83F0084F8420084F8430001220021E2
:10129000206800F0F3FC01220421206800F0EEFC3D
:1012A0002068016841F001010160002070BD7047B5
:1012B00070B50446006801694FF00005C94389070D
:1012C00015D4C168C943890711D4E91E0161012001
:1012D0002077206880698007204602D0FFF7E7FF6B
:1012E00004E000F0D7F8204600F066F92577206882
:1012F0000169C943490717D4C168C943490713D4D1
:101300006FF004010161022020772068806910F4E9
:10131000407F204602D0FFF7CAFF04E000F0BAF891
:10132000204600F049F9257720680169C94309077B
:1013300016D4C168C943090712D46FF008010161CE
:10134000042020772068C0698007204602D0FFF77C
:10135000AEFF04E000F09EF8204600F02DF925775E
:1013600020680169C943C90617D4C168C943C906C1
:1013700013D46FF010010161082020772068C06944
:1013800010F4407F204602D0FFF791FF04E000F008
:1013900081F8204600F010F9257720680169C943DB
:1013A000C90708D1C168C943C90704D1891E0161B1
:1013B000204600F05DF920680169C943090609D497
:1013C000C168C943090605D46FF080010161204658
:1013D000FFF722FD20680169C943490609D4C168A5
:1013E000C943490605D46FF040010161204600F071
:1013F00099F920680169C94389060BD4C168C943BA
:10140000890607D46FF0200101612046BDE87040D5
:10141000FFF703BD70BD000000B585B0002100914D
:10142000019102910391164B0268164802219A42DB
:101430000FD1826942F0040282618069039100F059
:10144000040004904FF41060CDE9000169460E4895
:1014500011E00E4B9A4210D1826942F0080282617B
:101460008069039100F0080004904FF44070CDE9CA
:10147000000169460648FFF7A5F805B000BD000069
:10148000002C01400010024000080140000800400C
:10149000000C0140704770B5044690F83C000D46C2
:1014A00001280AD0012084F83C0042B1042A18D057
:1014B000082A2AD00C2A4DD139E0022070BD2068BC
:1014C00000F0FCFB2068816941F00801816120681F
:1014D000816921F004018161206881692A691143D1
:1014E00011E0206800F01AFC2068816941F4006175
:1014F00081612068816921F480618161206881694E
:101500002A6941EA0221816124E0206800F03CFC64
:101510002068C16941F00801C1612068C16921F0FA
:101520000401C1612068C1692A69114311E0206882
:1015300000F05EFC2068C16941F40061C16120686F
:10154000C16921F48061C1612068C1692A6941EAE9
:101550000221C161002084F83C0070BD10B5040078
:1015600003D094F83D0010B107E0012010BD002029
:1015700084F83C00204600F01EF8022084F83D006C
:10158000211D206800F034FB012084F8460084F817
:101590003E0084F83F0084F8400084F8410084F85D
:1015A000420084F8430084F8440084F8450084F83D
:1015B0003D00002010BD70477047000010B5044684
:1015C000022249B104290ED0082913D094F8410011
:1015D000012816D0012010BD94F83E000128F9D151
:1015E00084F83E200FE094F83F000128F2D184F8FF
:1015F0003F2008E094F840000128EBD184F8402017
:1016000001E084F841200122206800F037FB1349F3
:101610002068134A884201D0904203D1436C43F4BE
:1016200000434364206888420DD090420BD0B0F153
:10163000804F08D00B49884205D00B49884202D020
:101640000A49884204D1816801F00701062903D0C4
:10165000016841F001010160002010BD002C014033
:10166000003401400004004000080040000C00402D
:1016700070B51E49884237D11D481E4D1E4C016869
:10168000491C016040680078C00711D1022000F0B9
:1016900073FD2861032000F06FFD2061024617A052
:1016A0002969FEF7B9FD2869216908441B49886149
:1016B0006FF027006861606119490E4800F05EFC18
:1016C00017490D4800F05AFC286800F0D7FD014684
:1016D000012000F00DFD206800F0D0FDBDE8704055
:1016E0000146022000F004BD70BD0000680100202A
:1016F00014000020380200205002002041B5C4CB65
:10170000D9B6C8CAC72025642C2042B5C4CBD9B6E7
:10171000C8CAC7202564200D0A0000001C00002054
:1017200068020020704770B5040004D094F83D00B2
:10173000002510B106E0012070BD84F83C50204621
:1017400000F022F8242084F83D002068C16821F4CC
:101750000051C160204600F097FB2068016921F428
:10176000904101612068416921F02A0141612068AE
:10177000C16841F40051C1602564202084F83D0017
:1017800084F83E00002070BD70B586B00025064686
:1017900000950195029503950068224988423FD142
:1017A0002149C86940F48020C861C86900F48020DC
:1017B0000490886940F00800886188691B4C00F03B
:1017C0000800049008150090022001900320039067
:1017D00069462046FEF7F6FEE014CDE900056946AD
:1017E00020460295FEF7EEFE124C1148C4E90005B2
:1017F0008020C4E90250256140016561C4E90650BA
:101800002046FEF7A1FE08B1FEF79BFEB46300225E
:10181000114627206662FFF73DF82720FFF72CF8D6
:1018200006B070BD0048004000100240000C0140AE
:1018300030000240F4010020FEE70000094808B52E
:10184000416941F0010141614069002200F001005D
:10185000009011460D20FFF71DF8BDE808400D204F
:10186000FFF70AB8001002400D4808B5816941F041
:1018700020018161816901F020010091816941F0BD
:1018800004018161816901F004010091816941F0E5
:1018900008018161806900F00800009008BD000027
:1018A0000010024010B596B000240F9410941194CB
:1018B000129413941C2168461494FEF75BFD2021BA
:1018C00007A8FEF757FD2C482A49C0E9001441F645
:1018D0001F41C0E9024180210461C0E90541FFF7D1
:1018E00005FB08B1FEF72DFE4FF480500F900FA9B5
:1018F0002148FFF797FB08B1FEF723FE1E48FFF7CC
:101900002DFE08B1FEF71DFE139413A91A48149476
:10191000FFF7AEFA08B1FEF714FE6020CDE900042F
:101920000294039404940594002269461248069494
:10193000FFF7B1FD08B1FEF704FE0C2269460E4820
:10194000FFF7A9FD08B1FEF7FCFD07940894099480
:101950004FF400500A94CDE90B4007A906480E94B5
:10196000FFF75CFA08B1FEF7ECFD0348FFF754FD02
:1019700016B010BD002C01404800002010B58CB0FE
:1019800024216846FEF7F6FC0024164809944FF01F
:1019900080410A94C0E900144FF6FF71C0E902418A
:1019A000046184610320CDE900040120CDE9020433
:1019B0000C210491CDE90540CDE90741694609486C
:1019C000FFF79BFB08B1FEF7BCFD099409A9054888
:1019D0000A94FFF74DFA002801D0FEF7B2FD0CB0D3
:1019E00010BD00009000002010B58CB02421684686
:1019F000FEF7C0FC00241648099414490A94C0E973
:101A000000144FF6FF71C0E90241046184610320B4
:101A1000CDE900040120CDE902040C210491CDE9B7
:101A20000540CDE9074169460948FFF766FB08B163
:101A3000FEF787FD099409A905480A94FFF718FAEB
:101A4000002801D0FEF77DFD0CB010BD0004004061
:101A5000D800002010B58EB0002407940894099493
:101A60000A940B941C2168460C94FEF783FC2248D0
:101A70002049C0E9001441F61F41C0E9024180211C
:101A800004618161FFF732FA08B1FEF75AFD4FF4A5
:101A90008050079007A91848FFF7C4FA08B1FEF76D
:101AA00050FD1548FFF75AFD08B1FEF74AFD0B94AB
:101AB0000BA911480C94FFF7DBF908B1FEF741FDC3
:101AC0006020CDE900040294082269460A48049483
:101AD000FFF7E1FC08B1FEF734FD0C226946064829
:101AE000FFF7D9FC08B1FEF72CFD0348FFF794FC83
:101AF0000EB010BD00080040200100201CB50024DD
:101B00000F4800940D49019401604721C0E9011478
:101B100041F28731C16080218161FFF7E7F908B1A7
:101B2000FEF70FFD0094694605480194FFF7A0F900
:101B3000002801D0FEF705FD1CBD0000001000408C
:101B4000680100200C4810B50A4901604FF4E131EA
:101B50004160002181600C22C160C0E904128161F2
:101B6000C161FFF7E0FD002803D0BDE81040FEF79B
:101B7000E8BC10BD00480040B0010020FEE7FEE7D1
:101B8000FEF722BE30B58FB028216846FEF7F2FB83
:101B900014210AA8FEF7EEFB01210804CDE900108C
:101BA0000024029402250491CDE907504FF4E0107F
:101BB00009906846FEF78CFF08B172B6FEE70F2069
:101BC000CDE90A054FF48060CDE90C4002210AA856
:101BD0000E94FEF791FE002801D072B6FEE70FB01A
:101BE00030BD70470148FFF763BB0000680100206B
:101BF000F0B502681C4B1D4D1D4E1E4F1E4C4FF084
:101C0000804C984209D0A04207D0604505D0A84238
:101C100003D0B04201D0B84204D122F0700E4A681D
:101C200042EA0E02984209D0A04207D0604505D092
:101C3000A84203D0B04201D0B84203D122F440758B
:101C4000CA682A434D6922F080022A4302608A68EA
:101C5000C2620A688262984201D0A04201D1096939
:101C6000016301214161F0BD002C014000040040EE
:101C700000080040000C00400034014010B501F0A5
:101C80001F030121046A99408C430462016A9A404F
:101C90001143016210BD10B5846842EA032224F4A6
:101CA0007F440A432243826010BD826822F07002A2
:101CB0000A4342F00701816070470000F0B5026AF4
:101CC00022F001020262036A42688469124E24F023
:101CD00073050C682C4323F002058B682B430D4DD4
:101CE000A84201D0B04205D123F00807CB683B439E
:101CF00023F00403A84201D0B04205D14D6922F47B
:101D0000407215438A692A4342608461496841638D
:101D10000362F0BD002C014000340140F0B5026ABE
:101D200022F010020262026A436884690D6824F49A
:101D3000E64444EA05248D6822F0200242EA0512B6
:101D40000F4D104EA84201D0B04206D1CF6822F00C
:101D5000800242EA071222F04002A84201D0B042BB
:101D600007D14D6923F4406343EA85038D6943EA53
:101D7000850343608461496881630262F0BD0000AD
:101D8000002C014000340140F0B5026A22F4807258
:101D90000262026A4368C46922F4007224F0730587
:101DA0000C68124E2C438D6842EA05220E4DA84263
:101DB00001D0B04206D1CF6822F4006242EA072285
:101DC00022F48062A84201D0B04207D14D6923F4C9
:101DD000405343EA05138D6943EA05134360C46128
:101DE0004968C1630262F0BD002C0140003401402B
:101DF00030B5026A22F480520262046A4268C36902
:101E00000D6823F4E64343EA05238D6824F4005467
:101E100044EA0534084DA84202D0084DA84204D136
:101E20004D6922F4804242EA85124260C3614968EA
:101E30000164046230BD0000002C01400034014008
:101E400010B5036A046A24F001040462846924F072
:101E5000F00444EA021423F00A020A438461026295
:101E600010BD10B5036A23F0100303628369046A8E
:101E700023F4704343EA023224F0A00343EA011141
:101E80008261016210BD000070B5044600680169FE
:101E9000E26821F44051114301612169A0680843BF
:101EA000616908432168CA6841F20C639A4302439E
:101EB000CA6020684169A26921F4407111434161FF
:101EC0001E492068884202D1FEF7BCFD01E0FEF702
:101ED000A9FD00EBC00101EB0012606864218000E5
:101EE000B2FBF0F3B3FBF1F36FF018067343B2FBF0
:101EF000F0F5B2FBF0F605EB8305322303EB051595
:101F0000B5FBF1F5B6FBF1F605F0F00505EB0615AE
:101F1000B2FBF0F6B2FBF0F0B0FBF1F06FF018029C
:101F2000504306EB800003EB0010B0FBF1F021689A
:101F300000F00F002844886070BD000000380140A8
:101F4000FEE70907090E002804DB00F1E02080F815
:101F50000014704700F00F0000F1E02080F8141D1D
:101F60007047704704490A685206FCD5024AC1B25C
:101F7000121D116070470000004800402DE9F04735
:101F800004460D46D4E90410401A6060A1684FF081
:101F90000008401A00F08EF982466969206800F056
:101FA000A1FA06D3206900F085F9A96900F09AFA30
:101FB00003D26068002814DB16E06869216880F0AD
:101FC000004000F08FFA09D3A86980F0004620692C
:101FD00000F070F9314600F085F92AD260680028D7
:101FE00002DD00F067F980466768E068A66838445B
:101FF000714200EB410000F05DF90146A86800F075
:10200000A5F981464146686800F0A0F9804651462E
:10201000286800F09BF9414600F0C2F8494600F0FC
:10202000BFF8216800F0BCF82060C4E90276BDE882
:10203000F0876068D5E70000FEF7CEFBFFF7A2FD52
:10204000FFF712FCFFF7FAFBFFF72CFCFFF796FCFB
:10205000FFF7CAFCFFF7FEFCFFF750FDFFF772FD2C
:1020600000F022F800F070F80148FEF7A5FFFEE747
:102070006801002000B58DB018216846FEF77AF996
:10208000182269460748FEF743F9182106A8FEF70B
:1020900071F90448182206A91830FEF739F90DB075
:1020A00000BD00003802002010B500210C48FFF7E9
:1020B00085FA0C210A48FFF781FA08210948FFF741
:1020C0007DFA0C210748FFF779FA3C210648FFF713
:1020D000A7F8BDE810403C210448FFF7A1B8000074
:1020E000480000202001002090000020D80000209F
:1020F000F0B5134D134E0023114C0C35371D41F232
:10210000707200290CDB914200DD1146012804D0D9
:10211000022801D133603960F0BD23602960F0BD31
:1021200041F2707C11EB0C0F00DB4A42012804D015
:102130000228F4D133603A60F0BD23602A60F0BD1C
:10214000342C01403C0800400848074941610849D7
:1021500001600021416081604FF07C51C160054900
:102160008161FFF787BF000000A0BE456802002024
:1021700000005C42000048430021022803D00328ED
:1021800007D0002070474FF08042506A516200B281
:102190007047024A1068116000B270472404004082
:1021A00090EA010F48BF81F0004100F1D481421A4A
:1021B0003CBF801A89184FEAD0524FF07F4C1CEA7E
:1021C000410FA2EBD15318BF9CEA026F00F03B8095
:1021D0004FF0004C4CEA00204CEA012121FA03FCAC
:1021E00010EB0C0C1ED202F1FF325FEA1C2040EB18
:1021F000C25038BF70471CF07F0F4FEA400C18BF29
:10220000BCF17F4F38BF7047C3F12003994008BF2E
:1022100020F00100BCF17F4F38BF7047A0F1C040F3
:1022200000F05BB94FEA3C00000A40EBC25028BF07
:102230001CF0FF0F4FEA400CE6D018BFBCF17F4FF7
:1022400038BF7047EAE79CEA026F05D010EA5C0FDE
:1022500008BF00F00040704710B500F0F8F800BF6C
:1022600064FBBE3E401058BFC0F14040491058BF0B
:10227000C1F140418142EFF30080704741000B0EF5
:10228000D3F19E0208D950F400034FEA032323FA46
:1022900002F048BF4042704710B500F0D8F800BFC8
:1022A00049922480002070476FF0004282EA2000AB
:1022B0007047000010F0004148BF4042B0FA80F380
:1022C00010FA03F2C3F19D030BD051EAC35101EBA5
:1022D0001220530638BF704700F1010008BF20F0FC
:1022E0000100704750EA010C00F113801CF5000F4B
:1022F00058BFBCF5000F01D48842704707D710F5CE
:10230000000F58BF11F5000F15D48842704789425D
:1023100070471CF5000F04D5BCF5000FF7D58142BE
:1023200070474FF0807C1CEB400F38BF1CEB410F17
:1023300001D28142704710B500F089F8922449001B
:102340004FF000504FF08051FFF78CBF4FF47F0CDF
:102350001CEAD0121EBF1CEAD11392EA0C0F93EABA
:102360000C0F00F0478090EA010F48BF42F48072E2
:102370004FF0004C4CEA00204CEA012102EB030232
:10238000A0FB0113A2F50002002918BF43F00103CE
:102390005B0028BF4FEA330342EB22425FEA132C73
:1023A0004CEBC2502EBFBCEB436FB2F57C0F7047B5
:1023B0004FEA036CBCF1004F08BF20F00100B2F5FA
:1023C0007C0F38BF70470BD582F0FF0212F5803FBB
:1023D000C8BF704700F1C040D8BF00F00040704750
:1023E00000F5000C5FEA4C0C48BF7047B0F1C040EC
:1023F00000F073B890EA010F0CEAD11348BF42F421
:102400008072624538BF634504D280EA010000F063
:102410000040704710B500F01AF800BF8900013E77
:1024200000F007B800F009B85FEA410C5FEA1C6CE5
:1024300008D080EA010000F050B85FEA400C5FEA83
:102440001C6CF6D14FF00040A0F5800070470EF1F3
:10245000020E2EF0030E5EF8044B244204D44FEA21
:102460004102B2F17F4F11D84FEA4003B3F17F4FE1
:102470000CD80ED14FEAD07CB2F17F4F0CEB4C0C54
:102480000CF1020C08BF4CEBD17C04E04FF0080CBF
:1024900001E04FEAD17C0CEB4C0324FA03F404F086
:1024A0000704B4F1040C06D20EEB840CBDE8104016
:1024B0004CF0010C6047DFE80CF0070802024FF017
:1024C0000040A0F5800010BD0846420018BFD2F1C0
:1024D000807288BF00F0004010BDFF2141EAD0505B
:1024E000C005704751EA000C00F113801CF5000F85
:1024F00058BFBCF5000F01D48142704707D711F5D2
:10250000000F58BF10F5000F15D481427047894263
:1025100070471CF5000F04D5BCF5000FF7D58842B5
:1025200070474FF0807C1CEB410F38BF1CEB400F15
:1025300001D28842704780EA010081EA000180EA06
:102540000100FFF7F8BE000090EA010F48BF81F0DC
:1025500000413FF52CAE421A04D882F00042A0EBB5
:10256000020011444FEAD0524FF07F4C1CEA410F59
:10257000A2EBD15318BF9CEA026F4AD04FF0004C37
:102580004CEA00204CEA012121FA03FCB0EB0C0CD0
:102590000FD412F0FE0F36D05FEA4C001DD50012AA
:1025A00040EBC25038BF70471CF03F0F18BF704758
:1025B0000BE0A2F101025FEA1C2040EBC25038BFE1
:1025C00070471CF07F0F18BF7047C3F1200399407C
:1025D00014BF401E20F00100704780084FEA12230C
:1025E00008BF7047B0FA80FCA2EB0C02CCF1280CBB
:1025F00060FA0CF093EA122F04BF00EBC250704750
:102600004FEAC3707047130A5FEADC1008BF7047D7
:10261000F6E79CEA026F04D010EA5C0F08BF0020C6
:10262000704710B5FFF713FF40DFF63E81F0004022
:1026300070470000000000000000010203040607CC
:102640000809000000000102030400006C260008D5
:1026500000000020480000006C010008B4260008BB
:1026600048000020A00E00008801000800000000C3
:102670000100000010000000000000000024F40031
:102680000000000014000020000000000000000016
:1026900000000000000000000000A04200004842CE
:1026A00000000000000000000000C03F0000C03F2C
:0426B0000000000026
:0400000508000131BD
:00000001FF
