:020000040800F2
:1000000048150020CD010008B53300082529000857
:10001000B1330008E903000895390008000000002A
:10002000000000000000000000000000DF010008E8
:10003000B307000800000000E301000829350008AC
:10004000E7010008E7010008E7010008E7010008F0
:10005000E7010008E7010008E7010008E7010008E0
:10006000E7010008E7010008E7010008E7010008D0
:10007000E7010008B1070008E7010008E7010008F0
:10008000E7010008E7010008E7010008E7010008B0
:10009000E7010008E7010008E7010008E7010008A0
:1000A000E7010008E7010008E7010008E701000890
:1000B000E7010008E7010008E7010008E701000880
:1000C000E7010008E7010008E7010008E701000870
:1000D000E7010008E7010008E7010008E701000860
:1000E000E7010008E7010008E7010008E701000850
:1000F000E7010008E7010008E7010008E701000840
:10010000E7010008E7010008E7010008E70100082F
:10011000E7010008E701000899350008E701000839
:10012000E7010008E7010008E7010008E70100080F
:1001300000F002F800F03AF80AA090E8000C8244BF
:100140008344AAF10107DA4501D100F02FF8AFF29C
:10015000090EBAE80F0013F0010F18BFFB1A43F0A5
:10016000010318477C7600009C760000103A24BFFB
:1001700078C878C1FAD8520724BF30C830C144BF0C
:1001800004680C607047000000230024002500264E
:10019000103A28BF78C1FBD8520728BF30C148BFEA
:1001A0000B6070471FB51FBD10B510BD00F0DAF829
:1001B0001146FFF7F7FF05F007FE00F00CF903B456
:1001C000FFF7F2FF03BC04F00DF800000948804778
:1001D00009480047FEE7FEE7FEE7FEE7FEE7FEE729
:1001E000FEE7FEE7FEE7FEE704480549054A064B41
:1001F00070470000973500083101000848090020C9
:1002000048150020480D0020480D002070470000D0
:100210000FB4044910B503AA029800F06DF810BCA1
:100220005DF814FB0000002010B5203AC0F00B80F0
:10023000B1E81850203AA0E81850B1E81850A0E8EA
:100240001850BFF4F5AF5FEA027C24BFB1E8185044
:10025000A0E8185044BF18C918C0BDE810405FEAB4
:10026000827C24BF51F8043B40F8043B08BF704730
:10027000D20728BF31F8023B48BF11F8012B28BF35
:1002800020F8023B48BF00F8012B70474FF00002F6
:1002900000B5134694469646203922BFA0E80C507C
:1002A000A0E80C50B1F12001BFF4F7AF090728BF57
:1002B000A0E80C5048BF0CC05DF804EB890028BFD3
:1002C00040F8042B08BF704748BF20F8022B11F0FC
:1002D000804F18BF00F8012B704770477047704778
:1002E000704710B500F01AF8006810BD10B504464C
:1002F00000F014F8046010BD074B70B50D467B4448
:1003000000F015F80446284600F024F810B14FF02C
:10031000FF3070BD204670BDC356000000487047D6
:10032000E808002001694A1C02610878704700B59E
:100330008FB0CDE901310021059105497944CDE91E
:1003400003101146684600F032F80FB000BD0000FF
:10035000E5FFFFFF007B00F080007047004870471A
:10036000E80800207546FFF7F9FFAE46050069462C
:10037000534620F00700854618B020B5FFF734FF3C
:10038000BDE820404FF000064FF000074FF0000896
:100390004FF0000B21F00701AC46ACE8C009ACE817
:1003A000C009ACE8C009ACE8C0098D4670472DE92A
:1003B000F04106460024D6E90170F56880463046D3
:1003C00003E04146B847641C3046A8470028F8D1EE
:1003D0002046BDE8F08110B50446AFF3008020460A
:1003E000BDE81040FFF7EBBE00BFFEE72DE9FE4F72
:1003F00006460C461546A660E168A86806F080FE31
:1004000002902169686806F07BFE8246216868696F
:1004100006F076FE01906168286906F071FE009092
:10042000A168E86806F06CFE8346009906F082FC3D
:100430008146019906F07EFC8046514606F098FF01
:100440000746029906F094FF606160682060A0682A
:1004500060602069E060616921616069BDE8FE8FCC
:1004600010B586B0002003900490059018A0FFF707
:10047000CFFE002417E001A802F00EFDBDF9041024
:10048000039808440390BDF90610049808440490AA
:10049000BDF90800A0F58050059908440590052095
:1004A00000F020FA641C642CE5DB039890FBF4F068
:1004B0000D490860049890FBF4F04860059890FBA3
:1004C000F4F0886009A0FFF7A3FE06B010BD00009D
:1004D0004163632043616C6962726174696F6E206D
:1004E00053746172740A0D002C0400204163632070
:1004F00043616C6962726174696F6E2053746F70CE
:100500000A0D000010B586B00020039004900590FD
:1005100017A0FFF77DFE002415E001A802F0EEFC15
:10052000BDF90410039808440390BDF9061004981F
:1005300008440490BDF9081005980844059005206A
:1005400000F0D0F9641C642CE7DB039890FBF4F016
:100550000E490860049890FBF4F04860059890FB01
:10056000F4F088600AA0FFF753FE06B010BD00004B
:100570004779726F2043616C6962726174696F6E52
:100580002053746172740A0D0000000038040020CA
:100590004779726F2043616C6962726174696F6E32
:1005A0002053746F700A0D002DE9F04175497648AB
:1005B000006806F0A5FD804606F090FB064605F0B3
:1005C000EFFC044605F01CFE704908606D496E485A
:1005D000006806F095FD804606F080FB064605F0B3
:1005E000E5F8044605F00CFE69490860654969486C
:1005F000006806F085FD804606F070FB064605F0B3
:10060000CFFC044605F0FCFD634908605D49614884
:10061000006806F075FD804606F060FB064605F0B2
:10062000C5F8044605F0ECFD5C49086055495C4896
:10063000006806F065FD804606F050FB064605F0B2
:10064000AFFC044605F0DCFD564908604D495448AE
:10065000006806F055FD804606F040FB064605F0B2
:10066000A5F8044605F0CCFD4F4908604B480168E9
:100670004D48006806F044FD4C490860494801684F
:100680004348006806F03CFD0546434801683F4882
:10069000006806F035FD064643480168304606F01E
:1006A0002FFD0446294606F063FE404948603A485B
:1006B00001683748006806F023FD06463A4801689D
:1006C000304606F01DFD0446364801682F48006894
:1006D00006F016FD0546214606F02CFB33498860DE
:1006E0002E4801682F48006806F00AFD2F49C860AF
:1006F0002D4801682648006806F002FD0546264898
:1007000001682248006806F0FBFC0646254801689F
:10071000304606F0F5FC0446294606F00BFB23495B
:100720000861214801681948006806F0E9FC05469F
:10073000194801681648006806F0E2FC06461948A8
:100740000168304606F0DCFC0446294606F010FE3F
:10075000164948611048006880F0004088610F48E1
:1007600001680A48006806F0CBFC1049C8610B48D4
:1007700001680748006806F0C3FC0C490862BDE840
:10078000F081000035FA8E3C400000204800002037
:1007900054000020440000204C000020580000209D
:1007A0003C000020500000205C00002000050020DC
:1007B0007047704772B600BFFEE7000072B6234A6A
:1007C000516A027802BB01220270214A1268126942
:1007D00002F0010262B141F28832914208D21D4A10
:1007E0001268521C42F2107303FB0212826006E090
:1007F000184A126842F2107303FB02128260826888
:1008000042600022C2601FE082684260104A1268A3
:10081000126902F0010262B141F28832914208D2BB
:100820000C4A1268521C42F2107303FB02128260DF
:1008300006E0084A126842F2107303FB021282605B
:10084000D0E90132D21AC26062B67047001000408F
:10085000F80100201C0000200146002209B90120F7
:1008600070471E4B086898420BD21D4B0868C01A8F
:100870001423B0FBF3F08000086419480838C863FB
:100880000AE0164B0868C01A1423B0FBF3F080008E
:10089000086412480838C863022081F821000868FB
:1008A000026843F6F0708243D1E901031843CB6834
:1008B00018430B6918434B6918438B691843CB697C
:1008C000184302430868026000208863012081F811
:1008D0002100002081F8200000BFC1E70804024089
:1008E0000800024070B5044600F0B0F906462546FF
:1008F000681C10B104480078054400BF00F0A6F958
:10090000801BA842FAD370BD0C0000202DE9F847E7
:10091000024600239C467BE14FF0010808FA03F4ED
:10092000D1F8008008EA0400A0427DD1DFF8F4A2EB
:10093000D1F80480A8EB0A09D0453AD014DCB8F10C
:10094000030F50D009DCB8F1000F31D0B8F1010F1E
:100950001CD0B8F1020F49D120E0B8F1110F18D026
:10096000B8F1120F42D11EE0B9F5881F25D006DC80
:10097000B9F5803F20D0B9F5801F37D11AE0B9F51D
:10098000001F18D0B9F5041F30D117E0D1F80CC002
:100990002DE0D1F80C8008F1040C28E0D1F80C808F
:1009A00008F1080C23E0D1F80C8008F10C0C1EE0D3
:1009B00000BF00BF00BF00BF00BF00BFD1F808806C
:1009C000B8F1000F02D14FF0040C0BE0D1F8088011
:1009D000B8F1010F03D14FF0080C146102E04FF0A1
:1009E000080C546103E04FF0000C00E000BF00BFB2
:1009F000FF2801D8904601E002F104084646FF288E
:100A000002D84FEA830803E0A3F108084FEA8808F8
:100A10004746D6F800804FF00F0909FA07F928EA8F
:100A200009080CFA07F900E07AE048EA0908C6F874
:100A30000080D1F8048008F08058B8F1805F6FD151
:100A400000BFDFF8E481D8F8188048F00108DFF82B
:100A5000D891C9F81880C846D8F8188008F001085D
:100A6000CDF8008000BF00BF4FEAB9384FEA9309C4
:100A700058F829504FEA83784FEA18794FF00F0859
:100A800008FA09F825EA0805DFF8A081424502D1F5
:100A90004FF0000824E0DFF89881424502D14FF082
:100AA00001081DE0DFF88C81424502D14FF00208B9
:100AB00016E0DFF88481424502D14FF003080FE0D1
:100AC000DFF87881424502D14FF0040808E0DFF8F2
:100AD0007081424502D14FF0050801E04FF0060851
:100AE0004FEA83794FEA197908FA09F848EA0505C7
:100AF000DFF850814FEA930948F82950D1F8048073
:100B000008F48038B8F5803F0BD1DFF83C81D8F885
:100B1000008048EA0008DFF83091C9F800800AE058
:100B200075E0DFF82481D8F8008028EA0008DFF8B3
:100B30001891C9F80080D1F8048008F40038B8F59D
:100B4000003F0ED1DFF8008108F10408D8F80080DA
:100B500048EA0008DFF8F09009F10409C9F80080BC
:100B60000DE0DFF8E48008F10408D8F8008028EAF6
:100B70000008DFF8D49009F10409C9F80080D1F821
:100B8000048008F48018B8F5801F0ED1DFF8B88013
:100B900008F10808D8F8008048EA0008DFF8A890B3
:100BA00009F10809C9F800800DE0DFF89C8008F120
:100BB0000808D8F8008028EA0008DFF88C9009F1CE
:100BC0000809C9F80080D1F8048008F40018B8F5C5
:100BD000001F0ED1DFF8708008F10C08D8F80080F3
:100BE00048EA0008DFF8609009F10C09C9F80080B4
:100BF0000DE0DFF8548008F10C08D8F8008028EAEE
:100C00000008DFF8449009F10C09C9F800805B1C6A
:100C1000D1F8008028FA03F8B8F1000F7FF47CAE19
:100C2000BDE8F887000011100010024000080140E4
:100C3000000C014000100140001401400018014068
:100C4000001C014008000140000401400148006808
:100C5000704700000400002070B504460CB9012064
:100C600070BD94F83D0028B9002084F83C0020466F
:100C700000F03EFB242084F83D002068006820F04E
:100C80000100216808602068006840F40040216885
:100C900008602068006820F400402168086000F0C7
:100CA000FFFC05465C496068884206D85B4885427F
:100CB00001D2012007E0002005E05948854201D219
:100CC000012000E00020012800D1C9E75548B5FB0C
:100CD000F0F62068406820F03F003043216848600B
:100CE0004D496068884201D8701C07E04FF4967047
:100CF00070434FF47A71B0FBF1F0401C2168096A2F
:100D000021F03F0108432168086243496068884236
:100D100014D8681E61684900B0FBF1F0401CC0F3B4
:100D20000B00042801D204203DE0681E61684900E0
:100D3000B0FBF1F0401CC0F30B0034E0A06838B900
:100D4000681E616801EB4101B0FBF1F0401C0AE054
:100D5000681E616801EBC10202EB0111B0FBF1F00A
:100D6000401C40F48040C0F30B0008B901201AE099
:100D7000A06848B9681E616801EB4101B0FBF1F061
:100D8000401CC0F30B000CE0681E616801EBC1025F
:100D900002EB0111B0FBF1F0401CC0F30B0040F47A
:100DA000804040F400402168C9694CF6FF729143CD
:100DB00008432168C861D4E907010843216809682C
:100DC00021F0C001084321680860D4E903100843FA
:100DD0002168896848F2FF3291430843216888609E
:100DE000D4E9050108432168C96821F0FF010843DF
:100DF0002168C8602068006840F001002168086030
:100E000000202064202084F83D000020206384F826
:100E10003E0000BF24E70000A086010080841E0081
:100E200000093D0040420F002DE9FE4F04460F46E9
:100E300090469946DDE90CAB0E9E00200290FFF72C
:100E400005FF054694F83D00202872D119230122A0
:100E5000CA492046009501F0D5FE10B10220BDE838
:100E6000FE8F00BF94F83C00012801D10220F6E774
:100E7000012084F83C0000BF2068006800F00100F9
:100E800028B92068006840F00100216808602068E7
:100E9000006820F4006021680860222084F83D008A
:100EA000402084F83E0000202064C4F824A0A4F868
:100EB0002AB0608D2085B248E0624B4642463946F2
:100EC0002046CDE9006501F04FFD08B10120C6E7DD
:100ED000208D88B900BF00200190206840690190F2
:100EE00020688069019000BF00BF2068006840F45E
:100EF0000070216808604BE0208D01281AD120681D
:100F0000006820F480602168086072B600BF00208D
:100F1000019020684069019020688069019000BFBD
:100F200000BF2068006840F400702168086062B665
:100F30002EE020E1208D022819D12068006840F4BD
:100F400000602168086072B600BF00200190206830
:100F50004069019020688069019000BF00BF20684F
:100F6000006820F480602168086062B610E02068A4
:100F7000006840F480602168086000BF0020019094
:100F800020684069019020688069019000BF00BF1F
:100F9000E2E0208D03287DD8208D012815D12A4636
:100FA0003146204601F0D3FE08B1012057E7206802
:100FB0000069616A0870606A401C6062208D401E92
:100FC0002085608D401E6085C6E0208D02282CD1D2
:100FD000334600226B492046009501F013FE08B10C
:100FE00001203CE772B62068006840F40070216878
:100FF000086020680069616A0870606A401C60626D
:10100000208D401E2085608D401E608562B6206860
:101010000069616A0870606A401C6062208D401E31
:101020002085608D401E608596E03346002255493C
:101030002046009501F0E6FD08B101200FE7206889
:10104000006820F480602168086072B6206800693A
:10105000616A0870606A401C6062208D401E2085B5
:10106000608D401E6085484800681921B0FBF1F092
:101070004FF47A71B0FBF1F0C0EBC00000EB8000E0
:10108000029000BF0298401E02900298A8B900206A
:10109000206300E039E0202084F83D00002084F83F
:1010A0003E00206C40F02000206462B600BF0020AB
:1010B00084F83C0000BF0120D1E620684069C0F3FD
:1010C00080000028DED02068006840F400702168AD
:1010D000086020680069616A0870606A401C60628C
:1010E000208D401E2085608D401E608562B6206880
:1010F0000069616A0870606A401C6062208D401E51
:101100002085608D401E608526E02A4631462046B7
:1011100001F01DFE08B10120A1E620680069616AA6
:101120000870606A401C6062208D401E2085608DC2
:10113000401E608520684069C0F3800060B120686F
:101140000069616A0870606A401C6062208D401E00
:101150002085608D401E6085208D00287FF419AFAA
:10116000202084F83D00002084F83E0000BF84F871
:101170003C0000BF73E6022071E600000200100090
:101180000000FFFF04000100100000202DE9FC5FBB
:1011900004460F4690469946DDE90CAB0E9EFFF7DC
:1011A00055FD054694F83D0020287DD119230122E4
:1011B0004D492046009501F025FD10B10220BDE803
:1011C000FC9F00BF94F83C00012801D10220F6E703
:1011D000012084F83C0000BF2068006800F0010096
:1011E00028B92068006840F0010021680860206884
:1011F000006820F4006021680860212084F83D0028
:10120000402084F83E0000202064C4F824A0A4F804
:101210002AB0608D20853548E0624B46424639460B
:101220002046CDE9006501F04FFC08B10120C6E77A
:1012300031E02A463146204601F0C9FD50B1206C0C
:10124000042805D12068006840F400702168086017
:101250000120B4E7606A007821680861606A401C78
:101260006062208D401E2085608D401E6085206854
:101270004069C0F3800070B1208D60B1606A007871
:1012800021680861606A401C6062208D401E2085D4
:10129000608D401E6085208D0028CAD12A463146C7
:1012A000204601F081FC00E01CE050B1206C0428D5
:1012B00005D12068006840F40070216808600120B2
:1012C0007DE72068006840F40070216808602020F5
:1012D00084F83D00002084F83E0000BF84F83C0004
:1012E00000BF6CE702206AE7020010000000FFFF69
:1012F00010B586B00446002002900390049005903B
:1013000015492068884225D100BF1448806940F003
:101310000800124988610846806900F008000190C1
:1013200000BF00BFC0200290122003900320059050
:1013300002A90B48FFF7EAFA00BF0848C06940F469
:1013400000100649C8610846C06900F40010019009
:1013500000BF00BF06B010BD0054004000100240A6
:10136000000C01400348006803490978084401491A
:1013700008607047040000200C00002010B50848E9
:10138000006840F0100006490860032000F0A8F84B
:101390000F2000F007F800F02BF8002010BD00002F
:1013A0000020024070B504460E4800784FF47A7170
:1013B000B1FBF0F00C490968B1FBF0F5284600F0EC
:1013C0000BFC08B1012070BD102C07D20022214671
:1013D000501E00F047F80548046001E00120F2E7E4
:1013E0000020F0E70C000020100000200800002082
:1013F00008B500BF1148806940F001000F498861BD
:101400000846806900F00100009000BF00BF00BFE7
:101410000846C06940F08050C8610846C06900F0C5
:101420008050009000BF00BF00BF0549486820F011
:10143000E06040F00070486000BF08BD001002404E
:101440000000014001460846002809DB00F01F03A8
:1014500001229A4043099B0003F1E023C3F80021D5
:1014600000BF70472DE9F05F80460D461646002705
:1014700002F0BAFA074639462A46334601F0070019
:10148000C0F1070ABAF1040F02D94FF0040A01E0D3
:10149000C0F1070AD14600F1040ABAF1070F02D2DF
:1014A0004FF0000A01E0A0F1030AD4464FF0010A10
:1014B0000AFA09FAAAF1010A0AEA020A0AFA0CFA75
:1014C0004FF0010B0BFA0CFBABF1010B0BEA030B1A
:1014D0004AEA0B042146404602F08EFABDE8F09F2E
:1014E00000BF00F00702064B19684FF6FF031940D2
:1014F000044B0B4343EA0221014B196000BF7047C4
:101500000CED00E00000FA0570B504460D460CB97C
:10151000012070BD5A48006800F00700A8420ED2B2
:101520005748006820F007002843554908600846DE
:10153000006800F00700A84201D00120E9E7207808
:1015400000F0020002281DD1207800F004000428D9
:1015500005D14C48406840F4E0604A494860207832
:1015600000F00800082805D14648406840F4605063
:10157000444948604348406820F0F000A1680843AF
:1015800040494860207800F0010078B36068012885
:1015900006D13C48006800F4003090B90120B8E75B
:1015A0006068022806D13748006800F0007040B932
:1015B0000120AEE73348006800F0020008B90120BE
:1015C000A7E73048406820F00300616808432D49D0
:1015D0004860FFF73BFB064609E0FFF737FB801B3F
:1015E00041F28831884202D9032092E707E025487A
:1015F000406800F00C006168B0EB810FEDD120482D
:10160000006800F00700A8420ED91D48006820F0CD
:10161000070028431A4908600846006800F00700E0
:10162000A84201D0012074E7207800F004000428CB
:1016300007D11448406820F4E060E168084311498C
:101640004860207800F00800082808D10D4840685C
:1016500020F46050216940EAC1000A49486000F066
:101660003FF808494968C1F30311074A515CC84073
:101670000649086006480068FFF794FE002048E726
:101680000020024000100240967500081000002063
:10169000080000200148006870470000100000208A
:1016A00000B5FFF7F7FF04494968C1F30221034A77
:1016B000515CC84000BD000000100240A675000843
:1016C00000B5FFF7E7FF04494968C1F3C221034AA7
:1016D000515CC84000BD000000100240A675000823
:1016E000F0B585B00FF26C0C9CE8E01001A8A0E802
:1016F000E0101CA52D680095002100220023002485
:101700000020194D696801F00C05F5B1042D02D0D7
:10171000082D19D101E0154819E001ADC1F3834648
:10172000AC5D01F4803555B10F4D6D68C5F3404592
:101730001DF805200D4D6543B5FBF2F302E00C4D9D
:1017400004FB05F3184602E000BF084800BF00BFD5
:1017500005B0F0BD02030405060708090A0B0C0DCD
:101760000E0F1010010200000010024000127A005B
:1017700000093D00F8B504460CB90120F8BD2078F9
:1017800000F00100002878D0F848406800F00C0014
:1017900004280CD0F548406800F00C00082811D14E
:1017A000F248406800F48030B0F5803F0AD1EF483D
:1017B000006800F4003000285FD0606800285CD129
:1017C0000120DBE700BF6068B0F5803F06D1E74845
:1017D000006840F48030E549086028E0606858B946
:1017E000E248006820F48030E0490860084600685C
:1017F00020F4802008601AE06068B0F5A02F0BD1BB
:10180000DA48006840F48020D8490860084600683B
:1018100040F4803008600AE0D448006820F480304A
:10182000D24908600846006820F48020086000BFA4
:10183000606888B1FFF70AFA054606E0FFF706FA86
:10184000401B642801D9032098E7C848006800F4C9
:1018500000300028F2D010E0FFF7F8F9054606E066
:10186000FFF7F4F9401B642801D9032086E7BF483D
:10187000006800F400300028F2D1207800F0020067
:10188000022857D1B948406800F00C0050B1B74861
:10189000406800F00C00082818D1B448406800F4F3
:1018A000803098B9B148006800F0020020B120698A
:1018B000012801D0012061E7AC48006820F0F80061
:1018C000616940EAC100A949086033E02069E8B1D4
:1018D0000120A7490860FFF7B9F9054606E0FFF7C0
:1018E000B5F9401B022801D9032047E79F4800684B
:1018F00000F002000028F2D09C48006820F0F800B8
:10190000616940EAC1009949086013E000209849E4
:101910000860FFF79BF9054606E0FFF797F9401BC3
:10192000022801D9032029E79048006800F002004E
:101930000028F2D1207800F0080008282DD1A069F5
:10194000B8B101208B490860FFF780F9054606E031
:10195000FFF77CF9401B022801D903200EE78348DA
:10196000406A00F002000028F2D0012001F024FDBE
:1019700013E000207F490860FFF768F9054606E09C
:10198000FFF764F9401B022801D90320F6E67748E7
:10199000406A00F002000028F2D1207800F0040034
:1019A000042873D100277148C06900F0805070B9D5
:1019B00000BF6E48C06940F080506C49C86108465D
:1019C000C06900F08050009000BF00BF01276A4846
:1019D000006800F48070B0B96748006840F4807017
:1019E00065490860FFF732F9054606E0FFF72EF972
:1019F000401B642801D90320C0E65F48006800F45A
:101A000080700028F2D000BFE068012806D1574856
:101A1000006A40F001005549086227E0E06858B9C3
:101A20005248006A20F00100504908620846006AE6
:101A300020F00400086219E0E06805280BD14B484B
:101A4000006A40F00400494908620846006A40F014
:101A5000010008620AE04548006A20F0010043499D
:101A600008620846006A20F00400086200BFE068CF
:101A7000A0B1FFF7EBF8054609E0FFF7E7F8401BD8
:101A800041F28831884202D9032077E622E03748C4
:101A9000006A00F002000028EFD012E0FFF7D6F84D
:101AA000054608E0FFF7D2F8401B41F28831884232
:101AB00001D9032062E62D48006A00F002000028E8
:101AC000F0D1012F05D12948C06920F08050274965
:101AD000C86100BFE069C8B32448406800F00C004A
:101AE000082860D0E069022848D100202049086613
:101AF000FFF7ACF8054606E0FFF7A8F8401B022800
:101B000001D903203AE61948006800F00070002867
:101B1000F2D1206AB0F5803F07D11448406820F424
:101B20000030A168084311494860D4E9080108431E
:101B30000E49496821F4741108430C49486001209A
:101B40000B490866FFF782F8054607E03DE0FFF71E
:101B50007DF8401B022801D903200FE603480068E6
:101B600000F000700028F2D02FE0000000100240CA
:101B700000004242800442420070004000201449AC
:101B80000866FFF763F8054606E0FFF75FF8401BBD
:101B9000022801D90320F1E50E48006800F000702A
:101BA0000028F2D111E0E069012800D1E6E50948FA
:101BB000466806F48031206A814204D106F470112F
:101BC000606A814201D00120D8E50020D6E50000FE
:101BD000000042420010024070B504462546681ECF
:101BE000B0F1807F01D301200FE0681E4FF0E021AB
:101BF00048610F214FF0FF3001F0FEFE00204FF052
:101C0000E021886107200861002070BD704770479F
:101C100010B50346002200BF93F83C00012801D113
:101C2000022010BD012083F83C0000BF22F0FF001D
:101C3000CC6840EA040222F440708C6840EA040256
:101C400022F480604C6840EA040222F400600C68D0
:101C500040EA040222F480500C6940EA040222F4B3
:101C600000504C6940EA040222F48040CC6940EA0A
:101C700004021868426400BF002083F83C0000BFE3
:101C800000BFCEE730B502460B4600BF92F83C00DD
:101C9000012801D1022030BD012082F83C0000BFA4
:101CA000022082F83D00106844681068816824F0C2
:101CB00070041868044310684460144D1068A8420A
:101CC00013D0134D1068A8420FD01068B0F1804FA8
:101CD0000BD0104D1068A84207D00F4D1068A842D5
:101CE00003D00E4D1068A84205D121F0800158683C
:101CF000014310688160012082F83D0000BF002090
:101D000082F83C0000BF00BFC5E70000002C014086
:101D1000003401400004004000080040000C004076
:101D200010B504460CB9012010BD94F83D0028B947
:101D3000002084F83C00204600F026F8022084F8B9
:101D40003D00211D206801F02FFC012084F8460091
:101D500000BF84F83E0001213F200155402001557D
:101D60004120015500BF00BF012084F842004320FC
:101D70000155442001554520015500BF012084F83C
:101D80003D000020D0E7000038B504461F49206818
:101D900088420DD100BF1E48806940F400601C4994
:101DA00088610846806900F40060009000BF2BE065
:101DB0001849206888420DD100BF1548C06940F01D
:101DC00004001349C8610846C06900F0040000908F
:101DD00000BF19E010492068884215D100BF0C48A7
:101DE000C06940F010000A49C8610846C06900F0A7
:101DF0001000009000BF00BF002211463620FFF700
:101E000031FB3620FFF71EFB38BD0000002C0140DF
:101E1000001002400008004000100040014691F808
:101E20003D00012801D001207047022081F83D00CB
:101E30000868C06840F001000B68D860164B08685D
:101E4000984213D0154B086898420FD00868B0F13B
:101E5000804F0BD0124B0868984207D0114B08688E
:101E6000984203D0104B086898420CD108688068EB
:101E700000F00702062A0CD00868006840F0010054
:101E80000B68186005E00868006840F001000B6806
:101E900018600020C8E70000002C01400034014019
:101EA0000004004000080040000C00402DE9F04113
:101EB00004460D4600BF94F83C00012802D10220E0
:101EC000BDE8F081012084F83C0000BF022084F8C6
:101ED0003D002068866826F0770626F47F46206855
:101EE00086602868502833D00CDC202850D004DCD1
:101EF00000284BD0102851D149E0302849D0402843
:101F00004CD139E060282DD0702807D0B0F5805F23
:101F100003D0B0F5005F41D10DE040E0D5E90213F8
:101F20006A68206801F09FFB2068866846F07706A3
:101F30002068866033E0D5E902136A68206801F002
:101F400092FB2068806840F480402168886026E029
:101F5000EA686968206801F077FC5021206801F088
:101F60008DFB1CE0EA686968206801F080FC602154
:101F7000206801F083FB12E0EA686968206801F0DC
:101F800063FC4021206801F079FB08E000BF00BF3E
:101F900000BF2968206801F071FB00E000BF00BFAE
:101FA000012084F83D0000BF002084F83C0000BF01
:101FB00000BF85E72DE9F04104460D4614B9012024
:101FC000BDE8F08194F83D0028B9002084F83C0079
:101FD000204600F051F8022084F83D002068806817
:101FE00044F20701884321688860211D206801F0C0
:101FF000DBFA2068D0F80880206886692068076AC4
:10200000286840EA080840F203308643A969A868B6
:1020100040EA0120064340F60C4086434FF2F000B0
:102020008643E969E86840EA01200643286900011F
:10203000296A40EA0130064327F022076969686887
:1020400040EA011007432068C0F8088020688661D4
:1020500020680762012084F8460084F83E000121D0
:102060003F200155012084F8420043200155012002
:1020700084F83D000020A3E710B586B00446002098
:1020800002900390049005902068B0F1804F24D115
:1020900000BF2748C06940F001002549C8610846D3
:1020A000C06900F00100019000BF00BF00BF0846FA
:1020B000806940F0040088610846806900F00400EF
:1020C000019000BF00BF0320029000200390049005
:1020D00002A91848FEF71AFC27E017492068884231
:1020E00023D100BF1248C06940F002001049C86106
:1020F0000846C06900F00200019000BF00BF00BFA9
:102100000846806940F0040088610846806900F054
:102110000400019000BF00BFC02002900020039087
:10212000049002A90348FEF7F1FB06B010BD0000C1
:102130000010024000080140000400402DE9F04377
:1021400004460D4694F83E603F20075D94F84280B7
:10215000432010F804906DB9012E02D1B8F1010F9F
:1021600002D00120BDE8F083022084F83E0084F80C
:10217000420025E0042D0CD1012F02D1B9F1010F4D
:1021800001D00120EEE702213F20015543200155F7
:1021900016E0012E07D1012F05D1B8F1010F02D1B0
:1021A000B9F1010F01D00120DCE7022084F83E00E4
:1021B00002213F200155022084F8420043200155AE
:1021C00015B1042D0CD105E001220021206801F099
:1021D00039FA10E001220421206801F033FA0AE004
:1021E00001220021206801F02DFA0122042120683B
:1021F00001F028FA00BF00BF2068006840F001002D
:10220000216808600020ADE7704710B504462068DB
:102210000069C0F34000D8B12068C068C0F3400036
:10222000B0B16FF0020021680861012020772068BA
:10223000806900F0030018B12046FFF7E5FF05E0D4
:10224000204600F0FBF8204600F0ABF90020207794
:1022500020680069C0F38000D8B12068C068C0F36E
:102260008000B0B16FF0040021680861022020777F
:102270002068806900F4407018B12046FFF7C4FF61
:1022800005E0204600F0DAF8204600F08AF9002048
:10229000207720680069C0F3C000D8B12068C0680A
:1022A000C0F3C000B0B16FF00800216808610420DD
:1022B00020772068C06900F0030018B12046FFF7BE
:1022C000A3FF05E0204600F0B9F8204600F069F9C8
:1022D0000020207720680069C0F30010D8B1206882
:1022E000C068C0F30010B0B16FF010002168086141
:1022F000082020772068C06900F4407018B120469B
:10230000FFF782FF05E0204600F098F8204600F035
:1023100048F9002020772068006900F0010058B1DA
:102320002068C06800F0010030B16FF00100216842
:102330000861204600F0B0F920680069C0F3C010C1
:1023400058B12068C068C0F3C01030B16FF0800091
:10235000216808612046FFF759FC20680069C0F336
:10236000801058B12068C068C0F3801030B16FF0A1
:10237000400021680861204600F030FA20680069BA
:10238000C0F3401058B12068C068C0F3401030B1AD
:102390006FF02000216808612046FFF738FC10BD6F
:1023A00010B586B00446002002900390049005907A
:1023B0001D492068884218D100BF1C48806940F040
:1023C00004001A4988610846806900F00400019001
:1023D00000BF00BF4FF410600290022003900590F0
:1023E00002A91348FEF792FA1BE0124920688842BE
:1023F00017D100BF0D48806940F008000B49886183
:102400000846806900F00800019000BF00BF4FF44B
:102410004070029002200390059002A90648FEF742
:1024200075FA06B010BD0000002C014000100240FB
:102430000008014000080040000C0140704770B5E2
:1024400004460D46164600BF94F83C00012801D111
:10245000022070BD012084F83C0000BF36B1042E7C
:102460001BD0082E31D00C2E5ED145E029462068C5
:1024700001F00EF92068806940F008002168886149
:102480002068806920F004002168886120688069E4
:10249000296908432168886147E02946206801F0DE
:1024A0002FF92068806940F4006021688861206805
:1024B000806920F4806021688861206880692969CA
:1024C00040EA0120216888612FE02946206801F058
:1024D00055F92068C06940F008002168C86120688B
:1024E000C06920F004002168C8612068C0692969BA
:1024F00008432168C86118E02946206801F07AF98C
:102500002068C06940F400602168C8612068C06923
:1025100020F480602168C8612068C069296940EAA8
:1025200001202168C86100E000BF00BF00BF00209B
:1025300084F83C0000BF00BF8BE710B504460CB91F
:10254000012010BD94F83D0028B9002084F83C001B
:10255000204600F025F8022084F83D00211D206867
:1025600001F022F8012084F8460000BF84F83E0004
:1025700001213F200155402001554120015500BF58
:1025800000BF012084F8420043200155442001553A
:102590004520015500BF012084F83D000020D0E710
:1025A0007047704770B504460D4615B994F83E0063
:1025B0000BE0042D02D13F20005D06E0082D02D182
:1025C0004020005D01E04120005D012801D0012094
:1025D00070BD1DB9022084F83E000EE0042D03D129
:1025E00002213F20015508E0082D03D1022140209F
:1025F000015502E0022141200155012229462068AF
:1026000001F020F81F492068884203D01E49206845
:10261000884201D1012000E0002028B12068406CF0
:1026200040F400402168486416492068884213D06D
:102630001549206888420FD02068B0F1804F0BD038
:1026400012492068884207D011492068884203D087
:102650001049206888420CD12068806800F0070685
:10266000062E0CD02068006840F001002168086048
:1026700005E02068006840F0010021680860002043
:10268000A6E70000002C0140003401400004004097
:1026900000080040000C00402DE9F84F022003F034
:1026A00063FC06463146414800F01AFF0446032009
:1026B00003F05AFC064631463D4800F011FF05463E
:1026C0003C480068401C3B4908603B480068006883
:1026D0000521B0FBF1F201FB1200002864D137485C
:1026E0000068401C3549086003F07AF901F0BCFD30
:1026F000204604F089FC32490861284604F084FC35
:10270000304908612E480069096908442E498861EA
:1027100000BF2E4801682E4804F0F2FC00902D48BE
:10272000006804F071FC4FF41B7100FB01FB58467C
:1027300004F086FC8246009904F0FCFA814604F01D
:1027400063FC064600BF00BF00201E4948611C49CB
:10275000486121491B4803F0A1FA1F49184803F0BA
:102760009DFA304604F06CFC8246154801685046DC
:1027700004F0FEFD814604F047FC0746304604F0B5
:102780005FFC82460F480168504604F0F1FD814627
:1027900004F03AFC80464146012003F085FB794273
:1027A000022003F081FB00BFBDE8F88FA0080020E5
:1027B000C408002014000020180000201C00002085
:1027C000440400205C040020C80200208C06002085
:1027D0000000C0404000002074040020704710B585
:1027E00004460CB9012010BDA06900B100E000BF93
:1027F00094F83D0028B9002084F83C00204600F001
:1028000027F8242084F83D002068C06820F4005098
:102810002168C860204601F03FF82068006920F474
:102820009040216808612068406920F02A002168F2
:1028300048612068C06840F400502168C8600020EA
:102840002064202084F83D0084F83E000020CAE780
:1028500010B586B0044600200290039004900590C5
:102860002B492068884251D100BF2A48C06940F4F2
:1028700080202849C8610846C06900F48020019082
:1028800000BF00BF00BF0846806940F008008861B3
:102890000846806900F00800019000BF00BF0815DD
:1028A0000290022003900320059002A91A48FEF727
:1028B0002DF84FF40060029000200390049002A9CC
:1028C0001548FEF723F815481549086000204860B0
:1028D0000021134881608021C160002101614161B4
:1028E00081614FF48051C161FDF7B6FF08B1FDF77A
:1028F00061FF00BF0A48A063446200BF0022114686
:102900002720FEF7AFFD2720FEF79CFD06B010BD87
:102910000048004000100240000C0140300002401E
:102920008402002000BFFEE7014608684069C0F34A
:102930008020B0B16FF480600A68506100200863A5
:10294000202081F83D00002081F83E00086C40F016
:102950000400086400BF002081F83C0000BF012093
:1029600070470020FCE700002DE9F84304460F46BD
:1029700015469946DDE908862068006840F48060C5
:10298000216808602068006840F480702168086051
:10299000434600224FF001112046009600F032F924
:1029A00060B12068006800F48070B0F5807F02D1CB
:1029B0004FF4007020640320BDE8F88307F0FE00A8
:1029C00021680861334642463E49204600F05DF9E1
:1029D00008B10120F0E700BF0020009020684069A6
:1029E000009020688069009000BF00BF32464146D9
:1029F000204600F0ECF950B1206C042805D1206885
:102A0000006840F40070216808600120D4E7B9F143
:102A1000010F03D1E8B22168086117E0C5F3072070
:102A20002168086132464146204600F0D0F950B195
:102A3000206C042805D12068006840F400702168EB
:102A400008600120B8E7E8B22168086132464146D3
:102A5000204600F0BCF950B1206C042805D1206854
:102A6000006840F40070216808600120A4E7206835
:102A7000006840F4807021680860434600224FF0EF
:102A800001112046009600F0BDF858B1206800689A
:102A900000F48070B0F5807F02D14FF400702064A4
:102AA000032089E7F8B240F001002168086133464D
:102AB00042460449204600F0E8F808B101207BE7CF
:102AC000002079E7020001002DE9F843044688461A
:102AD00015469946DDE908672068006840F4807073
:102AE00021680860334600224FF00111204600970C
:102AF00000F088F860B12068006800F48070B0F5DC
:102B0000807F02D14FF4007020640320BDE8F88379
:102B100008F0FE00216808613B4632462149204604
:102B200000F0B3F808B10120F0E700BF00200090EA
:102B300020684069009020688069009000BF00BF55
:102B40003A463146204600F042F950B1206C042844
:102B500005D12068006840F40070216808600120F9
:102B6000D4E7B9F1010F03D1E8B22168086117E099
:102B7000C5F30720216808613A463146204600F037
:102B800026F950B1206C042805D12068006840F473
:102B90000070216808600120B8E7E8B22168086188
:102BA0000020B3E70200010070B504460D4616464A
:102BB00020E02046FFF7B8FE08B1012070BD681C78
:102BC000C0B1FEF743F8801BA84200D895B9002099
:102BD0002063202084F83D00002084F83E00206C13
:102BE00040F02000206400BF002084F83C0000BFBB
:102BF0000120E3E720684069C0F380000028D8D0B6
:102C00000020DBE72DE9F04104460D4617461E463D
:102C1000DDF818801CE0701CD0B1FEF717F8A0EBAF
:102C20000800B04200D89EB900202063202084F81C
:102C30003D00002084F83E00206C40F0200020641D
:102C400000BF002084F83C0000BF0120BDE8F081F7
:102C5000C5F3074001280AD120684069A9B208409D
:102C6000A9B2884201D101200BE0002009E02068D0
:102C70008069A9B20840A9B2884201D1012000E0D0
:102C80000020B842C7D00020E0E72DE9F04104461B
:102C90000D4616461F463DE020684069C0F380207F
:102CA000E8B12068006840F40070216808606FF4A3
:102CB00080602168486100202063202084F83D0066
:102CC000002084F83E00206C40F00400206400BF27
:102CD000002084F83C0000BF0120BDE8F081701C9A
:102CE000C0B1FDF7B3FFC01BB04200D896B90020B9
:102CF0002063202084F83D00002084F83E00206CF2
:102D000040F02000206400BF002084F83C0000BF99
:102D10000120E2E7C5F3074001280AD12068406995
:102D2000A9B20840A9B2884201D101200BE00020DD
:102D300009E020688069A9B20840A9B2884201D19F
:102D4000012000E000200028A6D00020C5E770B5D3
:102D500004460D46164632E020684069C0F3001074
:102D6000A0B16FF01000216848610020206320208E
:102D700084F83D00002084F83E00206C206400BFF1
:102D8000002084F83C0000BF012070BDFDF75EFF0D
:102D9000801BA84200D895B900202063202084F829
:102DA0003D00002084F83E00206C40F020002064AC
:102DB00000BF002084F83C0000BF0120E5E7206848
:102DC0004069C0F380100028C6D00020DDE770B550
:102DD00004460D46164620E02046FFF7A5FD08B143
:102DE000012070BD681CC0B1FDF730FF801BA842F8
:102DF00000D895B900202063202084F83D000020F1
:102E000084F83E00206C40F02000206400BF0020C9
:102E100084F83C0000BF0120E3E720684069C0F36C
:102E2000C0100028D8D00020DBE708B56A4675211D
:102E3000682002F0DFFE9DF80000682801D1012023
:102E400008BD0020FCE770B50024002500BF06E0A7
:102E5000002500E06D1CB5F57A7FFBDB641CB4F542
:102E60007A7FF5DB00226B21682002F0DBFE002276
:102E70001921682002F0D6FE00221A21682002F0F3
:102E8000D1FE08221B21682002F0CCFE10221C215A
:102E9000682002F0C7FE70BD7CB50446052608E038
:102EA00006236A463B21682002F08CFE054605B9E0
:102EB00004E0301EA6F10101CEB2F1D100BF9DF8B1
:102EC00001009DF8001040EA012000B220809DF82A
:102ED00003009DF8021040EA012000B260809DF8D6
:102EE00005009DF8041040EA012000B2A08020886F
:102EF000208060886080A088A0807CBD7CB504466E
:102F0000052608E006236A464321682002F05AFE9F
:102F1000054605B904E0301EA6F10101CEB2F1D19B
:102F200000BF9DF801009DF8001040EA012000B2AA
:102F300020809DF803009DF8021040EA012000B2B5
:102F400060809DF805009DF8041040EA012000B261
:102F5000A0802088208060886080A088A0807CBDC0
:102F60002DE9F8430546052708E002236A4641217A
:102F7000682002F027FE044604B904E0381EA7F1D9
:102F80000101CFB2F1D100BF9DF801009DF8001002
:102F900040EA012006B2304604F052F88146054965
:102FA00003F03CFF8046044903F0C4FE2860BDE8FE
:102FB000F88300000000AA43B81E124200210160FD
:102FC000416001627047000008B500BF0A484069CF
:102FD00040F00100084948610846406900F00100DE
:102FE000009000BF00BF002211460D20FEF73AFA04
:102FF0000D20FEF727FA08BD0010024008B500BFFB
:103000001348806940F020001149886108468069B2
:1030100000F02000009000BF00BF00BF084680699C
:1030200040F0040088610846806900F004000090C8
:1030300000BF00BF00BF0846806940F008008861FB
:103040000846806900F00800009000BF00BF08BD7E
:103050000010024010B50B480B4908600B4848604F
:10306000002109488160C1604FF480410161002165
:1030700041618161C1610162FDF7EEFD08B1FDF7BB
:1030800099FB10BD0054004084000020A086010080
:1030900000B595B0002011901290139014900F90ED
:1030A00010901C2108A8FDF7F1F820216846FDF7D3
:1030B000EDF82F482F4908600020486000212D4876
:1030C000816041F61F41C1600021016141618021A1
:1030D0008161FEF725FE08B1FDF76CFB4FF48050CF
:1030E000119011A92348FEF7E1FE08B1FDF762FB3C
:1030F0002048FFF722FA08B1FDF75CFB00200F9093
:1031000010900FA91B48FEF7BDFD08B1FDF752FB5B
:1031100060200890002009900A900B900C900D9070
:103120000E90002208A91348FFF789F908B1FDF7AE
:1031300041FB0C2208A90F48FFF781F908B1FDF700
:1031400039FB0020009001900290039004904FF40E
:10315000005005900020079069460648FEF758FD8C
:1031600008B1FDF727FB0348FFF71AF915B000BDBA
:10317000002C0140D800002000B58BB0242102A80B
:10318000FDF784F80020009001904FF0804019492D
:103190000860002048600021164881604FF6FF71EA
:1031A000C160002101618161032002900020039031
:1031B00001200490002005900C200690002007902C
:1031C00001200890002009900C200A9002A90948CB
:1031D000FEF7F0FE08B1FDF7EDFA00200090019037
:1031E00069460448FEF74EFD08B1FDF7E3FA0BB05F
:1031F00000BD00002001002000B58BB0242102A8F2
:10320000FDF744F800200090019019481949086022
:10321000002048600021174881604FF6FF71C160AF
:1032200000210161816103200290002003900120B0
:103230000490002005900C200690002007900120AB
:103240000890002009900C200A9002A90948FEF776
:10325000B1FE08B1FDF7AEFA00200090019069467A
:103260000448FEF70FFD08B1FDF7A4FA0BB000BD4E
:10327000000400406801002000B58DB000200990D6
:103280000A900B900C90079008901C216846FCF760
:10329000FDFF24482449086000204860002122489E
:1032A000816041F61F41C16000210161802181617F
:1032B000FEF736FD08B1FDF77DFA4FF48050099016
:1032C00009A91948FEF7F2FD08B1FDF773FA16488F
:1032D000FFF733F908B1FDF76DFA00200790089069
:1032E00007A91148FEF7CEFC08B1FDF763FA60208C
:1032F00000900020019002900490082269460A483C
:10330000FFF79DF808B1FDF755FA0C22694606480B
:10331000FFF795F808B1FDF74DFA0348FFF740F8BD
:103320000DB000BD00080040B00100201CB5002019
:10333000009001900E480F49086047204860002126
:103340000C48816040F2E731C16080218161FEF765
:10335000E7FC08B1FDF72EFA0020009001906946C5
:103360000448FEF78FFC08B1FDF724FA1CBD0000ED
:1033700000100040F801002010B50B480B49086010
:103380004FF4E1304860002108488160C16001616C
:103390000C21416100218161C161FFF720FA08B170
:1033A000FDF708FA10BD0000004800404002002070
:1033B00000BFFEE700BFFEE708B508490968C90875
:1033C0004FF47A72B1FBF2F14143009100BF00BFAC
:1033D00000994A1E00920029F9D108BD1000002072
:1033E0002DE9FF5F07460D4614462946384603F08F
:1033F00015FD03903848039903F010FD804602F054
:1034000045FE06463146304603F07AFE8346334891
:1034100002F01AFA4FF08041019003F071FE8246EB
:10342000314603F06DFE81464FF07E5103F082FC81
:103430008046594603F07EFC02900021284603F0A6
:103440002BFE01D8BDE8FF9F3146304603F058FE01
:103450008046029903F0E2FCE0604FF08040E168B2
:1034600003F04EFE2061E16861614FF07E50206004
:103470003146304603F044FE82464FF07E5103F061
:1034800077FF81464FF0804103F03AFE8046029973
:1034900003F0C4FC60603146304603F031FE019019
:1034A0000E4802F0D1F94FF08041009003F028FE61
:1034B0008346314603F024FE82464FF07E5103F0EE
:1034C0004DFF8146019903F035FC8046029903F0D7
:1034D000A5FCA06000BFB5E7DA0F4940DA0F493F0D
:1034E00070B504460D46206803F0AAFD0646216A21
:1034F00003F034FF2062002005E0411C54F8211045
:1035000044F82010401C0728F7DBE561284603F04B
:1035100097FD0646216A03F00DFC20624FF08241C0
:10352000206A03F07BFC70BD10B5FDF71BFF10BDDA
:1035300000B58FB0282105A8FCF7A8FE1421684625
:10354000FCF7A4FE012005900004069000200790DF
:103550000120099002200C90C1030D914FF4E0115D
:103560000E9105A8FEF706F908B1FDF723F90F2023
:10357000009002200190002002904FF480600390A0
:103580000020049002216846FDF7BEFF08B1FDF758
:1035900011F90FB000BD704710B50248FEF735FEB7
:1035A00010BD0000F801002010B50268204B9842C1
:1035B0000ED0204B98420BD0B0F1804F08D01E4B5C
:1035C000984205D01D4B984202D01D4B984203D122
:1035D00022F070024B681A43154B98420ED0154BDF
:1035E00098420BD0B0F1804F08D0134B984205D0D1
:1035F000124B984202D0124B984203D122F44072EF
:10360000CB681A4322F080034C6943EA040202604B
:103610008B68C3620B688362054B984202D0054BEE
:10362000984201D10B6903630123436110BD00007F
:10363000002C01400034014000040040000800401C
:10364000000C004030B501F01F05012404FA05F319
:10365000046A9C430462046A01F01F0502FA05F53E
:103660002C43046230BD30B50C46816821F47F41A3
:1036700042EA032525432943816030BD0A4681681B
:1036800021F0700142F00703194381607047000088
:1036900030B5056A25F001050562026A4368846950
:1036A00024F0700424F003040D682C4322F002027D
:1036B0008D682A43104DA84200D103E00F4DA84267
:1036C00006D100BF22F00802CD682A4322F004028E
:1036D000094DA84202D0094DA84207D123F48073B6
:1036E00023F400734D692B438D692B434360846140
:1036F0004D684563026230BD002C0140003401403A
:1037000030B5056A25F010050562026A43688469D0
:1037100024F4E04424F440740D6844EA052422F0C3
:1037200020028D6842EA0512124DA84200D103E042
:10373000114DA84207D100BF22F08002CD6842EAB5
:10374000051222F040020B4DA84202D00A4DA842B9
:1037500009D123F4806323F400634D6943EA8503B0
:103760008D6943EA8503436084614D688563026225
:1037700030BD0000002C01400034014030B5056A26
:1037800025F480750562026A4368C46924F07004F8
:1037900024F003040D682C4322F400728D6842EA81
:1037A0000522124DA84200D103E0114DA84207D1D5
:1037B00000BF22F40062CD6842EA052222F4806252
:1037C0000A4DA84202D00A4DA84209D123F48053E1
:1037D00023F400534D6943EA05138D6943EA051349
:1037E0004360C4614D68C563026230BD002C014076
:1037F0000034014030B5056A25F480550562036A3E
:103800004468C26922F4E04222F440720D6842EA40
:10381000052223F400538D6843EA0533084DA8427E
:1038200002D0084DA84204D124F480444D6944EAF2
:1038300085144460C2614D680564036230BD0000B8
:10384000002C01400034014030B50B461446026A9A
:10385000056A25F001050562816921F0F00141EA60
:10386000041122F00A021A438161026230BD30B5B0
:103870000B461446056A25F0100505628169026A47
:1038800021F4704141EA043122F0A00242EA03121D
:103890008161026230BD000070B50446216809698B
:1038A00021F44051E2681143226811612269A16844
:1038B0001143626941EA02052168C96841F20C625C
:1038C000914329432268D1602168496921F44071FC
:1038D000A2691143226851612D4A2168914202D1A7
:1038E000FDF7EEFE01E0FDF7DBFE00EBC00101EBB2
:1038F000001162689200B1FBF2F100EBC00202EB32
:10390000001263689B00B2FBF3F26423B2FBF3F294
:1039100002EBC20303EB0212A1EB8201322202EBA3
:1039200001116422B1FBF2F101F0F00100EBC002E1
:1039300002EB001263689B00B2FBF3F26423B2FB5C
:10394000F3F201EB021200EBC00101EB001163681E
:103950009B00B1FBF3F100EBC00303EB00136668BF
:10396000B600B3FBF6F36426B3FBF6F303EBC30632
:1039700006EB0313A1EB8301322303EB0111642354
:10398000B1FBF3F101F00F0111442268916070BDA9
:103990000038014000BFFEE7490050EAC12018BFCF
:1039A00004204A0D18BF40F0010040F2FF72B2EB54
:1039B000515F08BF40F00200012808BF0520704792
:1039C0004100080218BF04200A0E18BF40F0010091
:1039D0004FF07F4232EA010108BF40F002000128A7
:1039E00008BF05207047000002480068C0F30220AD
:1039F000704700000CED00E010B5002804DB0A075A
:103A0000130E054A135406E00A07140E034A00F089
:103A10000F031B1FD45410BD00E400E018ED00E0BC
:103A20002DE9F74F144694B00021C4E9021115990D
:103A3000079121F00045C9498D4206DC1599C4E97A
:103A4000000117B00020BDE8F08FC549DFF814A3CE
:103A5000A9423CDD0799C44E0029C44FC44A1599B8
:103A6000534619DD03F050F8554506D0C14AC24B04
:103A700003F04AF8C4E900010AE04FF0D352BE4B0C
:103A800003F042F832463B4603F03EF8C4E9000139
:103A900017B00120BDE8F08F02F0E4FB554506D0D9
:103AA000B44AB54B02F0DEFBC4E900010AE04FF076
:103AB000D352B14B02F0D6FB32463B4602F0D2FB6A
:103AC000C4E9000117B04FF0FF30BDE8F08FAB49FB
:103AD000A942159978DB21F0004183468846A84A1F
:103AE000A84B02F021FE0022A74B02F0BBFB02F024
:103AF000C1FD099002F0EDFD06460F469C4A534673
:103B000002F012FE43465A4602F00CFF80468A46F7
:103B1000984A994B3046394602F006FE2A0D012597
:103B20000B924246534602F0FDFE032DC4E900010C
:103B300039D00B98C1F30A51401A05EB45111139E0
:103B4000814230DA9148C346784400EB0510CDF845
:103B50000CA00C90D0E900233046394602F0E4FD79
:103B600002460B46049106905846039902F0CCFF9A
:103B700080468A4602460B465846039902F0C4FF27
:103B8000049B069A02F0C0FF83460C9803913946C5
:103B9000D0E90223304602F0C7FD5A46039B02F0EB
:103BA000B3FF6D1CBDE707980028A2BF099817B0A6
:103BB000BDE8F08F616881F000416160099817B03D
:103BC0004042BDE8F08FFFE784461598C1F313012A
:103BD000C0F30A50A0F2F5304FEA601800F01F065B
:103BE000C6F12000139000200690079041F4801E3B
:103BF00005206D4676B1664A08EB00017A4452F81A
:103C0000213002EB8101B3404A68139922FA01F195
:103C1000194305E05F4908EB0002794451F822108E
:103C2000A1FB0E27A1FB0C131A449A4234BF0123B7
:103C3000002303EB070A05EB8003D3E901B70F4428
:103C40008F4234BF0121002193448B4411B193452D
:103C500002D903E0934501D2012100E00021C3E92C
:103C600001B7514445F82010011EA0F10100C1DC4C
:103C70000298059F00F10050800F12900298DDE934
:103C80000356800002F025FD834628460D9102F080
:103C900037FD6FF01D0203F012FCCDE90E01304636
:103CA00002F02EFD6FF03D0203F009FC80468A46CB
:103CB000384602F025FD6FF05D0203F000FC074678
:103CC00042465346119102F0CDFADDE90E2302F08F
:103CD000C9FA5A460D9B02F0C5FA00250E465A460F
:103CE00028460D9B02F010FFDDE90E2302F00CFFC9
:103CF0004246534602F008FF3A46119B02F012FE7C
:103D0000DFF898A0244A534602F00EFD0746884685
:103D1000234A244B3146284602F006FD3A464346E4
:103D200002F0A0FA074688464FF0A84253463146B3
:103D3000284602F0F9FC3A46434602F093FA159AF7
:103D400012F0004F04D0129A81F0004152421292B8
:103D5000C4E90001129817B0BDE8F08FFB21E93FDC
:103D60007CD90240FB21F93F7370032E8A19A33BD3
:103D7000000040543163621A61B4D03DFB213941E7
:103D800083C8C96D305FE43F0000E03F843B000022
:103D9000003B0000E23A0000182D4454FB21F93D9D
:103DA0003326A611460B113C2DE9FF4D21F00048AA
:103DB00007460C46B8F1795F08DA02F05BFC002890
:103DC00001BF0020324904B0BDE8F08D3A462346D9
:103DD0001046194602F0A8FC054602462D480E463C
:103DE0000B460621784400F05DF82A46334602F07F
:103DF0009BFCDDE9022382468B463846214602F0D1
:103E000093FC04460F4652465B462846314602F074
:103E10008BFC22463B4602F077FE07468A464FF06F
:103E2000FF322846314603F04AFB1B4A90450ADA26
:103E30003A46534602F068FE04B00022BDE8F04D59
:103E4000134B02F06FBD154A4245A8BFA8F50015F7
:103E50004FF00004B8BF124D22462B4602F054FE2C
:103E60000646884622462B460020094902F04CFEB1
:103E700004460D463A4653463046414602F044FE5B
:103E800004B022462B46BDE8F04D02F04BBD0000C9
:103E90000000F03FB03800003333D33F0000E93F6B
:103EA0000000D23F2DE9F0414F1E00EBC701044650
:103EB000D1E9000115461E4637F006020DD02A460C
:103EC000334602F031FC7F1E04EBC703D3E9002325
:103ED00002F0C8F937F00602F1D1022F25D0042FE5
:103EE00013D0062F18BFBDE8F0812A46334602F0F2
:103EF0001BFCD4E90A2302F0B5F92A46334602F046
:103F000013FCD4E9082302F0ADF92A46334602F047
:103F10000BFCD4E9062302F0A5F92A46334602F049
:103F200003FCD4E9042302F09DF92A46334602F04B
:103F3000FBFBD4E9022302F095F92A46334602F04E
:103F4000F3FBD4E90023BDE8F04102F08BB9000097
:103F50002DE9FF4D054621F0004084B00C46B0F13C
:103F6000795F0BDA2846FFF717FD042808BF00F039
:103F700071F8284608B02146BDE8F08D2A460B4668
:103F8000104602F0D1FB06460F462A46234602F0B1
:103F9000CBFB804626488A4632463B46052178447C
:103FA000FFF780FF83461098029160B3214A224BAD
:103FB0004046514602F0B8FBCDE900015A46404662
:103FC0005146029B02F0B0FB82468846DDE90601BD
:103FD0004FF0FF3203F073FA5246434602F094FD6D
:103FE00032463B4602F0A0FBDDE9062302F08CFDE1
:103FF000DDE9002302F088FD08B02A462346BDE82B
:10400000F04D02F08FBC0B465A463046394602F05E
:104010008BFB084A084B02F025F94246534602F052
:1040200083FB08B02A462346BDE8F04D02F01AB9DA
:1040300016380000495555555555C5BF012203F0A6
:104040003EBA02F00FB9002213461046114602F0A4
:10405000B9B90000024A0020110703F030BA00008D
:1040600001FDFFFF012103F058BA0021084602F0CC
:10407000D5BE6FF05E01080703F04FBA2DE9F04D91
:104080000D4614464FF07F41B1EB440F9EBF4FF0F9
:10409000FF312960BDE8F08D4FF0004040EA042177
:1040A000C4F3C750783810F01F024A4B4FEA601C27
:1040B000C2F120067B44C4F3C750A0F178004FEA58
:1040C000601003EB800053F82C3008BFD0E901C624
:1040D00012D0D0F804C093402CFA06F73B4387680F
:1040E0000CFA02FC27FA06F8C06807FA02F2F04060
:1040F0004CEA080C42EA0006A3FB0132ACFB01C00B
:10410000A6FB016101EB0C068E4234BF4FF0010C9F
:104110004FF0000CC1186144BCF1000F02D0814285
:1041200002D903E0814201D2012000E000201044C6
:1041300000F120024FEA92188006CA0C40EA423091
:104140004F03C5F8008002F07BFF8246384602F03C
:104150008FFF6FF0120103F0E0F90746304602F0DE
:1041600087FF6FF0250103F0D8F9834639465046A2
:1041700002F0E0FD594602F0DDFD00F500666FF348
:104180000B065146304603F0F3F8394603F0F0F8D9
:10419000594603F0E3F8104902F0B2FF07460F4911
:1041A000304602F0ADFF394602F0C4FD07460C4927
:1041B000304602F0A5FF394602F0BCFD14F0004F76
:1041C00008BFBDE8F08DC8F1805180F00040296043
:1041D000BDE8F08DE0360000DB0FC92F22AAFD29D3
:1041E0000000C92F00BF704770B500244FF07E500B
:1041F00012490860002048608860C86013240DE000
:104200000F4800EB04100D4AD2E90035D2E9021242
:10421000C0E90035C0E90212601E84B2002CEFDC58
:10422000074A064DD5E901032968ED68161D29C620
:10423000116004A0FBF7ECFF70BD00007C060020BD
:104240003C050020204920686176652066696E691A
:1042500073682074686520696E6974206F662061D8
:10426000687273200D0A000010B5B2B000202890CB
:1042700027902690FE48FCF7A1FAFD48C0680B90F5
:1042800002F03EFA0022FB4BCDE90C0102F09AF855
:10429000CDE90E0101F0B4FF30900021309802F01A
:1042A0007FFE01D132B010BDF3480088401CF249B6
:1042B00008800846008804283FDB1320319011E075
:1042C000EE49319801EB0011401EEC4A02EB00125E
:1042D00092E81900D26881E81900CA603198401E3E
:1042E00080B2319031980028EADCE448E44C1ECCDE
:1042F0001EC0E448E44AD2E900139268C0E90132E2
:1043000001601320319012E0319800EB4000DD494C
:1043100001EB80013198401E00EB4000D94A02EBCE
:1043200080030DCB0DC13198401E80B23190319881
:104330000028E9DC0020D0490880D448B0F900000A
:104340000E9002F07DFED2490F9002F0D9FECE49C8
:104350000860CE48B0F902000E9002F071FECC4920
:104360000F9002F0CDFEC8494860C848B0F904007B
:104370000E9002F065FEC6490F9002F0C1FEC249E0
:1043800088601420319012E0319800EB4000C14960
:1043900001EB80013198401E00EB4000BD4A02EB6A
:1043A00080030DCB0DC13198401E80B23190319801
:1043B0000028E9DCB748B84B0ECB0EC0B748B0F9BF
:1043C00000000E9002F03CFEB5490F9002F098FEFE
:1043D000B1490860B148B0F902000E9002F030FE19
:1043E000AF490F9002F08CFEAB494860AB48B0F982
:1043F00004000E9002F024FEA9490F9002F080FE06
:10440000A54988600846806808900846806807903B
:10441000089902F075FE0A909F48406806909E48F1
:1044200040680590069902F06BFE08909A48006873
:104430000690994800680590069902F061FE079081
:10444000089902F077FC09900A9902F073FC0B902E
:1044500002F044FCCDE90C0101F0F2FDCDE90E01C2
:1044600001F0CEFE2F902F982E90864A6C3207CA0C
:104470002BAB07C32D980C9001460B9002F040FE29
:104480000E902C980A900146099002F039FE0C908B
:104490002B980A900146099002F032FE0B900C997D
:1044A00002F048FC0D900E9902F044FC0F9001F0D0
:1044B00065FC2A902B980F902A9902F021FE2B90F0
:1044C0002C980F902A9902F01BFE2C902D980F909B
:1044D0002A9902F015FE2D906848D0F8A0000146F8
:1044E0000F904FF0804002F00BFE1D906348D0F813
:1044F000A40001460F904FF0804002F001FE1C9096
:104500005E48D0F8A80001460F904FF0804002F0BE
:10451000F7FD1B905948D0F8AC0001460F904FF0C2
:10452000804002F0EDFD1A905448D0F8A0000146FA
:104530000F904FF0814002F0E3FD19904F48D0F802
:10454000A40001460F904FF0814002F0D9FD189071
:104550004A48D0F8A80001460F904FF0814002F081
:10456000CFFD17904548D0F8A40001460F904FF0BA
:10457000824002F0C5FD16904048D0F8A8000146E0
:104580000F904FF0824002F0BBFD15903B48D0F8F1
:10459000A0000F903948D0F8A0000E900F9902F0BB
:1045A000AFFD14903548D0F8A4000F903348D0F8F0
:1045B000A4000E900F9902F0A3FD13902F48D0F89D
:1045C000A8000F902D48D0F8A8000E900F9902F087
:1045D00097FD12902948D0F8AC000F902748D0F8EA
:1045E000AC000E900F9902F08BFD11902C980146B3
:1045F0000D901C9802F084FD0F901399199802F009
:104600007FFD0D902B98014609901B9802F078FDD4
:104610000B901299199802F073FD0A900B9902F011
:1046200089FB0C900D9902F085FB0E900F9902F01A
:104630009FFE25902D9801460D90189802F060FD80
:104640000F901299169802F05BFD0D901399169831
:1046500002F056FD0B902C98014606901D9802F032
:104660004FFD08904FF08140149902F049FD19E088
:104670008408002080842E41680000203C05002032
:104680007C06002088070020780800202C000020ED
:104690000AE81C3B980600208C060020260000201B
:1046A00047237A3C0490FE48D0F8A40001460390CA
:1046B000049802F025FD06902B98014602901A9866
:1046C00002F01EFD04901199189802F019FD039054
:1046D000049902F04DFE0590069902F02BFB07901D
:1046E000089902F045FE0990189902F041FE0A90DF
:1046F0000B9902F01FFB0C900D9902F01BFB0E9022
:104700000F9902F017FB24902D9801460D901798F1
:1047100002F0F6FC0F901299159802F0F1FC0D9042
:104720001399159802F0ECFC0B902C98014606901A
:104730001A9802F0E5FC08901199179802F0E0FC35
:1047400006902B98014602901D9802F0D9FC049027
:104750004FF08140149902F0D3FC0290D048D0F879
:10476000A80001460190029802F0CAFC0390049947
:1047700002F0E0FA0590069902F0DCFA0790089939
:1047800002F0F6FD0990179902F0F2FD0A900B99DC
:1047900002F0D0FA0C900D9902F0CCFA0E900F991D
:1047A00002F0C8FA23902C9801460D901B9802F055
:1047B000A7FC0F904FF08140129902F0A1FC0B90E2
:1047C000B748D0F8A80001460A900B9802F098FC70
:1047D0000D902B98014609901C9802F091FC0B90CB
:1047E0004FF08140139902F08BFC0990AC48D0F84F
:1047F000AC0001460890099802F082FC0A900B99DF
:1048000002F0B6FD0C900D9902F094FA0E900F99FB
:1048100002F0AEFD22902299084602F071FC0E9043
:104820002399084602F06CFC0C902499084602F08B
:1048300067FC0A902599084602F062FC09900A99E3
:1048400002F078FA0B900C9902F074FA0D900E9920
:1048500002F070FA0F9001F091FA2A902A992598A7
:1048600002F04EFC25902A99249802F049FC2490ED
:104870002A99239802F044FC23902A99229802F066
:104880003FFC2290874A00212E9800F07DFF0E9079
:104890008548309902F034FC0D900E9902F030FCFE
:1048A00082490F9002F046FA2990814A814929985D
:1048B00000F06AFF29907A48D0F8A8000C90784858
:1048C000D0F8A0000B900C9902F01AFC0E907448DE
:1048D000D0F8AC000C907248D0F8A4000B900C9962
:1048E00002F00EFC0D900E9902F042FD4FF0804157
:1048F0000F9002F005FC704908606948D0F8A400E8
:104900000C906748D0F8A0000B900C9902F0F8FBCF
:104910000E906348D0F8AC000C906148D0F8A80025
:104920000B900C9902F0ECFB0D900E9902F002FA3C
:104930004FF080410F9002F0E3FB60490860584857
:10494000D0F8A8000B905648D0F8A8000A900B9910
:1049500002F0D6FB0D905248D0F8A4000B905048BE
:10496000D0F8A4000A900B9902F0CAFB0C900D99A4
:1049700002F0E0F94FF080410E9002F0C1FB4FF0E1
:104980007E510F9002F0EAFC4D4908602D980D9081
:104990004A4801680D9802F0B3FB0F902C980D90D7
:1049A000474801680D9802F0ABFB0E900F9902F09A
:1049B000DFFC28902B980D90414801680D9802F07B
:1049C0009FFB0F902D980D903B4801680D9802F0C9
:1049D00097FB0E900F9902F0CBFC27902C980D902E
:1049E000354801680D9802F08BFB0F902B980D90C5
:1049F000324801680D9802F083FB0E900F9902F087
:104A0000B7FC26902F480168289802F079FB0E9099
:104A1000309902F075FB0F902B4801680F9802F057
:104A200089F92949086027480168279802F068FB3E
:104A30000E90309902F064FB0F90244801680F98A3
:104A400002F078F9214908601E480168269802F0B2
:104A500057FB0E90309902F053FB0F901C480168F1
:104A60000F9802F067F91A4908601A4828990068F7
:104A700002F046FB0F901848006818490B9002F0AE
:104A80003FFB17490C9002F0C9F90D900E480168E0
:104A90000D9802F04FF90E900F9902F04BF921E0BA
:104AA0003C0500200000C843CDCC4C3D8FC2F53BF7
:104AB0008FC2F53D8FC2753C780000207C0000203D
:104AC00080000020640000206C00002070000020A6
:104AD00074000020600000208C060020DA0F49409E
:104AE00000003443FE490860FE482799006802F040
:104AF00007FB0F90FC484068FC490B9002F000FB5C
:104B0000FB490C9002F08AF90D90FA4801680D9863
:104B100002F010F90E900F9902F00CF9F04948607C
:104B2000F0482699006802F0EBFA0F90EE48806892
:104B3000EE490B9002F0E4FAED490C9002F06EF9A8
:104B40000D90ED4801680D9802F0F4F80E900F9961
:104B500002F0F0F8E2498860084680680C90E74867
:104B6000C0680B900C9902F0CBFA0E90DC484068BC
:104B70000A90E248806809900A9902F0C1FA0C9004
:104B8000DE48406880F000400A90D5480068014641
:104B900009900A9802F0B4FA0B900C9902F0E8FB25
:104BA0000D900E9902F0E4FB4FF07C510F9002F053
:104BB000A7FA2190CA4840680C90D048C0680B9072
:104BC0000C9902F09DFA0E90C54880680A90CB4877
:104BD000806809900A9902F093FA0C90C048006826
:104BE0000A90C648006809900A9902F089FA0B9069
:104BF0000C9902F09FF80D900E9902F0B9FB4FF05E
:104C00007C510F9002F07CFA2090B54800680C901F
:104C1000BA48C0680B900C9902F072FA0E90B04836
:104C200080680A90B548406809900A9902F068FACD
:104C30000C90AB4840680A90B048006809900A9907
:104C400002F05EFA0B900C9902F092FB0D900E9917
:104C500002F070F84FF07C510F9002F051FA1F9063
:104C60009F4800680C90A54880680B900C9902F052
:104C700047FA0E909A4840680A90A0484068099008
:104C80000A9902F03DFA0C90954880680A909B487A
:104C9000006809900A9902F033FA0B900C9902F01F
:104CA00049F80D900E9902F063FB4FF07C510F9084
:104CB00002F026FA1E902599299802F021FA0F9009
:104CC000219902F04BFB21902499299802F018FABF
:104CD0000F90209902F042FB20902399299802F02E
:104CE0000FFA0F901F9902F039FB1F902299299813
:104CF00002F006FA0F901E9902F030FB1E907848E1
:104D0000806801460B90309802F0FAF90D907448D3
:104D1000806801460B90309802F0F2F90C900D99E2
:104D200002F0EEF90F906E48406801460990309805
:104D300002F0E6F90B906A48406801460990309805
:104D400002F0DEF90A900B9902F0DAF90D9064484E
:104D5000006801460990309802F0D2F90B90604843
:104D6000006801460990309802F0CAF90A900B9940
:104D700002F0C6F90C900D9901F0DCFF0E900F992E
:104D800001F0D8FF10903099219802F0B9F94FF056
:104D900082410F90109802F041F84FF07E510C9034
:104DA00002F0DCFA0D905548006801460C900D9811
:104DB00002F0A6F90E900F9901F0BCFF4F49086070
:104DC0003099209802F09CF94FF082410F90109892
:104DD00002F024F84FF07E510C9002F0BFFA0D90D3
:104DE0004648406801460C900D9802F089F90E90F3
:104DF0000F9901F09FFF4149486030991F9802F0D8
:104E00007FF94FF082410F90109802F007F84FF0B1
:104E10007E510C9002F0A2FA0D903848806801464D
:104E20000C900D9802F06CF90E900F9901F082FF32
:104E30003249886030991E9802F062F94FF0824141
:104E40000F90109801F0EAFF4FF07E510C9002F0A5
:104E500085FA0D902948C06801460C900D9802F023
:104E60004FF90E900F9901F065FF2449C86008467C
:104E7000C0680C900846C0680B900C9902F040F98D
:104E80000E901E4880680A901C48806809900A9914
:104E900002F036F90C9019484068089017484068AD
:104EA0000790089902F02CF90A90144800680890BD
:104EB000124800680790089902F022F909900A99AF
:104EC00001F038FF0B900C9901F034FF0D900E9912
:104ED00001F030FF0F9000F051FF2A9007480FE0DB
:104EE00094080020600000208C060020DA0F494062
:104EF0000000344370000020740000207C06002075
:104F000000680F902A9902F0FBF89649086008465D
:104F100040680F902A9902F0F3F8924948600846D9
:104F200080680F902A9902F0EBF88E498860084655
:104F3000C0680F902A9902F0E3F88A49C8600846D1
:104F40008068014602904FF0804002F0D9F803904B
:104F50008448806801460290039802F0D1F80590D9
:104F600080484068014602904FF0404002F0C8F887
:104F700003907C48406801460290039802F0C0F814
:104F80000490059902F0F4F94FF07E51069001F07B
:104F9000D1FE079001F0A2FECDE90A017148006838
:104FA000014603904FF0804002F0AAF804906D484B
:104FB000406801460390049802F0A2F80690694800
:104FC0008068014603904FF0804002F099F8049009
:104FD0006448C06801460390049802F091F8059077
:104FE000069901F0A7FE079001F078FECDE90801CF
:104FF000DDE90A2300F008FB4FF080425A4BCDE96F
:105000000C0101F091FBCDE90E0101F0F9F85749CF
:10501000086054484068014605904FF0804002F017
:105020006FF806904F48C06801460590069802F058
:1050300067F808904B480068014605904FF08040A3
:1050400002F05EF806904748806801460590069891
:1050500002F056F80790089902F08AF9099001F0D9
:105060003DFECDE90A0100F087F84FF080423E4B4B
:10507000CDE90C0101F058FBCDE90E0101F0C0F8BB
:105080003B49086037488068014602904FF08040F5
:1050900002F036F803903348806801460290039886
:1050A00002F02EF805902F48C068014602904FF09C
:1050B000404002F025F803902A48C068014602905B
:1050C000039802F01DF80490059902F051F94FF091
:1050D0007E51069001F02EFE079001F0FFFDCDE914
:1050E0000A0120480068014603904FF0804002F01A
:1050F00007F804901B48C06801460390049801F02B
:10510000FFFF069017484068014603904FF080402B
:1051100001F0F6FF0490134880680146039004985C
:1051200001F0EEFF0590069901F004FE079001F0F2
:10513000D5FDCDE90801DDE90A2300F065FA4FF05D
:105140008042094BCDE90C0101F0EEFACDE90E01E8
:1051500001F056F807490860FBF726FA00BFFFF791
:10516000A1B800007C060020DCA54C4040000020D7
:10517000440000203C0000202DE9F04D8D4F21F02F
:10518000004A86B005460C46BA452ADBAAEB070062
:1051900028430AD08848824501DC1AD1CDB106B037
:1051A0002846BDE8F04DFEF749BF844A844B2846A7
:1051B00001F0BAFA07460E46824A834B284621463A
:1051C00001F0B2FA06B03A463346BDE8F04D01F0C0
:1051D00049B80120FBF78AF806B0BDE8F04DFEF7AC
:1051E00032BF7A48824542DABAF1795F0BDA284653
:1051F000FEF7D2FB042808BFFEF72CFF284606B0B6
:105200002146BDE8F08D2A460B46104601F08CFA87
:10521000834602466E480E460B4606217844FEF74A
:1052200041FE5A46334601F07FFA804669488A4675
:105230005A46334604217844FEF734FE5A46334634
:1052400001F072FA00223B4601F00CF802460B46D0
:105250004046514601F0B6F82A46234601F064FA6A
:1052600006B02A462346BDE8F04D00F0FBBF2846B5
:1052700024F0004100223D463B4601F053FB4FF035
:10528000FF3202F01CF90646024653480F460B4611
:1052900006217844FEF706FE32463B4601F044FA0A
:1052A000CDE900014D4832463B4604217844FEF7E3
:1052B000F9FD32463B4601F037FA00222B4600F05A
:1052C000D1FF834602913046394600F0B9FE804650
:1052D00043480D46504517DCDDE900015A46029B64
:1052E00001F070F842462B4601F01EFA42462B466A
:1052F00000F0B8FF012202F0E2F8304A304B01F032
:1053000003FC304A304B4CE04FF0000A52460B464B
:10531000404600F0A7FFCDE9031052462B46104649
:10532000194601F001FA32463B4601F0FBFADDE98D
:10533000033201F047F806460F46DDE900015A4600
:10534000029B01F03FF88346009101223046394626
:1053500002F0B5F8194A1A4B01F0E4FA06460F4676
:1053600001224046294602F0AAF85A46009B01F065
:10537000DBF932463B4601F0C7FB06460F460122E9
:105380005046294602F09BF80E4DDFF858802A4619
:10539000434601F0C7FA32463B4601F0C3FA2A46BB
:1053A000434601F0BFFA002CD8BF81F0004106B09F
:1053B000BDE8F08D0000F03F0000F07F075C143383
:1053C00026A6913C182D4454FB21F93F0000E03FF4
:1053D00090230000A62300001A23000030230000C1
:1053E0003333EF3FFB21E93F2DE9F84F04460D46EB
:1053F00021F0004000917349814211DC72498842DA
:1054000001DC06D12CB120462946BDE8F84FFEF755
:1054100015BE6E48002DCCBF6D496E49BDE8F88FB2
:105420006D49814211DD6D498142D8BF4FF0FF3691
:105430006DDD20462946FEF7AFFA042808BFFEF7C7
:1054400009FE20462946BDE8F88F6549654F25F0DD
:105450000045814233DD6449814219DD0026324630
:105460004FF080432046294600F0FCFE80468A46E5
:1054700001222046294602F022F800223B4601F094
:1054800043FB4246534600F09DFF04460D463EE076
:1054900001260022BA463B462046294600F0E2FE9D
:1054A00080460F46002253462046294601F02CFB39
:1054B00042463B4600F086FF04460D4627E04B4936
:1054C00081421BDDDFF828A1022600225346204638
:1054D000294601F029F900223B4600F0C3FE804630
:1054E0000F46002253462046294601F00DFB424656
:1054F0003B4600F067FF04460D4608E003262246BF
:105500002B4600203B4900F05DFF04460D46224635
:105510002B461046194601F007F98B468246024693
:105520000B4601F001F907460246334888460B4610
:1055300006217844FEF7B6FC52465B4601F0F4F8CB
:1055400082462E488B463A46434605217844FEF76C
:10555000A9FC3A46434601F0E7F802460B46002E06
:10556000504659460CDA00F07DFE22462B4601F0EB
:10557000DBF801B022462B46BDE8F04F01F0D2B96E
:1055800000F070FE22462B4601F0CEF81C4A7A4409
:1055900002EBC603D3E9002301F0B6FA22462B46FC
:1055A00001F0B2FA174A7A4402EBC603D3E90023AA
:1055B00001F0B8F9009A002AB8BF81F00041BDE8B7
:1055C000F88F0000000010440000F07F182D4454B4
:1055D000FB21F93FFB21F9BF0000DC3F0000203E2A
:1055E0000000F33F0000F03F0000E63F0080034072
:1055F0000000F83F0000F0BF32210000F020000062
:105600008E200000562000002DE9F04D9446CCF18C
:10561000000423F000464CEA0404524F46EAD474D6
:105620009A46884621F00042BC4206D8454240EAEC
:10563000050442EAD474BC4204D9BDE8F04D624688
:10564000FEF7FFBCAAF14055A5F17F6555EA0C04B1
:105650000BD0022404EAAA74434DDFF810E144EAB7
:10566000D87452EA000B04D00CE0BDE8F04DFFF70F
:10567000BBBE002C14BF012CBDE8F08D022C30D035
:10568000032C32D056EA0C0B0AD0BE4220D1BA42CB
:1056900009D126F0804622F080423346114617E0B9
:1056A00000291ADB25E0DFF8C8B0FB44002C04BF5A
:1056B000DBE90001BDE8F08D012C02BFDBE9000150
:1056C00081F00041BDE8F08D022C0AD0032C0CD0F3
:1056D000BA4212D1B8F1000F0BDA23482549BDE8D0
:1056E000F08D28462449BDE8F08D28467146BDE876
:1056F000F08D1D482149BDE8F08D921B12153C2A02
:10570000C4BF19481D490EDCBAF1000FBEBF12F12B
:105710003C0F0020014606DB624600F053FE21F0FC
:105720000041FFF761FE002C08BFBDE8F08D012CA1
:1057300004BF81F00041BDE8F08D114A114B022CED
:1057400007D001F0E1F92A46BDE8F04D0A4B01F01F
:10575000DBB901F0D9F92A46BDE8F04D064B01F05E
:10576000E1B800000000F07F182D4454FB2109C06F
:105770001A200000FB21F9BFFB210940FB21F93F62
:10578000075C143326A6A13C70B506460D461446A8
:105790002146304601F080FD00D826462946304695
:1057A00001F07AFC00D82E46304670BD00B5244B7F
:1057B00021F0004287B09A42DCBF0022134629DD67
:1057C000204B9A4208D140B94FF00100FAF78EFD04
:1057D000FEF739FC07B000BD03DBFEF72FFC07B076
:1057E00000BD02AAFEF71CF910F0030104BF0DF181
:1057F000080C9CE80F000DD0012001290ED00229D1
:1058000014D00DF1080C00909CE80F00FEF7A0FBEF
:1058100007B000BDFEF7C8FA07B000BD0DF1080CD7
:1058200000909CE80F00FEF793FB05E00DF1080CDB
:105830009CE80F00FEF7B8FA07B081F0004100BD08
:10584000FB21E93F0000F07F2DE9F84304460246C2
:105850004F486946B0EB420F09D94FF0E640B0EB34
:10586000420F94BF00204FF0FF30009030E0494BD2
:1058700022F00040834271D94749204601F040FCA4
:1058800001F03CFD804601F0BFFB00F003000090FA
:105890004249404601F034FC05464149404601F08A
:1058A0002FFC06463F49404601F02AFC07463E4988
:1058B000404601F025FC214601F050FD394601F03B
:1058C00057FD314601F054FD294601F051FD0446D3
:1058D0002546009C002C45DB294614F0010F0846A4
:1058E0001CD001F00DFC0646304901F009FC30499E
:1058F00001F034FD314601F003FC2E4901F01AFAA3
:10590000314601F0FDFB294601F0FAFB294601F082
:1059100011FA14F0020F1CD0BDE8F88301F0F0FB7F
:105920000546254901F0ECFB244901F003FA29461C
:1059300001F0E6FB224901F0FDF9294601F0E0FB08
:105940004FF07E5101F0F6F914F0020F08BFBDE8E8
:10595000F88380F00040BDE8F883FFE71046FEF7CB
:105960008DFBB4E76800B0F17F4F3CBF4FF07E5035
:10597000BDE8F88307D14FF00100FAF7B7FCBDE8A6
:10598000F843FEF772BB2846BDE8F843FEF76ABB52
:10599000B61F927E490E494683F9223F1A61342C84
:1059A0000020A23300A0FD390000C93F336D4C39FF
:1059B000DA82083CA0AA2ABEB93AB2BACA9F2A3DE6
:1059C000DDFFFFBE00BF054A126802F04002002A58
:1059D000F9D0C2B2014B1B1D1A607047004800404D
:1059E00030B585B003A8FDF757FA01A8FDF786FA90
:1059F0006846FDF7B5FABDF80C0065490988401AFC
:105A000000B2ADF80C00BDF80E0061498988401A5B
:105A100000B2ADF80E00BDF810005D490989401ACA
:105A200000B2ADF81000BDF804005A490988401AC8
:105A300000B2ADF80400BDF8060056498988401A46
:105A400000B2ADF80600BDF8080052490989401AB5
:105A500000B2ADF80800BDF9040001F0F1FA054606
:105A60004D4A4E49FAF7C2FC044601F0CDFA00B2A5
:105A70004B490880BDF9060001F0E2FA0546464AA6
:105A800046491831FAF7B2FC044601F0BDFA00B2FB
:105A900043494880BDF9080001F0D2FA05463E4A64
:105AA0003E493031FAF7A2FC044601F0ADFA00B2EB
:105AB0003B498880BDF90C0001F0C2FA0546394A1D
:105AC0003949FAF793FC044601F09EFA00B23749CF
:105AD0000880BDF90E0001F0B3FA0546314A32499B
