:020000040800F2
:1000000060140020ED010008B33700084D2F0008F0
:10001000B137000873130008293C000800000000F5
:10002000000000000000000000000000FF010008C8
:100030006B16000800000000030200086938000881
:10004000070200080702000807020008070200086C
:10005000070200080702000807020008070200085C
:10006000070200080702000807020008070200084C
:1000700007020008691600080702000807020008C6
:10008000070200080702000807020008070200082C
:10009000070200080702000807020008070200081C
:1000A000070200080702000807020008070200080C
:1000B00007020008070200080702000807020008FC
:1000C00007020008070200080702000807020008EC
:1000D00007020008070200080702000807020008DC
:1000E00007020008070200080702000807020008CC
:1000F00007020008070200080702000807020008BC
:1001000007020008070200080702000807020008AB
:100110000702000807020008CD380008070200089F
:10012000070200080702000807020008070200088B
:1001300000F002F800F04AF80AA090E8000C8244AF
:100140008344AAF10107DA4501D100F03FF8AFF28C
:10015000090EBAE80F0013F0010F18BFFB1A43F0A5
:10016000010318473873000058730000103A24BF89
:1001700078C878C1FAD8520724BF30C830C144BF0C
:1001800004680C607047000000230024002500264E
:10019000103A28BF78C1FBD8520728BF30C148BFEA
:1001A0000B607047662906F06887642900F080803C
:1001B000002070471FB500F097FB040000200021CD
:1001C00005F04CFEE0601FBD10B510BD00F0A8FCAE
:1001D0001146FFF7EFFF05F053FC00F0C6FC03B437
:1001E000FFF7F2FF03BC04F039F90000094880472B
:1001F00009480047FEE7FEE7FEE7FEE7FEE7FEE709
:10020000FEE7FEE7FEE7FEE704480549054A064B20
:1002100070470000CB38000831010008600800205A
:1002200060140020600C0020600C0020704700006B
:100230000FB4044910B503AA029800F043FB10BCA8
:100240005DF814FB000000202DE9F0410E46044645
:10025000002020622046E168884730B3252805D079
:10026000D4E901219047206A401CF2E7E16820466A
:1002700000278847050018D0A5F14100192802D8A9
:1002800020354FF400673246294620462760FFF7A5
:1002900089FF40B1012804D0F61D26F00706083674
:1002A000D8E7361DD6E72846DAE7206ABDE8F081B0
:1002B0002DE9F0410646002410687529314616A53F
:1002C00010D0AFF30080002802DA404213A507E007
:1002D00031688A0701D512A502E0490704D511A5A6
:1002E000012401E0AFF3008000210A2206F1240777
:1002F00009E0B0FBF2FCB0FBF2F302FB1C00303073
:1003000078541846491C0028F3D123462A46304623
:10031000BDE8F04100F070B8000000002D000000C2
:100320002B0000002000000010B5203AC0F00B8028
:10033000B1E81850203AA0E81850B1E81850A0E8E9
:100340001850BFF4F5AF5FEA027C24BFB1E8185043
:10035000A0E8185044BF18C918C0BDE810405FEAB3
:10036000827C24BF51F8043B40F8043B08BF70472F
:10037000D20728BF31F8023B48BF11F8012B28BF34
:1003800020F8023B48BF00F8012B70474FF00002F5
:1003900000B5134694469646203922BFA0E80C507B
:1003A000A0E80C50B1F12001BFF4F7AF090728BF56
:1003B000A0E80C5048BF0CC05DF804EB890028BFD2
:1003C00040F8042B08BF704748BF20F8022B11F0FB
:1003D000804F18BF00F8012B704770477047704777
:1003E000704710B500F084FA006810BD10B50446DF
:1003F00000F07EFA046010BD2DE9F0470D469946E5
:100400009246044600F124080168880604D5E06994
:1004100021F01001216000E00120A84201DD471B0E
:1004200000E00027A1697A1902EB0900081AA0610F
:100430002078C00602D42046AFF30080002608E0F2
:10044000D4E901211AF806009047206A401C761C66
:1004500020624E45F4DB2078C0060AD52046AFF373
:10046000008006E0D4E9012130209047206A401C3A
:100470002062381EA7F10107F4DC07E0D4E901216E
:1004800018F805009047206A401C2062281EA5F13C
:100490000105F3DC2046AFF300802078000602D58A
:1004A0000220BDE8F0870120FBE770472DE9FF4FF0
:1004B0000C461E464FF0FF378BB0D2E90001DDF845
:1004C00060800A908A46C1F30A5505B93D4600216D
:1004D00008464FF00000BAF1000F00F4400005DAC2
:1004E00000EB80004FF4400101EA50004FEA9059C0
:1004F000B9F1010F00DDB9460A9850EA4A000ED062
:1005000044F61050A5F2FF3545432F14B8F1000F03
:100510001ED07542291E1EDDC9F100021CE0B8F193
:10052000010F4FF0000001D0302103E0F24305E05D
:100530002154401CB042FBDB3046002200212154F4
:100540000B99C1F80880C1E900200FB0BDE8F08F19
:10055000BD1B6D1CDEE74A4600DA694206A800F0C2
:1005600069FA06AB93E8070003AB83E8070050463F
:100570000A9900F043FB8DE80700A0F500501F38F2
:1005800000900398002D09DD42F21F014A460844FD
:1005900003A90390684600F0A2FD08E0A0F5005012
:1005A0004A461F3803A90390684600F0ACFD8DE869
:1005B00007000004000C03D04FF0FF30410800E0BA
:1005C0001046B8F1000F03D00022009215461EE03D
:1005D000751E05D400F090F9303262556D1EF9D5C4
:1005E000B3460122084302D000227F1C04E0207899
:1005F000302801D100227F1E002A099786D01DE0F5
:10060000112D07DA00F078F9303262556D1C50EA8E
:100610000102F5D1084302D00098C8B10EE00021D4
:10062000681E05E0235C625C63542254401E491C32
:100630008142F7DBAB46A81B401E0990002004F85E
:100640000B000B98099AC0F80880C0E9002B7CE7E2
:1006500011264FF0000859E72DE9F04F884604466F
:10066000D21D22F0070191B0D1E90001CDE90A01C4
:1006700003F0DBFA02460B98C00F01D02D2007E0F3
:100680002068810701D52B2002E0202101EAC0006B
:10069000032A099001D0072A05DB0346414620467C
:1006A00000F088F90BE12078800601D5E06900E0D0
:1006B0000620B8F1650F814606D0B8F1660F18D054
:1006C000B8F1670F70D131E00020B9F1110F00903F
:1006D00001DB112301E009F101030AAA01A90CA819
:1006E000FFF7E4FEDDE90C70002609F10105834601
:1006F00047E001204B4600904FF000470AAA01A9AD
:100700000CA8FFF7D3FEDDE90DB00C995D4600267D
:1007100010B909F101000D18B9EB050003D4C0F1BF
:10072000FF3609F10105A5EB09002BE0B9F1010F36
:1007300001DA4FF001090020B9F1110F009048468D
:1007400001DD112300E003460AAA01A90CA8FFF766
:10075000ADFEDDE90C704D4600268346207800078B
:100760000AD4AB4500DA5D4601A8012D04DD41192C
:1007700011F8011C302907D04F4502DA17F1040F98
:1007800004DA012082460FE06D1EEEE7002F02DC46
:10079000ED1B3E4403E0781CA84200DD7D1CB81B25
:1007A00000F1010A4FF000472078000703D4AA4562
:1007B00001DB4FF0FF3A0021B7F1004F0DF1430884
:1007C0008DF8431024D002202B23002F01DA7F4222
:1007D0002D230A21021EA0F1010000DC5FB197FB6E
:1007E000F1FC97FBF1F201FB1C7C17460CF1300C7D
:1007F00008F801CDEEE7A8F1010003702188090592
:1008000001D5452100E06521A0F1010800F8011C97
:1008100009980FA9A1EB0807FF1D00B1012041199C
:1008200001EBEA70A1693844081A401EA0612078E3
:10083000C00602D42046AFF30080099828B1D4E95D
:1008400001219047206A401C20622078C00622D5F2
:100850002046AFF300801EE0002E04DBB34502DD2E
:1008600001A8805D00E03020D4E901219047206A92
:10087000401C2062761CAAF101005FEA000A0AD13E
:1008800000F032F8C0680168405CD4E9012190476B
:10089000206A401C2062281EA5F10105DCDC07E06F
:1008A000D4E9012118F8010B9047206A401C20620E
:1008B000381EA7F10107F3DC2046AFF300800320C8
:1008C00011B043E6074B70B50D467B4400F05FF86E
:1008D0000446284600F01CF910B14FF0FF3070BDFF
:1008E000204670BD4B4E0000004870472008002095
:1008F000004870470008002030B5B0F10A024FEA06
:10090000900E71F100034EEA817EB0EB0E0061EBB8
:1009100091014FEA101E4EEA017E10EB0E0041EBF2
:1009200011114FEA102E4EEA016E10EB0E0041EB52
:1009300011214FEA104E4EEA014E10EB0E0041EB32
:100940001141401841F100014FEAD00040EA4170E6
:100950004FEAD10110EB80054FEA810444EA90741C
:1009600044EB01046D1944EB0404521BA3414FF006
:10097000000348BF0A3200D530BD401C41F10001E0
:1009800030BD000001694A1C02610878704700B55B
:100990008FB0CDE901310021059105497944CDE9B8
:1009A000031011466846FFF74FFC0FB000BD000072
:1009B000E5FFFFFF2DE9F0411F46044603260168CD
:1009C000072A01F4006004DB08B116A505E016A5AE
:1009D00003E008B115A500E015A521F01000206086
:1009E000A069C01EA0610FB1401EA0612046AFF3F8
:1009F00000804FB1D4E9012138469047206A401C5D
:100A00002062C01C206206E0206AFAE7D4E90121D6
:100A100015F8010B9047761EF8D22046AFF3008000
:100A2000BDE8F0814E414E006E616E00494E4600B9
:100A3000696E66002DE9F047814616468AB0334854
:100A400078440DC88DE80D0030487844801C03AC14
:100A50000DC884E80D0041F69B300844372190FB17
:100A6000F1F290FBF1F5A5F1800501FB12041B3CAE
:100A700002D56442012000E00020DFF890A080460B
:100A80000027FA44AAF1BE0A0DE0E00709D0324679
:100A9000684607EB47010AEB810100F034FB8DE863
:100AA000070064107F1C002CEFD1184F7F44AC3F2F
:100AB00018E0E80714D007EB04100DF1180A90E8CD
:100AC0000E008AE80E00C068F04201D19819089023
:100AD000324606A903A800F016FB03AB83E8070023
:100AE0006D10641C002DE4D132466946B8F1000F48
:100AF00003A802D000F0F3FA01E000F004FBC9E91A
:100B00000001C9F808200AB0BDE8F087406A00007B
:100B1000007B00F08000704700487047000800200C
:100B20007546FFF7F9FFAE4605006946534620F0CB
:100B30000700854618B020B5FFF766FBBDE82040EA
:100B40004FF000064FF000074FF000084FF0000B89
:100B500021F00701AC46ACE8C009ACE8C009ACE83C
:100B6000C009ACE8C0098D46704710B50446AFF324
:100B700000802046BDE81040FFF731BB4FF0013C3C
:100B800050F8042B51F8043B9A4221D1A2EB0C03FC
:100B9000934313EACC1317D150F8042B51F8043BBC
:100BA0009A4215D1A2EB0C03934313EACC130BD159
:100BB00050F8042B51F8043B9A4209D1A2EB0C03E4
:100BC000934313EACC13DBD04FF00000704700BF13
:100BD000D01A01BAB1FA81F101F0180122FA01F03C
:100BE000CB40C1F12001DBB2C0B2C01A2CFA01F334
:100BF000D11A914311EAC311E6D170475FEA400C64
:100C000008BF91F0000F4FEA8C234FEAC12243EA5C
:100C100051514FEA1C5018BF00F5F0404FEA300028
:100C200018BF41F000415FEA6C5C00F02980BCF124
:100C3000FF3F08BF40F080407047130C06BF12040E
:100C40004FF0100C4FF0000C130E04BF12020CF109
:100C5000080C130F04BF12010CF1040C930F04BF16
:100C600092000CF1020CD30F04BF52000CF1010CE6
:100C700011464FF00002A0F11F00A0EB0C007047DE
:100C800011F0004F08BF704731F000413FF4D5AF7D
:100C90000B0C06BF09044FF0100C4FF0000C0B0EAC
:100CA00004BF09020CF1080C0B0F04BF09010CF181
:100CB000040C8B0F04BF89000CF1020CCB0F04BF96
:100CC00049000CF1010CCCF12003A0EB0C0022FA3E
:100CD00003F302FA0CF241EA030100F1010070474C
:100CE00020F07F4C80EA030023F07F47ACEB070342
:100CF00003F57C5300F0004003F1FF032DE9804928
:100D00004FEA154B09B44FEA144325EA0B4E24EA87
:100D100003480FF2042606EB132749083E785FEAE2
:100D2000320203FB0667C7F5000707FB06F64FEA2A
:100D300054374FEAD64606F1020607FB066CCCF1A3
:100D4000005C4FEA1C472CEA074C07FB06F40CFB3F
:100D500006F504EB15464FEA961634BF00204FF017
:100D600000404FEAD13706FB07FC4FEA1C4C0CFB56
:100D70000BF7D21B03FB0CF761EB07010CFB0EF723
:100D8000B0EB074072EB17420CFB08F734BFA2EB45
:100D90000742B2EB074261EB17414FEA0C444FEABE
:100DA000910706FB07FC4FEA1C4C0CFB0BF7B0EB62
:100DB000C74072EB573203FB0CF734BFA2EBC742BC
:100DC000B2EBC74261EB57310CFB0EF7B0EBC7003B
:100DD00072EB57720CFB08F734BFA2EBC702B2EB01
:100DE000C70261EB5771039F4FEA816141EA92119B
:100DF00004EBCC044FEAD1374FEA826206FB07FCD2
:100E000042EA90124FEA80604FEA1C4C0CFB0BF751
:100E1000D21B03FB0CF761EB07010CFB0EF7B0EBE9
:100E2000074072EB17420CFB08F734BFA2EB0742F6
:100E3000B2EB074261EB17414FEA8C554FEA91073D
:100E400004EB9C2406FB07FC4FEA1C4C0CFB0BF745
:100E5000B0EBC74072EB573203FB0CF734BFA2EB89
:100E6000C742B2EBC74261EB57310CFB0EF7B0EB58
:100E7000C70072EB57720CFB08F734BFA2EBC70236
:100E8000B2EBC70261EB577115EB4C254FEA81615C
:100E900041EA92114FEA82624FEAD13742EA901258
:100EA00006FB07FC44F100044FEA80604FEA1C4C4B
:100EB0000CFB0BF7D21B03FB0CF761EB07010CFBE0
:100EC0000EF7B0EB074072EB17420CFB08F734BF8C
:100ED000A2EB0742B2EB074261EB174115EB1C1581
:100EE0004FEA813141EA92414FEA823242EA90422E
:100EF0004FEA80304FEA0C7644F1000448EA03439D
:100F00004EEA0B484FF0000EB2EB080C71EB0307F2
:100F100024BF624639464EEB0E0E4FF0000B001810
:100F2000524149414BEB0B0BB2EB080C71EB030741
:100F30007BF1000B24BF624639464EEB0E0E4FF09C
:100F4000000B0018524149414BEB0B0BB2EB080C64
:100F500071EB03077BF1000B24BF624639464EEB71
:100F60000E0E51EA020718BF46F0010616EB0E7688
:100F700055F1000254F1000103D5BDE88901BDE837
:100F80000088BDE88901BDE80048B619524141EB2F
:100F90000101A3F10103704780807F7E7D7C7B7A15
:100FA0007978777676757473727171706F6E6E6D15
:100FB0006C6C6B6A6A6968686766666564646363BB
:100FC00062616160605F5F5E5E5D5D5C5C5B5B5A41
:100FD0005A595958585757565655555554545353AE
:100FE00052525251515050504F4F4F4E4E4D4D4D09
:100FF0004C4C4C4B4B4B4A4A4A4949494848484754
:101000004747474646464545454444444443434391
:101010004342424242414141002B26D4770021D035
:101020001CB54FEA370703B44FF010004FF0100122
:101030004FF000000FBCBDE810400BF1010BBBF1FD
:10104000010F08BF5FEA170722BF12F1010211F179
:1010500001014FF0004143F1000300F0004043EA7A
:1010600000007047F9D35708DAE746EA064613F15D
:10107000400F4FEA16461FDD13F1200FDFBF164366
:101080000A46002120335B42C8D0C3F1200746EA5C
:10109000064602FA07F74FEA164646EA0706C3F184
:1010A000200722FA03F201FA07F721FA03F14FF0C1
:1010B000000342EA0702B1E746EA020646EA0646AC
:1010C0004FEA164646EA0106BCBF46EA0646360C1B
:1010D0004FF000034FF000024FF000019EE72DE9B2
:1010E000C048934630B491E8380007C831EA400C54
:1010F00048BF34EA430C03D5FFF7F2FDFFF78CFF3E
:10110000F0BCBDE800882DE9C048934630B491E8B2
:10111000380007C810F0804F08BF13F0804F03D18C
:1011200000F005F8FFF778FFF0BCBDE8008820F07C
:101130007F4780EA030023F07F4C07EB0C03A3F505
:101140007C5300F00040A3F1FE0392F0000F00F08A
:10115000B38095F0000F00F077802DE901494FEA48
:1011600011404FEA144621EA004800FB06FC24EA3D
:10117000064708FB06F607FB08F800FB07F718EB25
:1011800006484CEB164C4FEA124B18EB07484FEA57
:1011900015464CEB174022EA0B4E0BFB06FC25EAEA
:1011A00006470EFB06F607FB0EFE0BFB07F71EEBD2
:1011B000064E4CEB164C4FF000061EEB074E4CEB68
:1011C000174B18EB0B0840F1000018EB0E0B58EB17
:1011D000000840F100008F1A4FF000013CBFC943E6
:1011E000661B14BFB5EB040C00213CBFC943F61BC2
:1011F0004FEA17444EEA8E0E27EA04454FEA1C4791
:1012000004FB07622CEA074C05FB07F70CFB05F60D
:1012100004FB0CFC16EB074642EB174216EB0C46A0
:1012200042EB1C421BEB060658EB0202414146EA28
:101230009E0601D5BDE80189B619524141EB010175
:10124000A3F10103BDE801894FEA14454FEA1147B4
:1012500024EA054621EA074C05FB07F406FB07F7DD
:101260000CFB06F105FB0CFC11EB074144EB1744AA
:101270004FEA124711EB0C4144EB1C4422EA074CA5
:1012800005FB07F206FB07F70CFB06F605FB0CFC5B
:1012900016EB074642EB174216EB0C4642EB1C4599
:1012A0006A1854F1000148BF7047B619524141EB2A
:1012B0000101A3F10103704795F0000F37D04FEA09
:1012C00011424FEA144721EA024624EA074C02FB86
:1012D00007F106FB07F70CFB06F402FB0CFC14EB12
:1012E000074441EB17414FEA154714EB0C4441EB1F
:1012F0001C4125EA074C02FB07F506FB07F70CFB30
:1013000006F602FB0CFC16EB074645EB174516EB01
:101310000C4645EB1C42121951F1000148BF7047C1
:10132000B619524141EB0101A3F1010370474FEAA5
:1013300014454FEA114724EA054621EA074C05FB0C
:1013400007F106FB07F70CFB06F24FF0000605FB62
:101350000CFC12EB074241EB174112EB0C4251EB34
:101360001C4148BF7047921841EB0101A3F10103F2
:101370007047FEE72DE9F84F88600C460746154692
:10138000C968906805F0CCFC0090D4F810806868BB
:10139000414605F0C5FC83462168686905F0C0FC3C
:1013A000666882463146286905F0BAFC81463946AE
:1013B000E86805F0B5FC494605F000FB514605F02C
:1013C000FDFA594605F0E4FD009905F0E1FD606184
:1013D000C4E90380C4E90067BDE8F88F2DE9FC414A
:1013E00000252E46344613A0FEF722FF002768464C
:1013F00001F0C8FFBDF900000544BDF90200064434
:10140000BDF9040004440520A4F5805400F0ACF9B3
:101410007F1C642FEBDB95FBF7F10C48016096FB1A
:10142000F7F1416094FBF7F1816009A0FEF700FF3E
:10143000BDE8FC814163632043616C696272617441
:10144000696F6E2053746172740A0D0014040020D9
:101450004163632043616C6962726174696F6E20DD
:1014600053746F700A0D00002DE9FC4100242546DD
:101470002E4613A0FEF7DCFE0027684601F09DFF14
:10148000BDF900000444BDF902000544BDF90400A3
:101490000644052000F068F97F1C642FEDDB94FB07
:1014A000F7F195FBF7F296FBF7F30C480EC00CA092
:1014B000FEF7BEFE12A0FEF7BBFEBDE8FC810000F9
:1014C0004779726F2043616C6962726174696F6EF3
:1014D0002053746172740A0D000000002004002083
:1014E0004779726F5F526177446174615F4F6666DE
:1014F0007365743A25642C25642C25640A0D00005C
:101500004779726F2043616C6962726174696F6EB2
:101510002053746F700A0D002DE9FC5F504C4F4D45
:101520002946A06A05F0FCFB05F01CFA04F066FBF6
:1015300004F0AAFC20632946A06A05F0F1FB05F03F
:1015400011FA03F0DDFF04F09FFCE0632946E06A36
:1015500005F0E6FB05F006FA04F050FB04F094FCFD
:1015600060632946E06A05F0DBFB05F0FBF903F058
:10157000C7FF04F089FC20642946606A05F0D0FBAF
:1015800005F0F0F904F03AFB04F07EFCA063294674
:10159000606A05F0C5FB05F0E5F903F0B1FF04F062
:1015A00073FC6064216C0646019105F0B9FB2D4D7A
:1015B0002860A16BE06B8A46009005F0B1FB0746FE
:1015C000616B206B8946834605F0AAFB8046314655
:1015D00005F0A6FB394605F0DBFC6860494600983B
:1015E00005F09EFB0746314605F09AFB044651463E
:1015F000584605F095FB214605F0E0F9A8605046F5
:10160000019905F08DFBE8603146009805F088FBF4
:1016100004464046514605F083FB214605F0CEF9CD
:1016200028613146584605F07BFB04463846514652
:1016300005F076FB214605F0ABFC686189F00040BF
:10164000A8615846019905F06BFBE861DDE90001EE
:1016500005F066FB2862BDE8FC9F000035FA8E3C71
:101660003C0000208C0600207047704772B6FEE7F1
:1016700030B572B61A49496A03781A4D1A4A41F2CE
:1016800088345BB1836843602D682D69ED071CD0F9
:10169000A1421AD21268E410521C19E0012303700F
:1016A0002B681B69DB0706D0A14204D2126840F206
:1016B0007123521C02E0126840F271235A4301EB7D
:1016C000021181604160002107E0126840F271243C
:1016D000624301EB02118160C91AC16062B630BD7C
:1016E00000100040F80100201C00002030B560B15F
:1016F0001A4B026814219A4209D2194B1344B3FBC6
:10170000F1F18900016417490AE0012030BD134B53
:101710005B421344B3FBF1F1890001640F490839BE
:10172000C163022180F82110136843F6F0718B43E6
:10173000F0E901142143D0E902452C432143046917
:1017400021434469214384692143194311600021E5
:101750004163012242770177084630BD0804024008
:10176000F8FFFDBF0000024070B5044600F00AF922
:101770000546601C02D004480078044400F002F9D9
:10178000401BA042FAD370BD040000202DE9F84FA1
:10179000DFF8C891002409F1040A0AF1040B23467A
:1017A0000F270BF1040ED1E00125A54006EA050242
:1017B000AA4276D1DFF8A8C14E68A6EB0C086645B0
:1017C0002BD00DDC032E34D005DC36B3012E19D01E
:1017D000022E2FD11BE0112E16D0122E2AD119E085
:1017E000B8F5881F19D006DCB8F5803F15D0B8F5DC
:1017F000801F1FD111E0B8F5001F0ED0B8F5041FEF
:1018000018D10AE0CB6815E0CB681B1D12E0CB684D
:1018100008330FE0CB680C330CE08B682BB1012B45
:101820004FF0080303D0456104E0042302E00561A2
:1018300000E00023FF2A01D8064601E000F104067B
:101840004FEA840501D9A5F12005D6F8008007FAF2
:1018500005FC28EA0C0803FA05F548EA0508C6F86D
:1018600000804D68ED0070D53E4DAE6946F0010632
:10187000AE61AD6924F0030605F0010500953A4D0F
:1018800006EB050CDCF80850A607360F07FA06F839
:1018900025EA0805DFF8D480404503D14FF0000861
:1018A00025E052E0DFF8C880404502D14FF0010842
:1018B0001DE0DFF8C080404502D14FF0020816E07D
:1018C000DFF8B480404502D14FF003080FE0DFF8A5
:1018D000AC80404502D14FF0040808E0DFF8A0805A
:1018E000404502D14FF0050801E04FF0060808FA24
:1018F00006F848EA0508CCF808804D68D9F8006079
:10190000ED034D4601D5164300E096432E604D6829
:10191000DAF80060AD03554601D5164300E0964362
:101920002E604D68DBF80060ED025D4601D5164380
:1019300000E096432E604D68DEF80060AD0275460B
:1019400001D5164300E096432E60641C0A681646D3
:10195000E2407FF429AFBDE8F88F000000040140A9
:10196000000011100010024000000140000801407A
:10197000000C01400010014000140140001801401B
:10198000001C0140014880687047000004000020EE
:1019900070B5040025D094F83D00002520B984F8E6
:1019A0003C50204600F078FA242084F83D0020685E
:1019B000016821F0010101602068016841F40041E3
:1019C00001602068016821F40041016000F0C0FB63
:1019D0004D4A6168914201D84C4900E04C49884227
:1019E00001D2012070BD4B492368B0FBF1F15E6864
:1019F00026F03F060E435E606368934206D94FF4BB
:101A0000967359434FF47A73B1FBF3F12368491C81
:101A10001E6A26F03F06314319626168914210D870
:101A20004900401EB0FBF1F2521CC2F30B02042A23
:101A300001D2042022E0B0FBF1F0401CC0F30B0007
:101A40001CE0A268F2B301EBC10303EB0116431ED5
:101A5000B3FBF6F35B1C43F480431B0549D092B300
:101A600001EBC10202EB0111401EB0FBF1F0401C82
:101A7000C0F30B0040F4804040F400402168CA6984
:101A80004CF6FF739A431043C861D4E90710014331
:101A90002068026822F0C00211430160D4E903010A
:101AA00001432068826848F2FF339A431143816002
:101AB000D4E9050108432168CA6822F0FF021043F7
:101AC000C86001E00EE016E02068016841F0010105
:101AD00001602564202084F83D00256384F83E5091
:101AE000002070BD01EB4106431EB3FBF6F35B1C07
:101AF000B3E70120C2E701EB4101401EB0FBF1F06A
:101B0000401CC0F30B00B7E7A086010080841E00D4
:101B100000093D0040420F002DE9FF4F83B0002532
:101B2000DDE910799A4693460446DDF84880009531
:101B3000FFF728FF064694F83D0020287CD11923A2
:101B4000012285492046009601F010FB0028F5D1BE
:101B500094F83C0001286FD0012084F83C002068F4
:101B60000168C90703D1016841F0010101602068E3
:101B7000016821F400610160222084F83D004020CA
:101B800084F83E0025646762A4F82A90608D208561
:101B90007248E062CDE9008653465A4620460499D1
:101BA00001F0ECF900287DD1208DDFF8B4912027D9
:101BB00068B1012814D00228206801681ED041F4C1
:101BC000806101602068416980690090B6E020680A
:101BD000416981690091016841F400710160ADE0E3
:101BE0002068016821F48061016072B62068416953
:101BF00081690091016841F400710AE041F40061DB
:101C0000016072B62068416981690091016821F420
:101C10008061016062B691E0032868D801280CD089
:101C2000022843464FF000024946204600960FD056
:101C300001F09CFAB0BB10E08BE0324641462046F2
:101C400001F013FB70BB20680069616A08706CE0EA
:101C500001F08CFA30BB72B634E02068016821F4E0
:101C60008061016072B620680069616A0870606A0C
:101C7000401C6062208D401E2085608D401E608566
:101C8000384846F2A8110068B0FBF1F0C0EBC00084
:101C900000EB80000090401E009008D02068406952
:101CA000C04300E029E040070CD50098F3E744F872
:101CB000305F6773A573206940F02000206162B631
:101CC00025731AE02068016841F400710160206802
:101CD0000069616A0870606A401C6062218D491E5B
:101CE0002185618D491E618562B621681BE03246FF
:101CF0004146204601F0B9FA18B1012007B0BDE80D
:101D0000F08F20680069616A0870606A401C606238
:101D1000218D491E2185618D491E618521684A6991
:101D2000D24352070AD409690170606A401C60629C
:101D3000208D401E2085608D401E6085208D0028EE
:101D40007FF46AAF84F83D7084F83E5084F83C50CC
:101D5000D4E70220D2E70000020010000000FFFFDD
:101D600004000100100000202DE9FF4F83B09A46C7
:101D7000DDE9119793460446DDF84080FFF702FE47
:101D8000054694F83D0020287FD1192301224049BF
:101D90002046009501F0EAF9002876D194F83C003D
:101DA000012872D0012084F83C0020680168C9072E
:101DB00003D1016841F0010101602068016821F44C
:101DC00000610160212084F83D00402084F83E003D
:101DD00000262664C4F82480A4F82A90608D20850B
:101DE0002C48E062CDE9007553465A4620460499D6
:101DF00001F042F970B930E02A463946204601F038
:101E000067FA58B1206C042804D12068016841F4B5
:101E100000710160012007B0BDE8F08F606A2168A1
:101E200000780861606A401C6062218D491E89B299
:101E30002185628D521E628522685369DB435B07F0
:101E40000BD469B100781061606A401C6062208D1B
:101E5000401E2085608D401E6085208D0028CBD1DE
:101E60002A463946204601F05BF90028CAD154F8C9
:101E70003D0B016841F400710160202004F81E0947
:101E8000E67766770020C6E7FFE70220C3E7000099
:101E9000020010000000FFFF10B586B00021009185
:101EA00001910291039100680F4988421AD10F4CA9
:101EB000A06940F00800A061A069694600F0080030
:101EC0000490C02000901220019003200390084845
:101ED000FFF75CFCE06940F40010E061E06900F4A9
:101EE0000010049006B010BD0054004000100240E5
:101EF000000C0140024881680278114481607047FB
:101F000004000020074810B5016841F0100101608D
:101F1000032000F075F80F2000F006F800F024F818
:101F2000002010BD0020024070B50D4D04464FF456
:101F30007A712878B1FBF0F00A490968B1FBF0F03A
:101F400000F0ECFA48B9102C07D200222146501EAE
:101F500000F036F800206C6070BD012070BD0000FC
:101F600004000020100000200C4808B5816941F0F1
:101F700001018161816901F001010091C16941F0B4
:101F80008051C161C06900F08050009004484168F0
:101F900021F0E06141F00071416008BD0010024095
:101FA00000000140002809DB00F01F0201219140E0
:101FB0004009800000F1E020C0F8001170470000E7
:101FC000F0B40E4B1B680C46C3F30223C3F10705A4
:101FD000042D00D90425191D072901D2002300E092
:101FE000DB1E012606FA05F1491E214099409E405C
:101FF000761E16403143F0BC01F03EBE0CED00E011
:10200000064900F0070208684FF6FF03184040EA4F
:102010000220034A10430860704700000CED00E006
:102020000000FA052DE9F0470F46050061D0434E48
:10203000306800F00700B84209D2306820F007008D
:1020400038433060306800F00700B84251D128684A
:102050003B4C810712D5400703D5606840F4E0602F
:1020600060602878000703D5606840F460506060C5
:102070006068A96820F0F000084360602878C00715
:1020800028D06868012810D02168022810D089075C
:1020900000292EDA616821F0030101436160FFF736
:1020A00071FC804641F288390DE021688903EFE731
:1020B0008901EDE7FFF766FCA0EB0801494502D96D
:1020C0000320BDE8F0876068696800F00C00B0EBA1
:1020D000810FEFD1306800F00700B8420BD93068AB
:1020E00020F0070038433060306800F00700B84245
:1020F00001D00120E5E72878400705D56068E96848
:1021000020F4E060084360602878000706D5606826
:10211000296920F4605040EAC100606000F038F89E
:102120006168084AC1F30311515CC8400649086060
:1021300006480068FFF7F8FE0020C2E700200240D2
:1021400000100240BA7100081000002008000020B2
:102150000448054900684968044AC1F30221515CFA
:10216000C84070471000002000100240CA710008EB
:102170000448054900684968044AC1F3C221515C1A
:10218000C84070471000002000100240CA710008CB
:1021900012A185B00FC98DE80F0014A0144A006881
:1021A00004905168134801F00C03042B10D0082B45
:1021B0000ED1C1F38343C9031DF803000AD551684A
:1021C00004AAC1F34041515C0A4A5043B0FBF1F00C
:1021D00005B0704708494843FAE7000002030405C8
:1021E000060708090A0B0C0D0E0F10100102000063
:1021F0000010024000127A0000093D002DE9F84F5E
:10220000040070D02078C04DC00749D06868C0F382
:102210008100012807D06868C0F38100022809D135
:102220006868C00306D52868800339D5606800282F
:10223000E7D035E06068B0F5803F0BD010B1B0F565
:10224000A02F11D0286820F480302860286820F45E
:10225000802002E0286840F480302860606890B1F7
:10226000FFF790FB06460AE0286840F480202860CB
:10227000F0E700BFFFF786FB801B642873D828684F
:102280008003F7D50CE0FFF77DFB064605E000BFB5
:10229000FFF778FB801B6428F0D828688003F7D408
:1022A00020789A4E80074FF001094FF0000839D589
:1022B000686810F00C0F07D06868C0F3810002282E
:1022C00009D16868C00306D42868800714D520693E
:1022D000012808D110E02069B0B1C6F80090FFF7DE
:1022E00051FB074605E00AE1FFF74CFBC01B022843
:1022F000C4D828688007F7D52868616920F0F800FD
:1023000040EAC10028600DE0C6F80080FFF73AFB04
:10231000074604E0FFF736FBC01B022823D82868D5
:102320008007F7D4207800072CD57948A169D9B166
:10233000C0F80090FFF726FB074604E0FFF722FBFA
:10234000C01B02280FD8686A8007F7D571484FF480
:10235000FA510068B0FBF1F0009000BF0098411EF8
:102360000091FAD20EE080E0C0F80080FFF70AFB8F
:10237000074604E0FFF706FBC01B022875D8686A11
:102380008007F7D42078400760D5E8690027C000AF
:1023900008D4E86940F08050E861E869012700F05E
:1023A000805000905C480168C90513D401688346D9
:1023B00041F480710160FFF7E5FA824606E000BF54
:1023C000FFF7E0FAA0EB0A0064284ED8DBF8000023
:1023D000C005F5D5E06801280AD008B1052813D05A
:1023E000286A20F001002862286A20F0040002E038
:1023F000286A40F001002862E06841F2883B98B109
:10240000FFF7C0FA82460BE0286A40F00400286219
:10241000EEE700BFFFF7B6FAA0EB0A0159455AD81C
:10242000286A8007F6D50CE0FFF7ACFA824605E093
:10243000FFF7A8FAA0EB0A0159454CD8286A800793
:10244000F6D41FB1E86920F08050E861E06988B3F4
:102450006968C1F38101022944D00228C6F860806E
:1024600004D0FFF78FFA044638E034E0FFF78AFA29
:10247000074604E0FFF786FAC01B02282BD828681D
:102480008001F7D4206AB0F5803F05D16868A16863
:1024900020F4003008436860D4E908010843696803
:1024A00021F4741108436860C6F86090FFF76AFA77
:1024B000044606E025E000BFFFF764FA001B02288F
:1024C00009D828688001F7D51BE000BFFFF75AFA4A
:1024D000001B022802D90320BDE8F88F286880017C
:1024E000F4D40EE00128F7D06868226A00F4803145
:1024F000914204D1616A00F47010884201D0012039
:10250000EAE70020E8E70000001002400000424235
:1025100080044242100000200070004010B5401EB0
:10252000B0F1807F01D3012010BD4FF0E024606145
:102530000F21601701F0A0FB0020A061072020619F
:10254000002010BD7047704710B590F83C20012A5C
:1025500022D0012280F83C20CA688C6822F44072A4
:1025600022434C6822F4806222430C6822F4006209
:1025700022430C6922F4805222434C6922F4005217
:102580002243C969002322F480420A4301684A6455
:1025900080F83C30002010BD022010BD70B590F8CE
:1025A0003C20012A2CD0012480F83C40022280F8F3
:1025B0003D2003685A689D6822F070060A6832431D
:1025C0005A60104B02689A420ED00F4B9A420BD0C1
:1025D000B2F1804F08D00D4B9A4205D00C4B9A4275
:1025E00002D00C4B9A4204D1496825F0800319436C
:1025F000916080F83D40002180F83C10084670BD95
:10260000022070BD002C0140003401400004004055
:1026100000080040000C004010B5040003D094F8FE
:102620003D0010B107E0012010BD002084F83C00FF
:10263000204600F01FF8022084F83D00211D20688C
:1026400001F04AF9012084F8460084F83E0084F83D
:102650003F0084F8400084F8410084F8420084F888
:10266000430084F8440084F8450084F83D000020CD
:1026700010BD000008B5174A01681748914207D1FC
:10268000816941F400618161806900F4006009E0C2
:10269000124A914208D1C16941F00401C161C06987
:1026A00000F00400009008BD0D4A9142FBD1C169C1
:1026B00041F01001C161C069002200F010000090DB
:1026C00011463620FFF77CFCBDE808403620FFF7B6
:1026D00069BC0000002C01400010024000080040CE
:1026E0000010004090F83D10012901D001207047F2
:1026F000022180F83D100168CA6842F00102CA60F8
:1027000000680E4988420ED00D4988420BD0B0F1C6
:10271000804F08D00B49884205D00B49884202D02F
:102720000A49884204D1816801F00701062903D0D3
:10273000016841F00101016000207047002C014058
:10274000003401400004004000080040000C00403C
:1027500070B5044690F83C00012817D0012584F894
:102760003C50022084F83D002068826822F0770205
:1027700022F47F4282600868502830D00DDC202887
:102780004DD005DC98B310283BD148E0022070BD45
:10279000302844D0402834D139E0602828D070282F
:1027A00006D0B0F5805F2CD0B0F5005F29D10AE0EB
:1027B000CB68D1E90121206801F0E1F82068816847
:1027C00041F0770109E0CB68D1E90121206801F0EF
:1027D000D6F82068816841F48041816011E0CA68C0
:1027E0004968206801F0A0F95021206807E016E050
:1027F000CA684968206801F0A8F96021206801F0E2
:10280000C8F884F83D50002084F83C0070BDCA68C8
:102810004968206801F088F940212068EFE72268C4
:1028200001461046EBE72DE9F0410D46040003D0C8
:1028300094F83D0018B108E00120BDE8F0810020C7
:1028400084F83C00204600F041F8022084F83D0066
:102850002068816844F2070291438160211D20684D
:1028600001F03AF8226890689169166A2B68AF699E
:10287000034340F20330814341EA0721A868EF692E
:1028800008434FF6FC418843E96840EA07200143CA
:1028900028692F6A000140EA0730084369686D69BA
:1028A00026F0220646EA05152943936022689061C6
:1028B00054F8460B0162012004F81F09E0752076E8
:1028C000E0762077A0750020B7E7000000B585B05E
:1028D0000021009101910291039102681849194861
:1028E000B2F1804F19D0184B9A4214D1CA6942F004
:1028F0000202CA61CA6902F0020204928A6942F0C5
:1029000004028A61896901F004010491C0210091E7
:102910006946FEF73BFF05B000BDCA6942F00102FF
:10292000CA61CA6902F0010204928A6942F0040293
:102930008A61896901F0040104910321E7E700003D
:1029400000100240000801400004004070B590F8FB
:102950003E60044690F83F5090F8423090F8432093
:10296000022021B104290ED0012E1BD114E0012E2A
:1029700018D1012B16D184F83E0084F842000122C0
:102980000021206820E0012D0CD1012A0AD184F811
:102990003F0084F8430014E0012D03D1012B01D145
:1029A000012A01D0012070BD84F83E0084F83F0068
:1029B00084F8420084F8430001220021206800F0DE
:1029C000D1FF01220421206800F0CCFF20680168BB
:1029D00041F001010160002070BD704770B50446F0
:1029E000006801694FF00005C943890715D4C16823
:1029F000C943890711D4E91E0161012020772068AD
:102A000080698007204602D0FFF7E7FF04E000F06E
:102A1000D7F8204600F066F9257720680169C94398
:102A2000490717D4C168C943490713D46FF004019B
:102A30000161022020772068806910F4407F2046E1
:102A400002D0FFF7CAFF04E000F0BAF8204600F019
:102A500049F9257720680169C943090716D4C16877
:102A6000C943090712D46FF00801016104202077DF
:102A70002068C0698007204602D0FFF7AEFF04E05F
:102A800000F09EF8204600F02DF9257720680169B6
:102A9000C943C90617D4C168C943C90613D46FF026
:102AA00010010161082020772068C06910F4407F80
:102AB000204602D0FFF791FF04E000F081F82046A5
:102AC00000F010F9257720680169C943C90708D1CA
:102AD000C168C943C90704D1891E0161204600F0BD
:102AE0005DF920680169C943090609D4C168C94371
:102AF000090605D46FF0800101612046FFF722FD31
:102B000020680169C943490609D4C168C943490617
:102B100005D46FF040010161204600F08DF9206876
:102B20000169C94389060BD4C168C943890607D422
:102B30006FF0200101612046BDE87040FFF703BD42
:102B400070BD000000B585B0002100910191029197
:102B50000391164B0268164802219A420FD18269EE
:102B600042F0040282618069039100F00400049045
:102B70004FF41060CDE9000169460E4811E00E4B9C
:102B80009A4210D1826942F0080282618069039101
:102B900000F0080004904FF44070CDE90001694650
:102BA0000648FEF7F3FD05B000BD0000002C014013
:102BB000001002400008014000080040000C0140E5
:102BC000704770B5044690F83C000D4601280AD0C5
:102BD000012084F83C0042B1042A18D0082A2AD0E7
:102BE0000C2A4DD139E0022070BD206800F0DAFED9
:102BF0002068816941F0080181612068816921F0C4
:102C000004018161206881692A69114311E020680B
:102C100000F0F8FE2068816941F40061816120685C
:102C2000816921F480618161206881692A6941EAB2
:102C30000221816124E0206800F01AFF2068C16948
:102C400041F00801C1612068C16921F00401C1613E
:102C50002068C1692A69114311E0206800F03CFF37
:102C60002068C16941F40061C1612068C16921F433
:102C70008061C1612068C1692A6941EA0221C1619C
:102C8000002084F83C0070BD10B5040003D094F817
:102C90003D0010B107E0012010BD002084F83C0089
:102CA000204600F01EF8022084F83D00211D206817
:102CB00000F012FE012084F8460084F83E0084F8FB
:102CC0003F0084F8400084F8410084F8420084F812
:102CD000430084F8440084F8450084F83D00002057
:102CE00010BD70477047000010B50446022249B17C
:102CF00004290ED0082913D094F84100012816D0D9
:102D0000012010BD94F83E000128F9D184F83E203E
:102D10000FE094F83F000128F2D184F83F2008E04A
:102D200094F840000128EBD184F8402001E084F8B9
:102D300041200122206800F015FE13492068134A43
:102D4000884201D0904203D1436C43F40043436472
:102D5000206888420DD090420BD0B0F1804F08D04F
:102D60000B49884205D00B49884202D00A49884263
:102D700004D1816801F00701062903D0016841F000
:102D800001010160002010BD002C01400034014011
:102D90000004004000080040000C004070B52049CD
:102DA00088423CD11F48204C204D0168204E491CD0
:102DB000016041680978C90711D18168491C8160A7
:102DC00002F0B6FC01F082FB022002F003FF20615A
:102DD000032002F0FFFE286121690844B0613068D9
:102DE00003F022FF6061706803F01EFF6861114903
:102DF0000D4802F0CDFD0F490C4802F0C9FD2068D6
:102E000003F012FF0146012002F0A0FE286803F043
:102E10000BFFBDE870400146022002F097BE70BD76
:102E2000F8010020140000202C040020440400209D
:102E3000C80200205C040020704770B5040004D074
:102E400094F83D00002510B106E0012070BD84F823
:102E50003C50204600F022F8242084F83D002068F1
:102E6000C16821F40051C160204600F081FE206855
:102E7000016921F4904101612068416921F02A0132
:102E800041612068C16841F40051C160256420207F
:102E900084F83D0084F83E00002070BD70B586B017
:102EA0000025064600950195029503950068224984
:102EB00088423FD12149C86940F48020C861C8696F
:102EC00000F480200490886940F0080088618869D7
:102ED0001B4C00F00800049008150090022001909F
:102EE0000320039069462046FEF750FCE014CDE92C
:102EF0000005694620460295FEF748FC124C114831
:102F0000C4E900058020C4E90250256140016561E3
:102F1000C4E906502046FEF7E9FB08B1FEF7A6FB20
:102F2000B4630022114627206662FFF749F8272084
:102F3000FFF738F806B070BD0048004000100240AE
:102F4000000C01403000024084020020FEE70168CE
:102F50004A69D24352050FD46FF480624A6100215E
:102F600040F8301F202242738173026942F004024C
:102F70000261017301207047002070472DE9F84F6E
:102F80000446006889460B9D01689846174641F43F
:102F9000806101602068016841F4807101600095E2
:102FA0004FF0011B0022594620460A9B00F0DEF834
:102FB0004FF4007A40B120680068C00501D5C4F81C
:102FC00040A00320BDE8F88F216809F0FE000861E9
:102FD0002B46284920460A9A00F0FCF8F0BB2068EE
:102FE0004169806900902A4620460A9900F070F9EC
:102FF00040B1206C04283AD12068016841F4007186
:10300000016034E0FEB2B8F1010F09D02168380A3E
:1030100008612A4620460A9900F05AF90028E8D1AA
:10302000206806612A4620460A9900F051F90028D6
:10303000DFD12068016841F48071016000950022B1
:10304000594620460A9B00F091F80028B3D1216828
:1030500009F0FF0040F00100086100E007E02B46A6
:10306000044920460A9A00F0B5F80028AAD00120A9
:10307000A8E70000020001002DE9F84304460068BB
:103080000D46DDE9089701689846164641F48071BF
:1030900001604B4600224FF001112046009700F0DE
:1030A00065F848B120680068C00502D54FF400708B
:1030B00020640320BDE8F883216805F0FE00086164
:1030C0003B464A461549204600F084F888B92068F6
:1030D0004169806900903A464946204600F0F8F878
:1030E00048B1206C042804D12068016841F40071C3
:1030F00001600120DEE7F5B2B8F1010F09D02168C7
:10310000300A08613A464946204600F0E1F80028B6
:10311000E7D1206805610020CCE700000200010033
:1031200070B516460D4604460DE02046FFF70FFF2A
:1031300008B1012070BD681C05D0FEF723FC801B80
:10314000A84207D835B120684069C0434007ECD495
:10315000002070BD002044F8300F20216173A0735F
:10316000216941F0200121612073E2E72DE9F04758
:103170001E4690460D460446C1F30747DDF82090F1
:1031800008E0701C06D0FEF7FDFBA0EB0900B04282
:103190000FD876B12068012F18D0806925EA000089
:1031A0000004000C14D000214145EAD00020BDE805
:1031B000F087002044F8300F20216173A07321694B
:1031C00041F02001216120730120F0E74069E5E72B
:1031D0000121E9E72DE9F0479A4691460E4604465B
:1031E00000254FF02008C1F3074725E0206840691B
:1031F000C043400514D42068016841F400710160A7
:1032000021686FF480604861256384F83D8084F80C
:103210003E50206C40F00400206484F83C501FE0D5
:10322000B9F1FF3F08D0FEF7ADFBA0EB0A0149451D
:103230000CD8B9F1000F09D02068012F13D0806994
:1032400026EA00000004000C0BD0CFE744F8305F02
:1032500084F80D80A573206940F02000206125735B
:103260000120BDE8F0874069EAE72DE9F04100253B
:1032700090460E460446202717E04069C043C0062A
:103280000CD454F8301B6FF01000486144F810590A
:103290006777A577206A2062257717E0FEF772FB33
:1032A000A0EB0800B04208D83EB120684169C9438C
:1032B0004906E2D40020BDE8F08144F8305F67732E
:1032C000A573206940F02000206125730120F2E7FA
:1032D00070B516460D4604460DE02046FFF737FE52
:1032E00008B1012070BD681C05D0FEF74BFB801BA8
:1032F000A84207D835B120684069C0430006ECD425
:10330000002070BD002044F8300F20216173A073AD
:10331000216941F0200121612073E2E708B56A4686
:103320007521682002F0E8FA9DF80000682801D0B5
:10333000002008BD012008BD10B500204FF47A72AE
:103340000221491C9142FCDB401C9042F8DB002228
:103350006B21682002F0E4FA00221921682002F0B3
:10336000DFFA00221A21682002F0DAFA08221B2173
:10337000682002F0D5FA10221C21BDE81040682018
:1033800002F0CEBA7CB50546052406E006236A465F
:103390003B21682002F09CFA10B1641EE4B2F5D221
:1033A000BDF8000040BA2880BDF8020040BA68802D
:1033B000BDF8040040BAA8807CBD7CB50546052454
:1033C00006E006236A464321682002F081FA10B124
:1033D000641EE4B2F5D2BDF8000040BA2880BDF802
:1033E000020040BA6880BDF8040040BAA8807CBDE5
:1033F00038B50546052406E002236A4641216820C7
:1034000002F066FA10B1641EE4B2F5D2BDF8000015
:1034100040BA00B203F024FC034903F043FB034924
:1034200003F0CCFA286038BD0000AA43B81E12424F
:10343000094808B5416941F0010141614069002234
:1034400000F00100009011460D20FEF7B9FDBDE827
:1034500008400D20FEF7A6BD001002400D4808B53B
:10346000816941F020018161816901F020010091B1
:10347000816941F004018161816901F004010091D9
:10348000816941F008018161806900F008000090C5
:1034900008BD0000001002400D4810B50B49016046
:1034A0000C49416000214FF480428160C0E9031261
:1034B00041618161C1610162FEF76AFA002803D0AF
:1034C000BDE81040FEF7D2B810BD00000054004027
:1034D00084000020A086010010B596B000240F944F
:1034E00010941194129413941C2168461494FCF7C0
:1034F0004DFF202107A8FCF749FF2C482A49C0E9C5
:10350000001441F61F41C0E9024180210461C0E975
:103510000541FFF781F808B1FEF7A8F84FF4805095
:103520000F900FA92148FFF713F908B1FEF79EF895
:103530001E48FFF7A9FB08B1FEF798F8139413A9EA
:103540001A481494FFF72AF808B1FEF78FF86020A4
:10355000CDE9000402940394049405940022694682
:1035600012480694FFF72DFB08B1FEF77FF80C22F6
:1035700069460E48FFF725FB08B1FEF777F8079478
:10358000089409944FF400500A94CDE90B4007A920
:1035900006480E94FEF7D8FF08B1FEF767F8034817
:1035A000FFF7D0FA16B010BD002C0140D800002063
:1035B00010B58CB024216846FCF7E8FE00241648BC
:1035C00009944FF080410A94C0E900144FF6FF714E
:1035D000C0E90241046184610320CDE900040120B7
:1035E000CDE902040C210491CDE90540CDE9074164
:1035F00069460948FFF717F908B1FEF737F809944B
:1036000009A905480A94FEF7C9FF002801D0FEF772
:103610002DF80CB010BD00002001002010B58CB0BA
:1036200024216846FCF7B2FE002416480994144988
:103630000A94C0E900144FF6FF71C0E90241046129
:1036400084610320CDE900040120CDE902040C21AE
:103650000491CDE90540CDE9074169460948FFF7E6
:10366000E2F808B1FEF702F8099409A905480A949E
:10367000FEF794FF002801D0FDF7F8FF0CB010BD55
:10368000000400406801002010B58EB000240794AB
:10369000089409940A940B941C2168460C94FCF736
:1036A00075FE22482049C0E9001441F61F41C0E9D7
:1036B0000241802104618161FEF7AEFF08B1FDF790
:1036C000D5FF4FF48050079007A91848FFF740F83E
:1036D00008B1FDF7CBFF1548FFF7D6FA08B1FDF7A3
:1036E000C5FF0B940BA911480C94FEF757FF08B1C6
:1036F000FDF7BCFF6020CDE9000402940822694672
:103700000A480494FFF75DFA08B1FDF7AFFF0C22F9
:1037100069460648FFF755FA08B1FDF7A7FF0348C9
:10372000FFF710FA0EB010BD00080040B0010020F5
:103730001CB500240F4800940D49019401604721F5
:10374000C0E9011441F28731C16080218161FEF737
:1037500063FF08B1FDF78AFF0094694605480194AC
:10376000FEF71CFF002801D0FDF780FF1CBD000004
:1037700000100040F80100200C4810B50A49016013
:103780004FF4E1314160002181600C22C160C0E949
:1037900004128161C161FFF750FB002803D0BDE82E
:1037A0001040FDF763BF10BD0048004040020020FC
:1037B000FEE7FEE72DE9F05F1446894603F072F953
:1037C0000146274803F06EF902F08EFA8046014662
:1037D00003F0A6FA8346DFF88CA05D46504601F060
:1037E000DDFE012103F0ABFC414603F099FA4FF0F6
:1037F0007E56314603F0E2F8294603F0DFF807462B
:10380000B9F5000F2ADB5846394603F04BF9054657
:103810000121E06003F093FC2660C4E904055846EA
:10382000314603F0B5FB012103F089FC394603F072
:1038300039F960605D46504601F0B0FE012103F0A9
:103840007EFC414603F06CFA314603F097FB2946B3
:1038500003F0B4F8394603F025F9A060BDE8F09F05
:10386000DA0F4940DA0F493FFEF744BB30B58FB05D
:1038700028216846FCF78AFD14210AA8FCF786FD7A
:1038800001210804CDE900100024029402250491CE
:10389000CDE907504FF4E01009906846FEF7AEFC02
:1038A00008B172B6FEE70F20CDE90A054FF480603B
:1038B000CDE90C4002210AA80E94FEF7B3FB0028C4
:1038C00001D072B6FEE70FB030BD70470148FFF778
:1038D00085B80000F8010020F0B502681C4B1D4DB2
:1038E0001D4E1E4F1E4C4FF0804C984209D0A042F6
:1038F00007D0604505D0A84203D0B04201D0B842FD
:1039000004D122F0700E4A6842EA0E02984209D0B1
:10391000A04207D0604505D0A84203D0B04201D0F4
:10392000B84203D122F44075CA682A434D6922F097
:1039300080022A4302608A68C2620A6882629842F0
:1039400001D0A04201D10969016301214161F0BDAB
:10395000002C01400004004000080040000C004022
:103960000034014010B501F01F030121046A9940A1
:103970008C430462016A9A401143016210BD10B584
:10398000846842EA032224F47F440A43224382608B
:1039900010BD826822F070020A4342F00701816084
:1039A00070470000F0B5026A22F001020262036A69
:1039B00042688469124E24F073050C682C4323F08E
:1039C00002058B682B430D4DA84201D0B04205D1B2
:1039D00023F00807CB683B4323F00403A84201D03F
:1039E000B04205D14D6922F4407215438A692A43D9
:1039F00042608461496841630362F0BD002C01406C
:103A000000340140F0B5026A22F010020262026A3C
:103A1000436884690D6824F4E64444EA05248D680B
:103A200022F0200242EA05120F4D104EA84201D0AA
:103A3000B04206D1CF6822F0800242EA071222F09B
:103A40004002A84201D0B04207D14D6923F440633F
:103A500043EA85038D6943EA8503436084614968CD
:103A600081630262F0BD0000002C0140003401407F
:103A7000F0B5026A22F480720262026A4368C46985
:103A800022F4007224F073050C68124E2C438D68EA
:103A900042EA05220E4DA84201D0B04206D1CF68BD
:103AA00022F4006242EA072222F48062A84201D096
:103AB000B04207D14D6923F4405343EA05138D69A1
:103AC00043EA05134360C4614968C1630262F0BD03
:103AD000002C01400034014030B5026A22F48052CB
:103AE0000262046A4268C3690D6823F4E64343EA4C
:103AF00005238D6824F4005444EA0534084DA84297
:103B000002D0084DA84204D14D6922F4804242EA15
:103B100085124260C36149680164046230BD0000DF
:103B2000002C01400034014010B5036A046A24F0FF
:103B300001040462846924F0F00444EA021423F0CE
:103B40000A020A438461026210BD10B5036A23F0C1
:103B5000100303628369046A23F4704343EA023268
:103B600024F0A00343EA01118261016210BD00004C
:103B700070B5044600680169E26821F440511143C0
:103B800001612169A0680843616908432168CA6826
:103B900041F20C639A430243CA6020684169A269FA
:103BA00021F44071114341611E492068884202D1CD
:103BB000FEF7DEFA01E0FEF7CBFA00EBC00101EB05
:103BC0000012606864218000B2FBF0F3B3FBF1F3F4
:103BD0006FF018067343B2FBF0F5B2FBF0F605EB9D
:103BE0008305322303EB0515B5FBF1F5B6FBF1F6C2
:103BF00005F0F00505EB0615B2FBF0F6B2FBF0F0B0
:103C0000B0FBF1F06FF01802504306EB800003EBBD
:103C10000010B0FBF1F0216800F00F00284488602C
:103C200070BD000000380140FEE7490050EAC120A5
:103C300018BF04204A0D18BF40F0010040F2FF7287
:103C4000B2EB515F08BF40F00200012808BF052019
:103C500070474100080218BF04200A0E18BF40F048
:103C600001004FF07F4232EA010108BF40F002003C
:103C7000012808BF052070470907090E002804DB4A
:103C800000F1E02080F80014704700F00F0000F110
:103C9000E02080F8141D70472DE9F74F144694B0CA
:103CA0000021C4E902111599079121F00045C94985
:103CB0008D4206DC1599C4E9000117B00020BDE86B
:103CC000F08FC549DFF814A3A9423CDD0799C44E23
:103CD0000029C44FC44A1599534619DD02F058FD16
:103CE000554506D0C14AC24B02F052FDC4E900015D
:103CF0000AE04FF0D352BE4B02F04AFD32463B463B
:103D000002F046FDC4E9000117B00120BDE8F08FC4
:103D100002F0ECF8554506D0B44AB54B02F0E6F88F
:103D2000C4E900010AE04FF0D352B14B02F0DEF8D3
:103D300032463B4602F0DAF8C4E9000117B04FF012
:103D4000FF30BDE8F08FAB49A942159978DB21F02F
:103D5000004183468846A84AA84B02F029FB00226E
:103D6000A74B02F0C3F802F0C9FA099002F0F5FA85
:103D700006460F469C4A534602F01AFB43465A46F3
:103D800002F014FC80468A46984A994B30463946E0
:103D900002F00EFB2A0D01250B924246534602F01B
:103DA00005FC032DC4E9000139D00B98C1F30A5179
:103DB000401A05EB45111139814230DA9148C3466A
:103DC000784400EB0510CDF80CA00C90D0E900234E
:103DD0003046394602F0ECFA02460B460491069052
:103DE0005846039902F0D4FC80468A4602460B46A8
:103DF0005846039902F0CCFC049B069A02F0C8FCDA
:103E000083460C9803913946D0E90223304602F0EC
:103E1000CFFA5A46039B02F0BBFC6D1CBDE7079826
:103E20000028A2BF099817B0BDE8F08F616881F043
:103E300000416160099817B04042BDE8F08FFFE78C
:103E400084461598C1F31301C0F30A50A0F2F5306F
:103E50004FEA601800F01F06C6F120001390002002
:103E60000690079041F4801E05206D4676B1664AA3
:103E700008EB00017A4452F8213002EB8101B34093
:103E80004A68139922FA01F1194305E05F4908EBEA
:103E90000002794451F82210A1FB0E27A1FB0C135C
:103EA0001A449A4234BF0123002303EB070A05EBAF
:103EB0008003D3E901B70F448F4234BF01210021B1
:103EC00093448B4411B1934502D903E0934501D249
:103ED000012100E00021C3E901B7514445F8201059
:103EE000011EA0F10100C1DC0298059F00F1005005
:103EF000800F12900298DDE90356800002F02DFA3F
:103F0000834628460D9102F03FFA6FF01D0203F040
:103F1000E8F8CDE90E01304602F036FA6FF03D02C6
:103F200003F0DFF880468A46384602F02DFA6FF03B
:103F30005D0203F0D6F8074642465346119101F060
:103F4000D5FFDDE90E2301F0D1FF5A460D9B01F0AC
:103F5000CDFF00250E465A4628460D9B02F018FC60
:103F6000DDE90E2302F014FC4246534602F010FC39
:103F70003A46119B02F01AFBDFF898A0244A5346F8
:103F800002F016FA07468846234A244B3146284653
:103F900002F00EFA3A46434601F0A8FF074688466B
:103FA0004FF0A84253463146284602F001FA3A46FD
:103FB000434601F09BFF159A12F0004F04D0129A6D
:103FC00081F0004152421292C4E90001129817B0E8
:103FD000BDE8F08FFB21E93F7CD90240FB21F93F8E
:103FE0007370032E8A19A33B000040543163621A98
:103FF00061B4D03DFB21394183C8C96D305FE43FD6
:104000000000E03F34350000B0340000923400007E
:10401000182D4454FB21F93D3326A611460B113CC3
:104020002DE9FF4D21F0004807460C46B8F1795FB5
:1040300008DA02F063F9002801BF0020324904B019
:10404000BDE8F08D3A4623461046194602F0B0F915
:10405000054602462D480E460B460621784400F0E0
:104060005DF82A46334602F0A3F9DDE902238246D1
:104070008B463846214602F09BF904460F465246CD
:104080005B462846314602F093F922463B4602F051
:104090007FFB07468A464FF0FF322846314603F041
:1040A00020F81B4A90450ADA3A46534602F070FB64
:1040B00004B00022BDE8F04D134B02F077BA154A68
:1040C0004245A8BFA8F500154FF00004B8BF124D37
:1040D00022462B4602F05CFB0646884622462B46CB
:1040E0000020094902F054FB04460D463A46534667
:1040F0003046414602F04CFB04B022462B46BDE858
:10410000F04D02F053BA00000000F03F60320000B2
:104110003333D33F0000E93F0000D23F2DE9F041A7
:104120004F1E00EBC7010446D1E9000115461E46AB
:1041300037F006020DD02A46334602F039F97F1EC9
:1041400004EBC703D3E9002301F0D0FE37F00602E9
:10415000F1D1022F25D0042F13D0062F18BFBDE8B0
:10416000F0812A46334602F023F9D4E90A2301F00C
:10417000BDFE2A46334602F01BF9D4E9082301F0BC
:10418000B5FE2A46334602F013F9D4E9062301F0BE
:10419000ADFE2A46334602F00BF9D4E9042301F0C0
:1041A000A5FE2A46334602F003F9D4E9022301F0C2
:1041B0009DFE2A46334602F0FBF8D4E90023BDE811
:1041C000F04101F093BE00002DE9FF4D054621F0BE
:1041D000004084B00C46B0F1795F0BDA2846FFF757
:1041E00024FD042808BF00F071F8284608B02146D5
:1041F000BDE8F08D2A460B46104602F0D9F8064677
:104200000F462A46234602F0D3F8804626488A46BF
:1042100032463B4605217844FFF780FF83461098DD
:10422000029160B3214A224B4046514602F0C0F849
:10423000CDE900015A4640465146029B02F0B8F8CB
:1042400082468846DDE906014FF0FF3202F049FF61
:104250005246434602F09CFA32463B4602F0A8F82A
:10426000DDE9062302F094FADDE9002302F090FA7A
:1042700008B02A462346BDE8F04D02F097B90B4638
:104280005A463046394602F093F8084A084B01F086
:104290002DFE4246534602F08BF808B02A462346CC
:1042A000BDE8F04D01F022BEC6310000495555551C
:1042B0005555C5BF012202F014BF01F017BE002200
:1042C00013461046114601F0C1BE0000024A00200C
:1042D000110702F006BF000001FDFFFF012102F0FF
:1042E0002EBF0021084602F0DDBB6FF05E0108071B
:1042F00002F025BF2DE9F04D0D4614464FF07F41E9
:10430000B1EB440F9EBF4FF0FF312960BDE8F08D47
:104310004FF0004040EA0421C4F3C750783810F051
:104320001F024A4B4FEA601CC2F120067B44C4F3D3
:10433000C750A0F178004FEA601003EB800053F8FB
:104340002C3008BFD0E901C612D0D0F804C0934089
:104350002CFA06F73B4387680CFA02FC27FA06F8AA
:10436000C06807FA02F2F0404CEA080C42EA000684
:10437000A3FB0132ACFB01C0A6FB016101EB0C0603
:104380008E4234BF4FF0010C4FF0000CC118614455
:10439000BCF1000F02D0814202D903E0814201D278
:1043A000012000E00020104400F120024FEA9218A2
:1043B0008006CA0C40EA42304F03C5F8008002F084
:1043C0004FFC8246384602F063FC6FF0120102F0A7
:1043D000B6FE0746304602F05BFC6FF0250102F0A6
:1043E000AEFE83463946504602F0E8FA594602F0DE
:1043F000E5FA00F500666FF30B065146304602F011
:10440000C7FD394602F0C4FD594602F0B7FD104918
:1044100002F086FC07460F49304602F081FC39461F
:1044200002F0CCFA07460C49304602F079FC3946D6
:1044300002F0C4FA14F0004F08BFBDE8F08DC8F1D7
:10444000805180F000402960BDE8F08D9030000080
:10445000DB0FC92F22AAFD290000C92F70470000D9
:10446000F0B40F494FF07E520020C1E9002088606F
:10447000C8600C4B132100BF03EB0116491EC6E9AF
:104480000020C6E902000904090CF5D1054C383CAE
:10449000C4E90E2020646064F0BC03A0FBF7C8BE32
:1044A000F0070020B00600202049206861766520D2
:1044B00066696E6973682074686520696E69742026
:1044C0006F662061687273200D0A00002DE9F04FBD
:1044D0009BB0FE48FDF7CCF8FC48C06801F054FFE3
:1044E0000022FB4B01F0B2FD01F0CEFC10F0FF4FBB
:1044F00001907DD0DFF8DCA3F74CBAF8001004F58A
:10450000DC78491C89B2AAF8001004292DD31321A4
:104510004FEA080202EB01101038491EE8C80904EE
:1045200080E8E800090CF5D1E848403000F5A073B8
:104530002ECB80E82E00A0F14C0204F17C0307CAC8
:1045400083E80700E44A132012F17C0200EB4001EB
:1045500002EB81010C39401E68C9000481E8680043
:10456000000CF3D10021AAF80010DC4DB5F90000D1
:1045700002F076FBD54E0C3E3060B5F9020002F039
:104580006FFB7060B5F9040002F06AFBB0601420A4
:10459000A6F5F67200EB400102EB81010C39401EDA
:1045A00068C9000481E86800000CF3D17034CC4F76
:1045B00094E80B0082E80B00B7F9000002F050FB12
:1045C000DFF82093494602F0ABFBC34C054670343C
:1045D0002060B7F9020002F043FB494602F0A0FB5D
:1045E00006466060B7F9040002F03AFB494600E075
:1045F000FEE302F095FB0146A06002F091FB044649
:104600003146084602F08CFB06462946084602F071
:1046100087FB314602F0D2F9214602F0CFF902F0D1
:10462000A1F901F03BFB01F02FFC8346A74890382D
:1046300090E870003146304602F072FB8146294610
:10464000084602F06DFB07462146084602F068FB6B
:10465000394602F0B3F9494602F0B0F901F0F6F933
:1046600007462046394602F05BFB04462846394699
:1046700002F056FB05463946304602F051FB934F97
:1046800006464037012157F8A09F484602F057FDE3
:104690001090786801210B9002F051FD0E90D7F830
:1046A00008800121404602F04AFD0D90FF6801217B
:1046B0003846139702F043FD0F900221484602F05E
:1046C0003EFD149002210B9802F039FD0790022163
:1046D000404602F034FD129003210B9802F02FFDAA
:1046E0000C900321404602F02AFD494609900846F5
:1046F00002F016FB0B991790084602F011FB414699
:104700000690084602F00CFB39460290084602F07B
:1047100007FB119029460E9802F002FB00900699C3
:10472000149802F0FDFA814621460D9802F0F8FA3D
:1047300007460299149802F0F3FA394602F03EF95E
:10474000494602F03BF9009902F022FC0A903146FA
:10475000079802F0E5FA159002990C9802F0E0FA39
:10476000149006990C9802F0DBFA169029461098DE
:1047700002F0D6FA00900221179802F0E0FC814680
:104780000B9902F0CDFA074621460F9802F0C8FABD
:1047900017901199079802F0C3FA179902F0F8FBE5
:1047A000394602F00BF9009902F0F2FB079902F08A
:1047B000EFFB169902F002F9149902F0FFF815992F
:1047C00002F0FCF80B903146129802F0A9FA07901B
:1047D0000299099802F0A4FA0C900699099802F03F
:1047E0009FFA009029460F9802F09AFA0F90DDE99F
:1047F000111002F095FA09902146109802F090FAF3
:10480000324F109048464037414602F089FA1099DD
:1048100002F0D4F8099902F0D1F80F9902F0B8FB30
:10482000129902F0B5FB009902F0C8F80C9902F059
:10483000C5F8079902F0C2F8814629460D9802F0A2
:104840006FFA00900221029802F079FC414602F0D2
:1048500067FA804621460E9802F062FA089002211B
:10486000069802F06CFC139902F05AFA089902F0CB
:104870008FFB414602F0A2F8009902F089FB8046C6
:10488000014602F04DFA49460090084602F048FA07
:1048900006900B99084602F043FA0A9908900846D8
:1048A00002F03EFA089902F089F8069902F086F8BB
:1048B000009902F083F801F0C9F8014600900A98C7
:1048C00002F02EFA0A9000990B980DE07006002075
:1048D00080842E413C000020F8040020300000209D
:1048E0002A00002047237A3C02F01AFA0B9048462F
:1048F000009902F015FA07904046009902F010FA6C
:104900000C90FE4A0021584600F0E8FD8046FC4924
:10491000019802F005FA414602F002FAF94902F064
:104920004DF8F94AF94900F0D9FD0690D7F8A8806A
:1049300057F8A00F41460E9002F0F2F98146F86850
:1049400000907F680146384602F0EAF9494602F0D5
:104950001FFB012102F0F3FBDFF8B49383463946D5
:10496000C9F818000E9802F0DBF98246404600991B
:1049700002F0D6F9514602F021F8012102F0DFFBE6
:10498000C9F81C00824641460E90084602F0C8F95C
:1049900080463946084602F0C3F9414602F00EF857
:1049A000012102F0CCFB4FF07E5102F0E7FA0746FE
:1049B000C9F820003046514602F0B2F98046284638
:1049C000394602F0ADF9414602F0E2FA824620464D
:1049D000394602F0A5F907463046594602F0A0F9DB
:1049E000394602F0D5FA81462846C94E594602F0AA
:1049F00097F9054620460E9902F092F9294602F0F1
:104A0000C7FAB16883460C46504602F089F901990D
:104A100002F086F9F16801F0D1FF0546F060214609
:104A2000484602F07DF9019902F07AF9316901F006
:104A3000C5FF804630612146584602F071F9019960
:104A400002F06EF9716901F0B9FF07467061706894
:104A50005146009002F064F9AE4C0646AE4920681B
:104A600002F05EF9AD4902F01DF8294601F0A6FFFB
:104A7000314601F0A3FF04F58C7582462860494653
:104A8000009802F04DF90646A349606802F048F923
:104A9000A24902F007F8414601F090FF314601F0CB
:104AA0008DFF686081460E905946009802F038F9F3
:104AB00006469949A06802F033F9984901F0F2FFDF
:104AC000394601F07BFF314601F078FFA86004F51C
:104AD000227B13908046DBF80C405D464146204621
:104AE000129402F01DF90490AF68494638461197B8
:104AF00002F016F908906E68514686F0004015964F
:104B000002F00EF9089902F043FA049902F040FA13
:104B10004FF0FF3102F013FB0F904946204602F0A0
:104B2000FFF804904146384602F0FAF817902D68D5
:104B300051462846149502F0F3F8179901F03EFF0C
:104B4000049902F025FA4FF0FF3102F0F8FA0490D0
:104B50005146204602F0E4F817904146304602F0F4
:104B6000DFF804464946284602F0DAF8214602F00A
:104B70000FFA179901F022FF4FF0FF3102F0DFFA30
:104B800004465146384602F0CBF8074649463046BF
:104B900002F0C6F806464146284602F0C1F8314602
:104BA00001F00CFF394602F0F3F94FF0FF3102F04B
:104BB000C6FA05460A99069802F0B2F80F9902F073
:104BC000DDF907460B99069802F0AAF8049902F05D
:104BD000D5F90646DDE9060102F0A2F8214602F009
:104BE000CDF980460C99069802F09AF8294602F011
:104BF000C5F981461399019802F092F8014602F036
:104C00008FF805460E99019802F08AF8014602F0E5
:104C100087F804465146019802F082F8014602F0F6
:104C20007FF8214601F0CAFE294601F0C7FE04467E
:104C30003846019902F074F805466FF002012046EB
:104C400002F07DFA4FF07E5A514602F097F95C4629
:104C50000690149902F064F8294601F0AFFE206036
:104C600007463046019902F05BF80546159906980B
:104C700002F056F8294601F0A1FE60600646404663
:104C8000019902F04DF805461199069802F048F88E
:104C9000294601F093FEA06005464846019902F0BE
:104CA0003FF880461299069802F03AF8414601F022
:104CB00085FE0146E06002F033F881462946084649
:104CC00002F02EF880463146084602F029F80546E3
:104CD0003946084602F024F8294601F06FFE4146A5
:104CE00001F06CFE494601F069FE00F0AFFE074698
:104CF0003946206802F014F8814611E00000C843EC
:104D0000CDCC4C3D8FC2F53B8FC2F53D8FC2753C7B
:104D10003C00002068050020DA0F494000003443C1
:104D200020603946606801F0FBFF06466060394646
:104D3000A06801F0F5FF0546A0603946E06801F083
:104D4000EFFF8046E0600121284602F0F8F9834633
:104D5000294601F0E5FF05464FF04041304601F09D
:104D6000DFFF314601F0DCFF294602F011F9514620
:104D700001F024FE01F0F6FD07460D4601214846EC
:104D800002F0DDF9314601F0CBFF064658464146B8
:104D900001F0C6FF314601F011FE01F0E3FD3A4695
:104DA0002B4600F0DBFA4FF0804B5A46404B01F0A7
:104DB000FFFA01F069F83F4D0121A862606802F036
:104DC000BEF9E16801F0ACFF06460121206802F05F
:104DD000B6F9A16801F0A4FF314602F0D9F801F05C
:104DE000C1FD00F073F85A46314B01F0E1FA00E0E2
:104DF0005BE001F049F8E862D4F8089001214846E8
:104E000002F09DF9494601F08BFFD4F80C8006466C
:104E10004FF04041404601F083FF414601F080FFE2
:104E2000314602F0B5F8514601F0C8FD01F09AFD97
:104E300007460E460121206802F081F9414601F043
:104E40006FFF80460121606802F079F9494601F060
:104E500067FF414601F0B2FD01F084FD3A4633465A
:104E600000F07CFA5A46124B01F0A2FA01F00CF85D
:104E700080466862E86A01F075FD04460E46A86A3D
:104E800001F070FD05460F46404601F06BFDCDE98F
:104E90000246CDE9005702460B4607A0FBF7C8F9CA
:104EA0001BB0BDE8F04FFCF737BB1BB0BDE8F08F7F
:104EB000DCA54C403C0000207B4779726F3A2566A8
:104EC0002C25662C25667D0D0A0000002DE9F04D8D
:104ED0008D4F21F0004A86B005460C46BA452ADBC4
:104EE000AAEB070028430AD08848824501DC1AD182
:104EF000CDB106B02846BDE8F04DFFF7DBB9844AD6
:104F0000844B284601F054FA07460E46824A834BEA
:104F10002846214601F04CFA06B03A463346BDE831
:104F2000F04D00F0E3BF0120FBF760FA06B0BDE8EA
:104F3000F04DFFF7C4B97A48824542DABAF1795F99
:104F40000BDA2846FEF771FE042808BFFFF7BEF90A
:104F5000284606B02146BDE8F08D2A460B4610468D
:104F600001F026FA834602466E480E460B4606219D
:104F70007844FFF7D3F85A46334601F019FA8046D1
:104F800069488A465A46334604217844FFF7C6F8F2
:104F90005A46334601F00CFA00223B4600F0A6FFC9
:104FA00002460B464046514601F050F82A46234639
:104FB00001F0FEF906B02A462346BDE8F04D00F0A8
:104FC00095BF284624F0004100223D463B4601F0B3
:104FD000EDFA4FF0FF3202F084F8064602465348DD
:104FE0000F460B4606217844FFF798F832463B46B9
:104FF00001F0DEF9CDE900014D4832463B4604217F
:105000007844FFF78BF832463B4601F0D1F9002295
:105010002B4600F06BFF834602913046394600F084
:105020003DFE804643480D46504517DCDDE9000152
:105030005A46029B01F00AF842462B4601F0B8F9A5
:1050400042462B4600F052FF012202F04AF8304A55
:10505000304B01F09DFB304A304B4CE04FF0000AE2
:1050600052460B46404600F041FFCDE90310524640
:105070002B461046194601F09BF932463B4601F09B
:1050800095FADDE9033200F0E1FF06460F46DDE95F
:1050900000015A46029B00F0D9FF8346009101228D
:1050A0003046394602F01DF8194A1A4B01F07EFAD3
:1050B00006460F4601224046294602F012F85A469B
:1050C000009B01F075F932463B4601F061FB064654
:1050D0000F4601225046294602F003F80E4DDFF834
:1050E00058802A46434601F061FA32463B4601F0B9
:1050F0005DFA2A46434601F059FA002CD8BF81F0E8
:10510000004106B0BDE8F08D0000F03F0000F07FE8
:10511000075C143326A6913C182D4454FB21F93F1B
:105120000000E03F642200007A220000EE2100002F
:10513000042200003333EF3FFB21E93F2DE9F84F14
:1051400004460D4621F0004000917349814211DC74
:105150007249884201DC06D12CB120462946BDE8BF
:10516000F84FFFF7A7B86E48002DCCBF6D496E49C8
:10517000BDE8F88F6D49814211DD6D498142D8BF8C
:105180004FF0FF366DDD20462946FEF74EFD042820
:1051900008BFFFF79BF820462946BDE8F88F654910
:1051A000654F25F00045814233DD6449814219DDB8
:1051B000002632464FF080432046294600F096FEF6
:1051C00080468A4601222046294601F08AFF0022B5
:1051D0003B4601F0DDFA4246534600F037FF0446F5
:1051E0000D463EE001260022BA463B4620462946AF
:1051F00000F07CFE80460F4600225346204629469A
:1052000001F0C6FA42463B4600F020FF04460D4638
:1052100027E04B4981421BDDDFF828A1022600224E
:1052200053462046294601F0C3F800223B4600F0D1
:105230005DFE80460F46002253462046294601F077
:10524000A7FA42463B4600F001FF04460D4608E03F
:10525000032622462B4600203B4900F0F7FE044679
:105260000D4622462B461046194601F0A1F88B4602
:10527000824602460B4601F09BF807460246334839
:1052800088460B4606217844FEF748FF52465B46A7
:1052900001F08EF882462E488B463A464346052159
:1052A0007844FEF73BFF3A46434601F081F8024658
:1052B0000B46002E504659460CDA00F017FE2246E7
:1052C0002B4601F075F801B022462B46BDE8F04FA1
:1052D00001F06CB900F00AFE22462B4601F068F896
:1052E0001C4A7A4402EBC603D3E9002301F050FACA
:1052F00022462B4601F04CFA174A7A4402EBC603C9
:10530000D3E9002301F052F9009A002AB8BF81F0D6
:105310000041BDE8F88F0000000010440000F07F5D
:10532000182D4454FB21F93FFB21F9BF0000DC3F5D
:105330000000203E0000F33F0000F03F0000E63F89
:10534000008003400000F83F0000F0BF062000008E
:10535000C41F0000621F00002A1F00002DE9F04D4D
:105360009446CCF1000423F000464CEA0404524F6A
:1053700046EAD4749A46884621F00042BC4206D8D8
:10538000454240EA050442EAD474BC4204D9BDE86F
:10539000F04D6246FEF791BFAAF14055A5F17F6539
:1053A00055EA0C040BD0022404EAAA74434DDFF83A
:1053B00010E144EAD87452EA000B04D00CE0BDE8D6
:1053C000F04DFFF7BBBE002C14BF012CBDE8F08DE3
:1053D000022C30D0032C32D056EA0C0B0AD0BE423D
:1053E00020D1BA4209D126F0804622F080423346CD
:1053F000114617E000291ADB25E0DFF8C8B0FB44AE
:10540000002C04BFDBE90001BDE8F08D012C02BFD8
:10541000DBE9000181F00041BDE8F08D022C0AD0EB
:10542000032C0CD0BA4212D1B8F1000F0BDA23488A
:105430002549BDE8F08D28462449BDE8F08D284671
:105440007146BDE8F08D1D482149BDE8F08D921BE5
:1054500012153C2AC4BF19481D490EDCBAF1000FD1
:10546000BEBF12F13C0F0020014606DB624600F091
:10547000EDFD21F00041FFF761FE002C08BFBDE803
:10548000F08D012C04BF81F00041BDE8F08D114A80
:10549000114B022C07D001F07BF92A46BDE8F04DF4
:1054A0000A4B01F075B901F073F92A46BDE8F04DD9
:1054B000064B01F07BB800000000F07F182D44542B
:1054C000FB2109C0EE1E0000FB21F9BFFB210940B2
:1054D000FB21F93F075C143326A6A13C70B50D46AD
:1054E00016460446114601F0E7FC00D8344629462A
:1054F000204601F0E1FB00D82C46204670BD00009C
:1055000000B5244B21F0004287B09A42DCBF002254
:10551000134629DD204B9A4208D140B94FF00100D3
:10552000FAF764FFFEF7CBFE07B000BD03DBFEF722
:10553000C1FE07B000BD02AAFEF7AEFB10F00301EA
:1055400004BF0DF1080C9CE80F000DD001200129CB
:105550000ED0022914D00DF1080C00909CE80F0029
:10556000FEF732FE07B000BDFEF75AFD07B000BDE2
:105570000DF1080C00909CE80F00FEF725FE05E0F9
:105580000DF1080C9CE80F00FEF74AFD07B081F012
:10559000004100BDFB21E93F0000F07F2DE9F84309
:1055A000044602464F486946B0EB420F09D94FF016
:1055B000E640B0EB420F94BF00204FF0FF30009068
:1055C00030E0494B22F00040834271D947492046E0
:1055D00001F0A6FB01F0A2FC804601F025FB00F0E3
:1055E000030000904249404601F09AFB05464149BC
:1055F000404601F095FB06463F49404601F090FBCE
:1056000007463E49404601F08BFB214601F0B6FCBF
:10561000394601F0BDFC314601F0BAFC294601F0E3
:10562000B7FC04462546009C002C45DB294614F0B7
:10563000010F08461CD001F073FB0646304901F00B
:105640006FFB304901F09AFC314601F069FB2E49AD
:1056500001F0B4F9314601F063FB294601F060FB2B
:10566000294601F0ABF914F0020F1CD0BDE8F88315
:1056700001F056FB0546254901F052FB244901F093
:105680009DF9294601F04CFB224901F097F9294682
:1056900001F046FB4FF07E5101F090F914F0020F3B
:1056A00008BFBDE8F88380F00040BDE8F883FFE75D
:1056B0001046FEF71FFEB4E76800B0F17F4F3CBF15
:1056C0004FF07E50BDE8F88307D14FF00100FAF7A4
:1056D0008DFEBDE8F843FEF704BE2846BDE8F8435A
:1056E000FEF7FCBDB61F927E490E494683F9223F64
:1056F0001A61342C0020A23300A0FD390000C93FFC
:10570000336D4C39DA82083CA0AA2ABEB93AB2BA43
:10571000CA9F2A3DDDFFFFBE04490A685206FCD538
:10572000024AC1B2121D11607047000000480040DB
:1057300030B587B003A8FDF725FE6846FDF73DFEAE
:1057400005A8FDF755FE5A48BDF80C100288891AC5
:10575000ADF80C10BDF80E108288891AADF80E1045
:10576000BDF810100089081A5149ADF810000C312D
:10577000BDF800000A88801A00B2ADF80000BDF83C
:1057800002208B88D21AADF80220BDF804200989C6
:10579000511AADF8041001F063FA464A02F14801CB
:1057A000FBF7E8FD01F040FA434C2080BDF9020010
:1057B00001F056FA3F4A02F16001FBF7DBFD01F010
:1057C00033FA6080BDF9040001F04AFA394A02F167
:1057D0007801FBF7CFFD01F027FAA080BDF90C009E
:1057E00001F03EFA334A183202F17801FBF7C2FDAC
:1057F00001F01AFAA51F2880BDF90E0001F030FA59
:105800002C4A183202F19001FBF7B4FD01F00CFABA
:105810006880BDF9100001F023FA264A183202F11F
:10582000A801FBF7A7FD01F0FFF9A880B4F9043047
:10583000B4F90220B4F9001020A0FAF7F9FC04F141
:105840000C00BDF800100180BDF802104180BDF8C9
:1058500004108180BDF90C0001F002FA154A3032C3
:1058600002F1A801FBF786FD01F0DEF9A41D2080FE
:10587000BDF90E0001F0F4F90E4A303202F1C00118
:10588000FBF778FD01F0D0F96080BDF9100001F060
:10589000E7F9084A303202F1D801FBF76BFD01F05D
:1058A000C3F9A080291F0598086007B030BD00002B
:1058B00014040020F40200202A0000207B475952E3
:1058C0004F3A25642C25642C25647D0A0D000000C8
:1058D0003EB542F20F748DE81C0040000A460146B6
:1058E00001230448FCF718F9002801D04FF0FF30DD
:1058F0003EBD0000840000203EB542F20F730092CE
:105900000124CDE9014340000A46014623460348ED
:10591000FCF702F9002800D0A01E3EBD8400002044
:1059200017B583B042F20F74012305AA8DE81C005D
:1059300040000A4601460448FCF716FA002801D048
:105940004FF0FF3006B010BD8400002070B50D4C44
:105950000D4D0B4A21462846FDF72CFF084A2146EB
:1059600018322846FDF726FF054A084930322846F6
:10597000FDF720FFFDF7D2FCBDE87040FDF7DCBC71
:10598000F4020020000020420000C8420000404015
:105990002DE9F04704460D46D4E90410401A606032
:1059A000A1684FF00008401A01F05AF9824669696F
:1059B000206801F081FA06D3206901F051F9A96944
:1059C00001F07AFA03D26068002814DB16E06869F7
:1059D000216880F0004001F06FFA09D3A86980F0D7
:1059E0000046206901F03CF9314601F065F92AD200
:1059F0006068002802DD01F033F980466768E068DE
:105A0000A6683844714200EB410001F029F90146D3
:105A1000A86801F085F981464146686801F080F97F
:105A200080465146286801F07BF9414600F0C6FFE8
:105A3000494600F0C3FF216800F0C0FF2060C4E9C0
:105A40000276BDE8F0876068D5E7000010B504462F
:105A50004FF0FF3101F073FB0849A1EB64042146CC
:105A600001F05EF9214601F05BF94FF07F5101F042
:105A700085FA2146BDE8104001F052B9DF59375F81
:105A8000FCF740FAFDF7F2FEFDF7E8FCFDF7D0FC6D
:105A9000FDF722FDFDF78CFDFDF7C0FDFDF7F4FDE0
:105AA000FDF746FEFDF768FEFDF7F6FC00F02AF86C
:105AB00000F078F8FFF74AFFFBF790FCFBF7D4FC07
:105AC000FEF7CEFC0148FCF70DFEFEE7F8010020D2
:105AD00000B58DB018216846FAF758FC18226946BF
