:020000040800F2
:1000000020150020D5010008B53A0008A92F0008E6
:10001000B13A0008E5050008D542000800000000DC
:10002000000000000000000000000000E7010008E0
:10003000070A000800000000EB010008E13B00088F
:10004000EF010008EF010008EF010008EF010008D0
:10005000EF010008EF010008EF010008EF010008C0
:10006000EF010008EF010008EF010008EF010008B0
:10007000EF010008050A0008EF010008EF01000881
:10008000EF010008EF010008EF010008EF01000890
:10009000EF010008EF010008EF010008EF01000880
:1000A000EF010008EF010008EF010008EF01000870
:1000B000EF010008EF010008EF010008EF01000860
:1000C000EF010008EF010008EF010008EF01000850
:1000D000EF010008EF010008EF010008EF01000840
:1000E000EF010008EF010008EF010008EF01000830
:1000F000EF010008EF010008EF010008EF01000820
:10010000EF010008EF010008553C0008EF0100086E
:10011000EF010008EF010008593D0008EF01000859
:10012000EF010008EF010008EF010008EF010008EF
:1001300000F002F800F03FF80AA090E8000C8244BA
:100140008344AAF10107DA4501D100F034F8AFF297
:10015000090EBAE80F0013F0010F18BFFB1A43F0A5
:1001600001031847B4800000D4800000103A24BF77
:1001700078C878C1FAD8520724BF30C830C144BF0C
:1001800004680C607047000000230024002500264E
:10019000103A28BF78C1FBD8520728BF30C148BFEA
:1001A0000B607047642900F07780002070471FB50E
:1001B0001FBD10B510BD00F0E7F91146FFF7F7FFBE
:1001C00006F0FEFA00F005FA03B4FFF7F2FF03BCF5
:1001D00004F004FD0948804709480047FEE7FEE7B0
:1001E000FEE7FEE7FEE7FEE7FEE7FEE7FEE7FEE7E7
:1001F00004480549054A064B70470000533C000877
:10020000310100082009002020150020200D0020C9
:10021000200D0020704700000FB4044910B503AA58
:10022000029800F07BF910BC5DF814FB0000002080
:100230002DE9F0410E460446002020622046E16888
:10024000884730B3252805D0D4E901219047206A9A
:10025000401CF2E7E168204600278847050018D0D7
:10026000A5F14100192802D820354FF40067324625
:10027000294620462760FFF795FF40B1012804D0AA
:10028000F61D26F007060836D8E7361DD6E72846BD
:10029000DAE7206ABDE8F0812DE9F0410646002446
:1002A00010687529314616A510D0AFF300800028DC
:1002B00002DA404213A507E031688A0701D512A58A
:1002C00002E0490704D511A5012401E0AFF3008045
:1002D00000210A2206F1240709E0B0FBF2FCB0FB82
:1002E000F2F302FB1C00303078541846491C0028F9
:1002F000F3D123462A463046BDE8F04100F0B5B8B8
:10030000000000002D0000002B0000002000000075
:10031000032A40F2308010F0030C00F0158011F831
:10032000013BBCF1020F624498BF11F801CB00F809
:10033000013B38BF11F8013BA2F1040298BF00F85D
:1003400001CB38BF00F8013B11F0030300F025801A
:10035000083AC0F0088051F8043B083A51F804CB41
:10036000A0E80810F5E7121D5CBF51F8043B40F807
:10037000043BAFF30080D20724BF11F8013B11F812
:1003800001CB48BF11F8012B24BF00F8013B00F856
:1003900001CB48BF00F8012B704710B5203AC0F0E0
:1003A0000B80B1E81850203AA0E81850B1E8185076
:1003B000A0E81850BFF4F5AF5FEA027C24BFB1E8B3
:1003C0001850A0E8185044BF18C918C0BDE8104024
:1003D0005FEA827C24BF51F8043B40F8043B08BF2D
:1003E0007047D20728BF31F8023B48BF11F8012BF4
:1003F00028BF20F8023B48BF00F8012B70474FF0A0
:10040000000200B5134694469646203922BFA0E864
:100410000C50A0E80C50B1F12001BFF4F7AF090770
:1004200028BFA0E80C5048BF0CC05DF804EB890061
:1004300028BF40F8042B08BF704748BF20F8022BA4
:1004400011F0804F18BF00F8012B704770477047BC
:100450007047704710B500F073F8006810BD10B514
:10046000044600F06DF8046010BD2DE9F0470D461C
:1004700099469246044600F124080168880604D58E
:10048000E06921F01001216000E00120A84201DDB7
:10049000471B00E00027A1697A1902EB0900081A3E
:1004A000A0612078C00602D42046AFF30080002669
:1004B00008E0D4E901211AF806009047206A401CA0
:1004C000761C20624E45F4DB2078C0060AD5204613
:1004D000AFF3008006E0D4E9012130209047206A84
:1004E000401C2062381EA7F10107F4DC07E0D4E9C4
:1004F000012118F805009047206A401C2062281E40
:10050000A5F10105F3DC2046AFF30080207800065A
:1005100002D50220BDE8F0870120FBE7074B70B54C
:100520000D467B4400F015F80446284600F024F8F8
:1005300010B14FF0FF3070BD204670BD935E0000DB
:1005400000487047BC08002001694A1C0261087815
:10055000704700B58FB0CDE9013100210591054903
:100560007944CDE9031011466846FFF761FE0FB0EC
:1005700000BD0000E5FFFFFF007B00F0800070473A
:1005800000487047BC0800207546FFF7F9FFAE46EB
:1005900005006946534620F00700854618B020B58F
:1005A000FFF726FEBDE820404FF000064FF00007A1
:1005B0004FF000084FF0000B21F00701AC46ACE80B
:1005C000C009ACE8C009ACE8C009ACE8C0098D4678
:1005D000704710B50446AFF300802046BDE81040D8
:1005E000FFF7F2BD00BFFEE72DE9FE4F06460C46C1
:1005F0001546A660E168A86807F09CFA0290216998
:10060000686807F097FA82462168686907F092FAED
:1006100001906168286907F08DFA0090A168E86888
:1006200007F088FA8346009907F09EF88146019901
:1006300007F09AF88046514607F0B4FB0746029946
:1006400007F0B0FB606160682060A06860602069AE
:10065000E060616921616069BDE8FE8F10B586B018
:1006600000200390049005901BA0FFF7D5FD002407
:1006700017E001A802F052FFBDF9041003980844E6
:100680000390BDF90610049808440490BDF90800D1
:10069000A0F58050059908440590052000F04CFA1B
:1006A000641C642CE5DB039890FBF4F010490860AF
:1006B000049890FBF4F04860059890FBF4F0886093
:1006C00008468368426801680AA0FFF7A5FD11A0EB
:1006D000FFF7A2FD06B010BD4163632043616C6962
:1006E00062726174696F6E2053746172740A0D00D6
:1006F0007C0400204163635F526177446174615FF1
:100700004F66667365743A25642C25642C25640A4B
:100710000D0000004163632043616C696272617483
:10072000696F6E2053746F700A0D000010B586B0AB
:1007300000200390049005901AA0FFF76DFD00249F
:1007400015E001A802F01CFFBDF90410039808444D
:100750000390BDF90610049808440490BDF90810F0
:10076000059808440590052000F0E6F9641C642C07
:10077000E7DB039890FBF4F011490860049890FBC4
:10078000F4F04860059890FBF4F0886008468368B0
:10079000426801680BA0FFF73FFD12A0FFF73CFD88
:1007A00006B010BD4779726F2043616C6962726157
:1007B00074696F6E2053746172740A0D000000003A
:1007C000880400204779726F5F52617744617461D9
:1007D0005F4F66667365743A25642C25642C256426
:1007E0000A0D00004779726F2043616C6962726183
:1007F00074696F6E2053746F700A0D002DE9F0411B
:1008000075497648006807F095F9804606F080FF44
:10081000064606F0DFF8044606F00CFA7049086058
:100820006D496E48006807F085F9804606F070FF54
:10083000064605F0B5FC044606F0FCF96949086077
:1008400065496948006807F075F9804606F060FF61
:10085000064606F0BFF8044606F0ECF96349086066
:100860005D496148006807F065F9804606F050FF71
:10087000064605F095FC044606F0DCF95C49086084
:1008800055495C48006807F055F9804606F040FF7E
:10089000064606F09FF8044606F0CCF95649086073
:1008A0004D495448006807F045F9804606F030FF8E
:1008B000064605F075FC044606F0BCF94F49086091
:1008C0004B4801684D48006807F034F94C4908600E
:1008D000494801684348006807F02CF90546434839
:1008E00001683F48006807F025F90646434801685B
:1008F000304607F01FF90446294607F053FA4049ED
:1009000048603A4801683748006807F013F906461E
:100910003A480168304607F00DF904463648016848
:100920002F48006807F006F90546214606F01CFF2F
:10093000334988602E4801682F48006807F0FAF8AC
:100940002F49C8602D4801682648006807F0F2F872
:100950000546264801682248006807F0EBF806467D
:1009600025480168304607F0E5F80446294606F0B8
:10097000FBFE23490861214801681948006807F017
:10098000D9F80546194801681648006807F0D2F8FA
:10099000064619480168304607F0CCF80446294657
:1009A00007F000FA164948611048006880F00040DE
:1009B00088610F4801680A48006807F0BBF81049D1
:1009C000C8610B4801680748006807F0B3F80C4994
:1009D0000862BDE8F081000035FA8E3C500000202E
:1009E0005800002064000020540000205C0000201B
:1009F000680000204C000020600000206C000020F7
:100A0000D40400207047704772B600BFFEE70000B4
:100A100072B6234A516A027802BB01220270214A4F
:100A20001268126902F0010262B141F28832914209
:100A300008D21D4A1268521C42F2107303FB0212C4
:100A4000826006E0184A126842F2107303FB021239
:100A50008260826842600022C2601FE08268426059
:100A6000104A1268126902F0010262B141F2883242
:100A7000914208D20C4A1268521C42F2107303FBD6
:100A80000212826006E0084A126842F2107303FB09
:100A900002128260D0E90132D21AC26062B6704797
:100AA00000100040600200201C00002001460022CF
:100AB00009B9012070471E4B086898420BD21D4BA4
:100AC0000868C01A1423B0FBF3F0800008641948CA
:100AD0000838C8630AE0164B0868C01A1423B0FB34
:100AE000F3F08000086412480838C863022081F8D7
:100AF00021000868026843F6F0708243D1E90103DF
:100B00001843CB6818430B6918434B6918438B692A
:100B10001843CB69184302430868026000208863C9
:100B2000012081F82100002081F8200000BFC1E7EA
:100B3000080402400800024070B5044600F0B0F915
:100B400006462546681C10B104480078054400BFDD
:100B500000F0A6F9801BA842FAD370BD0C0000205B
:100B60002DE9F847024600239C467BE14FF001083F
:100B700008FA03F4D1F8008008EA0400A0427DD10D
:100B8000DFF8F4A2D1F80480A8EB0A09D0453AD0E6
:100B900014DCB8F1030F50D009DCB8F1000F31D0EC
:100BA000B8F1010F1CD0B8F1020F49D120E0B8F123
:100BB000110F18D0B8F1120F42D11EE0B9F5881FFD
:100BC00025D006DCB9F5803F20D0B9F5801F37D19C
:100BD0001AE0B9F5001F18D0B9F5041F30D117E09D
:100BE000D1F80CC02DE0D1F80C8008F1040C28E0FD
:100BF000D1F80C8008F1080C23E0D1F80C8008F142
:100C00000C0C1EE000BF00BF00BF00BF00BF00BF54
:100C1000D1F80880B8F1000F02D14FF0040C0BE0BE
:100C2000D1F80880B8F1010F03D14FF0080C14611E
:100C300002E04FF0080C546103E04FF0000C00E0BC
:100C400000BF00BFFF2801D8904601E002F1040870
:100C50004646FF2802D84FEA830803E0A3F10808BC
:100C60004FEA88084746D6F800804FF00F0909FA86
:100C700007F928EA09080CFA07F900E07AE048EADF
:100C80000908C6F80080D1F8048008F08058B8F14F
:100C9000805F6FD100BFDFF8E481D8F8188048F09A
:100CA0000108DFF8D891C9F81880C846D8F818802C
:100CB00008F00108CDF8008000BF00BF4FEAB93846
:100CC0004FEA930958F829504FEA83784FEA187988
:100CD0004FF00F0808FA09F825EA0805DFF8A081A7
:100CE000424502D14FF0000824E0DFF898814245E8
:100CF00002D14FF001081DE0DFF88C81424502D19E
:100D00004FF0020816E0DFF88481424502D14FF02F
:100D100003080FE0DFF87881424502D14FF0040864
:100D200008E0DFF87081424502D14FF0050801E08C
:100D30004FF006084FEA83794FEA197908FA09F863
:100D400048EA0505DFF850814FEA930948F8295031
:100D5000D1F8048008F48038B8F5803F0BD1DFF873
:100D60003C81D8F8008048EA0008DFF83091C9F8E3
:100D700000800AE075E0DFF82481D8F8008028EAD6
:100D80000008DFF81891C9F80080D1F8048008F451
:100D90000038B8F5003F0ED1DFF8008108F10408F3
:100DA000D8F8008048EA0008DFF8F09009F104095B
:100DB000C9F800800DE0DFF8E48008F10408D8F8F5
:100DC000008028EA0008DFF8D49009F10409C9F886
:100DD0000080D1F8048008F48018B8F5801F0ED187
:100DE000DFF8B88008F10808D8F8008048EA000861
:100DF000DFF8A89009F10809C9F800800DE0DFF8D4
:100E00009C8008F10808D8F8008028EA0008DFF87C
:100E10008C9009F10809C9F80080D1F8048008F421
:100E20000018B8F5001F0ED1DFF8708008F10C082B
:100E3000D8F8008048EA0008DFF8609009F10C0952
:100E4000C9F800800DE0DFF8548008F10C08D8F8EC
:100E5000008028EA0008DFF8449009F10C09C9F87D
:100E600000805B1CD1F8008028FA03F8B8F1000F6D
:100E70007FF47CAEBDE8F88700001110001002403E
:100E800000080140000C0140001001400014014026
:100E900000180140001C014008000140000401400E
:100EA00001480068704700000400002070B5044647
:100EB0000CB9012070BD94F83D0028B9002084F8D9
:100EC0003C00204600F03EFB242084F83D002068D2
:100ED000006820F00100216808602068006840F484
:100EE0000040216808602068006820F40040216804
:100EF000086000F0FFFC05465C496068884206D83F
:100F00005B48854201D2012007E0002005E05948F6
:100F1000854201D2012000E00020012800D1C9E76C
:100F20005548B5FBF0F62068406820F03F0030439C
:100F3000216848604D496068884201D8701C07E00C
:100F40004FF4967070434FF47A71B0FBF1F0401C8F
:100F50002168096A21F03F0108432168086243497A
:100F60006068884214D8681E61684900B0FBF1F0DF
:100F7000401CC0F30B00042801D204203DE0681E91
:100F800061684900B0FBF1F0401CC0F30B0034E095
:100F9000A06838B9681E616801EB4101B0FBF1F04F
:100FA000401C0AE0681E616801EBC10202EB0111FE
:100FB000B0FBF1F0401C40F48040C0F30B0008B9D6
:100FC00001201AE0A06848B9681E616801EB410180
:100FD000B0FBF1F0401CC0F30B000CE0681E616830
:100FE00001EBC10202EB0111B0FBF1F0401CC0F3B8
:100FF0000B0040F4804040F400402168C9694CF681
:10100000FF72914308432168C861D4E9070108438E
:101010002168096821F0C001084321680860D4E90B
:10102000031008432168896848F2FF32914308435E
:1010300021688860D4E9050108432168C96821F066
:10104000FF0108432168C8602068006840F0010083
:101050002168086000202064202084F83D000020E2
:10106000206384F83E0000BF24E70000A086010052
:1010700080841E0000093D0040420F002DE9FE4F14
:1010800004460F4690469946DDE90CAB0E9E0020C3
:101090000290FFF705FF054694F83D00202872D125
:1010A00019230122CA492046009502F0EDF810B13B
:1010B0000220BDE8FE8F00BF94F83C00012801D15A
:1010C0000220F6E7012084F83C0000BF2068006899
:1010D00000F0010028B92068006840F00100216894
:1010E00008602068006820F4006021680860222001
:1010F00084F83D00402084F83E0000202064C4F8BD
:1011000024A0A4F82AB0608D2085B248E0624B4646
:10111000424639462046CDE9006501F067FF08B137
:101120000120C6E7208D88B900BF0020019020680B
:101130004069019020688069019000BF00BF20686D
:10114000006840F40070216808604BE0208D0128A1
:101150001AD12068006820F480602168086072B6A7
:1011600000BF0020019020684069019020688069DC
:10117000019000BF00BF2068006840F40070216843
:10118000086062B62EE020E1208D022819D1206887
:10119000006840F400602168086072B600BF00205B
:1011A000019020684069019020688069019000BF2B
:1011B00000BF2068006820F480602168086062B683
:1011C00010E02068006840F480602168086000BF7B
:1011D000002001902068406901902068806901909A
:1011E00000BF00BFE2E0208D03287DD8208D0128BC
:1011F00015D12A463146204602F0EBF808B101200D
:1012000057E720680069616A0870606A401C606284
:10121000208D401E2085608D401E6085C6E0208D9B
:1012200002282CD1334600226B492046009502F05B
:101230002BF808B101203CE772B62068006840F442
:1012400000702168086020680069616A0870606A3F
:10125000401C6062208D401E2085608D401E608590
:1012600062B620680069616A0870606A401C60624A
:10127000208D401E2085608D401E608596E033469F
:10128000002255492046009501F0FEFF08B10120DB
:101290000FE72068006820F480602168086072B65B
:1012A00020680069616A0870606A401C6062208D75
:1012B000401E2085608D401E6085484800681921C9
:1012C000B0FBF1F04FF47A71B0FBF1F0C0EBC0006D
:1012D00000EB8000029000BF0298401E029002982E
:1012E000A8B90020206300E039E0202084F83D0008
:1012F000002084F83E00206C40F02000206462B69C
:1013000000BF002084F83C0000BF0120D1E6206827
:101310004069C0F380000028DED02068006840F4F7
:1013200000702168086020680069616A0870606A5E
:10133000401C6062208D401E2085608D401E6085AF
:1013400062B620680069616A0870606A401C606269
:10135000208D401E2085608D401E608526E02A4637
:101360003146204602F035F808B10120A1E6206898
:101370000069616A0870606A401C6062208D401ECE
:101380002085608D401E608520684069C0F3800024
:1013900060B120680069616A0870606A401C606220
:1013A000208D401E2085608D401E6085208D002888
:1013B0007FF419AF202084F83D00002084F83E001F
:1013C00000BF84F83C0000BF73E6022071E6000015
:1013D000020010000000FFFF0400010010000020C8
:1013E0002DE9FC5F04460F4690469946DDE90CABBB
:1013F0000E9EFFF755FD054694F83D0020287DD14F
:10140000192301224D492046009501F03DFF10B1FE
:101410000220BDE8FC9F00BF94F83C00012801D1E8
:101420000220F6E7012084F83C0000BF2068006835
:1014300000F0010028B92068006840F00100216830
:1014400008602068006820F400602168086021209E
:1014500084F83D00402084F83E0000202064C4F859
:1014600024A0A4F82AB0608D20853548E0624B4660
:10147000424639462046CDE9006501F067FE08B1D5
:101480000120C6E731E02A463146204601F0E1FF5F
:1014900050B1206C042805D12068006840F4007029
:1014A000216808600120B4E7606A0078216808615B
:1014B000606A401C6062208D401E2085608D401E49
:1014C000608520684069C0F3800070B1208D60B1F4
:1014D000606A007821680861606A401C6062208D43
:1014E000401E2085608D401E6085208D0028CAD159
:1014F0002A463146204601F099FE00E01CE050B13A
:10150000206C042805D12068006840F40070216830
:10151000086001207DE72068006840F400702168C1
:101520000860202084F83D00002084F83E0000BFC1
:1015300084F83C0000BF6CE702206AE7020010005C
:101540000000FFFF10B586B0044600200290039013
:101550000490059015492068884225D100BF1448A1
:10156000806940F00800124988610846806900F0EF
:101570000800019000BF00BFC0200290122003901D
:101580000320059002A90B48FFF7EAFA00BF0848BC
:10159000C06940F400100649C8610846C06900F4FB
:1015A0000010019000BF00BF06B010BD0054004005
:1015B00000100240000C014003480068034909780C
:1015C0000844014908607047040000200C00002016
:1015D00010B50848006840F0100006490860032074
:1015E00000F0A8F80F2000F007F800F02BF800201A
:1015F00010BD00000020024070B504460E4800787F
:101600004FF47A71B1FBF0F00C490968B1FBF0F5C9
:10161000284600F00BFC08B1012070BD102C07D249
:1016200000222146501E00F047F80548046001E002
:101630000120F2E70020F0E70C000020100000205D
:101640000800002008B500BF1148806940F0010083
:101650000F4988610846806900F00100009000BFD2
:1016600000BF00BF0846C06940F08050C86108460E
:10167000C06900F08050009000BF00BF00BF054966
:10168000486820F0E06040F00070486000BF08BD8E
:10169000001002400000014001460846002809DB16
:1016A00000F01F0301229A4043099B0003F1E0234D
:1016B000C3F8002100BF70472DE9F05F80460D465A
:1016C0001646002702F08CFE074639462A46334666
:1016D00001F00700C0F1070ABAF1040F02D94FF078
:1016E000040A01E0C0F1070AD14600F1040ABAF188
:1016F000070F02D24FF0000A01E0A0F1030AD4461E
:101700004FF0010A0AFA09FAAAF1010A0AEA020AE2
:101710000AFA0CFA4FF0010B0BFA0CFBABF1010BC0
:101720000BEA030B4AEA0B042146404602F060FE36
:10173000BDE8F09F00BF00F00702064B19684FF6A6
:10174000FF031940044B0B4343EA0221014B19608C
:1017500000BF70470CED00E00000FA0570B50446CC
:101760000D460CB9012070BD5A48006800F0070012
:10177000A8420ED25748006820F007002843554978
:1017800008600846006800F00700A84201D0012068
:10179000E9E7207800F0020002281DD1207800F04F
:1017A0000400042805D14C48406840F4E0604A49F0
:1017B0004860207800F00800082805D146484068B5
:1017C00040F46050444948604348406820F0F000CD
:1017D000A168084340494860207800F0010078B3D0
:1017E0006068012806D13C48006800F4003090B9D8
:1017F0000120B8E76068022806D13748006800F089
:10180000007040B90120AEE73348006800F00200E4
:1018100008B90120A7E73048406820F0030061685C
:1018200008432D494860FFF73BFB064609E0FFF7F8
:1018300037FB801B41F28831884202D9032092E7AE
:1018400007E02548406800F00C006168B0EB810FAC
:10185000EDD12048006800F00700A8420ED91D48CD
:10186000006820F0070028431A490860084600680D
:1018700000F00700A84201D0012074E7207800F0B2
:101880000400042807D11448406820F4E060E168AF
:10189000084311494860207800F00800082808D162
:1018A0000D48406820F46050216940EAC1000A49AF
:1018B000486000F03FF808494968C1F30311074A3E
:1018C000515CC8400649086006480068FFF794FE6E
:1018D000002048E70020024000100240CA7F0008B4
:1018E0001000002008000020014800687047000038
:1018F0001000002000B5FFF7F7FF04494968C1F365
:101900000221034A515CC84000BD000000100240A3
:10191000DA7F000800B5FFF7E7FF04494968C1F323
:10192000C221034A515CC84000BD000000100240C3
:10193000DA7F0008F0B585B00FF26C0C9CE8E0107F
:1019400001A8A0E8E0101CA52D6800950021002248
:10195000002300240020194D696801F00C05F5B141
:10196000042D02D0082D19D101E0154819E001AD70
:10197000C1F38346AC5D01F4803555B10F4D6D6800
:10198000C5F340451DF805200D4D6543B5FBF2F349
:1019900002E00C4D04FB05F3184602E000BF0848C6
:1019A00000BF00BF05B0F0BD02030405060708092B
:1019B0000A0B0C0D0E0F1010010200000010024067
:1019C00000127A0000093D00F8B504460CB9012068
:1019D000F8BD207800F00100002878D0F848406871
:1019E00000F00C0004280CD0F548406800F00C0012
:1019F000082811D1F248406800F48030B0F5803FEB
:101A00000AD1EF48006800F4003000285FD0606819
:101A100000285CD10120DBE700BF6068B0F5803FA3
:101A200006D1E748006840F48030E549086028E0C6
:101A3000606858B9E248006820F48030E0490860E6
:101A40000846006820F4802008601AE06068B0F55D
:101A5000A02F0BD1DA48006840F48020D8490860F4
:101A60000846006840F4803008600AE0D448006806
:101A700020F48030D24908600846006820F48020B5
:101A8000086000BF606888B1FFF70AFA054606E003
:101A9000FFF706FA401B642801D9032098E7C848DD
:101AA000006800F400300028F2D010E0FFF7F8F9E9
:101AB000054606E0FFF7F4F9401B642801D903202E
:101AC00086E7BF48006800F400300028F2D1207893
:101AD00000F00200022857D1B948406800F00C001D
:101AE00050B1B748406800F00C00082818D1B4483D
:101AF000406800F4803098B9B148006800F00200F6
:101B000020B12069012801D0012061E7AC480068BC
:101B100020F0F800616940EAC100A949086033E09B
:101B20002069E8B10120A7490860FFF7B9F9054627
:101B300006E0FFF7B5F9401B022801D9032047E76B
:101B40009F48006800F002000028F2D09C4800681E
:101B500020F0F800616940EAC1009949086013E08B
:101B6000002098490860FFF79BF9054606E0FFF75B
:101B700097F9401B022801D9032029E79048006803
:101B800000F002000028F2D1207800F008000828B8
:101B90002DD1A069B8B101208B490860FFF780F909
:101BA000054606E0FFF77CF9401B022801D9032017
:101BB0000EE78348406A00F002000028F2D00120BE
:101BC00001F07AFF13E000207F490860FFF768F911
:101BD000054606E0FFF764F9401B022801D90320FF
:101BE000F6E67748406A00F002000028F2D120783B
:101BF00000F00400042873D100277148C06900F088
:101C0000805070B900BF6E48C06940F080506C4988
:101C1000C8610846C06900F08050009000BF00BF56
:101C200001276A48006800F48070B0B9674800680E
:101C300040F4807065490860FFF732F9054606E018
:101C4000FFF72EF9401B642801D90320C0E65F4846
:101C5000006800F480700028F2D000BFE06801281E
:101C600006D15748006A40F001005549086227E054
:101C7000E06858B95248006A20F0010050490862F3
:101C80000846006A20F00400086219E0E0680528B0
:101C90000BD14B48006A40F00400494908620846ED
:101CA000006A40F0010008620AE04548006A20F03E
:101CB0000100434908620846006A20F004000862F7
:101CC00000BFE068A0B1FFF7EBF8054609E0FFF7B9
:101CD000E7F8401B41F28831884202D9032077E6B9
:101CE00022E03748006A00F002000028EFD012E03E
:101CF000FFF7D6F8054608E0FFF7D2F8401B41F29F
:101D00008831884201D9032062E62D48006A00F03C
:101D100002000028F0D1012F05D12948C06920F028
:101D200080502749C86100BFE069C8B324484068B3
:101D300000F00C00082860D0E069022848D100209B
:101D400020490866FFF7ACF8054606E0FFF7A8F85B
:101D5000401B022801D903203AE61948006800F028
:101D600000700028F2D1206AB0F5803F07D11448F6
:101D7000406820F40030A168084311494860D4E964
:101D8000080108430E49496821F4741108430C49BD
:101D9000486001200B490866FFF782F8054607E016
:101DA0003DE0FFF77DF8401B022801D903200FE634
:101DB0000348006800F000700028F2D02FE0000017
:101DC0000010024000004242800442420070004085
:101DD000002014490866FFF763F8054606E0FFF7A0
:101DE0005FF8401B022801D90320F1E50E48006886
:101DF00000F000700028F2D111E0E069012800D164
:101E0000E6E50948466806F48031206A814204D13B
:101E100006F47011606A814201D00120D8E50020EB
:101E2000D6E50000000042420010024070B50446B2
:101E30002546681EB0F1807F01D301200FE0681EA7
:101E40004FF0E02148610F214FF0FF3002F0D0FA4F
:101E500000204FF0E021886107200861002070BD5C
:101E60007047704710B50346002200BF93F83C004E
:101E7000012801D1022010BD012083F83C0000BFE1
:101E800022F0FF00CC6840EA040222F440708C6823
:101E900040EA040222F480604C6840EA040222F422
:101EA00000600C6840EA040222F480500C6940EAA9
:101EB000040222F400504C6940EA040222F48040FB
:101EC000CC6940EA04021868426400BF002083F82D
:101ED0003C0000BF00BFCEE730B502460B4600BF56
:101EE00092F83C00012801D1022030BD012082F887
:101EF0003C0000BF022082F83D0010684468106872
:101F0000816824F070041868044310684460144D1C
:101F10001068A84213D0134D1068A8420FD0106863
:101F2000B0F1804F0BD0104D1068A84207D00F4D74
:101F30001068A84203D00E4D1068A84205D121F0C8
:101F400080015868014310688160012082F83D00DB
:101F500000BF002082F83C0000BF00BFC5E70000C2
:101F6000002C014000340140000400400008004003
:101F7000000C004010B504460CB9012010BD94F8C7
:101F80003D0028B9002084F83C00204600F026F8E7
:101F9000022084F83D00211D206801F0E5FE0120AB
:101FA00084F8460000BF84F83E0001213F2001551F
:101FB000402001554120015500BF00BF012084F899
:101FC000420043200155442001554520015500BFE2
:101FD000012084F83D000020D0E7000038B5044619
:101FE0001F49206888420DD100BF1E48806940F417
:101FF00000601C4988610846806900F40060009018
:1020000000BF2BE01849206888420DD100BF154859
:10201000C06940F004001349C8610846C06900F077
:102020000400009000BF19E010492068884215D1D3
:1020300000BF0C48C06940F010000A49C86108465A
:10204000C06900F01000009000BF00BF00220A210C
:102050003620FFF731FB3620FFF71EFB38BD0000AE
:10206000002C014000100240000800400010004019
:10207000014691F83D00012801D00120704702205F
:1020800081F83D000868C06840F001000B68D86026
:10209000164B0868984213D0154B086898420FD029
:1020A0000868B0F1804F0BD0124B0868984207D0F7
:1020B000114B0868984203D0104B086898420CD125
:1020C0000868806800F00702062A0CD008680068DB
:1020D00040F001000B68186005E00868006840F0F7
:1020E00001000B6818600020C8E70000002C0140C8
:1020F000003401400004004000080040000C004093
:102100002DE9F04104460D4600BF94F83C0001283B
:1021100002D10220BDE8F081012084F83C0000BF1C
:10212000022084F83D002068866826F0770626F4B1
:102130007F46206886602868502833D00CDC202831
:1021400050D004DC00284BD0102851D149E0302871
:1021500049D040284CD139E060282DD0702807D0D4
:10216000B0F5805F03D0B0F5005F41D10DE040E0F5
:10217000D5E902136A68206801F055FE2068866878
:1021800046F077062068866033E0D5E902136A6876
:10219000206801F048FE2068806840F48040216893
:1021A000886026E0EA686968206801F02DFF502108
:1021B000206801F043FE1CE0EA686968206801F0CD
:1021C00075FF6021206801F039FE12E0EA68696855
:1021D000206801F019FF4021206801F02FFE08E07F
:1021E00000BF00BF00BF2968206801F027FE00E0A3
:1021F00000BF00BF012084F83D0000BF002084F82C
:102200003C0000BF00BF85E72DE9F04104460D46C4
:1022100014B90120BDE8F08194F83D0028B90020F0
:1022200084F83C00204600F051F8022084F83D007C
:102230002068806844F20701884321688860211D76
:10224000206801F091FD2068D0F808802068866938
:102250002068076A286840EA080840F2033086438D
:10226000A969A86840EA0120064340F60C4086436D
:102270004FF2F0008643E969E86840EA012006432E
:1022800028690001296A40EA0130064327F0220745
:102290006969686840EA011007432068C0F808804F
:1022A0002068866120680762012084F8460084F86F
:1022B0003E0001213F200155012084F842004320C7
:1022C0000155012084F83D000020A3E710B586B039
:1022D0000446002002900390049005902068B0F11D
:1022E000804F45D100BF3748C06940F001003549F3
:1022F000C8610846C06900F00100019000BF00BF3E
:1023000000BF0846806940F0040088610846806983
:1023100000F00400019000BF00BF00BF08468069C4
:1023200040F0080088610846806900F008000190CC
:1023300000BF00BF4FF400400290002003900490C3
:1023400002A92148FEF70CFC08200290002003900F
:10235000049002A91D48FEF703FC00BF1C49486811
:1023600020F4407040F0E06040F48070486027E066
:1023700018492068884223D100BF1248C06940F044
:1023800002001049C8610846C06900F002000190CF
:1023900000BF00BF00BF0846806940F004008861AC
:1023A0000846806900F00400019000BF00BFC02013
:1023B000029000200390049002A90348FEF7D0FB8E
:1023C00006B010BD0010024000080140000C0140A2
:1023D00000000140000400402DE9F04304460D4692
:1023E00094F83E603F20075D94F84280432010F847
:1023F00004906DB9012E02D1B8F1010F02D0012075
:10240000BDE8F083022084F83E0084F8420025E015
:10241000042D0CD1012F02D1B9F1010F01D00120FF
:10242000EEE702213F2001554320015516E0012E21
:1024300007D1012F05D1B8F1010F02D1B9F1010F78
:1024400001D00120DCE7022084F83E0002213F2079
:102450000155022084F842004320015515B1042D96
:102460000CD105E001220021206801F0CBFC10E036
:1024700001220421206801F0C5FC0AE001220021AC
:10248000206801F0BFFC01220421206801F0BAFCA1
:1024900000BF00BF2068006840F0010021680860AC
:1024A0000020ADE770472DE9F04104460D46164681
:1024B00000BF94F83C00012802D10220BDE8F08161
:1024C000012084F83C0000BF96B9EB68D5E9001202
:1024D000206801F0ADFD2068806920F00C002168C3
:1024E000886120688069A9680843216888613DE0A7
:1024F000042E13D1EB68D5E90012206801F0EAFD43
:102500002068806920F440602168886120688069C3
:10251000A96840EA01202168886127E0082E12D1CD
:10252000EB68D5E90012206801F0F1FD2068C06970
:1025300020F00C002168C8612068C069A9680843C0
:102540002168C86112E0EB68D5E90012206801F04B
:10255000FAFD2068C06920F440602168C8612068E5
:10256000C069A96840EA01202168C86100BF002055
:1025700084F83C0000BF00BFA0E710B504460CB9CA
:10258000012010BD94F83D0028B9002084F83C00DB
:10259000204600F025F8022084F83D00211D206827
:1025A00001F0E2FB012084F8460000BF84F83E0001
:1025B00001213F200155402001554120015500BF18
:1025C00000BF012084F842004320015544200155FA
:1025D0004520015500BF012084F83D000020D0E7D0
:1025E00010B586B004460020029003900490059038
:1025F0001949206888422CD100BF1848C06940F0B2
:1026000008001649C8610846C06900F0080001903A
:1026100000BF00BF00BF0846806940F00400886129
:102620000846806900F00400019000BF00BF082048
:102630000290002003900120049002A90848FEF7B0
:102640008FFA002207213220FFF736F83220FFF7F9
:1026500023F806B010BD0000000C0040001002403E
:10266000000801402DE9F04104460D4615B994F8E3
:102670003E000BE0042D02D13F20005D06E0082D56
:1026800002D14020005D01E04120005D074615B900
:1026900094F842000BE0042D02D14320005D06E0D7
:1026A000082D02D14420005D01E04520005D8046F8
:1026B000012F02D1B8F1010F02D00120BDE8F08155
:1026C0001DB9022084F83E000EE0042D03D1022142
:1026D0003F20015508E0082D03D10221402001557B
:1026E00002E00221412001551DB9022084F8420078
:1026F0000EE0042D03D102214320015508E0082DEE
:1027000003D102214420015502E002214520015558
:1027100035B1042D0BD0082D10D00C2D1CD114E098
:102720002068C06840F002002168C86015E0206899
:10273000C06840F004002168C8600EE02068C068EE
:1027400040F008002168C86007E02068C06840F0D9
:1027500010002168C86000E000BF00BF01222946C8
:10276000206801F04FFB16492068884213D01549B4
:10277000206888420FD02068B0F1804F0BD01249FA
:102780002068884207D011492068884203D0104948
:10279000206888420CD12068806800F00706062E69
:1027A0000CD02068006840F001002168086005E056
:1027B0002068006840F001002168086000207DE783
:1027C000002C01400034014000040040000800409B
:1027D000000C004010B5044620680069C0F34000BA
:1027E000D8B12068C068C0F34000B0B16FF00200FB
:1027F00021680861012020772068806900F00300CB
:1028000018B12046FFF74EFE05E0204600F0FCF828
:10281000204600F0ACF90020207720680069C0F362
:102820008000D8B12068C068C0F38000B0B16FF0FC
:10283000040021680861022020772068806900F484
:10284000407018B12046FFF72DFE05E0204600F04D
:10285000DBF8204600F08BF9002020772068006923
:10286000C0F3C000D8B12068C068C0F3C000B0B1E8
:102870006FF0080021680861042020772068C06993
:1028800000F0030018B12046FFF70CFE05E02046DB
:1028900000F0BAF8204600F06AF90020207720689E
:1028A0000069C0F30010D8B12068C068C0F3001000
:1028B000B0B16FF01000216808610820207720680F
:1028C000C06900F4407018B12046FFF7EBFD05E049
:1028D000204600F099F8204600F049F900202077C2
:1028E0002068006900F0010058B12068C06800F05D
:1028F000010030B16FF0010021680861204600F04E
:10290000B1F920680069C0F3C01058B12068C068F0
:10291000C0F3C01030B16FF080002168086120461C
:10292000FFF79EFA20680069C0F3801058B1206854
:10293000C068C0F3801030B16FF0400021680861BA
:10294000204600F08BFA20680069C0F3401058B1AF
:102950002068C068C0F3401030B16FF020002168DB
:1029600008612046FFF77DFA10BD000010B586B063
:102970000446002002900390049005901D492068B1
:10298000884218D100BF1C48806940F004001A49F1
:1029900088610846806900F00400019000BF00BF14
:1029A0004FF41060029002200390059002A9134892
:1029B000FEF7D6F81BE012492068884217D100BF05
:1029C0000D48806940F008000B498861084680691D
:1029D00000F00800019000BF00BF4FF4407002906B
:1029E00002200390059002A90648FEF7B9F806B048
:1029F00010BD0000002C0140001002400008014002
:102A000000080040000C0140704770B504460D46B8
:102A1000164600BF94F83C00012801D1022070BD89
:102A2000012084F83C0000BF36B1042E1BD0082ED4
:102A300031D00C2E5ED145E02946206801F008FA1D
:102A40002068806940F008002168886120688069FA
:102A500020F00400216888612068806929690843A2
:102A60002168886147E02946206801F029FA20683A
:102A7000806940F40060216888612068806920F4E2
:102A800080602168886120688069296940EA0120A6
:102A9000216888612FE02946206801F04FFA2068FC
:102AA000C06940F008002168C8612068C06920F052
:102AB00004002168C8612068C06929690843216849
:102AC000C86118E02946206801F074FA2068C069DE
:102AD00040F400602168C8612068C06920F480600B
:102AE0002168C8612068C069296940EA012021681D
:102AF000C86100E000BF00BF00BF002084F83C00B8
:102B000000BF00BF8BE710B504460CB9012010BD13
:102B100094F83D0028B9002084F83C00204600F0DD
:102B200025F8022084F83D00211D206801F01CF9E1
:102B3000012084F8460000BF84F83E0001213F20B8
:102B40000155402001554120015500BF00BF012023
:102B500084F8420043200155442001554520015589
:102B600000BF012084F83D000020D0E77047704787
:102B700070B504460D4615B994F83E000BE0042DDF
:102B800002D13F20005D06E0082D02D14020005D0B
:102B900001E04120005D012801D0012070BD1DB978
:102BA000022084F83E000EE0042D03D102213F20D4
:102BB000015508E0082D03D102214020015502E013
:102BC00002214120015501222946206801F01AF90D
:102BD0001F492068884203D01E492068884201D1DD
:102BE000012000E0002028B12068406C40F4004043
:102BF0002168486416492068884213D01549206826
:102C000088420FD02068B0F1804F0BD01249206865
:102C1000884207D011492068884203D010492068B3
:102C200088420CD12068806800F00706062E0CD080
:102C30002068006840F001002168086005E0206815
:102C4000006840F00100216808600020A6E700004D
:102C5000002C014000340140000400400008004006
:102C6000000C00402DE9F04F8FB0064667488642C1
:102C70007ED100200D900C9065480068401C64498E
:102C800008606448006800680521B0FBF1F201FBB0
:102C9000120000286DD160480068401C5E49086041
:102CA00003F098FB01F0DCFF022003F075FE0746FD
:102CB000032003F071FE804607EB080004F0DAFE03
:102CC00056498860A8EB0700782190FBF1F0544941
:102CD00009680844524908600846006804F0CAFEC2
:102CE0005049009004F026FF019004F011FD0022ED
:102CF0004D4BCDE9020104F031FA00224B4BCDE9F6
:102D0000040104F079F84FF08042494BCDE9060107
:102D100004F024FACDE9080103F08CFF0B900B9826
:102D200004F08CFE099043484349CDE90010434824
:102D3000434A44490368099803F0D0FC0024424800
:102D4000B0F80690B9F5C86F22DAB9F5AF6F1FDD9C
:102D500001468988A1F2DC5004F08CFE3B490890C2
:102D600004F0E8FE099004F069FE0D90364901E098
:102D700049E047E04988A1F2DC5004F07BFE344989
:102D8000089004F0D7FE099004F058FE0C9002E081
:102D900000200D900C902F480D9901F079FA0990C0
:102DA00004F04CFE04462B491C4801F095FA0A90A9
:102DB0000C9804F05FFE079027488168079804F09C
:102DC000D3FC2449089001F0DCF9099004F036FEA8
:102DD0000546204604F04EFE08900A9904F0C4FC13
:102DE000099004F02BFE0446604200EB050A04EB58
:102DF000050B5946012003F051FD5146022003F016
:102E00004DFD00BF00BF0FB0BDE8F08F6002002095
:102E100014000020180000201C0000209404002052
:102E200020000020DA0F4940004040400064E940A3
:102E3000DCA54C400AD7A33B9C0000209800002052
:102E40009400002024000020300300200AD7233CF7
:102E50000AD7233DB004002060060020704710B55B
:102E600004460CB9012010BDA06900B100E000BF0C
:102E700094F83D0028B9002084F83C00204600F07A
:102E800027F8242084F83D002068C06820F4005012
:102E90002168C860204601F07DF92068006920F4AF
:102EA0009040216808612068406920F02A0021686C
:102EB00048612068C06840F400502168C860002064
:102EC0002064202084F83D0084F83E000020CAE7FA
:102ED00010B586B00446002002900390049005903F
:102EE0002C492068884252D100BF2B48C06940F469
:102EF00080202949C8610846C06900F480200190FB
:102F000000BF00BF00BF0846806940F0080088612C
:102F10000846806900F00800019000BF00BF081556
:102F20000290022003900320059002A91B48FDF7A0
:102F300017FE4FF4006002900020039002200490DE
:102F400002A91648FDF70CFE154816490860002036
:102F500048600021134881608021C1600021016127
:102F6000416181614FF48051C161FDF79FFD08B15E
:102F7000FDF74AFD00BF0B48A063446200BF00227A
:102F800011462720FEF798FB2720FEF785FB06B0A9
:102F900010BD00000048004000100240000C01403D
:102FA00030000240EC02002000BFFEE70146086846
:102FB0004069C0F38020B0B16FF480600A6850614E
:102FC00000200863202081F83D00002081F83E00A9
:102FD000086C40F00400086400BF002081F83C0049
:102FE00000BF012070470020FCE700002DE9F843F6
:102FF00004460F4615469946DDE9088620680068B4
:1030000040F48060216808602068006840F48070A7
:1030100021680860434600224FF0011120460096C7
:1030200000F032F960B12068006800F48070B0F5FB
:10303000807F02D14FF4007020640320BDE8F88344
:1030400007F0FE0021680861334642463E492046AB
:1030500000F05DF908B10120F0E700BF002000900A
:1030600020684069009020688069009000BF00BF20
:1030700032464146204600F0ECF950B1206C04285D
:1030800005D12068006840F40070216808600120C4
:10309000D4E7B9F1010F03D1E8B22168086117E064
:1030A000C5F307202168086132464146204600F0FA
:1030B000D0F950B1206C042805D12068006840F494
:1030C0000070216808600120B8E7E8B22168086153
:1030D00032464146204600F0BCF950B1206C04282D
:1030E00005D12068006840F4007021680860012064
:1030F000A4E72068006840F48070216808604346B7
:1031000000224FF001112046009600F0BDF858B1A2
:103110002068006800F48070B0F5807F02D14FF421
:1031200000702064032089E7F8B240F001002168B4
:103130000861334642460449204600F0E8F808B1E9
:1031400001207BE7002079E7020001002DE9F84328
:103150000446884615469946DDE9086720680068F8
:1031600040F4807021680860334600224FF001115E
:103170002046009700F088F860B12068006800F4ED
:103180008070B0F5807F02D14FF40070206403207E
:10319000BDE8F88308F0FE00216808613B4632462E
:1031A0002149204600F0B3F808B10120F0E700BF44
:1031B000002000902068406900902068806900909D
:1031C00000BF00BF3A463146204600F042F950B1F8
:1031D000206C042805D12068006840F40070216844
:1031E00008600120D4E7B9F1010F03D1E8B22168EA
:1031F000086117E0C5F30720216808613A463146A7
:10320000204600F026F950B1206C042805D1206832
:10321000006840F40070216808600120B8E7E8B257
:10322000216808610020B3E70200010070B5044680
:103230000D46164620E02046FFF7B8FE08B10120F3
:1032400070BD681CC0B1FDF72BFE801BA84200D8E2
:1032500095B900202063202084F83D00002084F8E8
:103260003E00206C40F02000206400BF002084F865
:103270003C0000BF0120E3E720684069C0F3800004
:103280000028D8D00020DBE72DE9F04104460D46A8
:1032900017461E46DDF818801CE0701CD0B1FDF703
:1032A000FFFDA0EB0800B04200D89EB900202063CB
:1032B000202084F83D00002084F83E00206C40F07F
:1032C0002000206400BF002084F83C0000BF0120E3
:1032D000BDE8F081C5F3074001280AD120684069A4
:1032E000A9B20840A9B2884201D101200BE0002018
:1032F00009E020688069A9B20840A9B2884201D1DA
:10330000012000E00020B842C7D00020E0E72DE90E
:10331000F04104460D4616461F463DE020684069D0
:10332000C0F38020E8B12068006840F40070216894
:1033300008606FF4806021684861002020632020CD
:1033400084F83D00002084F83E00206C40F004002A
:10335000206400BF002084F83C0000BF0120BDE8CD
:10336000F081701CC0B1FDF79BFDC01BB04200D8BE
:1033700096B900202063202084F83D00002084F8C6
:103380003E00206C40F02000206400BF002084F844
:103390003C0000BF0120E2E7C5F3074001280AD145
:1033A00020684069A9B20840A9B2884201D1012031
:1033B0000BE0002009E020688069A9B20840A9B2AA
:1033C000884201D1012000E000200028A6D0002082
:1033D000C5E770B504460D46164632E020684069E0
:1033E000C0F30010A0B16FF0100021684861002008
:1033F0002063202084F83D00002084F83E00206CEB
:10340000206400BF002084F83C0000BF012070BD94
:10341000FDF746FD801BA84200D895B90020206327
:10342000202084F83D00002084F83E00206C40F00D
:103430002000206400BF002084F83C0000BF012071
:10344000E5E720684069C0F380100028C6D000205E
:10345000DDE770B504460D46164620E02046FFF72E
:10346000A5FD08B1012070BD681CC0B1FDF718FDB5
:10347000801BA84200D895B900202063202084F842
:103480003D00002084F83E00206C40F020002064C5
:1034900000BF002084F83C0000BF0120E3E7206863
:1034A0004069C0F3C0100028D8D00020DBE708B581
:1034B0006A467521682003F097F89DF80000682897
:1034C00001D1012008BD0020FCE770B500240025D3
:1034D00000BF06E0002500E06D1CB5F57A7FFBDB40
:1034E000641CB4F57A7FF5DB00226B21682003F0C1
:1034F00093F800221921682003F08EF800221A2187
:10350000682003F089F808221B21682003F084F862
:1035100010221C21682003F07FF870BD7CB50446A2
:10352000052608E006236A463B21682003F044F89C
:10353000054605B904E0301EA6F10101CEB2F1D175
:1035400000BF9DF801009DF8001040EA012000B284
:1035500020809DF803009DF8021040EA012000B28F
:1035600060809DF805009DF8041040EA012000B23B
:10357000A0802088208060886080A088A0807CBD9A
:103580007CB50446052608E006236A4643216820E8
:1035900003F012F8054605B904E0301EA6F101015A
:1035A000CEB2F1D100BF9DF801009DF8001040EAB5
:1035B000012000B220809DF803009DF8021040EA2F
:1035C000012000B260809DF805009DF8041040EADB
:1035D000012000B2A0802088208060886080A088C0
:1035E000A0807CBD2DE9F8430546052708E00223AD
:1035F0006A464121682002F0DFFF044604B904E076
:10360000381EA7F10101CFB2F1D100BF9DF8010032
:103610009DF8001040EA012006B2304604F02AFA74
:103620008146054904F014F98046044904F09CF8E9
:103630002860BDE8F88300000000AA43B81E1242CB
:1036400000210160416001627047000008B500BFC1
:103650000648406940F00100044948610846406955
:1036600000F00100009000BF00BF08BD0010024044
:1036700008B500BF1348806940F0200011498861F7
:103680000846806900F02000009000BF00BF00BF26
:103690000846806940F0040088610846806900F0AF
:1036A0000400009000BF00BF00BF0846806940F0E2
:1036B000080088610846806900F00800009000BF9B
:1036C00000BF08BD0010024010B50B480B49086050
:1036D0000B484860002109488160C1604FF4804177
:1036E0000161002141618161C1610162FDF7DEFB81
:1036F00008B1FDF789F910BD00540040A400002076
:10370000A086010010B5002211460D20FDF7D4FF60
:103710000D20FDF7C1FF10BD00B595B00020119040
:103720001290139014900F9010901C2108A8FCF791
:1037300066FE20216846FCF762FE2F482F4908608C
:103740000020486000212D48816041F61F41C16082
:1037500000210161416180218161FEF70BFC08B10C
:10376000FDF752F94FF48050119011A92348FEF74C
:10377000C7FC08B1FDF748F92048FFF7C4F908B1C4
:10378000FDF742F900200F9010900FA91B48FEF79B
:10379000A3FB08B1FDF738F96020089000200990DC
:1037A0000A900B900C900D900E90002208A91348DF
:1037B000FFF72BF908B1FDF727F90C2208A90F48EC
:1037C000FFF723F908B1FDF71FF9002000900190E1
:1037D0000290039004904FF4005005900020079051
:1037E00069460648FEF73EFB08B1FDF70DF90348B0
:1037F000FFF7BCF815B000BD002C0140F800002018
:1038000000B58BB0242102A8FCF7F9FD0020009040
:1038100001904FF080401949086000204860002165
:10382000164881604FF6FF71C1600021016181611E
:1038300003200290002003900120049000200590B6
:103840000C2006900020079001200890002009908D
:103850000C200A9002A90948FEF7D6FC08B1FDF732
:10386000D3F800200090019069460448FEF734FB2D
:1038700008B1FDF7C9F80BB000BD00004001002001
:1038800000B58BB0242102A8FCF7B9FD0020009000
:103890000190194819490860002048600021174824
:1038A00081604FF6FF71C1600021016181610320D9
:1038B00002900020039001200490002005900C202D
:1038C00006900020079001200890002009900C200D
:1038D0000A9002A90948FEF797FC08B1FDF794F891
:1038E00000200090019069460448FEF7F5FA08B1FF
:1038F000FDF78AF80BB000BD0004004088010020ED
:1039000000B58DB0002009900A900B900C900790A4
:1039100008901C216846FCF772FD24482449086081
:103920000020486000212248816041F61F41C160AB
:103930000021016180218161FEF71CFB08B1FDF7C8
:1039400063F84FF48050099009A91948FEF7D8FB95
:1039500008B1FDF759F81648FFF7D5F808B1FDF79B
:1039600053F800200790089007A91148FEF7B4FA11
:1039700008B1FDF749F86020009000200190029006
:103980000490082269460A48FFF73FF808B1FDF79E
:103990003BF80C2269460648FFF737F808B1FDF7F7
:1039A00033F80348FEF7E2FF0DB000BD0008004009
:1039B000D001002000B587B000200590069001904E
:1039C0000290039004901748174908604720486008
:1039D0000021154881604FF6FF71C160002101612F
:1039E0008161FEF7CAFD08B1FDF70EF800200590D1
:1039F000069005A90C48FEF76FFA08B1FDF704F828
:103A000002200190012002900020039008200490E1
:103A10000C2201A90448FEF746FD08B1FCF7F4FFAB
:103A200007B000BD000C0040180200201CB50020AB
:103A3000009001900E480F4908604720486000211F
:103A40000C48816040F2E731C16080218161FEF75E
:103A500091FA08B1FCF7D8FF002000900190694668
:103A60000448FEF739FA08B1FCF7CEFF1CBD000090
:103A7000001000406002002010B50B480B490860A0
:103A80004FF4E1304860002108488160C160016165
:103A90000C21416100218161C161FFF7E0F908B1AA
:103AA000FCF7B2FF10BD000000480040A802002053
:103AB00000BFFEE700BFFEE708B508490968C9086E
:103AC0004FF47A72B1FBF2F14143009100BF00BFA5
:103AD00000994A1E00920029F9D108BD100000206B
:103AE0002DE9FF5F07460D4614462946384603F088
:103AF000AFFE03903848039903F0AAFE804602F017
:103B0000DFFF06463146304604F014F8834633485A
:103B100002F094FB4FF08041019004F00BF88246D4
:103B2000314604F007F881464FF07E5103F01CFE49
:103B30008046594603F018FE02900021284603F003
:103B4000C5FF01D8BDE8FF9F3146304603F0F2FFC4
:103B50008046029903F07CFEE0604FF08040E1680F
:103B600003F0E8FF2061E16861614FF07E50206062
:103B70003146304603F0DEFF82464FF07E5104F0BE
:103B800011F981464FF0804103F0D4FF804602993D
:103B900003F05EFE60603146304603F0CBFF0190DB
:103BA0000E4802F04BFB4FF08041009003F0C2FF43
:103BB0008346314603F0BEFF82464FF07E5104F04B
:103BC000E7F88146019903F0CFFD8046029903F0A2
:103BD0003FFEA06000BFB5E7DA0F4940DA0F493F6A
:103BE00010B5FDF7E9FC10BD00B58FB0282105A880
:103BF000FCF705FC14216846FCF701FC0920059040
:103C00004FF48030069000200790012009900B901F
:103C100002200C90C1030D914FF4E0110E9105A804
:103C2000FDF7D2FE08B1FCF7EFFE0F200090022056
:103C30000190002002904FF48060039000200490D7
:103C400002216846FDF78AFD08B1FCF7DDFE0FB0E2
:103C500000BD704710B50024374800680069C0F304
:103C60000014002C52D06FF010003349096808612D
:103C700032480068324908800020304908603148E5
:103C8000007801282BD12E480088B0F5617F22DB17
:103C90002B48008840F6340188421CDC2848018803
:103CA000294802780078401C274B1870274820F8D4
:103CB00012101846007808281DDB002021490870E2
:103CC00018460078420021492148FCF721FB0020DA
:103CD0001D4908700FE000201A4908700BE01848D1
:103CE000008840F69801884205DD012015490870DA
:103CF00000201549087017480078012806D111499D
:103D00000870002010490870124908700A480068BD
:103D1000006900F0010068B107480068C06800F061
:103D2000010038B16FF00100034909680861012002
:103D30000849087010BD000018020020240C004043
:103D4000280000202B0000202C000020460300202B
:103D5000320300202A00002010B50248FEF73AFD89
:103D600010BD00006002002010B50268204B984290
:103D70000ED0204B98420BD0B0F1804F08D01E4B94
:103D8000984205D01D4B984202D01D4B984203D15A
:103D900022F070024B681A43154B98420ED0154B17
:103DA00098420BD0B0F1804F08D0134B984205D009
:103DB000124B984202D0124B984203D122F4407227
:103DC000CB681A4322F080034C6943EA0402026084
:103DD0008B68C3620B688362054B984202D0054B27
:103DE000984201D10B6903630123436110BD0000B8
:103DF000002C014000340140000400400008004055
:103E0000000C004030B501F01F05012404FA05F351
:103E1000046A9C430462046A01F01F0502FA05F576
:103E20002C43046230BD30B50C46816821F47F41DB
:103E300042EA032525432943816030BD0A46816853
:103E400021F0700142F007031943816070470000C0
:103E500030B5056A25F001050562026A4368846988
:103E600024F0700424F003040D682C4322F00202B5
:103E70008D682A43104DA84200D103E00F4DA8429F
:103E800006D100BF22F00802CD682A4322F00402C6
:103E9000094DA84202D0094DA84207D123F48073EE
:103EA00023F400734D692B438D692B434360846178
:103EB0004D684563026230BD002C01400034014072
:103EC00030B5056A25F010050562026A4368846909
:103ED00024F4E04424F440740D6844EA052422F0FC
:103EE00020028D6842EA0512124DA84200D103E07B
:103EF000114DA84207D100BF22F08002CD6842EAEE
:103F0000051222F040020B4DA84202D00A4DA842F1
:103F100009D123F4806323F400634D6943EA8503E8
:103F20008D6943EA8503436084614D68856302625D
:103F300030BD0000002C01400034014030B5056A5E
:103F400025F480750562026A4368C46924F0700430
:103F500024F003040D682C4322F400728D6842EAB9
:103F60000522124DA84200D103E0114DA84207D10D
:103F700000BF22F40062CD6842EA052222F480628A
:103F80000A4DA84202D00A4DA84209D123F4805319
:103F900023F400534D6943EA05138D6943EA051381
:103FA0004360C4614D68C563026230BD002C0140AE
:103FB0000034014030B5056A25F480550562036A76
:103FC0004468C26922F4E04222F440720D6842EA79
:103FD000052223F400538D6843EA0533084DA842B7
:103FE00002D0084DA84204D124F480444D6944EA2B
:103FF00085144460C2614D680564036230BD0000F1
:10400000002C01400034014030B50B461446026AD2
:10401000056A25F001050562816921F0F00141EA98
:10402000041122F00A021A438161026230BD0000CD
:1040300070B50C461546066A26F0010606628169CF
:10404000026A154EB0420ED0144EB0420BD0B0F101
:10405000804F08D0124EB04205D0124EB04202D06E
:10406000114EB04201D1012600E000261EB121F020
:104070000301294301E041F0010121F0F001F026A4
:1040800006EA0316314322F00A0204F00A0632431C
:104090008161026270BD0000002C014000340140CB
:1040A0000004004000080040000C004030B50B4602
:1040B0001446056A25F0100505628169026A21F43B
:1040C000704141EA043122F0A00242EA0312816108
:1040D000026230BD70B50C461546066A26F0100621
:1040E00006628169026A21F4407141EA052121F4E6
:1040F00070414FF4704606EA0336314322F0A002C5
:10410000A02606EA041632438161026270BD70B5D2
:104110000C461546066A26F480760662C169026A74
:1041200021F00301294321F0F001F02606EA0316ED
:10413000314322F400724FF4007606EA042632433B
:10414000C161026270BD70B50C461546066A26F460
:1041500080560662C169026A21F4407141EA052174
:1041600021F470414FF4704606EA0336314322F4DD
:1041700000524FF4005606EA04363243C16102622F
:1041800070BD70B505460C462846216903F0D2FC87
:1041900070BD000070B504462168096921F44051E2
:1041A000E2681143226811612269A16811436269C2
:1041B00041EA02052168C96841F20C629143294332
:1041C0002268D1602168496921F44071A2691143D4
:1041D000226851612D4A2168914202D1FDF79AFB74
:1041E00001E0FDF787FB00EBC00101EB0011626805
:1041F0009200B1FBF2F100EBC00202EB0012636827
:104200009B00B2FBF3F26423B2FBF3F202EBC203B6
:1042100003EB0212A1EB8201322202EB01116422B4
:10422000B1FBF2F101F0F00100EBC00202EB001271
:1042300063689B00B2FBF3F26423B2FBF3F201EB81
:10424000021200EBC00101EB001163689B00B1FB9F
:10425000F3F100EBC00303EB00136668B600B3FB99
:10426000F6F36426B3FBF6F303EBC30606EB031386
:10427000A1EB8301322303EB01116423B1FBF3F1C2
:1042800001F00F0111442268916070BD00380140B7
:104290002DE9F04704460D460C4A1168606803F0AA
:1042A00049FC8046284603F0E5FB81460848016842
:1042B000484603F06DFD0746216803F03BFC0646C7
:1042C000414603F051FABDE8F08700006006002087
:1042D0005000002000BFFEE72DE9FC5F0446894640
:1042E000A169A06803F05EFD6060E06803F010FA69
:1042F00007464FF06632224B02F030FF054602F0CF
:1043000099FCE060606803F003FA07464FF033322F
:104310001C4B02F023FF05460E46E06803F0F8F957
:1043200082462A46334602F0B7FCCDE9000102F08E
:1043300081FCE060D4E9031003F016FA2061124911
:10434000206903F0C3FC01D20F4820610F492069A6
:1043500003F0BCFB01D20D4820612169D9F80C00A3
:1043600003F0E8FB0546E168D9F8080003F0E2FB3A
:104370000646294603F0F8F920602068BDE8FC9F56
:104380006666E63F3333D33F00401C4600401CC600
:10439000490050EAC12018BF04204A0D18BF40F060
:1043A000010040F2FF72B2EB515F08BF40F0020023
:1043B000012808BF052070474100080218BF0420EB
:1043C0000A0E18BF40F001004FF07F4232EA0101AF
:1043D00008BF40F00200012808BF05207047000018
:1043E00002480068C0F30220704700000CED00E0B6
:1043F00010B5002804DB0A07130E054A135406E023
:104400000A07140E034A00F00F031B1FD45410BDFB
:1044100000E400E018ED00E02DE9F74F144694B0F9
:104420000021C4E902111599079121F00045C949FD
:104430008D4206DC1599C4E9000117B00020BDE8E3
:10444000F08FC549DFF814A3A9423CDD0799C44E9B
:104450000029C44FC44A1599534619DD03F06EF87C
:10446000554506D0C14AC24B03F068F8C4E90001C3
:104470000AE04FF0D352BE4B03F060F832463B46A1
:1044800003F05CF8C4E9000117B00120BDE8F08F2B
:1044900002F002FC554506D0B44AB54B02F0FCFBD5
:1044A000C4E900010AE04FF0D352B14B02F0F4FB33
:1044B00032463B4602F0F0FBC4E9000117B04FF072
:1044C000FF30BDE8F08FAB49A942159978DB21F0A8
:1044D000004183468846A84AA84B02F03FFE0022CE
:1044E000A74B02F0D9FB02F0DFFD099002F00BFEB2
:1044F00006460F469C4A534602F030FE43465A4653
:1045000002F02AFF80468A46984A994B304639463F
:1045100002F024FE2A0D01250B924246534602F07A
:104520001BFF032DC4E9000139D00B98C1F30A51D8
:10453000401A05EB45111139814230DA9148C346E2
:10454000784400EB0510CDF80CA00C90D0E90023C6
:104550003046394602F002FE02460B4604910690B0
:104560005846039902F0EAFF80468A4602460B4607
:104570005846039902F0E2FF049B069A02F0DEFF20
:1045800083460C9803913946D0E90223304602F065
:10459000E5FD5A46039B02F0D1FF6D1CBDE707986D
:1045A0000028A2BF099817B0BDE8F08F616881F0BC
:1045B00000416160099817B04042BDE8F08FFFE705
:1045C00084461598C1F31301C0F30A50A0F2F530E8
:1045D0004FEA601800F01F06C6F12000139000207B
:1045E0000690079041F4801E05206D4676B1664A1C
:1045F00008EB00017A4452F8213002EB8101B3400C
:104600004A68139922FA01F1194305E05F4908EB62
:104610000002794451F82210A1FB0E27A1FB0C13D4
:104620001A449A4234BF0123002303EB070A05EB27
:104630008003D3E901B70F448F4234BF0121002129
:1046400093448B4411B1934502D903E0934501D2C1
:10465000012100E00021C3E901B7514445F82010D1
:10466000011EA0F10100C1DC0298059F00F100507D
:10467000800F12900298DDE90356800002F043FD9E
:10468000834628460D9102F055FD6FF01D0203F0A0
:1046900030FCCDE90E01304602F04CFD6FF03D02DA
:1046A00003F027FC80468A46384602F043FD6FF04F
:1046B0005D0203F01EFC074642465346119102F08C
:1046C000EBFADDE90E2302F0E7FA5A460D9B02F001
:1046D000E3FA00250E465A4628460D9B02F02EFFAF
:1046E000DDE90E2302F02AFF4246534602F026FF80
:1046F0003A46119B02F030FEDFF898A0244A534658
:1047000002F02CFD07468846234A244B31462846B2
:1047100002F024FD3A46434602F0BEFA07468846B8
:104720004FF0A84253463146284602F017FD3A465C
:10473000434602F0B1FA159A12F0004F04D0129AD3
:1047400081F0004152421292C4E90001129817B060
:10475000BDE8F08FFB21E93F7CD90240FB21F93F06
:104760007370032E8A19A33B000040543163621A10
:1047700061B4D03DFB21394183C8C96D305FE43F4E
:104780000000E03FC43B0000403B0000223B000033
:10479000182D4454FB21F93D3326A611460B113C3C
:1047A0002DE9FF4D21F0004807460C46B8F1795F2E
:1047B00008DA02F079FC002801BF0020324904B079
:1047C000BDE8F08D3A4623461046194602F0C6FC75
:1047D000054602462D480E460B460621784400F059
:1047E0005DF82A46334602F0B9FCDDE90223824631
:1047F0008B463846214602F0B1FC04460F4652462D
:104800005B462846314602F0A9FC22463B4602F0B0
:1048100095FE07468A464FF0FF322846314603F0A0
:1048200068FB1B4A90450ADA3A46534602F086FE78
:1048300004B00022BDE8F04D134B02F08DBD154AC7
:104840004245A8BFA8F500154FF00004B8BF124DAF
:1048500022462B4602F072FE0646884622462B462A
:104860000020094902F06AFE04460D463A465346C6
:104870003046414602F062FE04B022462B46BDE8B7
:10488000F04D02F069BD00000000F03FF03800007C
:104890003333D33F0000E93F0000D23F2DE9F04120
:1048A0004F1E00EBC7010446D1E9000115461E4624
:1048B00037F006020DD02A46334602F04FFC7F1E29
:1048C00004EBC703D3E9002302F0E6F937F0060250
:1048D000F1D1022F25D0042F13D0062F18BFBDE829
:1048E000F0812A46334602F039FCD4E90A2302F06B
:1048F000D3F92A46334602F031FCD4E9082302F00A
:10490000CBF92A46334602F029FCD4E9062302F00B
:10491000C3F92A46334602F021FCD4E9042302F00D
:10492000BBF92A46334602F019FCD4E9022302F00F
:10493000B3F92A46334602F011FCD4E90023BDE85E
:10494000F04102F0A9B900002DE9FF4D054621F024
:10495000004084B00C46B0F1795F0BDA2846FFF7CF
:1049600017FD042808BF00F071F8284608B021465A
:10497000BDE8F08D2A460B46104602F0EFFB0646D6
:104980000F462A46234602F0E9FB804626488A461F
:1049900032463B4605217844FFF780FF8346109856
:1049A000029160B3214A224B4046514602F0D6FBA9
:1049B000CDE900015A4640465146029B02F0CEFB2B
:1049C00082468846DDE906014FF0FF3203F091FA96
:1049D0005246434602F0B2FD32463B4602F0BEFB71
:1049E000DDE9062302F0AAFDDDE9002302F0A6FDC1
:1049F00008B02A462346BDE8F04D02F0ADBC0B4698
:104A00005A463046394602F0A9FB084A084B02F0E4
:104A100043F94246534602F0A1FB08B02A4623461A
:104A2000BDE8F04D02F038B95638000049555555EB
:104A30005555C5BF012203F05CBA02F02DB9002222
:104A400013461046114602F0D7B90000024A002072
:104A5000110703F04EBA000001FDFFFF012103F032
:104A600076BA0021084602F0F3BE6FF05E01080737
:104A700003F06DBA2DE9F04D0D4614464FF07F411D
:104A8000B1EB440F9EBF4FF0FF312960BDE8F08DC0
:104A90004FF0004040EA0421C4F3C750783810F0CA
:104AA0001F024A4B4FEA601CC2F120067B44C4F34C
:104AB000C750A0F178004FEA601003EB800053F874
:104AC0002C3008BFD0E901C612D0D0F804C0934002
:104AD0002CFA06F73B4387680CFA02FC27FA06F823
:104AE000C06807FA02F2F0404CEA080C42EA0006FD
:104AF000A3FB0132ACFB01C0A6FB016101EB0C067C
:104B00008E4234BF4FF0010C4FF0000CC1186144CD
:104B1000BCF1000F02D0814202D903E0814201D2F0
:104B2000012000E00020104400F120024FEA92181A
:104B30008006CA0C40EA42304F03C5F8008002F0FC
:104B400099FF8246384602F0ADFF6FF0120103F084
:104B5000FEF90746304602F0A5FF6FF0250103F08D
:104B6000F6F983463946504602F0FEFD594602F0FA
:104B7000FBFD00F500666FF30B065146304603F06F
:104B800011F9394603F00EF9594603F001F91049BD
:104B900002F0D0FF07460F49304602F0CBFF3946FE
:104BA00002F0E2FD07460C49304602F0C3FF3946E9
:104BB00002F0DAFD14F0004F08BFBDE8F08DC8F137
:104BC000805180F000402960BDE8F08D2037000062
:104BD000DB0FC92F22AAFD290000C92F00BF704793
:104BE00070B500244FF07E501249086000204860E4
:104BF0008860C86013240DE00F4800EB04100D4AD4
:104C0000D2E90035D2E90212C0E90035C0E902124A
:104C1000601E84B2002CEFDC074A064DD5E9010383
:104C20002968ED68161D29C6116004A0FBF7F4FA87
:104C300070BD0000500600201005002020492068AB
:104C40006176652066696E6973682074686520699D
:104C50006E6974206F662061687273200D0A00000F
:104C600010B5B2B00020289027902690FE48FBF7A0
:104C7000CFFEFD48C0680B9002F05CFA0022FB4BAF
:104C8000CDE90C0102F0B8F8CDE90E0101F0D2FF38
:104C900030900021309802F09DFE01D132B010BD5D
:104CA000F3480088401CF249088008460088042820
:104CB0003FDB1320319011E0EE49319801EB0011F8
:104CC000401EEC4A02EB001292E81900D26881E81B
:104CD0001900CA603198401E80B231903198002886
:104CE000EADCE448E44C1ECC1EC0E448E44AD2E9C5
:104CF00000139268C0E9013201601320319012E084
:104D0000319800EB4000DD4901EB80013198401EF5
:104D100000EB4000D94A02EB80030DCB0DC1319866
:104D2000401E80B2319031980028E9DC0020D04943
:104D30000880D448B0F900000E9002F09BFED249E2
:104D40000F9002F0F7FECE490860CE48B0F902009D
:104D50000E9002F08FFECC490F9002F0EBFEC84996
:104D60004860C848B0F904000E9002F083FEC649BE
:104D70000F9002F0DFFEC24988601420319012E0EB
:104D8000319800EB4000C14901EB80013198401E91
:104D900000EB4000BD4A02EB80030DCB0DC1319802
:104DA000401E80B2319031980028E9DCB748B84BFA
:104DB0000ECB0EC0B748B0F900000E9002F05AFEBC
:104DC000B5490F9002F0B6FEB1490860B148B0F99C
:104DD00002000E9002F04EFEAF490F9002F0AAFEC4
:104DE000AB494860AB48B0F904000E9002F042FEB7
:104DF000A9490F9002F09EFEA54988600846806888
:104E00000890084680680790089902F093FE0A907F
:104E10009F48406806909E4840680590069902F0B9
:104E200089FE08909A4800680690994800680590A5
:104E3000069902F07FFE0790089902F095FC099010
:104E40000A9902F091FC0B9002F062FCCDE90C0192
:104E500001F010FECDE90E0101F0ECFE2F902F982D
:104E60002E90864A6C3207CA2BAB07C32D980C9044
:104E700001460B9002F05EFE0E902C980A900146BF
:104E8000099002F057FE0C902B980A900146099069
:104E900002F050FE0B900C9902F066FC0D900E99FA
:104EA00002F062FC0F9001F0F3FB2A902B980F9018
:104EB0002A9902F03FFE2B902C980F902A9902F02D
:104EC00039FE2C902D980F902A9902F033FE2D90E8
:104ED0006848D0F8A00001460F904FF0804002F0E3
:104EE00029FE1D906348D0F8A40001460F904FF0B2
:104EF000804002F01FFE1C905E48D0F8A8000146DA
:104F00000F904FF0804002F015FE1B905948D0F8EA
:104F1000AC0001460F904FF0804002F00BFE1A905B
:104F20005448D0F8A00001460F904FF0814002F0A5
:104F300001FE19904F48D0F8A40001460F904FF0A1
:104F4000814002F0F7FD18904A48D0F8A8000146C9
:104F50000F904FF0814002F0EDFD17904548D0F8DA
:104F6000A40001460F904FF0824002F0E3FD16903E
:104F70004048D0F8A80001460F904FF0824002F060
:104F8000D9FD15903B48D0F8A0000F903948D0F8D3
:104F9000A0000E900F9902F0CDFD14903548D0F886
:104FA000A4000F903348D0F8A4000E900F9902F09F
:104FB000C1FD13902F48D0F8A8000F902D48D0F8CD
:104FC000A8000E900F9902F0B5FD12902948D0F874
:104FD000AC000F902748D0F8AC000E900F9902F06B
:104FE000A9FD11902C9801460D901C9802F0A2FD8D
:104FF0000F901399199802F09DFD0D902B98014682
:1050000009901B9802F096FD0B901299199802F0E6
:1050100091FD0A900B9902F0A7FB0C900D9902F0FC
:10502000A3FB0E900F9902F0BDFE25902D9801462E
:105030000D90189802F07EFD0F901299169802F0CC
:1050400079FD0D901399169802F074FD0B902C9831
:10505000014606901D9802F06DFD08904FF08140CA
:10506000149902F067FD19E05808002080842E4151
:105070007800002010050020500600205C0700206A
:105080004C0800203C0000200AE81C3B6C06002075
:10509000600600203600002047237A3C0490FE483A
:1050A000D0F8A40001460390049802F043FD069056
:1050B0002B98014602901A9802F03CFD0490119939
:1050C000189802F037FD0390049902F06BFE0590EA
:1050D000069902F049FB0790089902F063FE0990D7
:1050E000189902F05FFE0A900B9902F03DFB0C90BC
:1050F0000D9902F039FB0E900F9902F035FB2490C8
:105100002D9801460D90179802F014FD0F901299FA
:10511000159802F00FFD0D901399159802F00AFDF5
:105120000B902C98014606901A9802F003FD089007
:105130001199179802F0FEFC06902B9801460290F8
:105140001D9802F0F7FC04904FF08140149902F092
:10515000F1FC0290D048D0F8A800014601900298D6
:1051600002F0E8FC0390049902F0FEFA059006991B
:1051700002F0FAFA0790089902F014FE09901799C4
:1051800002F010FE0A900B9902F0EEFA0C900D99C5
:1051900002F0EAFA0E900F9902F0E6FA23902C98AA
:1051A00001460D901B9802F0C5FC0F904FF0814016
:1051B000129902F0BFFC0B90B748D0F8A800014646
:1051C0000A900B9802F0B6FC0D902B9801460990BE
:1051D0001C9802F0AFFC0B904FF08140139902F045
:1051E000A9FC0990AC48D0F8AC0001460890099899
:1051F00002F0A0FC0A900B9902F0D4FD0C900D99DE
:1052000002F0B2FA0E900F9902F0CCFD2290229992
:10521000084602F08FFC0E902399084602F08AFCA3
:105220000C902499084602F085FC0A9025990846BE
:1052300002F080FC09900A9902F096FA0B900C9902
:1052400002F092FA0D900E9902F08EFA0F9001F092
:105250001FFA2A902A99259802F06CFC25902A9929
:10526000249802F067FC24902A99239802F062FCAB
:1052700023902A99229802F05DFC2290874A00210F
:105280002E9800F07BFF0E908548309902F052FC7A
:105290000D900E9902F04EFC82490F9002F064FAD4
:1052A0002990814A7F49299800F068FF29907A481F
:1052B000D0F8A8000C907848D0F8A0000B900C997A
:1052C00002F038FC0E907448D0F8AC000C90724894
:1052D000D0F8A4000B900C9902F02CFC0D900E99C4
:1052E00002F060FD4FF080410F9002F023FC6F4907
:1052F00008606948D0F8A4000C906748D0F8A00076
:105300000B900C9902F016FC0E906348D0F8AC009C
:105310000C906148D0F8A8000B900C9902F00AFCA0
:105320000D900E9902F020FA4FF080410F9002F09C
:1053300001FC5F4908605848D0F8A8000B90564817
:10534000D0F8A8000A900B9902F0F4FB0D90524897
:10535000D0F8A4000B905048D0F8A4000A900B9904
:1053600002F0E8FB0C900D9902F0FEF94FF080413D
:105370000E9002F0DFFB4FF07E510F9002F008FD1F
:105380004C4908602D980D90494801680D9802F02D
:10539000D1FB0F902C980D90464801680D9802F0B3
:1053A000C9FB0E900F9902F0FDFC28902B980D90F0
:1053B000404801680D9802F0BDFB0F902D980D90AC
:1053C0003A4801680D9802F0B5FB0E900F9902F073
:1053D000E9FC27902C980D90344801680D9802F054
:1053E000A9FB0F902B980D90314801680D9802F0A1
:1053F000A1FB0E900F9902F0D5FC26902E48016873
:10540000289802F097FB0E90309902F093FB0F90D2
:105410002A4801680F9802F0A7F928490860264831
:105420000168279802F086FB0E90309902F082FB0B
:105430000F90234801680F9802F096F92049086000
:105440001D480168269802F075FB0E90309902F015
:1054500071FB0F901B4801680F9802F085F91949FC
:10546000086019482899006802F064FB0F901748FB
:10547000006817490B9002F05DFB16490C9002F092
:10548000E7F90D900D4801680D9802F06DF90E9046
:105490000F9902F069F91FE0100500200000C843D1
:1054A000CDCC4C3D8FC2753C8FC2F53D88000020AD
:1054B0008C00002090000020740000207C00002060
:1054C0008000002084000020700000206006002082
:1054D000DA0F494000003443FE490860FE4827992E
:1054E000006802F027FB0F90FC484068FC490B90D5
:1054F00002F020FBFB490C9002F0AAF90D90FA484B
:1055000001680D9802F030F90E900F9902F02CF915
:10551000F0494860F0482699006802F00BFB0F90B4
:10552000EE488068EE490B9002F004FBED490C90C8
:1055300002F08EF90D90ED4801680D9802F014F913
:105540000E900F9902F010F9E249886008468068D1
:105550000C90E748C0680B900C9902F0EBFA0E90A3
:10556000DC4840680A90E248806809900A9902F095
:10557000E1FA0C90DE48406880F000400A90D5487F
:105580000068014609900A9802F0D4FA0B900C9931
:1055900002F008FC0D900E9902F004FC4FF07C51D3
:1055A0000F9002F0C7FA2190CA4840680C90D0488A
:1055B000C0680B900C9902F0BDFA0E90C548806847
:1055C0000A90CB48806809900A9902F0B3FA0C90CF
:1055D000C04800680A90C648006809900A9902F01D
:1055E000A9FA0B900C9902F0BFF80D900E9902F0F9
:1055F000D9FB4FF07C510F9002F09CFA2090B548F7
:1056000000680C90BA48C0680B900C9902F092FAAE
:105610000E90B04880680A90B548406809900A9991
:1056200002F088FA0C90AB4840680A90B0480068D5
:1056300009900A9902F07EFA0B900C9902F0B2FBE5
:105640000D900E9902F090F84FF07C510F9002F0FF
:1056500071FA1F909F4800680C90A54880680B90D5
:105660000C9902F067FA0E909A4840680A90A04898
:10567000406809900A9902F05DFA0C90954880689C
:105680000A909B48006809900A9902F053FA0B901F
:105690000C9902F069F80D900E9902F083FB4FF01F
:1056A0007C510F9002F046FA1E902599299802F03D
:1056B00041FA0F90219902F06BFB219024992998CF
:1056C00002F038FA0F90209902F062FB20902399A3
:1056D000299802F02FFA0F901F9902F059FB1F90A2
:1056E0002299299802F026FA0F901E9902F050FB99
:1056F0001E907848806801460B90309802F01AFAA4
:105700000D907448806801460B90309802F012FAB0
:105710000C900D9902F00EFA0F906E484068014609
:105720000990309802F006FA0B906A4840680146EA
:105730000990309802F0FEF90A900B9902F0FAF9FC
:105740000D906448006801460990309802F0F2F923
:105750000B906048006801460990309802F0EAF921
:105760000A900B9902F0E6F90C900D9901F0FCFFFC
:105770000E900F9901F0F8FF10903099219802F0E7
:10578000D9F94FF082410F90109802F061F84FF074
:105790007E510C9002F0FCFA0D90554800680146CD
:1057A0000C900D9802F0C6F90E900F9901F0DCFFF5
:1057B0004F4908603099209802F0BCF94FF08241BF
:1057C0000F90109802F044F84FF07E510C9002F0C8
:1057D000DFFA0D904648406801460C900D9802F0A3
:1057E000A9F90E900F9901F0BFFF41494860309927
:1057F0001F9802F09FF94FF082410F90109802F02D
:1058000027F84FF07E510C9002F0C2FA0D90384804
:10581000806801460C900D9802F08CF90E900F995B
:1058200001F0A2FF3249886030991E9802F082F997
:105830004FF082410F90109802F00AF84FF07E511D
:105840000C9002F0A5FA0D902948C06801460C9012
:105850000D9802F06FF90E900F9901F085FF244921
:10586000C8600846C0680C900846C0680B900C9948
:1058700002F060F90E901E4880680A901C4880680B
:1058800009900A9902F056F90C901948406808905E
:10589000174840680790089902F04CF90A9014489C
:1058A00000680890124800680790089902F042F9D1
:1058B00009900A9901F058FF0B900C9901F054FFE0
:1058C0000D900E9901F050FF0F9000F0E1FE2A902C
:1058D00007480FE0680800207000002060060020E4
:1058E000DA0F49400000344380000020840000208B
:1058F0005006002000680F902A9902F01BF9964983
:105900000860084640680F902A9902F013F99249FE
:105910004860084680680F902A9902F00BF98E497A
:1059200088600846C0680F902A9902F003F98A49F6
:10593000C86008468068014602904FF0804002F03F
:10594000F9F803908448806801460290039802F0B9
:10595000F1F8059080484068014602904FF04040C1
:1059600002F0E8F803907C484068014602900398F2
:1059700002F0E0F80490059902F014FA4FF07E511D
:10598000069001F0F1FE079001F0C2FECDE90A0198
:1059900071480068014603904FF0804002F0CAF859
:1059A00004906D48406801460390049802F0C2F8E4
:1059B000069069488068014603904FF0804002F0ED
:1059C000B9F804906448C06801460390049802F056
:1059D000B1F80590069901F0C7FE079001F098FE16
:1059E000CDE90801DDE90A2300F008FB4FF0804211
:1059F0005A4BCDE90C0101F0B1FBCDE90E0101F0EC
:105A000019F95749086054484068014605904FF01D
:105A1000804002F08FF806904F48C068014605901C
:105A2000069802F087F808904B48006801460590F8
:105A30004FF0804002F07EF80690474880680146AB
:105A40000590069802F076F80790089902F0AAF9F6
:105A5000099001F05DFECDE90A0100F087F84FF0F2
:105A600080423E4BCDE90C0101F078FBCDE90E01FF
:105A700001F0E0F83B490860374880680146029031
:105A80004FF0804002F056F803903348806801469A
:105A90000290039802F04EF805902F48C068014626
:105AA00002904FF0404002F045F803902A48C06849
:105AB00001460290039802F03DF80490059902F027
:105AC00071F94FF07E51069001F04EFE079001F003
:105AD0001FFECDE90A0120480068014603904FF0FF
